{
	"contracts/cursoDeSolidity/22_public, private, internal y external.sol": {
		"visibilityChild": {
			"abi": [
				{
					"inputs": [],
					"name": "externalFunction",
					"outputs": [
						{
							"internalType": "uint256",
							"name": "",
							"type": "uint256"
						}
					],
					"stateMutability": "pure",
					"type": "function"
				},
				{
					"inputs": [],
					"name": "myFunc",
					"outputs": [
						{
							"internalType": "uint256",
							"name": "",
							"type": "uint256"
						}
					],
					"stateMutability": "pure",
					"type": "function"
				},
				{
					"inputs": [],
					"name": "publicFunction",
					"outputs": [
						{
							"internalType": "uint256",
							"name": "",
							"type": "uint256"
						}
					],
					"stateMutability": "pure",
					"type": "function"
				},
				{
					"inputs": [],
					"name": "x",
					"outputs": [
						{
							"internalType": "uint256",
							"name": "",
							"type": "uint256"
						}
					],
					"stateMutability": "view",
					"type": "function"
				}
			],
			"devdoc": {
				"kind": "dev",
				"methods": {},
				"version": 1
			},
			"evm": {
				"assembly": "    /* \"contracts/cursoDeSolidity/22_public, private, internal y external.sol\":592:687  contract visibilityChild is visibility {... */\n  mstore(0x40, 0x80)\n    /* \"contracts/cursoDeSolidity/22_public, private, internal y external.sol\":182:183  0 */\n  0x00\n    /* \"contracts/cursoDeSolidity/22_public, private, internal y external.sol\":166:183  uint public x = 0 */\n  dup1\n  sstore\n    /* \"contracts/cursoDeSolidity/22_public, private, internal y external.sol\":207:209  11 */\n  0x0b\n    /* \"contracts/cursoDeSolidity/22_public, private, internal y external.sol\":190:209  uint private y = 11 */\n  0x01\n  sstore\n    /* \"contracts/cursoDeSolidity/22_public, private, internal y external.sol\":234:236  22 */\n  0x16\n    /* \"contracts/cursoDeSolidity/22_public, private, internal y external.sol\":216:236  uint internal z = 22 */\n  0x02\n  sstore\n    /* \"contracts/cursoDeSolidity/22_public, private, internal y external.sol\":592:687  contract visibilityChild is visibility {... */\n  callvalue\n  dup1\n  iszero\n  tag_1\n  jumpi\n  0x00\n  dup1\n  revert\ntag_1:\n  pop\n  dataSize(sub_0)\n  dup1\n  dataOffset(sub_0)\n  0x00\n  codecopy\n  0x00\n  return\nstop\n\nsub_0: assembly {\n        /* \"contracts/cursoDeSolidity/22_public, private, internal y external.sol\":592:687  contract visibilityChild is visibility {... */\n      mstore(0x40, 0x80)\n      callvalue\n      dup1\n      iszero\n      tag_1\n      jumpi\n      0x00\n      dup1\n      revert\n    tag_1:\n      pop\n      jumpi(tag_2, lt(calldatasize, 0x04))\n      shr(0xe0, calldataload(0x00))\n      dup1\n      0x0c55699c\n      eq\n      tag_3\n      jumpi\n      dup1\n      0x3a32b549\n      eq\n      tag_4\n      jumpi\n      dup1\n      0x7b5d520b\n      eq\n      tag_5\n      jumpi\n      dup1\n      0x7eed0172\n      eq\n      tag_6\n      jumpi\n    tag_2:\n      0x00\n      dup1\n      revert\n        /* \"contracts/cursoDeSolidity/22_public, private, internal y external.sol\":166:183  uint public x = 0 */\n    tag_3:\n      tag_7\n      tag_8\n      jump\t// in\n    tag_7:\n      mload(0x40)\n      tag_9\n      swap2\n      swap1\n      tag_10\n      jump\t// in\n    tag_9:\n      mload(0x40)\n      dup1\n      swap2\n      sub\n      swap1\n      return\n        /* \"contracts/cursoDeSolidity/22_public, private, internal y external.sol\":526:585  function externalFunction() external pure returns (uint) {} */\n    tag_4:\n      tag_11\n      tag_12\n      jump\t// in\n    tag_11:\n      mload(0x40)\n      tag_13\n      swap2\n      swap1\n      tag_10\n      jump\t// in\n    tag_13:\n      mload(0x40)\n      dup1\n      swap2\n      sub\n      swap1\n      return\n        /* \"contracts/cursoDeSolidity/22_public, private, internal y external.sol\":327:382  function publicFunction() public pure returns (uint) {} */\n    tag_5:\n      tag_14\n      tag_15\n      jump\t// in\n    tag_14:\n      mload(0x40)\n      tag_16\n      swap2\n      swap1\n      tag_10\n      jump\t// in\n    tag_16:\n      mload(0x40)\n      dup1\n      swap2\n      sub\n      swap1\n      return\n        /* \"contracts/cursoDeSolidity/22_public, private, internal y external.sol\":638:684  function myFunc() public pure returns(uint) {} */\n    tag_6:\n      tag_17\n      tag_18\n      jump\t// in\n    tag_17:\n      mload(0x40)\n      tag_19\n      swap2\n      swap1\n      tag_10\n      jump\t// in\n    tag_19:\n      mload(0x40)\n      dup1\n      swap2\n      sub\n      swap1\n      return\n        /* \"contracts/cursoDeSolidity/22_public, private, internal y external.sol\":166:183  uint public x = 0 */\n    tag_8:\n      sload(0x00)\n      dup2\n      jump\t// out\n        /* \"contracts/cursoDeSolidity/22_public, private, internal y external.sol\":526:585  function externalFunction() external pure returns (uint) {} */\n    tag_12:\n        /* \"contracts/cursoDeSolidity/22_public, private, internal y external.sol\":577:581  uint */\n      0x00\n        /* \"contracts/cursoDeSolidity/22_public, private, internal y external.sol\":526:585  function externalFunction() external pure returns (uint) {} */\n      swap1\n      jump\t// out\n        /* \"contracts/cursoDeSolidity/22_public, private, internal y external.sol\":327:382  function publicFunction() public pure returns (uint) {} */\n    tag_15:\n        /* \"contracts/cursoDeSolidity/22_public, private, internal y external.sol\":374:378  uint */\n      0x00\n        /* \"contracts/cursoDeSolidity/22_public, private, internal y external.sol\":327:382  function publicFunction() public pure returns (uint) {} */\n      swap1\n      jump\t// out\n        /* \"contracts/cursoDeSolidity/22_public, private, internal y external.sol\":638:684  function myFunc() public pure returns(uint) {} */\n    tag_18:\n        /* \"contracts/cursoDeSolidity/22_public, private, internal y external.sol\":676:680  uint */\n      0x00\n        /* \"contracts/cursoDeSolidity/22_public, private, internal y external.sol\":638:684  function myFunc() public pure returns(uint) {} */\n      swap1\n      jump\t// out\n        /* \"#utility.yul\":7:84   */\n    tag_23:\n        /* \"#utility.yul\":44:51   */\n      0x00\n        /* \"#utility.yul\":73:78   */\n      dup2\n        /* \"#utility.yul\":62:78   */\n      swap1\n      pop\n        /* \"#utility.yul\":7:84   */\n      swap2\n      swap1\n      pop\n      jump\t// out\n        /* \"#utility.yul\":90:208   */\n    tag_24:\n        /* \"#utility.yul\":177:201   */\n      tag_28\n        /* \"#utility.yul\":195:200   */\n      dup2\n        /* \"#utility.yul\":177:201   */\n      tag_23\n      jump\t// in\n    tag_28:\n        /* \"#utility.yul\":172:175   */\n      dup3\n        /* \"#utility.yul\":165:202   */\n      mstore\n        /* \"#utility.yul\":90:208   */\n      pop\n      pop\n      jump\t// out\n        /* \"#utility.yul\":214:436   */\n    tag_10:\n        /* \"#utility.yul\":307:311   */\n      0x00\n        /* \"#utility.yul\":345:347   */\n      0x20\n        /* \"#utility.yul\":334:343   */\n      dup3\n        /* \"#utility.yul\":330:348   */\n      add\n        /* \"#utility.yul\":322:348   */\n      swap1\n      pop\n        /* \"#utility.yul\":358:429   */\n      tag_30\n        /* \"#utility.yul\":426:427   */\n      0x00\n        /* \"#utility.yul\":415:424   */\n      dup4\n        /* \"#utility.yul\":411:428   */\n      add\n        /* \"#utility.yul\":402:408   */\n      dup5\n        /* \"#utility.yul\":358:429   */\n      tag_24\n      jump\t// in\n    tag_30:\n        /* \"#utility.yul\":214:436   */\n      swap3\n      swap2\n      pop\n      pop\n      jump\t// out\n\n    auxdata: 0xa2646970667358221220717291eb7283cc52fd19433c66312c15a748b0de2188269f724d97735a4b112364736f6c634300081a0033\n}\n",
				"bytecode": {
					"linkReferences": {},
					"object": "60806040525f8055600b6001556016600255348015601b575f80fd5b50610124806100295f395ff3fe6080604052348015600e575f80fd5b50600436106044575f3560e01c80630c55699c1460485780633a32b5491460625780637b5d520b14607c5780637eed0172146096575b5f80fd5b604e60b0565b6040516059919060d7565b60405180910390f35b606860b5565b6040516073919060d7565b60405180910390f35b608260b9565b604051608d919060d7565b60405180910390f35b609c60bd565b60405160a7919060d7565b60405180910390f35b5f5481565b5f90565b5f90565b5f90565b5f819050919050565b60d18160c1565b82525050565b5f60208201905060e85f83018460ca565b9291505056fea2646970667358221220717291eb7283cc52fd19433c66312c15a748b0de2188269f724d97735a4b112364736f6c634300081a0033",
					"opcodes": "PUSH1 0x80 PUSH1 0x40 MSTORE PUSH0 DUP1 SSTORE PUSH1 0xB PUSH1 0x1 SSTORE PUSH1 0x16 PUSH1 0x2 SSTORE CALLVALUE DUP1 ISZERO PUSH1 0x1B JUMPI PUSH0 DUP1 REVERT JUMPDEST POP PUSH2 0x124 DUP1 PUSH2 0x29 PUSH0 CODECOPY PUSH0 RETURN INVALID PUSH1 0x80 PUSH1 0x40 MSTORE CALLVALUE DUP1 ISZERO PUSH1 0xE JUMPI PUSH0 DUP1 REVERT JUMPDEST POP PUSH1 0x4 CALLDATASIZE LT PUSH1 0x44 JUMPI PUSH0 CALLDATALOAD PUSH1 0xE0 SHR DUP1 PUSH4 0xC55699C EQ PUSH1 0x48 JUMPI DUP1 PUSH4 0x3A32B549 EQ PUSH1 0x62 JUMPI DUP1 PUSH4 0x7B5D520B EQ PUSH1 0x7C JUMPI DUP1 PUSH4 0x7EED0172 EQ PUSH1 0x96 JUMPI JUMPDEST PUSH0 DUP1 REVERT JUMPDEST PUSH1 0x4E PUSH1 0xB0 JUMP JUMPDEST PUSH1 0x40 MLOAD PUSH1 0x59 SWAP2 SWAP1 PUSH1 0xD7 JUMP JUMPDEST PUSH1 0x40 MLOAD DUP1 SWAP2 SUB SWAP1 RETURN JUMPDEST PUSH1 0x68 PUSH1 0xB5 JUMP JUMPDEST PUSH1 0x40 MLOAD PUSH1 0x73 SWAP2 SWAP1 PUSH1 0xD7 JUMP JUMPDEST PUSH1 0x40 MLOAD DUP1 SWAP2 SUB SWAP1 RETURN JUMPDEST PUSH1 0x82 PUSH1 0xB9 JUMP JUMPDEST PUSH1 0x40 MLOAD PUSH1 0x8D SWAP2 SWAP1 PUSH1 0xD7 JUMP JUMPDEST PUSH1 0x40 MLOAD DUP1 SWAP2 SUB SWAP1 RETURN JUMPDEST PUSH1 0x9C PUSH1 0xBD JUMP JUMPDEST PUSH1 0x40 MLOAD PUSH1 0xA7 SWAP2 SWAP1 PUSH1 0xD7 JUMP JUMPDEST PUSH1 0x40 MLOAD DUP1 SWAP2 SUB SWAP1 RETURN JUMPDEST PUSH0 SLOAD DUP2 JUMP JUMPDEST PUSH0 SWAP1 JUMP JUMPDEST PUSH0 SWAP1 JUMP JUMPDEST PUSH0 SWAP1 JUMP JUMPDEST PUSH0 DUP2 SWAP1 POP SWAP2 SWAP1 POP JUMP JUMPDEST PUSH1 0xD1 DUP2 PUSH1 0xC1 JUMP JUMPDEST DUP3 MSTORE POP POP JUMP JUMPDEST PUSH0 PUSH1 0x20 DUP3 ADD SWAP1 POP PUSH1 0xE8 PUSH0 DUP4 ADD DUP5 PUSH1 0xCA JUMP JUMPDEST SWAP3 SWAP2 POP POP JUMP INVALID LOG2 PUSH5 0x6970667358 0x22 SLT KECCAK256 PUSH18 0x7291EB7283CC52FD19433C66312C15A748B0 0xDE 0x21 DUP9 0x26 SWAP16 PUSH19 0x4D97735A4B112364736F6C634300081A003300 "
				},
				"gasEstimates": {
					"creation": {
						"codeDepositCost": "58400",
						"executionCost": "49326",
						"totalCost": "107726"
					},
					"external": {
						"externalFunction()": "324",
						"myFunc()": "368",
						"publicFunction()": "346",
						"x()": "2402"
					}
				},
				"methodIdentifiers": {
					"externalFunction()": "3a32b549",
					"myFunc()": "7eed0172",
					"publicFunction()": "7b5d520b",
					"x()": "0c55699c"
				}
			},
			"storageLayout": {
				"storage": [
					{
						"astId": 4,
						"contract": "contracts/cursoDeSolidity/22_public, private, internal y external.sol:visibilityChild",
						"label": "x",
						"offset": 0,
						"slot": "0",
						"type": "t_uint256"
					},
					{
						"astId": 7,
						"contract": "contracts/cursoDeSolidity/22_public, private, internal y external.sol:visibilityChild",
						"label": "y",
						"offset": 0,
						"slot": "1",
						"type": "t_uint256"
					},
					{
						"astId": 10,
						"contract": "contracts/cursoDeSolidity/22_public, private, internal y external.sol:visibilityChild",
						"label": "z",
						"offset": 0,
						"slot": "2",
						"type": "t_uint256"
					}
				],
				"types": {
					"t_uint256": {
						"encoding": "inplace",
						"label": "uint256",
						"numberOfBytes": "32"
					}
				}
			},
			"userdoc": {
				"kind": "user",
				"methods": {},
				"version": 1
			}
		}
	}
}