{
	"contracts/cursoDeSolidity/28_lowLevelCall.sol": {
		"myContract": {
			"abi": [
				{
					"inputs": [],
					"name": "etherSent",
					"outputs": [
						{
							"internalType": "uint256",
							"name": "",
							"type": "uint256"
						}
					],
					"stateMutability": "view",
					"type": "function"
				},
				{
					"inputs": [],
					"name": "getMyNumber",
					"outputs": [
						{
							"internalType": "uint256",
							"name": "",
							"type": "uint256"
						}
					],
					"stateMutability": "view",
					"type": "function"
				},
				{
					"inputs": [],
					"name": "getMyNumberAndEtherSent",
					"outputs": [
						{
							"internalType": "uint256",
							"name": "",
							"type": "uint256"
						},
						{
							"internalType": "uint256",
							"name": "",
							"type": "uint256"
						}
					],
					"stateMutability": "view",
					"type": "function"
				},
				{
					"inputs": [],
					"name": "myNumber",
					"outputs": [
						{
							"internalType": "uint256",
							"name": "",
							"type": "uint256"
						}
					],
					"stateMutability": "view",
					"type": "function"
				},
				{
					"inputs": [
						{
							"internalType": "uint256",
							"name": "_newNumber",
							"type": "uint256"
						}
					],
					"name": "setMyNumber",
					"outputs": [],
					"stateMutability": "nonpayable",
					"type": "function"
				},
				{
					"inputs": [
						{
							"internalType": "uint256",
							"name": "_newNumber",
							"type": "uint256"
						}
					],
					"name": "setMyNumberAndReceiveEther",
					"outputs": [],
					"stateMutability": "payable",
					"type": "function"
				}
			],
			"devdoc": {
				"kind": "dev",
				"methods": {},
				"version": 1
			},
			"evm": {
				"assembly": "    /* \"contracts/cursoDeSolidity/28_lowLevelCall.sol\":771:1318  contract myContract {... */\n  mstore(0x40, 0x80)\n    /* \"contracts/cursoDeSolidity/28_lowLevelCall.sol\":849:852  123 */\n  0x7b\n    /* \"contracts/cursoDeSolidity/28_lowLevelCall.sol\":825:852  uint public etherSent = 123 */\n  0x01\n  sstore\n    /* \"contracts/cursoDeSolidity/28_lowLevelCall.sol\":771:1318  contract myContract {... */\n  callvalue\n  dup1\n  iszero\n  tag_1\n  jumpi\n  0x00\n  dup1\n  revert\ntag_1:\n  pop\n  dataSize(sub_0)\n  dup1\n  dataOffset(sub_0)\n  0x00\n  codecopy\n  0x00\n  return\nstop\n\nsub_0: assembly {\n        /* \"contracts/cursoDeSolidity/28_lowLevelCall.sol\":771:1318  contract myContract {... */\n      mstore(0x40, 0x80)\n      jumpi(tag_1, lt(calldatasize, 0x04))\n      shr(0xe0, calldataload(0x00))\n      dup1\n      0x23fd0e40\n      eq\n      tag_2\n      jumpi\n      dup1\n      0x2c3c6b23\n      eq\n      tag_3\n      jumpi\n      dup1\n      0x6ffd773c\n      eq\n      tag_4\n      jumpi\n      dup1\n      0xb32e737f\n      eq\n      tag_5\n      jumpi\n      dup1\n      0xcc0335e1\n      eq\n      tag_6\n      jumpi\n      dup1\n      0xcf49552e\n      eq\n      tag_7\n      jumpi\n    tag_1:\n      0x00\n      dup1\n      revert\n        /* \"contracts/cursoDeSolidity/28_lowLevelCall.sol\":798:818  uint public myNumber */\n    tag_2:\n      callvalue\n      dup1\n      iszero\n      tag_8\n      jumpi\n      0x00\n      dup1\n      revert\n    tag_8:\n      pop\n      tag_9\n      tag_10\n      jump\t// in\n    tag_9:\n      mload(0x40)\n      tag_11\n      swap2\n      swap1\n      tag_12\n      jump\t// in\n    tag_11:\n      mload(0x40)\n      dup1\n      swap2\n      sub\n      swap1\n      return\n        /* \"contracts/cursoDeSolidity/28_lowLevelCall.sol\":1200:1315  function getMyNumberAndEtherSent() external view returns(uint, uint) {... */\n    tag_3:\n      callvalue\n      dup1\n      iszero\n      tag_13\n      jumpi\n      0x00\n      dup1\n      revert\n    tag_13:\n      pop\n      tag_14\n      tag_15\n      jump\t// in\n    tag_14:\n      mload(0x40)\n      tag_16\n      swap3\n      swap2\n      swap1\n      tag_17\n      jump\t// in\n    tag_16:\n      mload(0x40)\n      dup1\n      swap2\n      sub\n      swap1\n      return\n        /* \"contracts/cursoDeSolidity/28_lowLevelCall.sol\":861:949  function setMyNumber(uint _newNumber) external  {... */\n    tag_4:\n      callvalue\n      dup1\n      iszero\n      tag_18\n      jumpi\n      0x00\n      dup1\n      revert\n    tag_18:\n      pop\n      tag_19\n      0x04\n      dup1\n      calldatasize\n      sub\n      dup2\n      add\n      swap1\n      tag_20\n      swap2\n      swap1\n      tag_21\n      jump\t// in\n    tag_20:\n      tag_22\n      jump\t// in\n    tag_19:\n      stop\n        /* \"contracts/cursoDeSolidity/28_lowLevelCall.sol\":957:1042  function getMyNumber() external view returns(uint) {... */\n    tag_5:\n      callvalue\n      dup1\n      iszero\n      tag_23\n      jumpi\n      0x00\n      dup1\n      revert\n    tag_23:\n      pop\n      tag_24\n      tag_25\n      jump\t// in\n    tag_24:\n      mload(0x40)\n      tag_26\n      swap2\n      swap1\n      tag_12\n      jump\t// in\n    tag_26:\n      mload(0x40)\n      dup1\n      swap2\n      sub\n      swap1\n      return\n        /* \"contracts/cursoDeSolidity/28_lowLevelCall.sol\":825:852  uint public etherSent = 123 */\n    tag_6:\n      callvalue\n      dup1\n      iszero\n      tag_27\n      jumpi\n      0x00\n      dup1\n      revert\n    tag_27:\n      pop\n      tag_28\n      tag_29\n      jump\t// in\n    tag_28:\n      mload(0x40)\n      tag_30\n      swap2\n      swap1\n      tag_12\n      jump\t// in\n    tag_30:\n      mload(0x40)\n      dup1\n      swap2\n      sub\n      swap1\n      return\n        /* \"contracts/cursoDeSolidity/28_lowLevelCall.sol\":1050:1192  function setMyNumberAndReceiveEther(uint _newNumber) external payable {... */\n    tag_7:\n      tag_31\n      0x04\n      dup1\n      calldatasize\n      sub\n      dup2\n      add\n      swap1\n      tag_32\n      swap2\n      swap1\n      tag_21\n      jump\t// in\n    tag_32:\n      tag_33\n      jump\t// in\n    tag_31:\n      stop\n        /* \"contracts/cursoDeSolidity/28_lowLevelCall.sol\":798:818  uint public myNumber */\n    tag_10:\n      sload(0x00)\n      dup2\n      jump\t// out\n        /* \"contracts/cursoDeSolidity/28_lowLevelCall.sol\":1200:1315  function getMyNumberAndEtherSent() external view returns(uint, uint) {... */\n    tag_15:\n        /* \"contracts/cursoDeSolidity/28_lowLevelCall.sol\":1257:1261  uint */\n      0x00\n        /* \"contracts/cursoDeSolidity/28_lowLevelCall.sol\":1263:1267  uint */\n      dup1\n        /* \"contracts/cursoDeSolidity/28_lowLevelCall.sol\":1287:1295  myNumber */\n      sload(0x00)\n        /* \"contracts/cursoDeSolidity/28_lowLevelCall.sol\":1297:1306  etherSent */\n      sload(0x01)\n        /* \"contracts/cursoDeSolidity/28_lowLevelCall.sol\":1280:1307  return(myNumber, etherSent) */\n      swap2\n      pop\n      swap2\n      pop\n        /* \"contracts/cursoDeSolidity/28_lowLevelCall.sol\":1200:1315  function getMyNumberAndEtherSent() external view returns(uint, uint) {... */\n      swap1\n      swap2\n      jump\t// out\n        /* \"contracts/cursoDeSolidity/28_lowLevelCall.sol\":861:949  function setMyNumber(uint _newNumber) external  {... */\n    tag_22:\n        /* \"contracts/cursoDeSolidity/28_lowLevelCall.sol\":931:941  _newNumber */\n      dup1\n        /* \"contracts/cursoDeSolidity/28_lowLevelCall.sol\":920:928  myNumber */\n      0x00\n        /* \"contracts/cursoDeSolidity/28_lowLevelCall.sol\":920:941  myNumber = _newNumber */\n      dup2\n      swap1\n      sstore\n      pop\n        /* \"contracts/cursoDeSolidity/28_lowLevelCall.sol\":861:949  function setMyNumber(uint _newNumber) external  {... */\n      pop\n      jump\t// out\n        /* \"contracts/cursoDeSolidity/28_lowLevelCall.sol\":957:1042  function getMyNumber() external view returns(uint) {... */\n    tag_25:\n        /* \"contracts/cursoDeSolidity/28_lowLevelCall.sol\":1002:1006  uint */\n      0x00\n        /* \"contracts/cursoDeSolidity/28_lowLevelCall.sol\":1026:1034  myNumber */\n      dup1\n      sload\n        /* \"contracts/cursoDeSolidity/28_lowLevelCall.sol\":1019:1034  return myNumber */\n      swap1\n      pop\n        /* \"contracts/cursoDeSolidity/28_lowLevelCall.sol\":957:1042  function getMyNumber() external view returns(uint) {... */\n      swap1\n      jump\t// out\n        /* \"contracts/cursoDeSolidity/28_lowLevelCall.sol\":825:852  uint public etherSent = 123 */\n    tag_29:\n      sload(0x01)\n      dup2\n      jump\t// out\n        /* \"contracts/cursoDeSolidity/28_lowLevelCall.sol\":1050:1192  function setMyNumberAndReceiveEther(uint _newNumber) external payable {... */\n    tag_33:\n        /* \"contracts/cursoDeSolidity/28_lowLevelCall.sol\":1142:1152  _newNumber */\n      dup1\n        /* \"contracts/cursoDeSolidity/28_lowLevelCall.sol\":1131:1139  myNumber */\n      0x00\n        /* \"contracts/cursoDeSolidity/28_lowLevelCall.sol\":1131:1152  myNumber = _newNumber */\n      dup2\n      swap1\n      sstore\n      pop\n        /* \"contracts/cursoDeSolidity/28_lowLevelCall.sol\":1175:1184  msg.value */\n      callvalue\n        /* \"contracts/cursoDeSolidity/28_lowLevelCall.sol\":1163:1172  etherSent */\n      0x01\n        /* \"contracts/cursoDeSolidity/28_lowLevelCall.sol\":1163:1184  etherSent = msg.value */\n      dup2\n      swap1\n      sstore\n      pop\n        /* \"contracts/cursoDeSolidity/28_lowLevelCall.sol\":1050:1192  function setMyNumberAndReceiveEther(uint _newNumber) external payable {... */\n      pop\n      jump\t// out\n        /* \"#utility.yul\":7:84   */\n    tag_38:\n        /* \"#utility.yul\":44:51   */\n      0x00\n        /* \"#utility.yul\":73:78   */\n      dup2\n        /* \"#utility.yul\":62:78   */\n      swap1\n      pop\n        /* \"#utility.yul\":7:84   */\n      swap2\n      swap1\n      pop\n      jump\t// out\n        /* \"#utility.yul\":90:208   */\n    tag_39:\n        /* \"#utility.yul\":177:201   */\n      tag_48\n        /* \"#utility.yul\":195:200   */\n      dup2\n        /* \"#utility.yul\":177:201   */\n      tag_38\n      jump\t// in\n    tag_48:\n        /* \"#utility.yul\":172:175   */\n      dup3\n        /* \"#utility.yul\":165:202   */\n      mstore\n        /* \"#utility.yul\":90:208   */\n      pop\n      pop\n      jump\t// out\n        /* \"#utility.yul\":214:436   */\n    tag_12:\n        /* \"#utility.yul\":307:311   */\n      0x00\n        /* \"#utility.yul\":345:347   */\n      0x20\n        /* \"#utility.yul\":334:343   */\n      dup3\n        /* \"#utility.yul\":330:348   */\n      add\n        /* \"#utility.yul\":322:348   */\n      swap1\n      pop\n        /* \"#utility.yul\":358:429   */\n      tag_50\n        /* \"#utility.yul\":426:427   */\n      0x00\n        /* \"#utility.yul\":415:424   */\n      dup4\n        /* \"#utility.yul\":411:428   */\n      add\n        /* \"#utility.yul\":402:408   */\n      dup5\n        /* \"#utility.yul\":358:429   */\n      tag_39\n      jump\t// in\n    tag_50:\n        /* \"#utility.yul\":214:436   */\n      swap3\n      swap2\n      pop\n      pop\n      jump\t// out\n        /* \"#utility.yul\":442:774   */\n    tag_17:\n        /* \"#utility.yul\":563:567   */\n      0x00\n        /* \"#utility.yul\":601:603   */\n      0x40\n        /* \"#utility.yul\":590:599   */\n      dup3\n        /* \"#utility.yul\":586:604   */\n      add\n        /* \"#utility.yul\":578:604   */\n      swap1\n      pop\n        /* \"#utility.yul\":614:685   */\n      tag_52\n        /* \"#utility.yul\":682:683   */\n      0x00\n        /* \"#utility.yul\":671:680   */\n      dup4\n        /* \"#utility.yul\":667:684   */\n      add\n        /* \"#utility.yul\":658:664   */\n      dup6\n        /* \"#utility.yul\":614:685   */\n      tag_39\n      jump\t// in\n    tag_52:\n        /* \"#utility.yul\":695:767   */\n      tag_53\n        /* \"#utility.yul\":763:765   */\n      0x20\n        /* \"#utility.yul\":752:761   */\n      dup4\n        /* \"#utility.yul\":748:766   */\n      add\n        /* \"#utility.yul\":739:745   */\n      dup5\n        /* \"#utility.yul\":695:767   */\n      tag_39\n      jump\t// in\n    tag_53:\n        /* \"#utility.yul\":442:774   */\n      swap4\n      swap3\n      pop\n      pop\n      pop\n      jump\t// out\n        /* \"#utility.yul\":861:978   */\n    tag_41:\n        /* \"#utility.yul\":970:971   */\n      0x00\n        /* \"#utility.yul\":967:968   */\n      dup1\n        /* \"#utility.yul\":960:972   */\n      revert\n        /* \"#utility.yul\":1107:1229   */\n    tag_43:\n        /* \"#utility.yul\":1180:1204   */\n      tag_58\n        /* \"#utility.yul\":1198:1203   */\n      dup2\n        /* \"#utility.yul\":1180:1204   */\n      tag_38\n      jump\t// in\n    tag_58:\n        /* \"#utility.yul\":1173:1178   */\n      dup2\n        /* \"#utility.yul\":1170:1205   */\n      eq\n        /* \"#utility.yul\":1160:1223   */\n      tag_59\n      jumpi\n        /* \"#utility.yul\":1219:1220   */\n      0x00\n        /* \"#utility.yul\":1216:1217   */\n      dup1\n        /* \"#utility.yul\":1209:1221   */\n      revert\n        /* \"#utility.yul\":1160:1223   */\n    tag_59:\n        /* \"#utility.yul\":1107:1229   */\n      pop\n      jump\t// out\n        /* \"#utility.yul\":1235:1374   */\n    tag_44:\n        /* \"#utility.yul\":1281:1286   */\n      0x00\n        /* \"#utility.yul\":1319:1325   */\n      dup2\n        /* \"#utility.yul\":1306:1326   */\n      calldataload\n        /* \"#utility.yul\":1297:1326   */\n      swap1\n      pop\n        /* \"#utility.yul\":1335:1368   */\n      tag_61\n        /* \"#utility.yul\":1362:1367   */\n      dup2\n        /* \"#utility.yul\":1335:1368   */\n      tag_43\n      jump\t// in\n    tag_61:\n        /* \"#utility.yul\":1235:1374   */\n      swap3\n      swap2\n      pop\n      pop\n      jump\t// out\n        /* \"#utility.yul\":1380:1709   */\n    tag_21:\n        /* \"#utility.yul\":1439:1445   */\n      0x00\n        /* \"#utility.yul\":1488:1490   */\n      0x20\n        /* \"#utility.yul\":1476:1485   */\n      dup3\n        /* \"#utility.yul\":1467:1474   */\n      dup5\n        /* \"#utility.yul\":1463:1486   */\n      sub\n        /* \"#utility.yul\":1459:1491   */\n      slt\n        /* \"#utility.yul\":1456:1575   */\n      iszero\n      tag_63\n      jumpi\n        /* \"#utility.yul\":1494:1573   */\n      tag_64\n      tag_41\n      jump\t// in\n    tag_64:\n        /* \"#utility.yul\":1456:1575   */\n    tag_63:\n        /* \"#utility.yul\":1614:1615   */\n      0x00\n        /* \"#utility.yul\":1639:1692   */\n      tag_65\n        /* \"#utility.yul\":1684:1691   */\n      dup5\n        /* \"#utility.yul\":1675:1681   */\n      dup3\n        /* \"#utility.yul\":1664:1673   */\n      dup6\n        /* \"#utility.yul\":1660:1682   */\n      add\n        /* \"#utility.yul\":1639:1692   */\n      tag_44\n      jump\t// in\n    tag_65:\n        /* \"#utility.yul\":1629:1692   */\n      swap2\n      pop\n        /* \"#utility.yul\":1585:1702   */\n      pop\n        /* \"#utility.yul\":1380:1709   */\n      swap3\n      swap2\n      pop\n      pop\n      jump\t// out\n\n    auxdata: 0xa26469706673582212205a8c93da0f1eda1cb441314e788d0304482a96c5b5e22d3d67caec6c7d7d58a764736f6c634300081a0033\n}\n",
				"bytecode": {
					"linkReferences": {},
					"object": "6080604052607b6001553480156013575f80fd5b50610267806100215f395ff3fe608060405260043610610054575f3560e01c806323fd0e40146100585780632c3c6b23146100825780636ffd773c146100ad578063b32e737f146100d5578063cc0335e1146100ff578063cf49552e14610129575b5f80fd5b348015610063575f80fd5b5061006c610145565b6040516100799190610198565b60405180910390f35b34801561008d575f80fd5b5061009661014a565b6040516100a49291906101b1565b60405180910390f35b3480156100b8575f80fd5b506100d360048036038101906100ce9190610206565b610159565b005b3480156100e0575f80fd5b506100e9610162565b6040516100f69190610198565b60405180910390f35b34801561010a575f80fd5b5061011361016a565b6040516101209190610198565b60405180910390f35b610143600480360381019061013e9190610206565b610170565b005b5f5481565b5f805f54600154915091509091565b805f8190555050565b5f8054905090565b60015481565b805f819055503460018190555050565b5f819050919050565b61019281610180565b82525050565b5f6020820190506101ab5f830184610189565b92915050565b5f6040820190506101c45f830185610189565b6101d16020830184610189565b9392505050565b5f80fd5b6101e581610180565b81146101ef575f80fd5b50565b5f81359050610200816101dc565b92915050565b5f6020828403121561021b5761021a6101d8565b5b5f610228848285016101f2565b9150509291505056fea26469706673582212205a8c93da0f1eda1cb441314e788d0304482a96c5b5e22d3d67caec6c7d7d58a764736f6c634300081a0033",
					"opcodes": "PUSH1 0x80 PUSH1 0x40 MSTORE PUSH1 0x7B PUSH1 0x1 SSTORE CALLVALUE DUP1 ISZERO PUSH1 0x13 JUMPI PUSH0 DUP1 REVERT JUMPDEST POP PUSH2 0x267 DUP1 PUSH2 0x21 PUSH0 CODECOPY PUSH0 RETURN INVALID PUSH1 0x80 PUSH1 0x40 MSTORE PUSH1 0x4 CALLDATASIZE LT PUSH2 0x54 JUMPI PUSH0 CALLDATALOAD PUSH1 0xE0 SHR DUP1 PUSH4 0x23FD0E40 EQ PUSH2 0x58 JUMPI DUP1 PUSH4 0x2C3C6B23 EQ PUSH2 0x82 JUMPI DUP1 PUSH4 0x6FFD773C EQ PUSH2 0xAD JUMPI DUP1 PUSH4 0xB32E737F EQ PUSH2 0xD5 JUMPI DUP1 PUSH4 0xCC0335E1 EQ PUSH2 0xFF JUMPI DUP1 PUSH4 0xCF49552E EQ PUSH2 0x129 JUMPI JUMPDEST PUSH0 DUP1 REVERT JUMPDEST CALLVALUE DUP1 ISZERO PUSH2 0x63 JUMPI PUSH0 DUP1 REVERT JUMPDEST POP PUSH2 0x6C PUSH2 0x145 JUMP JUMPDEST PUSH1 0x40 MLOAD PUSH2 0x79 SWAP2 SWAP1 PUSH2 0x198 JUMP JUMPDEST PUSH1 0x40 MLOAD DUP1 SWAP2 SUB SWAP1 RETURN JUMPDEST CALLVALUE DUP1 ISZERO PUSH2 0x8D JUMPI PUSH0 DUP1 REVERT JUMPDEST POP PUSH2 0x96 PUSH2 0x14A JUMP JUMPDEST PUSH1 0x40 MLOAD PUSH2 0xA4 SWAP3 SWAP2 SWAP1 PUSH2 0x1B1 JUMP JUMPDEST PUSH1 0x40 MLOAD DUP1 SWAP2 SUB SWAP1 RETURN JUMPDEST CALLVALUE DUP1 ISZERO PUSH2 0xB8 JUMPI PUSH0 DUP1 REVERT JUMPDEST POP PUSH2 0xD3 PUSH1 0x4 DUP1 CALLDATASIZE SUB DUP2 ADD SWAP1 PUSH2 0xCE SWAP2 SWAP1 PUSH2 0x206 JUMP JUMPDEST PUSH2 0x159 JUMP JUMPDEST STOP JUMPDEST CALLVALUE DUP1 ISZERO PUSH2 0xE0 JUMPI PUSH0 DUP1 REVERT JUMPDEST POP PUSH2 0xE9 PUSH2 0x162 JUMP JUMPDEST PUSH1 0x40 MLOAD PUSH2 0xF6 SWAP2 SWAP1 PUSH2 0x198 JUMP JUMPDEST PUSH1 0x40 MLOAD DUP1 SWAP2 SUB SWAP1 RETURN JUMPDEST CALLVALUE DUP1 ISZERO PUSH2 0x10A JUMPI PUSH0 DUP1 REVERT JUMPDEST POP PUSH2 0x113 PUSH2 0x16A JUMP JUMPDEST PUSH1 0x40 MLOAD PUSH2 0x120 SWAP2 SWAP1 PUSH2 0x198 JUMP JUMPDEST PUSH1 0x40 MLOAD DUP1 SWAP2 SUB SWAP1 RETURN JUMPDEST PUSH2 0x143 PUSH1 0x4 DUP1 CALLDATASIZE SUB DUP2 ADD SWAP1 PUSH2 0x13E SWAP2 SWAP1 PUSH2 0x206 JUMP JUMPDEST PUSH2 0x170 JUMP JUMPDEST STOP JUMPDEST PUSH0 SLOAD DUP2 JUMP JUMPDEST PUSH0 DUP1 PUSH0 SLOAD PUSH1 0x1 SLOAD SWAP2 POP SWAP2 POP SWAP1 SWAP2 JUMP JUMPDEST DUP1 PUSH0 DUP2 SWAP1 SSTORE POP POP JUMP JUMPDEST PUSH0 DUP1 SLOAD SWAP1 POP SWAP1 JUMP JUMPDEST PUSH1 0x1 SLOAD DUP2 JUMP JUMPDEST DUP1 PUSH0 DUP2 SWAP1 SSTORE POP CALLVALUE PUSH1 0x1 DUP2 SWAP1 SSTORE POP POP JUMP JUMPDEST PUSH0 DUP2 SWAP1 POP SWAP2 SWAP1 POP JUMP JUMPDEST PUSH2 0x192 DUP2 PUSH2 0x180 JUMP JUMPDEST DUP3 MSTORE POP POP JUMP JUMPDEST PUSH0 PUSH1 0x20 DUP3 ADD SWAP1 POP PUSH2 0x1AB PUSH0 DUP4 ADD DUP5 PUSH2 0x189 JUMP JUMPDEST SWAP3 SWAP2 POP POP JUMP JUMPDEST PUSH0 PUSH1 0x40 DUP3 ADD SWAP1 POP PUSH2 0x1C4 PUSH0 DUP4 ADD DUP6 PUSH2 0x189 JUMP JUMPDEST PUSH2 0x1D1 PUSH1 0x20 DUP4 ADD DUP5 PUSH2 0x189 JUMP JUMPDEST SWAP4 SWAP3 POP POP POP JUMP JUMPDEST PUSH0 DUP1 REVERT JUMPDEST PUSH2 0x1E5 DUP2 PUSH2 0x180 JUMP JUMPDEST DUP2 EQ PUSH2 0x1EF JUMPI PUSH0 DUP1 REVERT JUMPDEST POP JUMP JUMPDEST PUSH0 DUP2 CALLDATALOAD SWAP1 POP PUSH2 0x200 DUP2 PUSH2 0x1DC JUMP JUMPDEST SWAP3 SWAP2 POP POP JUMP JUMPDEST PUSH0 PUSH1 0x20 DUP3 DUP5 SUB SLT ISZERO PUSH2 0x21B JUMPI PUSH2 0x21A PUSH2 0x1D8 JUMP JUMPDEST JUMPDEST PUSH0 PUSH2 0x228 DUP5 DUP3 DUP6 ADD PUSH2 0x1F2 JUMP JUMPDEST SWAP2 POP POP SWAP3 SWAP2 POP POP JUMP INVALID LOG2 PUSH5 0x6970667358 0x22 SLT KECCAK256 GAS DUP13 SWAP4 0xDA 0xF 0x1E 0xDA SHR 0xB4 COINBASE BALANCE 0x4E PUSH25 0x8D0304482A96C5B5E22D3D67CAEC6C7D7D58A764736F6C6343 STOP ADDMOD BYTE STOP CALLER "
				},
				"gasEstimates": {
					"creation": {
						"codeDepositCost": "123000",
						"executionCost": "22275",
						"totalCost": "145275"
					},
					"external": {
						"etherSent()": "2491",
						"getMyNumber()": "2476",
						"getMyNumberAndEtherSent()": "infinite",
						"myNumber()": "2402",
						"setMyNumber(uint256)": "22536",
						"setMyNumberAndReceiveEther(uint256)": "44691"
					}
				},
				"methodIdentifiers": {
					"etherSent()": "cc0335e1",
					"getMyNumber()": "b32e737f",
					"getMyNumberAndEtherSent()": "2c3c6b23",
					"myNumber()": "23fd0e40",
					"setMyNumber(uint256)": "6ffd773c",
					"setMyNumberAndReceiveEther(uint256)": "cf49552e"
				}
			},
			"storageLayout": {
				"storage": [
					{
						"astId": 67,
						"contract": "contracts/cursoDeSolidity/28_lowLevelCall.sol:myContract",
						"label": "myNumber",
						"offset": 0,
						"slot": "0",
						"type": "t_uint256"
					},
					{
						"astId": 70,
						"contract": "contracts/cursoDeSolidity/28_lowLevelCall.sol:myContract",
						"label": "etherSent",
						"offset": 0,
						"slot": "1",
						"type": "t_uint256"
					}
				],
				"types": {
					"t_uint256": {
						"encoding": "inplace",
						"label": "uint256",
						"numberOfBytes": "32"
					}
				}
			},
			"userdoc": {
				"kind": "user",
				"methods": {},
				"version": 1
			}
		}
	}
}