{
	"contracts/cursoDeSolidity/28_lowLevelCall.sol": {
		"useThisContractToCall": {
			"abi": [
				{
					"inputs": [
						{
							"internalType": "contract myContract",
							"name": "_contract",
							"type": "address"
						}
					],
					"name": "getMyNumberAndEtherSent",
					"outputs": [
						{
							"internalType": "uint256",
							"name": "",
							"type": "uint256"
						},
						{
							"internalType": "uint256",
							"name": "",
							"type": "uint256"
						}
					],
					"stateMutability": "view",
					"type": "function"
				},
				{
					"inputs": [
						{
							"internalType": "address",
							"name": "_contract",
							"type": "address"
						},
						{
							"internalType": "uint256",
							"name": "_newNumber",
							"type": "uint256"
						}
					],
					"name": "setMyNumber",
					"outputs": [],
					"stateMutability": "nonpayable",
					"type": "function"
				},
				{
					"inputs": [
						{
							"internalType": "address",
							"name": "_contract",
							"type": "address"
						},
						{
							"internalType": "uint256",
							"name": "_newNumber",
							"type": "uint256"
						}
					],
					"name": "setMyNumberAndReceiveEther",
					"outputs": [],
					"stateMutability": "payable",
					"type": "function"
				},
				{
					"inputs": [
						{
							"internalType": "contract myContract",
							"name": "_contract",
							"type": "address"
						},
						{
							"internalType": "uint256",
							"name": "_newNumber",
							"type": "uint256"
						}
					],
					"name": "setMyNumberV2",
					"outputs": [],
					"stateMutability": "nonpayable",
					"type": "function"
				}
			],
			"devdoc": {
				"kind": "dev",
				"methods": {},
				"version": 1
			},
			"evm": {
				"assembly": "    /* \"contracts/cursoDeSolidity/28_lowLevelCall.sol\":76:767  contract useThisContractToCall {... */\n  mstore(0x40, 0x80)\n  callvalue\n  dup1\n  iszero\n  tag_1\n  jumpi\n  0x00\n  dup1\n  revert\ntag_1:\n  pop\n  dataSize(sub_0)\n  dup1\n  dataOffset(sub_0)\n  0x00\n  codecopy\n  0x00\n  return\nstop\n\nsub_0: assembly {\n        /* \"contracts/cursoDeSolidity/28_lowLevelCall.sol\":76:767  contract useThisContractToCall {... */\n      mstore(0x40, 0x80)\n      jumpi(tag_1, lt(calldatasize, 0x04))\n      shr(0xe0, calldataload(0x00))\n      dup1\n      0x173c800e\n      eq\n      tag_2\n      jumpi\n      dup1\n      0x8f0f789d\n      eq\n      tag_3\n      jumpi\n      dup1\n      0xee5254f6\n      eq\n      tag_4\n      jumpi\n      dup1\n      0xfce1ad01\n      eq\n      tag_5\n      jumpi\n    tag_1:\n      0x00\n      dup1\n      revert\n        /* \"contracts/cursoDeSolidity/28_lowLevelCall.sol\":614:764  function getMyNumberAndEtherSent(myContract _contract) external view returns(uint, uint) {... */\n    tag_2:\n      callvalue\n      dup1\n      iszero\n      tag_6\n      jumpi\n      0x00\n      dup1\n      revert\n    tag_6:\n      pop\n      tag_7\n      0x04\n      dup1\n      calldatasize\n      sub\n      dup2\n      add\n      swap1\n      tag_8\n      swap2\n      swap1\n      tag_9\n      jump\t// in\n    tag_8:\n      tag_10\n      jump\t// in\n    tag_7:\n      mload(0x40)\n      tag_11\n      swap3\n      swap2\n      swap1\n      tag_12\n      jump\t// in\n    tag_11:\n      mload(0x40)\n      dup1\n      swap2\n      sub\n      swap1\n      return\n        /* \"contracts/cursoDeSolidity/28_lowLevelCall.sol\":423:608  function setMyNumberAndReceiveEther(address _contract, uint _newNumber) external payable{... */\n    tag_3:\n      tag_13\n      0x04\n      dup1\n      calldatasize\n      sub\n      dup2\n      add\n      swap1\n      tag_14\n      swap2\n      swap1\n      tag_15\n      jump\t// in\n    tag_14:\n      tag_16\n      jump\t// in\n    tag_13:\n      stop\n        /* \"contracts/cursoDeSolidity/28_lowLevelCall.sol\":156:286  function setMyNumber(address _contract, uint _newNumber) external {... */\n    tag_4:\n      callvalue\n      dup1\n      iszero\n      tag_17\n      jumpi\n      0x00\n      dup1\n      revert\n    tag_17:\n      pop\n      tag_18\n      0x04\n      dup1\n      calldatasize\n      sub\n      dup2\n      add\n      swap1\n      tag_19\n      swap2\n      swap1\n      tag_15\n      jump\t// in\n    tag_19:\n      tag_20\n      jump\t// in\n    tag_18:\n      stop\n        /* \"contracts/cursoDeSolidity/28_lowLevelCall.sol\":292:415  function setMyNumberV2(myContract _contract, uint _newNumber) external {... */\n    tag_5:\n      callvalue\n      dup1\n      iszero\n      tag_21\n      jumpi\n      0x00\n      dup1\n      revert\n    tag_21:\n      pop\n      tag_22\n      0x04\n      dup1\n      calldatasize\n      sub\n      dup2\n      add\n      swap1\n      tag_23\n      swap2\n      swap1\n      tag_24\n      jump\t// in\n    tag_23:\n      tag_25\n      jump\t// in\n    tag_22:\n      stop\n        /* \"contracts/cursoDeSolidity/28_lowLevelCall.sol\":614:764  function getMyNumberAndEtherSent(myContract _contract) external view returns(uint, uint) {... */\n    tag_10:\n        /* \"contracts/cursoDeSolidity/28_lowLevelCall.sol\":691:695  uint */\n      0x00\n        /* \"contracts/cursoDeSolidity/28_lowLevelCall.sol\":697:701  uint */\n      dup1\n        /* \"contracts/cursoDeSolidity/28_lowLevelCall.sol\":721:730  _contract */\n      dup3\n        /* \"contracts/cursoDeSolidity/28_lowLevelCall.sol\":721:754  _contract.getMyNumberAndEtherSent */\n      0xffffffffffffffffffffffffffffffffffffffff\n      and\n      0x2c3c6b23\n        /* \"contracts/cursoDeSolidity/28_lowLevelCall.sol\":721:756  _contract.getMyNumberAndEtherSent() */\n      mload(0x40)\n      dup2\n      0xffffffff\n      and\n      0xe0\n      shl\n      dup2\n      mstore\n      0x04\n      add\n      0x40\n      dup1\n      mload\n      dup1\n      dup4\n      sub\n      dup2\n      dup7\n      gas\n      staticcall\n      iszero\n      dup1\n      iszero\n      tag_28\n      jumpi\n      returndatasize\n      0x00\n      dup1\n      returndatacopy\n      revert(0x00, returndatasize)\n    tag_28:\n      pop\n      pop\n      pop\n      pop\n      mload(0x40)\n      returndatasize\n      not(0x1f)\n      0x1f\n      dup3\n      add\n      and\n      dup3\n      add\n      dup1\n      0x40\n      mstore\n      pop\n      dup2\n      add\n      swap1\n      tag_29\n      swap2\n      swap1\n      tag_30\n      jump\t// in\n    tag_29:\n        /* \"contracts/cursoDeSolidity/28_lowLevelCall.sol\":714:756  return _contract.getMyNumberAndEtherSent() */\n      swap2\n      pop\n      swap2\n      pop\n        /* \"contracts/cursoDeSolidity/28_lowLevelCall.sol\":614:764  function getMyNumberAndEtherSent(myContract _contract) external view returns(uint, uint) {... */\n      swap2\n      pop\n      swap2\n      jump\t// out\n        /* \"contracts/cursoDeSolidity/28_lowLevelCall.sol\":423:608  function setMyNumberAndReceiveEther(address _contract, uint _newNumber) external payable{... */\n    tag_16:\n        /* \"contracts/cursoDeSolidity/28_lowLevelCall.sol\":533:542  _contract */\n      dup2\n        /* \"contracts/cursoDeSolidity/28_lowLevelCall.sol\":522:570  myContract(_contract).setMyNumberAndReceiveEther */\n      0xffffffffffffffffffffffffffffffffffffffff\n      and\n      0xcf49552e\n        /* \"contracts/cursoDeSolidity/28_lowLevelCall.sol\":578:587  msg.value */\n      callvalue\n        /* \"contracts/cursoDeSolidity/28_lowLevelCall.sol\":589:599  _newNumber */\n      dup4\n        /* \"contracts/cursoDeSolidity/28_lowLevelCall.sol\":522:600  myContract(_contract).setMyNumberAndReceiveEther{value: msg.value}(_newNumber) */\n      mload(0x40)\n      dup4\n      0xffffffff\n      and\n      0xe0\n      shl\n      dup2\n      mstore\n      0x04\n      add\n      tag_32\n      swap2\n      swap1\n      tag_33\n      jump\t// in\n    tag_32:\n      0x00\n      mload(0x40)\n      dup1\n      dup4\n      sub\n      dup2\n      dup6\n      dup9\n      dup1\n      extcodesize\n      iszero\n      dup1\n      iszero\n      tag_34\n      jumpi\n      0x00\n      dup1\n      revert\n    tag_34:\n      pop\n      gas\n      call\n      iszero\n      dup1\n      iszero\n      tag_36\n      jumpi\n      returndatasize\n      0x00\n      dup1\n      returndatacopy\n      revert(0x00, returndatasize)\n    tag_36:\n      pop\n      pop\n      pop\n      pop\n      pop\n        /* \"contracts/cursoDeSolidity/28_lowLevelCall.sol\":423:608  function setMyNumberAndReceiveEther(address _contract, uint _newNumber) external payable{... */\n      pop\n      pop\n      jump\t// out\n        /* \"contracts/cursoDeSolidity/28_lowLevelCall.sol\":156:286  function setMyNumber(address _contract, uint _newNumber) external {... */\n    tag_20:\n        /* \"contracts/cursoDeSolidity/28_lowLevelCall.sol\":244:253  _contract */\n      dup2\n        /* \"contracts/cursoDeSolidity/28_lowLevelCall.sol\":233:266  myContract(_contract).setMyNumber */\n      0xffffffffffffffffffffffffffffffffffffffff\n      and\n      0x6ffd773c\n        /* \"contracts/cursoDeSolidity/28_lowLevelCall.sol\":267:277  _newNumber */\n      dup3\n        /* \"contracts/cursoDeSolidity/28_lowLevelCall.sol\":233:278  myContract(_contract).setMyNumber(_newNumber) */\n      mload(0x40)\n      dup3\n      0xffffffff\n      and\n      0xe0\n      shl\n      dup2\n      mstore\n      0x04\n      add\n      tag_38\n      swap2\n      swap1\n      tag_33\n      jump\t// in\n    tag_38:\n      0x00\n      mload(0x40)\n      dup1\n      dup4\n      sub\n      dup2\n      0x00\n      dup8\n      dup1\n      extcodesize\n      iszero\n      dup1\n      iszero\n      tag_39\n      jumpi\n      0x00\n      dup1\n      revert\n    tag_39:\n      pop\n      gas\n      call\n      iszero\n      dup1\n      iszero\n      tag_41\n      jumpi\n      returndatasize\n      0x00\n      dup1\n      returndatacopy\n      revert(0x00, returndatasize)\n    tag_41:\n      pop\n      pop\n      pop\n      pop\n        /* \"contracts/cursoDeSolidity/28_lowLevelCall.sol\":156:286  function setMyNumber(address _contract, uint _newNumber) external {... */\n      pop\n      pop\n      jump\t// out\n        /* \"contracts/cursoDeSolidity/28_lowLevelCall.sol\":292:415  function setMyNumberV2(myContract _contract, uint _newNumber) external {... */\n    tag_25:\n        /* \"contracts/cursoDeSolidity/28_lowLevelCall.sol\":374:383  _contract */\n      dup2\n        /* \"contracts/cursoDeSolidity/28_lowLevelCall.sol\":374:395  _contract.setMyNumber */\n      0xffffffffffffffffffffffffffffffffffffffff\n      and\n      0x6ffd773c\n        /* \"contracts/cursoDeSolidity/28_lowLevelCall.sol\":396:406  _newNumber */\n      dup3\n        /* \"contracts/cursoDeSolidity/28_lowLevelCall.sol\":374:407  _contract.setMyNumber(_newNumber) */\n      mload(0x40)\n      dup3\n      0xffffffff\n      and\n      0xe0\n      shl\n      dup2\n      mstore\n      0x04\n      add\n      tag_43\n      swap2\n      swap1\n      tag_33\n      jump\t// in\n    tag_43:\n      0x00\n      mload(0x40)\n      dup1\n      dup4\n      sub\n      dup2\n      0x00\n      dup8\n      dup1\n      extcodesize\n      iszero\n      dup1\n      iszero\n      tag_44\n      jumpi\n      0x00\n      dup1\n      revert\n    tag_44:\n      pop\n      gas\n      call\n      iszero\n      dup1\n      iszero\n      tag_46\n      jumpi\n      returndatasize\n      0x00\n      dup1\n      returndatacopy\n      revert(0x00, returndatasize)\n    tag_46:\n      pop\n      pop\n      pop\n      pop\n        /* \"contracts/cursoDeSolidity/28_lowLevelCall.sol\":292:415  function setMyNumberV2(myContract _contract, uint _newNumber) external {... */\n      pop\n      pop\n      jump\t// out\n        /* \"#utility.yul\":88:205   */\n    tag_48:\n        /* \"#utility.yul\":197:198   */\n      0x00\n        /* \"#utility.yul\":194:195   */\n      dup1\n        /* \"#utility.yul\":187:199   */\n      revert\n        /* \"#utility.yul\":334:460   */\n    tag_50:\n        /* \"#utility.yul\":371:378   */\n      0x00\n        /* \"#utility.yul\":411:453   */\n      0xffffffffffffffffffffffffffffffffffffffff\n        /* \"#utility.yul\":404:409   */\n      dup3\n        /* \"#utility.yul\":400:454   */\n      and\n        /* \"#utility.yul\":389:454   */\n      swap1\n      pop\n        /* \"#utility.yul\":334:460   */\n      swap2\n      swap1\n      pop\n      jump\t// out\n        /* \"#utility.yul\":466:562   */\n    tag_51:\n        /* \"#utility.yul\":503:510   */\n      0x00\n        /* \"#utility.yul\":532:556   */\n      tag_68\n        /* \"#utility.yul\":550:555   */\n      dup3\n        /* \"#utility.yul\":532:556   */\n      tag_50\n      jump\t// in\n    tag_68:\n        /* \"#utility.yul\":521:556   */\n      swap1\n      pop\n        /* \"#utility.yul\":466:562   */\n      swap2\n      swap1\n      pop\n      jump\t// out\n        /* \"#utility.yul\":568:682   */\n    tag_52:\n        /* \"#utility.yul\":623:630   */\n      0x00\n        /* \"#utility.yul\":652:676   */\n      tag_70\n        /* \"#utility.yul\":670:675   */\n      dup3\n        /* \"#utility.yul\":652:676   */\n      tag_51\n      jump\t// in\n    tag_70:\n        /* \"#utility.yul\":641:676   */\n      swap1\n      pop\n        /* \"#utility.yul\":568:682   */\n      swap2\n      swap1\n      pop\n      jump\t// out\n        /* \"#utility.yul\":688:846   */\n    tag_53:\n        /* \"#utility.yul\":779:821   */\n      tag_72\n        /* \"#utility.yul\":815:820   */\n      dup2\n        /* \"#utility.yul\":779:821   */\n      tag_52\n      jump\t// in\n    tag_72:\n        /* \"#utility.yul\":772:777   */\n      dup2\n        /* \"#utility.yul\":769:822   */\n      eq\n        /* \"#utility.yul\":759:840   */\n      tag_73\n      jumpi\n        /* \"#utility.yul\":836:837   */\n      0x00\n        /* \"#utility.yul\":833:834   */\n      dup1\n        /* \"#utility.yul\":826:838   */\n      revert\n        /* \"#utility.yul\":759:840   */\n    tag_73:\n        /* \"#utility.yul\":688:846   */\n      pop\n      jump\t// out\n        /* \"#utility.yul\":852:1027   */\n    tag_54:\n        /* \"#utility.yul\":916:921   */\n      0x00\n        /* \"#utility.yul\":954:960   */\n      dup2\n        /* \"#utility.yul\":941:961   */\n      calldataload\n        /* \"#utility.yul\":932:961   */\n      swap1\n      pop\n        /* \"#utility.yul\":970:1021   */\n      tag_75\n        /* \"#utility.yul\":1015:1020   */\n      dup2\n        /* \"#utility.yul\":970:1021   */\n      tag_53\n      jump\t// in\n    tag_75:\n        /* \"#utility.yul\":852:1027   */\n      swap3\n      swap2\n      pop\n      pop\n      jump\t// out\n        /* \"#utility.yul\":1033:1398   */\n    tag_9:\n        /* \"#utility.yul\":1110:1116   */\n      0x00\n        /* \"#utility.yul\":1159:1161   */\n      0x20\n        /* \"#utility.yul\":1147:1156   */\n      dup3\n        /* \"#utility.yul\":1138:1145   */\n      dup5\n        /* \"#utility.yul\":1134:1157   */\n      sub\n        /* \"#utility.yul\":1130:1162   */\n      slt\n        /* \"#utility.yul\":1127:1246   */\n      iszero\n      tag_77\n      jumpi\n        /* \"#utility.yul\":1165:1244   */\n      tag_78\n      tag_48\n      jump\t// in\n    tag_78:\n        /* \"#utility.yul\":1127:1246   */\n    tag_77:\n        /* \"#utility.yul\":1285:1286   */\n      0x00\n        /* \"#utility.yul\":1310:1381   */\n      tag_79\n        /* \"#utility.yul\":1373:1380   */\n      dup5\n        /* \"#utility.yul\":1364:1370   */\n      dup3\n        /* \"#utility.yul\":1353:1362   */\n      dup6\n        /* \"#utility.yul\":1349:1371   */\n      add\n        /* \"#utility.yul\":1310:1381   */\n      tag_54\n      jump\t// in\n    tag_79:\n        /* \"#utility.yul\":1300:1381   */\n      swap2\n      pop\n        /* \"#utility.yul\":1256:1391   */\n      pop\n        /* \"#utility.yul\":1033:1398   */\n      swap3\n      swap2\n      pop\n      pop\n      jump\t// out\n        /* \"#utility.yul\":1404:1481   */\n    tag_55:\n        /* \"#utility.yul\":1441:1448   */\n      0x00\n        /* \"#utility.yul\":1470:1475   */\n      dup2\n        /* \"#utility.yul\":1459:1475   */\n      swap1\n      pop\n        /* \"#utility.yul\":1404:1481   */\n      swap2\n      swap1\n      pop\n      jump\t// out\n        /* \"#utility.yul\":1487:1605   */\n    tag_56:\n        /* \"#utility.yul\":1574:1598   */\n      tag_82\n        /* \"#utility.yul\":1592:1597   */\n      dup2\n        /* \"#utility.yul\":1574:1598   */\n      tag_55\n      jump\t// in\n    tag_82:\n        /* \"#utility.yul\":1569:1572   */\n      dup3\n        /* \"#utility.yul\":1562:1599   */\n      mstore\n        /* \"#utility.yul\":1487:1605   */\n      pop\n      pop\n      jump\t// out\n        /* \"#utility.yul\":1611:1943   */\n    tag_12:\n        /* \"#utility.yul\":1732:1736   */\n      0x00\n        /* \"#utility.yul\":1770:1772   */\n      0x40\n        /* \"#utility.yul\":1759:1768   */\n      dup3\n        /* \"#utility.yul\":1755:1773   */\n      add\n        /* \"#utility.yul\":1747:1773   */\n      swap1\n      pop\n        /* \"#utility.yul\":1783:1854   */\n      tag_84\n        /* \"#utility.yul\":1851:1852   */\n      0x00\n        /* \"#utility.yul\":1840:1849   */\n      dup4\n        /* \"#utility.yul\":1836:1853   */\n      add\n        /* \"#utility.yul\":1827:1833   */\n      dup6\n        /* \"#utility.yul\":1783:1854   */\n      tag_56\n      jump\t// in\n    tag_84:\n        /* \"#utility.yul\":1864:1936   */\n      tag_85\n        /* \"#utility.yul\":1932:1934   */\n      0x20\n        /* \"#utility.yul\":1921:1930   */\n      dup4\n        /* \"#utility.yul\":1917:1935   */\n      add\n        /* \"#utility.yul\":1908:1914   */\n      dup5\n        /* \"#utility.yul\":1864:1936   */\n      tag_56\n      jump\t// in\n    tag_85:\n        /* \"#utility.yul\":1611:1943   */\n      swap4\n      swap3\n      pop\n      pop\n      pop\n      jump\t// out\n        /* \"#utility.yul\":1949:2071   */\n    tag_57:\n        /* \"#utility.yul\":2022:2046   */\n      tag_87\n        /* \"#utility.yul\":2040:2045   */\n      dup2\n        /* \"#utility.yul\":2022:2046   */\n      tag_51\n      jump\t// in\n    tag_87:\n        /* \"#utility.yul\":2015:2020   */\n      dup2\n        /* \"#utility.yul\":2012:2047   */\n      eq\n        /* \"#utility.yul\":2002:2065   */\n      tag_88\n      jumpi\n        /* \"#utility.yul\":2061:2062   */\n      0x00\n        /* \"#utility.yul\":2058:2059   */\n      dup1\n        /* \"#utility.yul\":2051:2063   */\n      revert\n        /* \"#utility.yul\":2002:2065   */\n    tag_88:\n        /* \"#utility.yul\":1949:2071   */\n      pop\n      jump\t// out\n        /* \"#utility.yul\":2077:2216   */\n    tag_58:\n        /* \"#utility.yul\":2123:2128   */\n      0x00\n        /* \"#utility.yul\":2161:2167   */\n      dup2\n        /* \"#utility.yul\":2148:2168   */\n      calldataload\n        /* \"#utility.yul\":2139:2168   */\n      swap1\n      pop\n        /* \"#utility.yul\":2177:2210   */\n      tag_90\n        /* \"#utility.yul\":2204:2209   */\n      dup2\n        /* \"#utility.yul\":2177:2210   */\n      tag_57\n      jump\t// in\n    tag_90:\n        /* \"#utility.yul\":2077:2216   */\n      swap3\n      swap2\n      pop\n      pop\n      jump\t// out\n        /* \"#utility.yul\":2222:2344   */\n    tag_59:\n        /* \"#utility.yul\":2295:2319   */\n      tag_92\n        /* \"#utility.yul\":2313:2318   */\n      dup2\n        /* \"#utility.yul\":2295:2319   */\n      tag_55\n      jump\t// in\n    tag_92:\n        /* \"#utility.yul\":2288:2293   */\n      dup2\n        /* \"#utility.yul\":2285:2320   */\n      eq\n        /* \"#utility.yul\":2275:2338   */\n      tag_93\n      jumpi\n        /* \"#utility.yul\":2334:2335   */\n      0x00\n        /* \"#utility.yul\":2331:2332   */\n      dup1\n        /* \"#utility.yul\":2324:2336   */\n      revert\n        /* \"#utility.yul\":2275:2338   */\n    tag_93:\n        /* \"#utility.yul\":2222:2344   */\n      pop\n      jump\t// out\n        /* \"#utility.yul\":2350:2489   */\n    tag_60:\n        /* \"#utility.yul\":2396:2401   */\n      0x00\n        /* \"#utility.yul\":2434:2440   */\n      dup2\n        /* \"#utility.yul\":2421:2441   */\n      calldataload\n        /* \"#utility.yul\":2412:2441   */\n      swap1\n      pop\n        /* \"#utility.yul\":2450:2483   */\n      tag_95\n        /* \"#utility.yul\":2477:2482   */\n      dup2\n        /* \"#utility.yul\":2450:2483   */\n      tag_59\n      jump\t// in\n    tag_95:\n        /* \"#utility.yul\":2350:2489   */\n      swap3\n      swap2\n      pop\n      pop\n      jump\t// out\n        /* \"#utility.yul\":2495:2969   */\n    tag_15:\n        /* \"#utility.yul\":2563:2569   */\n      0x00\n        /* \"#utility.yul\":2571:2577   */\n      dup1\n        /* \"#utility.yul\":2620:2622   */\n      0x40\n        /* \"#utility.yul\":2608:2617   */\n      dup4\n        /* \"#utility.yul\":2599:2606   */\n      dup6\n        /* \"#utility.yul\":2595:2618   */\n      sub\n        /* \"#utility.yul\":2591:2623   */\n      slt\n        /* \"#utility.yul\":2588:2707   */\n      iszero\n      tag_97\n      jumpi\n        /* \"#utility.yul\":2626:2705   */\n      tag_98\n      tag_48\n      jump\t// in\n    tag_98:\n        /* \"#utility.yul\":2588:2707   */\n    tag_97:\n        /* \"#utility.yul\":2746:2747   */\n      0x00\n        /* \"#utility.yul\":2771:2824   */\n      tag_99\n        /* \"#utility.yul\":2816:2823   */\n      dup6\n        /* \"#utility.yul\":2807:2813   */\n      dup3\n        /* \"#utility.yul\":2796:2805   */\n      dup7\n        /* \"#utility.yul\":2792:2814   */\n      add\n        /* \"#utility.yul\":2771:2824   */\n      tag_58\n      jump\t// in\n    tag_99:\n        /* \"#utility.yul\":2761:2824   */\n      swap3\n      pop\n        /* \"#utility.yul\":2717:2834   */\n      pop\n        /* \"#utility.yul\":2873:2875   */\n      0x20\n        /* \"#utility.yul\":2899:2952   */\n      tag_100\n        /* \"#utility.yul\":2944:2951   */\n      dup6\n        /* \"#utility.yul\":2935:2941   */\n      dup3\n        /* \"#utility.yul\":2924:2933   */\n      dup7\n        /* \"#utility.yul\":2920:2942   */\n      add\n        /* \"#utility.yul\":2899:2952   */\n      tag_60\n      jump\t// in\n    tag_100:\n        /* \"#utility.yul\":2889:2952   */\n      swap2\n      pop\n        /* \"#utility.yul\":2844:2962   */\n      pop\n        /* \"#utility.yul\":2495:2969   */\n      swap3\n      pop\n      swap3\n      swap1\n      pop\n      jump\t// out\n        /* \"#utility.yul\":2975:3485   */\n    tag_24:\n        /* \"#utility.yul\":3061:3067   */\n      0x00\n        /* \"#utility.yul\":3069:3075   */\n      dup1\n        /* \"#utility.yul\":3118:3120   */\n      0x40\n        /* \"#utility.yul\":3106:3115   */\n      dup4\n        /* \"#utility.yul\":3097:3104   */\n      dup6\n        /* \"#utility.yul\":3093:3116   */\n      sub\n        /* \"#utility.yul\":3089:3121   */\n      slt\n        /* \"#utility.yul\":3086:3205   */\n      iszero\n      tag_102\n      jumpi\n        /* \"#utility.yul\":3124:3203   */\n      tag_103\n      tag_48\n      jump\t// in\n    tag_103:\n        /* \"#utility.yul\":3086:3205   */\n    tag_102:\n        /* \"#utility.yul\":3244:3245   */\n      0x00\n        /* \"#utility.yul\":3269:3340   */\n      tag_104\n        /* \"#utility.yul\":3332:3339   */\n      dup6\n        /* \"#utility.yul\":3323:3329   */\n      dup3\n        /* \"#utility.yul\":3312:3321   */\n      dup7\n        /* \"#utility.yul\":3308:3330   */\n      add\n        /* \"#utility.yul\":3269:3340   */\n      tag_54\n      jump\t// in\n    tag_104:\n        /* \"#utility.yul\":3259:3340   */\n      swap3\n      pop\n        /* \"#utility.yul\":3215:3350   */\n      pop\n        /* \"#utility.yul\":3389:3391   */\n      0x20\n        /* \"#utility.yul\":3415:3468   */\n      tag_105\n        /* \"#utility.yul\":3460:3467   */\n      dup6\n        /* \"#utility.yul\":3451:3457   */\n      dup3\n        /* \"#utility.yul\":3440:3449   */\n      dup7\n        /* \"#utility.yul\":3436:3458   */\n      add\n        /* \"#utility.yul\":3415:3468   */\n      tag_60\n      jump\t// in\n    tag_105:\n        /* \"#utility.yul\":3405:3468   */\n      swap2\n      pop\n        /* \"#utility.yul\":3360:3478   */\n      pop\n        /* \"#utility.yul\":2975:3485   */\n      swap3\n      pop\n      swap3\n      swap1\n      pop\n      jump\t// out\n        /* \"#utility.yul\":3491:3634   */\n    tag_61:\n        /* \"#utility.yul\":3548:3553   */\n      0x00\n        /* \"#utility.yul\":3579:3585   */\n      dup2\n        /* \"#utility.yul\":3573:3586   */\n      mload\n        /* \"#utility.yul\":3564:3586   */\n      swap1\n      pop\n        /* \"#utility.yul\":3595:3628   */\n      tag_107\n        /* \"#utility.yul\":3622:3627   */\n      dup2\n        /* \"#utility.yul\":3595:3628   */\n      tag_59\n      jump\t// in\n    tag_107:\n        /* \"#utility.yul\":3491:3634   */\n      swap3\n      swap2\n      pop\n      pop\n      jump\t// out\n        /* \"#utility.yul\":3640:4147   */\n    tag_30:\n        /* \"#utility.yul\":3719:3725   */\n      0x00\n        /* \"#utility.yul\":3727:3733   */\n      dup1\n        /* \"#utility.yul\":3776:3778   */\n      0x40\n        /* \"#utility.yul\":3764:3773   */\n      dup4\n        /* \"#utility.yul\":3755:3762   */\n      dup6\n        /* \"#utility.yul\":3751:3774   */\n      sub\n        /* \"#utility.yul\":3747:3779   */\n      slt\n        /* \"#utility.yul\":3744:3863   */\n      iszero\n      tag_109\n      jumpi\n        /* \"#utility.yul\":3782:3861   */\n      tag_110\n      tag_48\n      jump\t// in\n    tag_110:\n        /* \"#utility.yul\":3744:3863   */\n    tag_109:\n        /* \"#utility.yul\":3902:3903   */\n      0x00\n        /* \"#utility.yul\":3927:3991   */\n      tag_111\n        /* \"#utility.yul\":3983:3990   */\n      dup6\n        /* \"#utility.yul\":3974:3980   */\n      dup3\n        /* \"#utility.yul\":3963:3972   */\n      dup7\n        /* \"#utility.yul\":3959:3981   */\n      add\n        /* \"#utility.yul\":3927:3991   */\n      tag_61\n      jump\t// in\n    tag_111:\n        /* \"#utility.yul\":3917:3991   */\n      swap3\n      pop\n        /* \"#utility.yul\":3873:4001   */\n      pop\n        /* \"#utility.yul\":4040:4042   */\n      0x20\n        /* \"#utility.yul\":4066:4130   */\n      tag_112\n        /* \"#utility.yul\":4122:4129   */\n      dup6\n        /* \"#utility.yul\":4113:4119   */\n      dup3\n        /* \"#utility.yul\":4102:4111   */\n      dup7\n        /* \"#utility.yul\":4098:4120   */\n      add\n        /* \"#utility.yul\":4066:4130   */\n      tag_61\n      jump\t// in\n    tag_112:\n        /* \"#utility.yul\":4056:4130   */\n      swap2\n      pop\n        /* \"#utility.yul\":4011:4140   */\n      pop\n        /* \"#utility.yul\":3640:4147   */\n      swap3\n      pop\n      swap3\n      swap1\n      pop\n      jump\t// out\n        /* \"#utility.yul\":4153:4375   */\n    tag_33:\n        /* \"#utility.yul\":4246:4250   */\n      0x00\n        /* \"#utility.yul\":4284:4286   */\n      0x20\n        /* \"#utility.yul\":4273:4282   */\n      dup3\n        /* \"#utility.yul\":4269:4287   */\n      add\n        /* \"#utility.yul\":4261:4287   */\n      swap1\n      pop\n        /* \"#utility.yul\":4297:4368   */\n      tag_114\n        /* \"#utility.yul\":4365:4366   */\n      0x00\n        /* \"#utility.yul\":4354:4363   */\n      dup4\n        /* \"#utility.yul\":4350:4367   */\n      add\n        /* \"#utility.yul\":4341:4347   */\n      dup5\n        /* \"#utility.yul\":4297:4368   */\n      tag_56\n      jump\t// in\n    tag_114:\n        /* \"#utility.yul\":4153:4375   */\n      swap3\n      swap2\n      pop\n      pop\n      jump\t// out\n\n    auxdata: 0xa264697066735822122067b476152292c64eb84c54323ef725d16e4b654008cc04fea53ab0742e9d714e64736f6c634300081a0033\n}\n",
				"bytecode": {
					"linkReferences": {},
					"object": "6080604052348015600e575f80fd5b506104ec8061001c5f395ff3fe60806040526004361061003e575f3560e01c8063173c800e146100425780638f0f789d1461007f578063ee5254f61461009b578063fce1ad01146100c3575b5f80fd5b34801561004d575f80fd5b5061006860048036038101906100639190610311565b6100eb565b604051610076929190610354565b60405180910390f35b610099600480360381019061009491906103cf565b610162565b005b3480156100a6575f80fd5b506100c160048036038101906100bc91906103cf565b6101ce565b005b3480156100ce575f80fd5b506100e960048036038101906100e4919061040d565b610238565b005b5f808273ffffffffffffffffffffffffffffffffffffffff16632c3c6b236040518163ffffffff1660e01b81526004016040805180830381865afa158015610135573d5f803e3d5ffd5b505050506040513d601f19601f82011682018060405250810190610159919061045f565b91509150915091565b8173ffffffffffffffffffffffffffffffffffffffff1663cf49552e34836040518363ffffffff1660e01b815260040161019c919061049d565b5f604051808303818588803b1580156101b3575f80fd5b505af11580156101c5573d5f803e3d5ffd5b50505050505050565b8173ffffffffffffffffffffffffffffffffffffffff16636ffd773c826040518263ffffffff1660e01b8152600401610207919061049d565b5f604051808303815f87803b15801561021e575f80fd5b505af1158015610230573d5f803e3d5ffd5b505050505050565b8173ffffffffffffffffffffffffffffffffffffffff16636ffd773c826040518263ffffffff1660e01b8152600401610271919061049d565b5f604051808303815f87803b158015610288575f80fd5b505af115801561029a573d5f803e3d5ffd5b505050505050565b5f80fd5b5f73ffffffffffffffffffffffffffffffffffffffff82169050919050565b5f6102cf826102a6565b9050919050565b5f6102e0826102c5565b9050919050565b6102f0816102d6565b81146102fa575f80fd5b50565b5f8135905061030b816102e7565b92915050565b5f60208284031215610326576103256102a2565b5b5f610333848285016102fd565b91505092915050565b5f819050919050565b61034e8161033c565b82525050565b5f6040820190506103675f830185610345565b6103746020830184610345565b9392505050565b610384816102c5565b811461038e575f80fd5b50565b5f8135905061039f8161037b565b92915050565b6103ae8161033c565b81146103b8575f80fd5b50565b5f813590506103c9816103a5565b92915050565b5f80604083850312156103e5576103e46102a2565b5b5f6103f285828601610391565b9250506020610403858286016103bb565b9150509250929050565b5f8060408385031215610423576104226102a2565b5b5f610430858286016102fd565b9250506020610441858286016103bb565b9150509250929050565b5f81519050610459816103a5565b92915050565b5f8060408385031215610475576104746102a2565b5b5f6104828582860161044b565b92505060206104938582860161044b565b9150509250929050565b5f6020820190506104b05f830184610345565b9291505056fea264697066735822122067b476152292c64eb84c54323ef725d16e4b654008cc04fea53ab0742e9d714e64736f6c634300081a0033",
					"opcodes": "PUSH1 0x80 PUSH1 0x40 MSTORE CALLVALUE DUP1 ISZERO PUSH1 0xE JUMPI PUSH0 DUP1 REVERT JUMPDEST POP PUSH2 0x4EC DUP1 PUSH2 0x1C PUSH0 CODECOPY PUSH0 RETURN INVALID PUSH1 0x80 PUSH1 0x40 MSTORE PUSH1 0x4 CALLDATASIZE LT PUSH2 0x3E JUMPI PUSH0 CALLDATALOAD PUSH1 0xE0 SHR DUP1 PUSH4 0x173C800E EQ PUSH2 0x42 JUMPI DUP1 PUSH4 0x8F0F789D EQ PUSH2 0x7F JUMPI DUP1 PUSH4 0xEE5254F6 EQ PUSH2 0x9B JUMPI DUP1 PUSH4 0xFCE1AD01 EQ PUSH2 0xC3 JUMPI JUMPDEST PUSH0 DUP1 REVERT JUMPDEST CALLVALUE DUP1 ISZERO PUSH2 0x4D JUMPI PUSH0 DUP1 REVERT JUMPDEST POP PUSH2 0x68 PUSH1 0x4 DUP1 CALLDATASIZE SUB DUP2 ADD SWAP1 PUSH2 0x63 SWAP2 SWAP1 PUSH2 0x311 JUMP JUMPDEST PUSH2 0xEB JUMP JUMPDEST PUSH1 0x40 MLOAD PUSH2 0x76 SWAP3 SWAP2 SWAP1 PUSH2 0x354 JUMP JUMPDEST PUSH1 0x40 MLOAD DUP1 SWAP2 SUB SWAP1 RETURN JUMPDEST PUSH2 0x99 PUSH1 0x4 DUP1 CALLDATASIZE SUB DUP2 ADD SWAP1 PUSH2 0x94 SWAP2 SWAP1 PUSH2 0x3CF JUMP JUMPDEST PUSH2 0x162 JUMP JUMPDEST STOP JUMPDEST CALLVALUE DUP1 ISZERO PUSH2 0xA6 JUMPI PUSH0 DUP1 REVERT JUMPDEST POP PUSH2 0xC1 PUSH1 0x4 DUP1 CALLDATASIZE SUB DUP2 ADD SWAP1 PUSH2 0xBC SWAP2 SWAP1 PUSH2 0x3CF JUMP JUMPDEST PUSH2 0x1CE JUMP JUMPDEST STOP JUMPDEST CALLVALUE DUP1 ISZERO PUSH2 0xCE JUMPI PUSH0 DUP1 REVERT JUMPDEST POP PUSH2 0xE9 PUSH1 0x4 DUP1 CALLDATASIZE SUB DUP2 ADD SWAP1 PUSH2 0xE4 SWAP2 SWAP1 PUSH2 0x40D JUMP JUMPDEST PUSH2 0x238 JUMP JUMPDEST STOP JUMPDEST PUSH0 DUP1 DUP3 PUSH20 0xFFFFFFFFFFFFFFFFFFFFFFFFFFFFFFFFFFFFFFFF AND PUSH4 0x2C3C6B23 PUSH1 0x40 MLOAD DUP2 PUSH4 0xFFFFFFFF AND PUSH1 0xE0 SHL DUP2 MSTORE PUSH1 0x4 ADD PUSH1 0x40 DUP1 MLOAD DUP1 DUP4 SUB DUP2 DUP7 GAS STATICCALL ISZERO DUP1 ISZERO PUSH2 0x135 JUMPI RETURNDATASIZE PUSH0 DUP1 RETURNDATACOPY RETURNDATASIZE PUSH0 REVERT JUMPDEST POP POP POP POP PUSH1 0x40 MLOAD RETURNDATASIZE PUSH1 0x1F NOT PUSH1 0x1F DUP3 ADD AND DUP3 ADD DUP1 PUSH1 0x40 MSTORE POP DUP2 ADD SWAP1 PUSH2 0x159 SWAP2 SWAP1 PUSH2 0x45F JUMP JUMPDEST SWAP2 POP SWAP2 POP SWAP2 POP SWAP2 JUMP JUMPDEST DUP2 PUSH20 0xFFFFFFFFFFFFFFFFFFFFFFFFFFFFFFFFFFFFFFFF AND PUSH4 0xCF49552E CALLVALUE DUP4 PUSH1 0x40 MLOAD DUP4 PUSH4 0xFFFFFFFF AND PUSH1 0xE0 SHL DUP2 MSTORE PUSH1 0x4 ADD PUSH2 0x19C SWAP2 SWAP1 PUSH2 0x49D JUMP JUMPDEST PUSH0 PUSH1 0x40 MLOAD DUP1 DUP4 SUB DUP2 DUP6 DUP9 DUP1 EXTCODESIZE ISZERO DUP1 ISZERO PUSH2 0x1B3 JUMPI PUSH0 DUP1 REVERT JUMPDEST POP GAS CALL ISZERO DUP1 ISZERO PUSH2 0x1C5 JUMPI RETURNDATASIZE PUSH0 DUP1 RETURNDATACOPY RETURNDATASIZE PUSH0 REVERT JUMPDEST POP POP POP POP POP POP POP JUMP JUMPDEST DUP2 PUSH20 0xFFFFFFFFFFFFFFFFFFFFFFFFFFFFFFFFFFFFFFFF AND PUSH4 0x6FFD773C DUP3 PUSH1 0x40 MLOAD DUP3 PUSH4 0xFFFFFFFF AND PUSH1 0xE0 SHL DUP2 MSTORE PUSH1 0x4 ADD PUSH2 0x207 SWAP2 SWAP1 PUSH2 0x49D JUMP JUMPDEST PUSH0 PUSH1 0x40 MLOAD DUP1 DUP4 SUB DUP2 PUSH0 DUP8 DUP1 EXTCODESIZE ISZERO DUP1 ISZERO PUSH2 0x21E JUMPI PUSH0 DUP1 REVERT JUMPDEST POP GAS CALL ISZERO DUP1 ISZERO PUSH2 0x230 JUMPI RETURNDATASIZE PUSH0 DUP1 RETURNDATACOPY RETURNDATASIZE PUSH0 REVERT JUMPDEST POP POP POP POP POP POP JUMP JUMPDEST DUP2 PUSH20 0xFFFFFFFFFFFFFFFFFFFFFFFFFFFFFFFFFFFFFFFF AND PUSH4 0x6FFD773C DUP3 PUSH1 0x40 MLOAD DUP3 PUSH4 0xFFFFFFFF AND PUSH1 0xE0 SHL DUP2 MSTORE PUSH1 0x4 ADD PUSH2 0x271 SWAP2 SWAP1 PUSH2 0x49D JUMP JUMPDEST PUSH0 PUSH1 0x40 MLOAD DUP1 DUP4 SUB DUP2 PUSH0 DUP8 DUP1 EXTCODESIZE ISZERO DUP1 ISZERO PUSH2 0x288 JUMPI PUSH0 DUP1 REVERT JUMPDEST POP GAS CALL ISZERO DUP1 ISZERO PUSH2 0x29A JUMPI RETURNDATASIZE PUSH0 DUP1 RETURNDATACOPY RETURNDATASIZE PUSH0 REVERT JUMPDEST POP POP POP POP POP POP JUMP JUMPDEST PUSH0 DUP1 REVERT JUMPDEST PUSH0 PUSH20 0xFFFFFFFFFFFFFFFFFFFFFFFFFFFFFFFFFFFFFFFF DUP3 AND SWAP1 POP SWAP2 SWAP1 POP JUMP JUMPDEST PUSH0 PUSH2 0x2CF DUP3 PUSH2 0x2A6 JUMP JUMPDEST SWAP1 POP SWAP2 SWAP1 POP JUMP JUMPDEST PUSH0 PUSH2 0x2E0 DUP3 PUSH2 0x2C5 JUMP JUMPDEST SWAP1 POP SWAP2 SWAP1 POP JUMP JUMPDEST PUSH2 0x2F0 DUP2 PUSH2 0x2D6 JUMP JUMPDEST DUP2 EQ PUSH2 0x2FA JUMPI PUSH0 DUP1 REVERT JUMPDEST POP JUMP JUMPDEST PUSH0 DUP2 CALLDATALOAD SWAP1 POP PUSH2 0x30B DUP2 PUSH2 0x2E7 JUMP JUMPDEST SWAP3 SWAP2 POP POP JUMP JUMPDEST PUSH0 PUSH1 0x20 DUP3 DUP5 SUB SLT ISZERO PUSH2 0x326 JUMPI PUSH2 0x325 PUSH2 0x2A2 JUMP JUMPDEST JUMPDEST PUSH0 PUSH2 0x333 DUP5 DUP3 DUP6 ADD PUSH2 0x2FD JUMP JUMPDEST SWAP2 POP POP SWAP3 SWAP2 POP POP JUMP JUMPDEST PUSH0 DUP2 SWAP1 POP SWAP2 SWAP1 POP JUMP JUMPDEST PUSH2 0x34E DUP2 PUSH2 0x33C JUMP JUMPDEST DUP3 MSTORE POP POP JUMP JUMPDEST PUSH0 PUSH1 0x40 DUP3 ADD SWAP1 POP PUSH2 0x367 PUSH0 DUP4 ADD DUP6 PUSH2 0x345 JUMP JUMPDEST PUSH2 0x374 PUSH1 0x20 DUP4 ADD DUP5 PUSH2 0x345 JUMP JUMPDEST SWAP4 SWAP3 POP POP POP JUMP JUMPDEST PUSH2 0x384 DUP2 PUSH2 0x2C5 JUMP JUMPDEST DUP2 EQ PUSH2 0x38E JUMPI PUSH0 DUP1 REVERT JUMPDEST POP JUMP JUMPDEST PUSH0 DUP2 CALLDATALOAD SWAP1 POP PUSH2 0x39F DUP2 PUSH2 0x37B JUMP JUMPDEST SWAP3 SWAP2 POP POP JUMP JUMPDEST PUSH2 0x3AE DUP2 PUSH2 0x33C JUMP JUMPDEST DUP2 EQ PUSH2 0x3B8 JUMPI PUSH0 DUP1 REVERT JUMPDEST POP JUMP JUMPDEST PUSH0 DUP2 CALLDATALOAD SWAP1 POP PUSH2 0x3C9 DUP2 PUSH2 0x3A5 JUMP JUMPDEST SWAP3 SWAP2 POP POP JUMP JUMPDEST PUSH0 DUP1 PUSH1 0x40 DUP4 DUP6 SUB SLT ISZERO PUSH2 0x3E5 JUMPI PUSH2 0x3E4 PUSH2 0x2A2 JUMP JUMPDEST JUMPDEST PUSH0 PUSH2 0x3F2 DUP6 DUP3 DUP7 ADD PUSH2 0x391 JUMP JUMPDEST SWAP3 POP POP PUSH1 0x20 PUSH2 0x403 DUP6 DUP3 DUP7 ADD PUSH2 0x3BB JUMP JUMPDEST SWAP2 POP POP SWAP3 POP SWAP3 SWAP1 POP JUMP JUMPDEST PUSH0 DUP1 PUSH1 0x40 DUP4 DUP6 SUB SLT ISZERO PUSH2 0x423 JUMPI PUSH2 0x422 PUSH2 0x2A2 JUMP JUMPDEST JUMPDEST PUSH0 PUSH2 0x430 DUP6 DUP3 DUP7 ADD PUSH2 0x2FD JUMP JUMPDEST SWAP3 POP POP PUSH1 0x20 PUSH2 0x441 DUP6 DUP3 DUP7 ADD PUSH2 0x3BB JUMP JUMPDEST SWAP2 POP POP SWAP3 POP SWAP3 SWAP1 POP JUMP JUMPDEST PUSH0 DUP2 MLOAD SWAP1 POP PUSH2 0x459 DUP2 PUSH2 0x3A5 JUMP JUMPDEST SWAP3 SWAP2 POP POP JUMP JUMPDEST PUSH0 DUP1 PUSH1 0x40 DUP4 DUP6 SUB SLT ISZERO PUSH2 0x475 JUMPI PUSH2 0x474 PUSH2 0x2A2 JUMP JUMPDEST JUMPDEST PUSH0 PUSH2 0x482 DUP6 DUP3 DUP7 ADD PUSH2 0x44B JUMP JUMPDEST SWAP3 POP POP PUSH1 0x20 PUSH2 0x493 DUP6 DUP3 DUP7 ADD PUSH2 0x44B JUMP JUMPDEST SWAP2 POP POP SWAP3 POP SWAP3 SWAP1 POP JUMP JUMPDEST PUSH0 PUSH1 0x20 DUP3 ADD SWAP1 POP PUSH2 0x4B0 PUSH0 DUP4 ADD DUP5 PUSH2 0x345 JUMP JUMPDEST SWAP3 SWAP2 POP POP JUMP INVALID LOG2 PUSH5 0x6970667358 0x22 SLT KECCAK256 PUSH8 0xB476152292C64EB8 0x4C SLOAD ORIGIN RETURNDATACOPY 0xF7 0x25 0xD1 PUSH15 0x4B654008CC04FEA53AB0742E9D714E PUSH5 0x736F6C6343 STOP ADDMOD BYTE STOP CALLER "
				},
				"gasEstimates": {
					"creation": {
						"codeDepositCost": "252000",
						"executionCost": "292",
						"totalCost": "252292"
					},
					"external": {
						"getMyNumberAndEtherSent(address)": "infinite",
						"setMyNumber(address,uint256)": "infinite",
						"setMyNumberAndReceiveEther(address,uint256)": "infinite",
						"setMyNumberV2(address,uint256)": "infinite"
					}
				},
				"methodIdentifiers": {
					"getMyNumberAndEtherSent(address)": "173c800e",
					"setMyNumber(address,uint256)": "ee5254f6",
					"setMyNumberAndReceiveEther(address,uint256)": "8f0f789d",
					"setMyNumberV2(address,uint256)": "fce1ad01"
				}
			},
			"storageLayout": {
				"storage": [],
				"types": null
			},
			"userdoc": {
				"kind": "user",
				"methods": {},
				"version": 1
			}
		}
	}
}