{
	"contracts/cursoDeSolidity/Copy_06_unidadesDeMedida.sol": {
		"unitsInEthereum": {
			"abi": [
				{
					"inputs": [],
					"name": "isOneEtherV0",
					"outputs": [
						{
							"internalType": "bool",
							"name": "",
							"type": "bool"
						}
					],
					"stateMutability": "view",
					"type": "function"
				},
				{
					"inputs": [],
					"name": "isOneEtherV1",
					"outputs": [
						{
							"internalType": "bool",
							"name": "",
							"type": "bool"
						}
					],
					"stateMutability": "view",
					"type": "function"
				},
				{
					"inputs": [],
					"name": "isOneEtherV2",
					"outputs": [
						{
							"internalType": "bool",
							"name": "",
							"type": "bool"
						}
					],
					"stateMutability": "view",
					"type": "function"
				},
				{
					"inputs": [],
					"name": "isOneWei",
					"outputs": [
						{
							"internalType": "bool",
							"name": "",
							"type": "bool"
						}
					],
					"stateMutability": "view",
					"type": "function"
				},
				{
					"inputs": [],
					"name": "oneEther",
					"outputs": [
						{
							"internalType": "uint256",
							"name": "",
							"type": "uint256"
						}
					],
					"stateMutability": "view",
					"type": "function"
				},
				{
					"inputs": [],
					"name": "oneWei",
					"outputs": [
						{
							"internalType": "uint256",
							"name": "",
							"type": "uint256"
						}
					],
					"stateMutability": "view",
					"type": "function"
				}
			],
			"devdoc": {
				"kind": "dev",
				"methods": {},
				"version": 1
			},
			"evm": {
				"assembly": "    /* \"contracts/cursoDeSolidity/Copy_06_unidadesDeMedida.sol\":74:415  contract unitsInEthereum {... */\n  mstore(0x40, 0x80)\n    /* \"contracts/cursoDeSolidity/Copy_06_unidadesDeMedida.sol\":127:132  1 wei */\n  0x01\n    /* \"contracts/cursoDeSolidity/Copy_06_unidadesDeMedida.sol\":106:132  uint public oneWei = 1 wei */\n  0x00\n  sstore\n    /* \"contracts/cursoDeSolidity/Copy_06_unidadesDeMedida.sol\":171:172  1 */\n  0x01\n    /* \"contracts/cursoDeSolidity/Copy_06_unidadesDeMedida.sol\":162:167  1 wei */\n  dup1\n    /* \"contracts/cursoDeSolidity/Copy_06_unidadesDeMedida.sol\":162:172  1 wei == 1 */\n  eq\n    /* \"contracts/cursoDeSolidity/Copy_06_unidadesDeMedida.sol\":139:172  bool public isOneWei = 1 wei == 1 */\n  0x01\n  exp(0x0100, 0x00)\n  dup2\n  sload\n  dup2\n  0xff\n  mul\n  not\n  and\n  swap1\n  dup4\n  iszero\n  iszero\n  mul\n  or\n  swap1\n  sstore\n  pop\n    /* \"contracts/cursoDeSolidity/Copy_06_unidadesDeMedida.sol\":213:220  1 ether */\n  0x0de0b6b3a7640000\n    /* \"contracts/cursoDeSolidity/Copy_06_unidadesDeMedida.sol\":190:220  uint public oneEther = 1 ether */\n  0x02\n  sstore\n    /* \"contracts/cursoDeSolidity/Copy_06_unidadesDeMedida.sol\":265:284  1000000000000000000 */\n  0x0de0b6b3a7640000\n    /* \"contracts/cursoDeSolidity/Copy_06_unidadesDeMedida.sol\":254:261  1 ether */\n  dup1\n    /* \"contracts/cursoDeSolidity/Copy_06_unidadesDeMedida.sol\":254:284  1 ether == 1000000000000000000 */\n  eq\n    /* \"contracts/cursoDeSolidity/Copy_06_unidadesDeMedida.sol\":227:284  bool public isOneEtherV0 = 1 ether == 1000000000000000000 */\n  0x03\n  exp(0x0100, 0x00)\n  dup2\n  sload\n  dup2\n  0xff\n  mul\n  not\n  and\n  swap1\n  dup4\n  iszero\n  iszero\n  mul\n  or\n  swap1\n  sstore\n  pop\n    /* \"contracts/cursoDeSolidity/Copy_06_unidadesDeMedida.sol\":329:333  1e18 */\n  0x0de0b6b3a7640000\n    /* \"contracts/cursoDeSolidity/Copy_06_unidadesDeMedida.sol\":318:325  1 ether */\n  dup1\n    /* \"contracts/cursoDeSolidity/Copy_06_unidadesDeMedida.sol\":318:333  1 ether == 1e18 */\n  eq\n    /* \"contracts/cursoDeSolidity/Copy_06_unidadesDeMedida.sol\":291:333  bool public isOneEtherV1 = 1 ether == 1e18 */\n  0x03\n  exp(0x0100, 0x01)\n  dup2\n  sload\n  dup2\n  0xff\n  mul\n  not\n  and\n  swap1\n  dup4\n  iszero\n  iszero\n  mul\n  or\n  swap1\n  sstore\n  pop\n    /* \"contracts/cursoDeSolidity/Copy_06_unidadesDeMedida.sol\":378:384  10**18 */\n  0x0de0b6b3a7640000\n    /* \"contracts/cursoDeSolidity/Copy_06_unidadesDeMedida.sol\":367:374  1 ether */\n  dup1\n    /* \"contracts/cursoDeSolidity/Copy_06_unidadesDeMedida.sol\":367:384  1 ether == 10**18 */\n  eq\n    /* \"contracts/cursoDeSolidity/Copy_06_unidadesDeMedida.sol\":340:384  bool public isOneEtherV2 = 1 ether == 10**18 */\n  0x03\n  exp(0x0100, 0x02)\n  dup2\n  sload\n  dup2\n  0xff\n  mul\n  not\n  and\n  swap1\n  dup4\n  iszero\n  iszero\n  mul\n  or\n  swap1\n  sstore\n  pop\n    /* \"contracts/cursoDeSolidity/Copy_06_unidadesDeMedida.sol\":74:415  contract unitsInEthereum {... */\n  callvalue\n  dup1\n  iszero\n  tag_1\n  jumpi\n  0x00\n  dup1\n  revert\ntag_1:\n  pop\n  dataSize(sub_0)\n  dup1\n  dataOffset(sub_0)\n  0x00\n  codecopy\n  0x00\n  return\nstop\n\nsub_0: assembly {\n        /* \"contracts/cursoDeSolidity/Copy_06_unidadesDeMedida.sol\":74:415  contract unitsInEthereum {... */\n      mstore(0x40, 0x80)\n      callvalue\n      dup1\n      iszero\n      tag_1\n      jumpi\n      0x00\n      dup1\n      revert\n    tag_1:\n      pop\n      jumpi(tag_2, lt(calldatasize, 0x04))\n      shr(0xe0, calldataload(0x00))\n      dup1\n      0x28dc556f\n      eq\n      tag_3\n      jumpi\n      dup1\n      0x4fb2e0be\n      eq\n      tag_4\n      jumpi\n      dup1\n      0x9e15b50d\n      eq\n      tag_5\n      jumpi\n      dup1\n      0xa8dfd83b\n      eq\n      tag_6\n      jumpi\n      dup1\n      0xb4043bbd\n      eq\n      tag_7\n      jumpi\n      dup1\n      0xd297a89f\n      eq\n      tag_8\n      jumpi\n    tag_2:\n      0x00\n      dup1\n      revert\n        /* \"contracts/cursoDeSolidity/Copy_06_unidadesDeMedida.sol\":139:172  bool public isOneWei = 1 wei == 1 */\n    tag_3:\n      tag_9\n      tag_10\n      jump\t// in\n    tag_9:\n      mload(0x40)\n      tag_11\n      swap2\n      swap1\n      tag_12\n      jump\t// in\n    tag_11:\n      mload(0x40)\n      dup1\n      swap2\n      sub\n      swap1\n      return\n        /* \"contracts/cursoDeSolidity/Copy_06_unidadesDeMedida.sol\":106:132  uint public oneWei = 1 wei */\n    tag_4:\n      tag_13\n      tag_14\n      jump\t// in\n    tag_13:\n      mload(0x40)\n      tag_15\n      swap2\n      swap1\n      tag_16\n      jump\t// in\n    tag_15:\n      mload(0x40)\n      dup1\n      swap2\n      sub\n      swap1\n      return\n        /* \"contracts/cursoDeSolidity/Copy_06_unidadesDeMedida.sol\":340:384  bool public isOneEtherV2 = 1 ether == 10**18 */\n    tag_5:\n      tag_17\n      tag_18\n      jump\t// in\n    tag_17:\n      mload(0x40)\n      tag_19\n      swap2\n      swap1\n      tag_12\n      jump\t// in\n    tag_19:\n      mload(0x40)\n      dup1\n      swap2\n      sub\n      swap1\n      return\n        /* \"contracts/cursoDeSolidity/Copy_06_unidadesDeMedida.sol\":227:284  bool public isOneEtherV0 = 1 ether == 1000000000000000000 */\n    tag_6:\n      tag_20\n      tag_21\n      jump\t// in\n    tag_20:\n      mload(0x40)\n      tag_22\n      swap2\n      swap1\n      tag_12\n      jump\t// in\n    tag_22:\n      mload(0x40)\n      dup1\n      swap2\n      sub\n      swap1\n      return\n        /* \"contracts/cursoDeSolidity/Copy_06_unidadesDeMedida.sol\":291:333  bool public isOneEtherV1 = 1 ether == 1e18 */\n    tag_7:\n      tag_23\n      tag_24\n      jump\t// in\n    tag_23:\n      mload(0x40)\n      tag_25\n      swap2\n      swap1\n      tag_12\n      jump\t// in\n    tag_25:\n      mload(0x40)\n      dup1\n      swap2\n      sub\n      swap1\n      return\n        /* \"contracts/cursoDeSolidity/Copy_06_unidadesDeMedida.sol\":190:220  uint public oneEther = 1 ether */\n    tag_8:\n      tag_26\n      tag_27\n      jump\t// in\n    tag_26:\n      mload(0x40)\n      tag_28\n      swap2\n      swap1\n      tag_16\n      jump\t// in\n    tag_28:\n      mload(0x40)\n      dup1\n      swap2\n      sub\n      swap1\n      return\n        /* \"contracts/cursoDeSolidity/Copy_06_unidadesDeMedida.sol\":139:172  bool public isOneWei = 1 wei == 1 */\n    tag_10:\n      0x01\n      0x00\n      swap1\n      sload\n      swap1\n      0x0100\n      exp\n      swap1\n      div\n      0xff\n      and\n      dup2\n      jump\t// out\n        /* \"contracts/cursoDeSolidity/Copy_06_unidadesDeMedida.sol\":106:132  uint public oneWei = 1 wei */\n    tag_14:\n      sload(0x00)\n      dup2\n      jump\t// out\n        /* \"contracts/cursoDeSolidity/Copy_06_unidadesDeMedida.sol\":340:384  bool public isOneEtherV2 = 1 ether == 10**18 */\n    tag_18:\n      0x03\n      0x02\n      swap1\n      sload\n      swap1\n      0x0100\n      exp\n      swap1\n      div\n      0xff\n      and\n      dup2\n      jump\t// out\n        /* \"contracts/cursoDeSolidity/Copy_06_unidadesDeMedida.sol\":227:284  bool public isOneEtherV0 = 1 ether == 1000000000000000000 */\n    tag_21:\n      0x03\n      0x00\n      swap1\n      sload\n      swap1\n      0x0100\n      exp\n      swap1\n      div\n      0xff\n      and\n      dup2\n      jump\t// out\n        /* \"contracts/cursoDeSolidity/Copy_06_unidadesDeMedida.sol\":291:333  bool public isOneEtherV1 = 1 ether == 1e18 */\n    tag_24:\n      0x03\n      0x01\n      swap1\n      sload\n      swap1\n      0x0100\n      exp\n      swap1\n      div\n      0xff\n      and\n      dup2\n      jump\t// out\n        /* \"contracts/cursoDeSolidity/Copy_06_unidadesDeMedida.sol\":190:220  uint public oneEther = 1 ether */\n    tag_27:\n      sload(0x02)\n      dup2\n      jump\t// out\n        /* \"#utility.yul\":7:97   */\n    tag_29:\n        /* \"#utility.yul\":41:48   */\n      0x00\n        /* \"#utility.yul\":84:89   */\n      dup2\n        /* \"#utility.yul\":77:90   */\n      iszero\n        /* \"#utility.yul\":70:91   */\n      iszero\n        /* \"#utility.yul\":59:91   */\n      swap1\n      pop\n        /* \"#utility.yul\":7:97   */\n      swap2\n      swap1\n      pop\n      jump\t// out\n        /* \"#utility.yul\":103:212   */\n    tag_30:\n        /* \"#utility.yul\":184:205   */\n      tag_36\n        /* \"#utility.yul\":199:204   */\n      dup2\n        /* \"#utility.yul\":184:205   */\n      tag_29\n      jump\t// in\n    tag_36:\n        /* \"#utility.yul\":179:182   */\n      dup3\n        /* \"#utility.yul\":172:206   */\n      mstore\n        /* \"#utility.yul\":103:212   */\n      pop\n      pop\n      jump\t// out\n        /* \"#utility.yul\":218:428   */\n    tag_12:\n        /* \"#utility.yul\":305:309   */\n      0x00\n        /* \"#utility.yul\":343:345   */\n      0x20\n        /* \"#utility.yul\":332:341   */\n      dup3\n        /* \"#utility.yul\":328:346   */\n      add\n        /* \"#utility.yul\":320:346   */\n      swap1\n      pop\n        /* \"#utility.yul\":356:421   */\n      tag_38\n        /* \"#utility.yul\":418:419   */\n      0x00\n        /* \"#utility.yul\":407:416   */\n      dup4\n        /* \"#utility.yul\":403:420   */\n      add\n        /* \"#utility.yul\":394:400   */\n      dup5\n        /* \"#utility.yul\":356:421   */\n      tag_30\n      jump\t// in\n    tag_38:\n        /* \"#utility.yul\":218:428   */\n      swap3\n      swap2\n      pop\n      pop\n      jump\t// out\n        /* \"#utility.yul\":434:511   */\n    tag_31:\n        /* \"#utility.yul\":471:478   */\n      0x00\n        /* \"#utility.yul\":500:505   */\n      dup2\n        /* \"#utility.yul\":489:505   */\n      swap1\n      pop\n        /* \"#utility.yul\":434:511   */\n      swap2\n      swap1\n      pop\n      jump\t// out\n        /* \"#utility.yul\":517:635   */\n    tag_32:\n        /* \"#utility.yul\":604:628   */\n      tag_41\n        /* \"#utility.yul\":622:627   */\n      dup2\n        /* \"#utility.yul\":604:628   */\n      tag_31\n      jump\t// in\n    tag_41:\n        /* \"#utility.yul\":599:602   */\n      dup3\n        /* \"#utility.yul\":592:629   */\n      mstore\n        /* \"#utility.yul\":517:635   */\n      pop\n      pop\n      jump\t// out\n        /* \"#utility.yul\":641:863   */\n    tag_16:\n        /* \"#utility.yul\":734:738   */\n      0x00\n        /* \"#utility.yul\":772:774   */\n      0x20\n        /* \"#utility.yul\":761:770   */\n      dup3\n        /* \"#utility.yul\":757:775   */\n      add\n        /* \"#utility.yul\":749:775   */\n      swap1\n      pop\n        /* \"#utility.yul\":785:856   */\n      tag_43\n        /* \"#utility.yul\":853:854   */\n      0x00\n        /* \"#utility.yul\":842:851   */\n      dup4\n        /* \"#utility.yul\":838:855   */\n      add\n        /* \"#utility.yul\":829:835   */\n      dup5\n        /* \"#utility.yul\":785:856   */\n      tag_32\n      jump\t// in\n    tag_43:\n        /* \"#utility.yul\":641:863   */\n      swap3\n      swap2\n      pop\n      pop\n      jump\t// out\n\n    auxdata: 0xa26469706673582212207aeb580ea7394f71e1d96f60f884f86fcb27a97614a49748a13ca8679fd071a664736f6c634300081a0033\n}\n",
				"bytecode": {
					"linkReferences": {},
					"object": "608060405260015f556001801460015f6101000a81548160ff021916908315150217905550670de0b6b3a7640000600255670de0b6b3a7640000801460035f6101000a81548160ff021916908315150217905550670de0b6b3a76400008014600360016101000a81548160ff021916908315150217905550670de0b6b3a76400008014600360026101000a81548160ff02191690831515021790555034801560a5575f80fd5b50610207806100b35f395ff3fe608060405234801561000f575f80fd5b5060043610610060575f3560e01c806328dc556f146100645780634fb2e0be146100825780639e15b50d146100a0578063a8dfd83b146100be578063b4043bbd146100dc578063d297a89f146100fa575b5f80fd5b61006c610118565b6040516100799190610187565b60405180910390f35b61008a61012a565b60405161009791906101b8565b60405180910390f35b6100a861012f565b6040516100b59190610187565b60405180910390f35b6100c6610142565b6040516100d39190610187565b60405180910390f35b6100e4610154565b6040516100f19190610187565b60405180910390f35b610102610167565b60405161010f91906101b8565b60405180910390f35b60015f9054906101000a900460ff1681565b5f5481565b600360029054906101000a900460ff1681565b60035f9054906101000a900460ff1681565b600360019054906101000a900460ff1681565b60025481565b5f8115159050919050565b6101818161016d565b82525050565b5f60208201905061019a5f830184610178565b92915050565b5f819050919050565b6101b2816101a0565b82525050565b5f6020820190506101cb5f8301846101a9565b9291505056fea26469706673582212207aeb580ea7394f71e1d96f60f884f86fcb27a97614a49748a13ca8679fd071a664736f6c634300081a0033",
					"opcodes": "PUSH1 0x80 PUSH1 0x40 MSTORE PUSH1 0x1 PUSH0 SSTORE PUSH1 0x1 DUP1 EQ PUSH1 0x1 PUSH0 PUSH2 0x100 EXP DUP2 SLOAD DUP2 PUSH1 0xFF MUL NOT AND SWAP1 DUP4 ISZERO ISZERO MUL OR SWAP1 SSTORE POP PUSH8 0xDE0B6B3A7640000 PUSH1 0x2 SSTORE PUSH8 0xDE0B6B3A7640000 DUP1 EQ PUSH1 0x3 PUSH0 PUSH2 0x100 EXP DUP2 SLOAD DUP2 PUSH1 0xFF MUL NOT AND SWAP1 DUP4 ISZERO ISZERO MUL OR SWAP1 SSTORE POP PUSH8 0xDE0B6B3A7640000 DUP1 EQ PUSH1 0x3 PUSH1 0x1 PUSH2 0x100 EXP DUP2 SLOAD DUP2 PUSH1 0xFF MUL NOT AND SWAP1 DUP4 ISZERO ISZERO MUL OR SWAP1 SSTORE POP PUSH8 0xDE0B6B3A7640000 DUP1 EQ PUSH1 0x3 PUSH1 0x2 PUSH2 0x100 EXP DUP2 SLOAD DUP2 PUSH1 0xFF MUL NOT AND SWAP1 DUP4 ISZERO ISZERO MUL OR SWAP1 SSTORE POP CALLVALUE DUP1 ISZERO PUSH1 0xA5 JUMPI PUSH0 DUP1 REVERT JUMPDEST POP PUSH2 0x207 DUP1 PUSH2 0xB3 PUSH0 CODECOPY PUSH0 RETURN INVALID PUSH1 0x80 PUSH1 0x40 MSTORE CALLVALUE DUP1 ISZERO PUSH2 0xF JUMPI PUSH0 DUP1 REVERT JUMPDEST POP PUSH1 0x4 CALLDATASIZE LT PUSH2 0x60 JUMPI PUSH0 CALLDATALOAD PUSH1 0xE0 SHR DUP1 PUSH4 0x28DC556F EQ PUSH2 0x64 JUMPI DUP1 PUSH4 0x4FB2E0BE EQ PUSH2 0x82 JUMPI DUP1 PUSH4 0x9E15B50D EQ PUSH2 0xA0 JUMPI DUP1 PUSH4 0xA8DFD83B EQ PUSH2 0xBE JUMPI DUP1 PUSH4 0xB4043BBD EQ PUSH2 0xDC JUMPI DUP1 PUSH4 0xD297A89F EQ PUSH2 0xFA JUMPI JUMPDEST PUSH0 DUP1 REVERT JUMPDEST PUSH2 0x6C PUSH2 0x118 JUMP JUMPDEST PUSH1 0x40 MLOAD PUSH2 0x79 SWAP2 SWAP1 PUSH2 0x187 JUMP JUMPDEST PUSH1 0x40 MLOAD DUP1 SWAP2 SUB SWAP1 RETURN JUMPDEST PUSH2 0x8A PUSH2 0x12A JUMP JUMPDEST PUSH1 0x40 MLOAD PUSH2 0x97 SWAP2 SWAP1 PUSH2 0x1B8 JUMP JUMPDEST PUSH1 0x40 MLOAD DUP1 SWAP2 SUB SWAP1 RETURN JUMPDEST PUSH2 0xA8 PUSH2 0x12F JUMP JUMPDEST PUSH1 0x40 MLOAD PUSH2 0xB5 SWAP2 SWAP1 PUSH2 0x187 JUMP JUMPDEST PUSH1 0x40 MLOAD DUP1 SWAP2 SUB SWAP1 RETURN JUMPDEST PUSH2 0xC6 PUSH2 0x142 JUMP JUMPDEST PUSH1 0x40 MLOAD PUSH2 0xD3 SWAP2 SWAP1 PUSH2 0x187 JUMP JUMPDEST PUSH1 0x40 MLOAD DUP1 SWAP2 SUB SWAP1 RETURN JUMPDEST PUSH2 0xE4 PUSH2 0x154 JUMP JUMPDEST PUSH1 0x40 MLOAD PUSH2 0xF1 SWAP2 SWAP1 PUSH2 0x187 JUMP JUMPDEST PUSH1 0x40 MLOAD DUP1 SWAP2 SUB SWAP1 RETURN JUMPDEST PUSH2 0x102 PUSH2 0x167 JUMP JUMPDEST PUSH1 0x40 MLOAD PUSH2 0x10F SWAP2 SWAP1 PUSH2 0x1B8 JUMP JUMPDEST PUSH1 0x40 MLOAD DUP1 SWAP2 SUB SWAP1 RETURN JUMPDEST PUSH1 0x1 PUSH0 SWAP1 SLOAD SWAP1 PUSH2 0x100 EXP SWAP1 DIV PUSH1 0xFF AND DUP2 JUMP JUMPDEST PUSH0 SLOAD DUP2 JUMP JUMPDEST PUSH1 0x3 PUSH1 0x2 SWAP1 SLOAD SWAP1 PUSH2 0x100 EXP SWAP1 DIV PUSH1 0xFF AND DUP2 JUMP JUMPDEST PUSH1 0x3 PUSH0 SWAP1 SLOAD SWAP1 PUSH2 0x100 EXP SWAP1 DIV PUSH1 0xFF AND DUP2 JUMP JUMPDEST PUSH1 0x3 PUSH1 0x1 SWAP1 SLOAD SWAP1 PUSH2 0x100 EXP SWAP1 DIV PUSH1 0xFF AND DUP2 JUMP JUMPDEST PUSH1 0x2 SLOAD DUP2 JUMP JUMPDEST PUSH0 DUP2 ISZERO ISZERO SWAP1 POP SWAP2 SWAP1 POP JUMP JUMPDEST PUSH2 0x181 DUP2 PUSH2 0x16D JUMP JUMPDEST DUP3 MSTORE POP POP JUMP JUMPDEST PUSH0 PUSH1 0x20 DUP3 ADD SWAP1 POP PUSH2 0x19A PUSH0 DUP4 ADD DUP5 PUSH2 0x178 JUMP JUMPDEST SWAP3 SWAP2 POP POP JUMP JUMPDEST PUSH0 DUP2 SWAP1 POP SWAP2 SWAP1 POP JUMP JUMPDEST PUSH2 0x1B2 DUP2 PUSH2 0x1A0 JUMP JUMPDEST DUP3 MSTORE POP POP JUMP JUMPDEST PUSH0 PUSH1 0x20 DUP3 ADD SWAP1 POP PUSH2 0x1CB PUSH0 DUP4 ADD DUP5 PUSH2 0x1A9 JUMP JUMPDEST SWAP3 SWAP2 POP POP JUMP INVALID LOG2 PUSH5 0x6970667358 0x22 SLT KECCAK256 PUSH27 0xEB580EA7394F71E1D96F60F884F86FCB27A97614A49748A13CA867 SWAP16 0xD0 PUSH18 0xA664736F6C634300081A0033000000000000 "
				},
				"gasEstimates": {
					"creation": {
						"codeDepositCost": "103800",
						"executionCost": "141552",
						"totalCost": "245352"
					},
					"external": {
						"isOneEtherV0()": "2510",
						"isOneEtherV1()": "2583",
						"isOneEtherV2()": "2539",
						"isOneWei()": "2444",
						"oneEther()": "2513",
						"oneWei()": "2424"
					}
				},
				"methodIdentifiers": {
					"isOneEtherV0()": "a8dfd83b",
					"isOneEtherV1()": "b4043bbd",
					"isOneEtherV2()": "9e15b50d",
					"isOneWei()": "28dc556f",
					"oneEther()": "d297a89f",
					"oneWei()": "4fb2e0be"
				}
			},
			"storageLayout": {
				"storage": [
					{
						"astId": 4,
						"contract": "contracts/cursoDeSolidity/Copy_06_unidadesDeMedida.sol:unitsInEthereum",
						"label": "oneWei",
						"offset": 0,
						"slot": "0",
						"type": "t_uint256"
					},
					{
						"astId": 9,
						"contract": "contracts/cursoDeSolidity/Copy_06_unidadesDeMedida.sol:unitsInEthereum",
						"label": "isOneWei",
						"offset": 0,
						"slot": "1",
						"type": "t_bool"
					},
					{
						"astId": 12,
						"contract": "contracts/cursoDeSolidity/Copy_06_unidadesDeMedida.sol:unitsInEthereum",
						"label": "oneEther",
						"offset": 0,
						"slot": "2",
						"type": "t_uint256"
					},
					{
						"astId": 17,
						"contract": "contracts/cursoDeSolidity/Copy_06_unidadesDeMedida.sol:unitsInEthereum",
						"label": "isOneEtherV0",
						"offset": 0,
						"slot": "3",
						"type": "t_bool"
					},
					{
						"astId": 22,
						"contract": "contracts/cursoDeSolidity/Copy_06_unidadesDeMedida.sol:unitsInEthereum",
						"label": "isOneEtherV1",
						"offset": 1,
						"slot": "3",
						"type": "t_bool"
					},
					{
						"astId": 29,
						"contract": "contracts/cursoDeSolidity/Copy_06_unidadesDeMedida.sol:unitsInEthereum",
						"label": "isOneEtherV2",
						"offset": 2,
						"slot": "3",
						"type": "t_bool"
					}
				],
				"types": {
					"t_bool": {
						"encoding": "inplace",
						"label": "bool",
						"numberOfBytes": "1"
					},
					"t_uint256": {
						"encoding": "inplace",
						"label": "uint256",
						"numberOfBytes": "32"
					}
				}
			},
			"userdoc": {
				"kind": "user",
				"methods": {},
				"version": 1
			}
		}
	}
}