{
	"contracts/cursoDeSolidity/12_structs.sol": {
		"structs": {
			"abi": [
				{
					"inputs": [
						{
							"internalType": "string",
							"name": "_description",
							"type": "string"
						}
					],
					"name": "createGame",
					"outputs": [],
					"stateMutability": "nonpayable",
					"type": "function"
				},
				{
					"inputs": [
						{
							"internalType": "uint256",
							"name": "_index",
							"type": "uint256"
						}
					],
					"name": "getGame",
					"outputs": [
						{
							"components": [
								{
									"internalType": "string",
									"name": "description",
									"type": "string"
								},
								{
									"internalType": "uint256",
									"name": "price",
									"type": "uint256"
								},
								{
									"internalType": "bool",
									"name": "played",
									"type": "bool"
								}
							],
							"internalType": "struct structs.games",
							"name": "",
							"type": "tuple"
						}
					],
					"stateMutability": "view",
					"type": "function"
				},
				{
					"inputs": [
						{
							"internalType": "uint256",
							"name": "_index",
							"type": "uint256"
						},
						{
							"internalType": "string",
							"name": "_description",
							"type": "string"
						}
					],
					"name": "updateDescription",
					"outputs": [],
					"stateMutability": "nonpayable",
					"type": "function"
				}
			],
			"devdoc": {
				"kind": "dev",
				"methods": {},
				"version": 1
			},
			"evm": {
				"assembly": "    /* \"contracts/cursoDeSolidity/12_structs.sol\":206:797  contract structs {... */\n  mstore(0x40, 0x80)\n  callvalue\n  dup1\n  iszero\n  tag_1\n  jumpi\n  0x00\n  dup1\n  revert\ntag_1:\n  pop\n  dataSize(sub_0)\n  dup1\n  dataOffset(sub_0)\n  0x00\n  codecopy\n  0x00\n  return\nstop\n\nsub_0: assembly {\n        /* \"contracts/cursoDeSolidity/12_structs.sol\":206:797  contract structs {... */\n      mstore(0x40, 0x80)\n      callvalue\n      dup1\n      iszero\n      tag_1\n      jumpi\n      0x00\n      dup1\n      revert\n    tag_1:\n      pop\n      jumpi(tag_2, lt(calldatasize, 0x04))\n      shr(0xe0, calldataload(0x00))\n      dup1\n      0x14dee4b3\n      eq\n      tag_3\n      jumpi\n      dup1\n      0x2ebc0504\n      eq\n      tag_4\n      jumpi\n      dup1\n      0xa2f77bcc\n      eq\n      tag_5\n      jumpi\n    tag_2:\n      0x00\n      dup1\n      revert\n        /* \"contracts/cursoDeSolidity/12_structs.sol\":607:794  function updateDescription(uint _index,string memory _description) public {... */\n    tag_3:\n      tag_6\n      0x04\n      dup1\n      calldatasize\n      sub\n      dup2\n      add\n      swap1\n      tag_7\n      swap2\n      swap1\n      tag_8\n      jump\t// in\n    tag_7:\n      tag_9\n      jump\t// in\n    tag_6:\n      stop\n        /* \"contracts/cursoDeSolidity/12_structs.sol\":481:599  function createGame(string memory _description) public {... */\n    tag_4:\n      tag_10\n      0x04\n      dup1\n      calldatasize\n      sub\n      dup2\n      add\n      swap1\n      tag_11\n      swap2\n      swap1\n      tag_12\n      jump\t// in\n    tag_11:\n      tag_13\n      jump\t// in\n    tag_10:\n      stop\n        /* \"contracts/cursoDeSolidity/12_structs.sol\":366:473  function getGame(uint _index) public view returns(games memory) {... */\n    tag_5:\n      tag_14\n      0x04\n      dup1\n      calldatasize\n      sub\n      dup2\n      add\n      swap1\n      tag_15\n      swap2\n      swap1\n      tag_16\n      jump\t// in\n    tag_15:\n      tag_17\n      jump\t// in\n    tag_14:\n      mload(0x40)\n      tag_18\n      swap2\n      swap1\n      tag_19\n      jump\t// in\n    tag_18:\n      mload(0x40)\n      dup1\n      swap2\n      sub\n      swap1\n      return\n        /* \"contracts/cursoDeSolidity/12_structs.sol\":607:794  function updateDescription(uint _index,string memory _description) public {... */\n    tag_9:\n        /* \"contracts/cursoDeSolidity/12_structs.sol\":692:717  games storage currentGame */\n      0x00\n        /* \"contracts/cursoDeSolidity/12_structs.sol\":720:729  gamesList */\n      dup1\n        /* \"contracts/cursoDeSolidity/12_structs.sol\":730:736  _index */\n      dup4\n        /* \"contracts/cursoDeSolidity/12_structs.sol\":720:737  gamesList[_index] */\n      dup2\n      sload\n      dup2\n      lt\n      tag_21\n      jumpi\n      tag_22\n      tag_23\n      jump\t// in\n    tag_22:\n    tag_21:\n      swap1\n      0x00\n      mstore\n      keccak256(0x00, 0x20)\n      swap1\n      0x03\n      mul\n      add\n        /* \"contracts/cursoDeSolidity/12_structs.sol\":692:737  games storage currentGame = gamesList[_index] */\n      swap1\n      pop\n        /* \"contracts/cursoDeSolidity/12_structs.sol\":774:786  _description */\n      dup2\n        /* \"contracts/cursoDeSolidity/12_structs.sol\":748:759  currentGame */\n      dup2\n        /* \"contracts/cursoDeSolidity/12_structs.sol\":748:771  currentGame.description */\n      0x00\n      add\n        /* \"contracts/cursoDeSolidity/12_structs.sol\":748:786  currentGame.description = _description */\n      swap1\n      dup2\n      tag_25\n      swap2\n      swap1\n      tag_26\n      jump\t// in\n    tag_25:\n      pop\n        /* \"contracts/cursoDeSolidity/12_structs.sol\":681:794  {... */\n      pop\n        /* \"contracts/cursoDeSolidity/12_structs.sol\":607:794  function updateDescription(uint _index,string memory _description) public {... */\n      pop\n      pop\n      jump\t// out\n        /* \"contracts/cursoDeSolidity/12_structs.sol\":481:599  function createGame(string memory _description) public {... */\n    tag_13:\n        /* \"contracts/cursoDeSolidity/12_structs.sol\":547:556  gamesList */\n      0x00\n        /* \"contracts/cursoDeSolidity/12_structs.sol\":562:590  games(_description,10,false) */\n      mload(0x40)\n      dup1\n      0x60\n      add\n      0x40\n      mstore\n      dup1\n        /* \"contracts/cursoDeSolidity/12_structs.sol\":568:580  _description */\n      dup4\n        /* \"contracts/cursoDeSolidity/12_structs.sol\":562:590  games(_description,10,false) */\n      dup2\n      mstore\n      0x20\n      add\n        /* \"contracts/cursoDeSolidity/12_structs.sol\":581:583  10 */\n      0x0a\n        /* \"contracts/cursoDeSolidity/12_structs.sol\":562:590  games(_description,10,false) */\n      dup2\n      mstore\n      0x20\n      add\n        /* \"contracts/cursoDeSolidity/12_structs.sol\":584:589  false */\n      0x00\n        /* \"contracts/cursoDeSolidity/12_structs.sol\":562:590  games(_description,10,false) */\n      iszero\n      iszero\n      dup2\n      mstore\n      pop\n        /* \"contracts/cursoDeSolidity/12_structs.sol\":547:591  gamesList.push(games(_description,10,false)) */\n      swap1\n      dup1\n      0x01\n      dup2\n      sload\n      add\n      dup1\n      dup3\n      sstore\n      dup1\n      swap2\n      pop\n      pop\n      0x01\n      swap1\n      sub\n      swap1\n      0x00\n      mstore\n      keccak256(0x00, 0x20)\n      swap1\n      0x03\n      mul\n      add\n      0x00\n      swap1\n      swap2\n      swap1\n      swap2\n      swap1\n      swap2\n      pop\n      0x00\n      dup3\n      add\n      mload\n      dup2\n      0x00\n      add\n      swap1\n      dup2\n      tag_29\n      swap2\n      swap1\n      tag_26\n      jump\t// in\n    tag_29:\n      pop\n      0x20\n      dup3\n      add\n      mload\n      dup2\n      0x01\n      add\n      sstore\n      0x40\n      dup3\n      add\n      mload\n      dup2\n      0x02\n      add\n      exp(0x0100, 0x00)\n      dup2\n      sload\n      dup2\n      0xff\n      mul\n      not\n      and\n      swap1\n      dup4\n      iszero\n      iszero\n      mul\n      or\n      swap1\n      sstore\n      pop\n      pop\n      pop\n        /* \"contracts/cursoDeSolidity/12_structs.sol\":481:599  function createGame(string memory _description) public {... */\n      pop\n      jump\t// out\n        /* \"contracts/cursoDeSolidity/12_structs.sol\":366:473  function getGame(uint _index) public view returns(games memory) {... */\n    tag_17:\n        /* \"contracts/cursoDeSolidity/12_structs.sol\":416:428  games memory */\n      tag_30\n      tag_31\n      jump\t// in\n    tag_30:\n        /* \"contracts/cursoDeSolidity/12_structs.sol\":448:457  gamesList */\n      0x00\n        /* \"contracts/cursoDeSolidity/12_structs.sol\":458:464  _index */\n      dup3\n        /* \"contracts/cursoDeSolidity/12_structs.sol\":448:465  gamesList[_index] */\n      dup2\n      sload\n      dup2\n      lt\n      tag_33\n      jumpi\n      tag_34\n      tag_23\n      jump\t// in\n    tag_34:\n    tag_33:\n      swap1\n      0x00\n      mstore\n      keccak256(0x00, 0x20)\n      swap1\n      0x03\n      mul\n      add\n        /* \"contracts/cursoDeSolidity/12_structs.sol\":441:465  return gamesList[_index] */\n      mload(0x40)\n      dup1\n      0x60\n      add\n      0x40\n      mstore\n      swap1\n      dup2\n      0x00\n      dup3\n      add\n      dup1\n      sload\n      tag_36\n      swap1\n      tag_37\n      jump\t// in\n    tag_36:\n      dup1\n      0x1f\n      add\n      0x20\n      dup1\n      swap2\n      div\n      mul\n      0x20\n      add\n      mload(0x40)\n      swap1\n      dup2\n      add\n      0x40\n      mstore\n      dup1\n      swap3\n      swap2\n      swap1\n      dup2\n      dup2\n      mstore\n      0x20\n      add\n      dup3\n      dup1\n      sload\n      tag_38\n      swap1\n      tag_37\n      jump\t// in\n    tag_38:\n      dup1\n      iszero\n      tag_39\n      jumpi\n      dup1\n      0x1f\n      lt\n      tag_40\n      jumpi\n      0x0100\n      dup1\n      dup4\n      sload\n      div\n      mul\n      dup4\n      mstore\n      swap2\n      0x20\n      add\n      swap2\n      jump(tag_39)\n    tag_40:\n      dup3\n      add\n      swap2\n      swap1\n      0x00\n      mstore\n      keccak256(0x00, 0x20)\n      swap1\n    tag_41:\n      dup2\n      sload\n      dup2\n      mstore\n      swap1\n      0x01\n      add\n      swap1\n      0x20\n      add\n      dup1\n      dup4\n      gt\n      tag_41\n      jumpi\n      dup3\n      swap1\n      sub\n      0x1f\n      and\n      dup3\n      add\n      swap2\n    tag_39:\n      pop\n      pop\n      pop\n      pop\n      pop\n      dup2\n      mstore\n      0x20\n      add\n      0x01\n      dup3\n      add\n      sload\n      dup2\n      mstore\n      0x20\n      add\n      0x02\n      dup3\n      add\n      0x00\n      swap1\n      sload\n      swap1\n      0x0100\n      exp\n      swap1\n      div\n      0xff\n      and\n      iszero\n      iszero\n      iszero\n      iszero\n      dup2\n      mstore\n      pop\n      pop\n      swap1\n      pop\n        /* \"contracts/cursoDeSolidity/12_structs.sol\":366:473  function getGame(uint _index) public view returns(games memory) {... */\n      swap2\n      swap1\n      pop\n      jump\t// out\n    tag_31:\n      mload(0x40)\n      dup1\n      0x60\n      add\n      0x40\n      mstore\n      dup1\n      0x60\n      dup2\n      mstore\n      0x20\n      add\n      0x00\n      dup2\n      mstore\n      0x20\n      add\n      iszero(iszero(0x00))\n      dup2\n      mstore\n      pop\n      swap1\n      jump\t// out\n        /* \"#utility.yul\":7:82   */\n    tag_42:\n        /* \"#utility.yul\":40:46   */\n      0x00\n        /* \"#utility.yul\":73:75   */\n      0x40\n        /* \"#utility.yul\":67:76   */\n      mload\n        /* \"#utility.yul\":57:76   */\n      swap1\n      pop\n        /* \"#utility.yul\":7:82   */\n      swap1\n      jump\t// out\n        /* \"#utility.yul\":88:205   */\n    tag_43:\n        /* \"#utility.yul\":197:198   */\n      0x00\n        /* \"#utility.yul\":194:195   */\n      dup1\n        /* \"#utility.yul\":187:199   */\n      revert\n        /* \"#utility.yul\":211:328   */\n    tag_44:\n        /* \"#utility.yul\":320:321   */\n      0x00\n        /* \"#utility.yul\":317:318   */\n      dup1\n        /* \"#utility.yul\":310:322   */\n      revert\n        /* \"#utility.yul\":334:411   */\n    tag_45:\n        /* \"#utility.yul\":371:378   */\n      0x00\n        /* \"#utility.yul\":400:405   */\n      dup2\n        /* \"#utility.yul\":389:405   */\n      swap1\n      pop\n        /* \"#utility.yul\":334:411   */\n      swap2\n      swap1\n      pop\n      jump\t// out\n        /* \"#utility.yul\":417:539   */\n    tag_46:\n        /* \"#utility.yul\":490:514   */\n      tag_88\n        /* \"#utility.yul\":508:513   */\n      dup2\n        /* \"#utility.yul\":490:514   */\n      tag_45\n      jump\t// in\n    tag_88:\n        /* \"#utility.yul\":483:488   */\n      dup2\n        /* \"#utility.yul\":480:515   */\n      eq\n        /* \"#utility.yul\":470:533   */\n      tag_89\n      jumpi\n        /* \"#utility.yul\":529:530   */\n      0x00\n        /* \"#utility.yul\":526:527   */\n      dup1\n        /* \"#utility.yul\":519:531   */\n      revert\n        /* \"#utility.yul\":470:533   */\n    tag_89:\n        /* \"#utility.yul\":417:539   */\n      pop\n      jump\t// out\n        /* \"#utility.yul\":545:684   */\n    tag_47:\n        /* \"#utility.yul\":591:596   */\n      0x00\n        /* \"#utility.yul\":629:635   */\n      dup2\n        /* \"#utility.yul\":616:636   */\n      calldataload\n        /* \"#utility.yul\":607:636   */\n      swap1\n      pop\n        /* \"#utility.yul\":645:678   */\n      tag_91\n        /* \"#utility.yul\":672:677   */\n      dup2\n        /* \"#utility.yul\":645:678   */\n      tag_46\n      jump\t// in\n    tag_91:\n        /* \"#utility.yul\":545:684   */\n      swap3\n      swap2\n      pop\n      pop\n      jump\t// out\n        /* \"#utility.yul\":690:807   */\n    tag_48:\n        /* \"#utility.yul\":799:800   */\n      0x00\n        /* \"#utility.yul\":796:797   */\n      dup1\n        /* \"#utility.yul\":789:801   */\n      revert\n        /* \"#utility.yul\":813:930   */\n    tag_49:\n        /* \"#utility.yul\":922:923   */\n      0x00\n        /* \"#utility.yul\":919:920   */\n      dup1\n        /* \"#utility.yul\":912:924   */\n      revert\n        /* \"#utility.yul\":936:1038   */\n    tag_50:\n        /* \"#utility.yul\":977:983   */\n      0x00\n        /* \"#utility.yul\":1028:1030   */\n      0x1f\n        /* \"#utility.yul\":1024:1031   */\n      not\n        /* \"#utility.yul\":1019:1021   */\n      0x1f\n        /* \"#utility.yul\":1012:1017   */\n      dup4\n        /* \"#utility.yul\":1008:1022   */\n      add\n        /* \"#utility.yul\":1004:1032   */\n      and\n        /* \"#utility.yul\":994:1032   */\n      swap1\n      pop\n        /* \"#utility.yul\":936:1038   */\n      swap2\n      swap1\n      pop\n      jump\t// out\n        /* \"#utility.yul\":1044:1224   */\n    tag_51:\n        /* \"#utility.yul\":1092:1169   */\n      0x4e487b7100000000000000000000000000000000000000000000000000000000\n        /* \"#utility.yul\":1089:1090   */\n      0x00\n        /* \"#utility.yul\":1082:1170   */\n      mstore\n        /* \"#utility.yul\":1189:1193   */\n      0x41\n        /* \"#utility.yul\":1186:1187   */\n      0x04\n        /* \"#utility.yul\":1179:1194   */\n      mstore\n        /* \"#utility.yul\":1213:1217   */\n      0x24\n        /* \"#utility.yul\":1210:1211   */\n      0x00\n        /* \"#utility.yul\":1203:1218   */\n      revert\n        /* \"#utility.yul\":1230:1511   */\n    tag_52:\n        /* \"#utility.yul\":1313:1340   */\n      tag_97\n        /* \"#utility.yul\":1335:1339   */\n      dup3\n        /* \"#utility.yul\":1313:1340   */\n      tag_50\n      jump\t// in\n    tag_97:\n        /* \"#utility.yul\":1305:1311   */\n      dup2\n        /* \"#utility.yul\":1301:1341   */\n      add\n        /* \"#utility.yul\":1443:1449   */\n      dup2\n        /* \"#utility.yul\":1431:1441   */\n      dup2\n        /* \"#utility.yul\":1428:1450   */\n      lt\n        /* \"#utility.yul\":1407:1425   */\n      0xffffffffffffffff\n        /* \"#utility.yul\":1395:1405   */\n      dup3\n        /* \"#utility.yul\":1392:1426   */\n      gt\n        /* \"#utility.yul\":1389:1451   */\n      or\n        /* \"#utility.yul\":1386:1474   */\n      iszero\n      tag_98\n      jumpi\n        /* \"#utility.yul\":1454:1472   */\n      tag_99\n      tag_51\n      jump\t// in\n    tag_99:\n        /* \"#utility.yul\":1386:1474   */\n    tag_98:\n        /* \"#utility.yul\":1494:1504   */\n      dup1\n        /* \"#utility.yul\":1490:1492   */\n      0x40\n        /* \"#utility.yul\":1483:1505   */\n      mstore\n        /* \"#utility.yul\":1273:1511   */\n      pop\n        /* \"#utility.yul\":1230:1511   */\n      pop\n      pop\n      jump\t// out\n        /* \"#utility.yul\":1517:1646   */\n    tag_53:\n        /* \"#utility.yul\":1551:1557   */\n      0x00\n        /* \"#utility.yul\":1578:1598   */\n      tag_101\n      tag_42\n      jump\t// in\n    tag_101:\n        /* \"#utility.yul\":1568:1598   */\n      swap1\n      pop\n        /* \"#utility.yul\":1607:1640   */\n      tag_102\n        /* \"#utility.yul\":1635:1639   */\n      dup3\n        /* \"#utility.yul\":1627:1633   */\n      dup3\n        /* \"#utility.yul\":1607:1640   */\n      tag_52\n      jump\t// in\n    tag_102:\n        /* \"#utility.yul\":1517:1646   */\n      swap2\n      swap1\n      pop\n      jump\t// out\n        /* \"#utility.yul\":1652:1960   */\n    tag_54:\n        /* \"#utility.yul\":1714:1718   */\n      0x00\n        /* \"#utility.yul\":1804:1822   */\n      0xffffffffffffffff\n        /* \"#utility.yul\":1796:1802   */\n      dup3\n        /* \"#utility.yul\":1793:1823   */\n      gt\n        /* \"#utility.yul\":1790:1846   */\n      iszero\n      tag_104\n      jumpi\n        /* \"#utility.yul\":1826:1844   */\n      tag_105\n      tag_51\n      jump\t// in\n    tag_105:\n        /* \"#utility.yul\":1790:1846   */\n    tag_104:\n        /* \"#utility.yul\":1864:1893   */\n      tag_106\n        /* \"#utility.yul\":1886:1892   */\n      dup3\n        /* \"#utility.yul\":1864:1893   */\n      tag_50\n      jump\t// in\n    tag_106:\n        /* \"#utility.yul\":1856:1893   */\n      swap1\n      pop\n        /* \"#utility.yul\":1948:1952   */\n      0x20\n        /* \"#utility.yul\":1942:1946   */\n      dup2\n        /* \"#utility.yul\":1938:1953   */\n      add\n        /* \"#utility.yul\":1930:1953   */\n      swap1\n      pop\n        /* \"#utility.yul\":1652:1960   */\n      swap2\n      swap1\n      pop\n      jump\t// out\n        /* \"#utility.yul\":1966:2114   */\n    tag_55:\n        /* \"#utility.yul\":2064:2070   */\n      dup3\n        /* \"#utility.yul\":2059:2062   */\n      dup2\n        /* \"#utility.yul\":2054:2057   */\n      dup4\n        /* \"#utility.yul\":2041:2071   */\n      calldatacopy\n        /* \"#utility.yul\":2105:2106   */\n      0x00\n        /* \"#utility.yul\":2096:2102   */\n      dup4\n        /* \"#utility.yul\":2091:2094   */\n      dup4\n        /* \"#utility.yul\":2087:2103   */\n      add\n        /* \"#utility.yul\":2080:2107   */\n      mstore\n        /* \"#utility.yul\":1966:2114   */\n      pop\n      pop\n      pop\n      jump\t// out\n        /* \"#utility.yul\":2120:2545   */\n    tag_56:\n        /* \"#utility.yul\":2198:2203   */\n      0x00\n        /* \"#utility.yul\":2223:2289   */\n      tag_109\n        /* \"#utility.yul\":2239:2288   */\n      tag_110\n        /* \"#utility.yul\":2281:2287   */\n      dup5\n        /* \"#utility.yul\":2239:2288   */\n      tag_54\n      jump\t// in\n    tag_110:\n        /* \"#utility.yul\":2223:2289   */\n      tag_53\n      jump\t// in\n    tag_109:\n        /* \"#utility.yul\":2214:2289   */\n      swap1\n      pop\n        /* \"#utility.yul\":2312:2318   */\n      dup3\n        /* \"#utility.yul\":2305:2310   */\n      dup2\n        /* \"#utility.yul\":2298:2319   */\n      mstore\n        /* \"#utility.yul\":2350:2354   */\n      0x20\n        /* \"#utility.yul\":2343:2348   */\n      dup2\n        /* \"#utility.yul\":2339:2355   */\n      add\n        /* \"#utility.yul\":2388:2391   */\n      dup5\n        /* \"#utility.yul\":2379:2385   */\n      dup5\n        /* \"#utility.yul\":2374:2377   */\n      dup5\n        /* \"#utility.yul\":2370:2386   */\n      add\n        /* \"#utility.yul\":2367:2392   */\n      gt\n        /* \"#utility.yul\":2364:2476   */\n      iszero\n      tag_111\n      jumpi\n        /* \"#utility.yul\":2395:2474   */\n      tag_112\n      tag_49\n      jump\t// in\n    tag_112:\n        /* \"#utility.yul\":2364:2476   */\n    tag_111:\n        /* \"#utility.yul\":2485:2539   */\n      tag_113\n        /* \"#utility.yul\":2532:2538   */\n      dup5\n        /* \"#utility.yul\":2527:2530   */\n      dup3\n        /* \"#utility.yul\":2522:2525   */\n      dup6\n        /* \"#utility.yul\":2485:2539   */\n      tag_55\n      jump\t// in\n    tag_113:\n        /* \"#utility.yul\":2204:2545   */\n      pop\n        /* \"#utility.yul\":2120:2545   */\n      swap4\n      swap3\n      pop\n      pop\n      pop\n      jump\t// out\n        /* \"#utility.yul\":2565:2905   */\n    tag_57:\n        /* \"#utility.yul\":2621:2626   */\n      0x00\n        /* \"#utility.yul\":2670:2673   */\n      dup3\n        /* \"#utility.yul\":2663:2667   */\n      0x1f\n        /* \"#utility.yul\":2655:2661   */\n      dup4\n        /* \"#utility.yul\":2651:2668   */\n      add\n        /* \"#utility.yul\":2647:2674   */\n      slt\n        /* \"#utility.yul\":2637:2759   */\n      tag_115\n      jumpi\n        /* \"#utility.yul\":2678:2757   */\n      tag_116\n      tag_48\n      jump\t// in\n    tag_116:\n        /* \"#utility.yul\":2637:2759   */\n    tag_115:\n        /* \"#utility.yul\":2795:2801   */\n      dup2\n        /* \"#utility.yul\":2782:2802   */\n      calldataload\n        /* \"#utility.yul\":2820:2899   */\n      tag_117\n        /* \"#utility.yul\":2895:2898   */\n      dup5\n        /* \"#utility.yul\":2887:2893   */\n      dup3\n        /* \"#utility.yul\":2880:2884   */\n      0x20\n        /* \"#utility.yul\":2872:2878   */\n      dup7\n        /* \"#utility.yul\":2868:2885   */\n      add\n        /* \"#utility.yul\":2820:2899   */\n      tag_56\n      jump\t// in\n    tag_117:\n        /* \"#utility.yul\":2811:2899   */\n      swap2\n      pop\n        /* \"#utility.yul\":2627:2905   */\n      pop\n        /* \"#utility.yul\":2565:2905   */\n      swap3\n      swap2\n      pop\n      pop\n      jump\t// out\n        /* \"#utility.yul\":2911:3565   */\n    tag_8:\n        /* \"#utility.yul\":2989:2995   */\n      0x00\n        /* \"#utility.yul\":2997:3003   */\n      dup1\n        /* \"#utility.yul\":3046:3048   */\n      0x40\n        /* \"#utility.yul\":3034:3043   */\n      dup4\n        /* \"#utility.yul\":3025:3032   */\n      dup6\n        /* \"#utility.yul\":3021:3044   */\n      sub\n        /* \"#utility.yul\":3017:3049   */\n      slt\n        /* \"#utility.yul\":3014:3133   */\n      iszero\n      tag_119\n      jumpi\n        /* \"#utility.yul\":3052:3131   */\n      tag_120\n      tag_43\n      jump\t// in\n    tag_120:\n        /* \"#utility.yul\":3014:3133   */\n    tag_119:\n        /* \"#utility.yul\":3172:3173   */\n      0x00\n        /* \"#utility.yul\":3197:3250   */\n      tag_121\n        /* \"#utility.yul\":3242:3249   */\n      dup6\n        /* \"#utility.yul\":3233:3239   */\n      dup3\n        /* \"#utility.yul\":3222:3231   */\n      dup7\n        /* \"#utility.yul\":3218:3240   */\n      add\n        /* \"#utility.yul\":3197:3250   */\n      tag_47\n      jump\t// in\n    tag_121:\n        /* \"#utility.yul\":3187:3250   */\n      swap3\n      pop\n        /* \"#utility.yul\":3143:3260   */\n      pop\n        /* \"#utility.yul\":3327:3329   */\n      0x20\n        /* \"#utility.yul\":3316:3325   */\n      dup4\n        /* \"#utility.yul\":3312:3330   */\n      add\n        /* \"#utility.yul\":3299:3331   */\n      calldataload\n        /* \"#utility.yul\":3358:3376   */\n      0xffffffffffffffff\n        /* \"#utility.yul\":3350:3356   */\n      dup2\n        /* \"#utility.yul\":3347:3377   */\n      gt\n        /* \"#utility.yul\":3344:3461   */\n      iszero\n      tag_122\n      jumpi\n        /* \"#utility.yul\":3380:3459   */\n      tag_123\n      tag_44\n      jump\t// in\n    tag_123:\n        /* \"#utility.yul\":3344:3461   */\n    tag_122:\n        /* \"#utility.yul\":3485:3548   */\n      tag_124\n        /* \"#utility.yul\":3540:3547   */\n      dup6\n        /* \"#utility.yul\":3531:3537   */\n      dup3\n        /* \"#utility.yul\":3520:3529   */\n      dup7\n        /* \"#utility.yul\":3516:3538   */\n      add\n        /* \"#utility.yul\":3485:3548   */\n      tag_57\n      jump\t// in\n    tag_124:\n        /* \"#utility.yul\":3475:3548   */\n      swap2\n      pop\n        /* \"#utility.yul\":3270:3558   */\n      pop\n        /* \"#utility.yul\":2911:3565   */\n      swap3\n      pop\n      swap3\n      swap1\n      pop\n      jump\t// out\n        /* \"#utility.yul\":3571:4080   */\n    tag_12:\n        /* \"#utility.yul\":3640:3646   */\n      0x00\n        /* \"#utility.yul\":3689:3691   */\n      0x20\n        /* \"#utility.yul\":3677:3686   */\n      dup3\n        /* \"#utility.yul\":3668:3675   */\n      dup5\n        /* \"#utility.yul\":3664:3687   */\n      sub\n        /* \"#utility.yul\":3660:3692   */\n      slt\n        /* \"#utility.yul\":3657:3776   */\n      iszero\n      tag_126\n      jumpi\n        /* \"#utility.yul\":3695:3774   */\n      tag_127\n      tag_43\n      jump\t// in\n    tag_127:\n        /* \"#utility.yul\":3657:3776   */\n    tag_126:\n        /* \"#utility.yul\":3843:3844   */\n      0x00\n        /* \"#utility.yul\":3832:3841   */\n      dup3\n        /* \"#utility.yul\":3828:3845   */\n      add\n        /* \"#utility.yul\":3815:3846   */\n      calldataload\n        /* \"#utility.yul\":3873:3891   */\n      0xffffffffffffffff\n        /* \"#utility.yul\":3865:3871   */\n      dup2\n        /* \"#utility.yul\":3862:3892   */\n      gt\n        /* \"#utility.yul\":3859:3976   */\n      iszero\n      tag_128\n      jumpi\n        /* \"#utility.yul\":3895:3974   */\n      tag_129\n      tag_44\n      jump\t// in\n    tag_129:\n        /* \"#utility.yul\":3859:3976   */\n    tag_128:\n        /* \"#utility.yul\":4000:4063   */\n      tag_130\n        /* \"#utility.yul\":4055:4062   */\n      dup5\n        /* \"#utility.yul\":4046:4052   */\n      dup3\n        /* \"#utility.yul\":4035:4044   */\n      dup6\n        /* \"#utility.yul\":4031:4053   */\n      add\n        /* \"#utility.yul\":4000:4063   */\n      tag_57\n      jump\t// in\n    tag_130:\n        /* \"#utility.yul\":3990:4063   */\n      swap2\n      pop\n        /* \"#utility.yul\":3786:4073   */\n      pop\n        /* \"#utility.yul\":3571:4080   */\n      swap3\n      swap2\n      pop\n      pop\n      jump\t// out\n        /* \"#utility.yul\":4086:4415   */\n    tag_16:\n        /* \"#utility.yul\":4145:4151   */\n      0x00\n        /* \"#utility.yul\":4194:4196   */\n      0x20\n        /* \"#utility.yul\":4182:4191   */\n      dup3\n        /* \"#utility.yul\":4173:4180   */\n      dup5\n        /* \"#utility.yul\":4169:4192   */\n      sub\n        /* \"#utility.yul\":4165:4197   */\n      slt\n        /* \"#utility.yul\":4162:4281   */\n      iszero\n      tag_132\n      jumpi\n        /* \"#utility.yul\":4200:4279   */\n      tag_133\n      tag_43\n      jump\t// in\n    tag_133:\n        /* \"#utility.yul\":4162:4281   */\n    tag_132:\n        /* \"#utility.yul\":4320:4321   */\n      0x00\n        /* \"#utility.yul\":4345:4398   */\n      tag_134\n        /* \"#utility.yul\":4390:4397   */\n      dup5\n        /* \"#utility.yul\":4381:4387   */\n      dup3\n        /* \"#utility.yul\":4370:4379   */\n      dup6\n        /* \"#utility.yul\":4366:4388   */\n      add\n        /* \"#utility.yul\":4345:4398   */\n      tag_47\n      jump\t// in\n    tag_134:\n        /* \"#utility.yul\":4335:4398   */\n      swap2\n      pop\n        /* \"#utility.yul\":4291:4408   */\n      pop\n        /* \"#utility.yul\":4086:4415   */\n      swap3\n      swap2\n      pop\n      pop\n      jump\t// out\n        /* \"#utility.yul\":4421:4520   */\n    tag_58:\n        /* \"#utility.yul\":4473:4479   */\n      0x00\n        /* \"#utility.yul\":4507:4512   */\n      dup2\n        /* \"#utility.yul\":4501:4513   */\n      mload\n        /* \"#utility.yul\":4491:4513   */\n      swap1\n      pop\n        /* \"#utility.yul\":4421:4520   */\n      swap2\n      swap1\n      pop\n      jump\t// out\n        /* \"#utility.yul\":4526:4685   */\n    tag_59:\n        /* \"#utility.yul\":4600:4611   */\n      0x00\n        /* \"#utility.yul\":4634:4640   */\n      dup3\n        /* \"#utility.yul\":4629:4632   */\n      dup3\n        /* \"#utility.yul\":4622:4641   */\n      mstore\n        /* \"#utility.yul\":4674:4678   */\n      0x20\n        /* \"#utility.yul\":4669:4672   */\n      dup3\n        /* \"#utility.yul\":4665:4679   */\n      add\n        /* \"#utility.yul\":4650:4679   */\n      swap1\n      pop\n        /* \"#utility.yul\":4526:4685   */\n      swap3\n      swap2\n      pop\n      pop\n      jump\t// out\n        /* \"#utility.yul\":4691:4830   */\n    tag_60:\n        /* \"#utility.yul\":4780:4786   */\n      dup3\n        /* \"#utility.yul\":4775:4778   */\n      dup2\n        /* \"#utility.yul\":4770:4773   */\n      dup4\n        /* \"#utility.yul\":4764:4787   */\n      mcopy\n        /* \"#utility.yul\":4821:4822   */\n      0x00\n        /* \"#utility.yul\":4812:4818   */\n      dup4\n        /* \"#utility.yul\":4807:4810   */\n      dup4\n        /* \"#utility.yul\":4803:4819   */\n      add\n        /* \"#utility.yul\":4796:4823   */\n      mstore\n        /* \"#utility.yul\":4691:4830   */\n      pop\n      pop\n      pop\n      jump\t// out\n        /* \"#utility.yul\":4836:5193   */\n    tag_61:\n        /* \"#utility.yul\":4914:4917   */\n      0x00\n        /* \"#utility.yul\":4942:4981   */\n      tag_139\n        /* \"#utility.yul\":4975:4980   */\n      dup3\n        /* \"#utility.yul\":4942:4981   */\n      tag_58\n      jump\t// in\n    tag_139:\n        /* \"#utility.yul\":4997:5058   */\n      tag_140\n        /* \"#utility.yul\":5051:5057   */\n      dup2\n        /* \"#utility.yul\":5046:5049   */\n      dup6\n        /* \"#utility.yul\":4997:5058   */\n      tag_59\n      jump\t// in\n    tag_140:\n        /* \"#utility.yul\":4990:5058   */\n      swap4\n      pop\n        /* \"#utility.yul\":5067:5132   */\n      tag_141\n        /* \"#utility.yul\":5125:5131   */\n      dup2\n        /* \"#utility.yul\":5120:5123   */\n      dup6\n        /* \"#utility.yul\":5113:5117   */\n      0x20\n        /* \"#utility.yul\":5106:5111   */\n      dup7\n        /* \"#utility.yul\":5102:5118   */\n      add\n        /* \"#utility.yul\":5067:5132   */\n      tag_60\n      jump\t// in\n    tag_141:\n        /* \"#utility.yul\":5157:5186   */\n      tag_142\n        /* \"#utility.yul\":5179:5185   */\n      dup2\n        /* \"#utility.yul\":5157:5186   */\n      tag_50\n      jump\t// in\n    tag_142:\n        /* \"#utility.yul\":5152:5155   */\n      dup5\n        /* \"#utility.yul\":5148:5187   */\n      add\n        /* \"#utility.yul\":5141:5187   */\n      swap2\n      pop\n        /* \"#utility.yul\":4918:5193   */\n      pop\n        /* \"#utility.yul\":4836:5193   */\n      swap3\n      swap2\n      pop\n      pop\n      jump\t// out\n        /* \"#utility.yul\":5199:5307   */\n    tag_62:\n        /* \"#utility.yul\":5276:5300   */\n      tag_144\n        /* \"#utility.yul\":5294:5299   */\n      dup2\n        /* \"#utility.yul\":5276:5300   */\n      tag_45\n      jump\t// in\n    tag_144:\n        /* \"#utility.yul\":5271:5274   */\n      dup3\n        /* \"#utility.yul\":5264:5301   */\n      mstore\n        /* \"#utility.yul\":5199:5307   */\n      pop\n      pop\n      jump\t// out\n        /* \"#utility.yul\":5313:5403   */\n    tag_63:\n        /* \"#utility.yul\":5347:5354   */\n      0x00\n        /* \"#utility.yul\":5390:5395   */\n      dup2\n        /* \"#utility.yul\":5383:5396   */\n      iszero\n        /* \"#utility.yul\":5376:5397   */\n      iszero\n        /* \"#utility.yul\":5365:5397   */\n      swap1\n      pop\n        /* \"#utility.yul\":5313:5403   */\n      swap2\n      swap1\n      pop\n      jump\t// out\n        /* \"#utility.yul\":5409:5508   */\n    tag_64:\n        /* \"#utility.yul\":5480:5501   */\n      tag_147\n        /* \"#utility.yul\":5495:5500   */\n      dup2\n        /* \"#utility.yul\":5480:5501   */\n      tag_63\n      jump\t// in\n    tag_147:\n        /* \"#utility.yul\":5475:5478   */\n      dup3\n        /* \"#utility.yul\":5468:5502   */\n      mstore\n        /* \"#utility.yul\":5409:5508   */\n      pop\n      pop\n      jump\t// out\n        /* \"#utility.yul\":5566:6340   */\n    tag_65:\n        /* \"#utility.yul\":5675:5678   */\n      0x00\n        /* \"#utility.yul\":5711:5715   */\n      0x60\n        /* \"#utility.yul\":5706:5709   */\n      dup4\n        /* \"#utility.yul\":5702:5716   */\n      add\n        /* \"#utility.yul\":5805:5809   */\n      0x00\n        /* \"#utility.yul\":5798:5803   */\n      dup4\n        /* \"#utility.yul\":5794:5810   */\n      add\n        /* \"#utility.yul\":5788:5811   */\n      mload\n        /* \"#utility.yul\":5858:5861   */\n      dup5\n        /* \"#utility.yul\":5852:5856   */\n      dup3\n        /* \"#utility.yul\":5848:5862   */\n      sub\n        /* \"#utility.yul\":5841:5845   */\n      0x00\n        /* \"#utility.yul\":5836:5839   */\n      dup7\n        /* \"#utility.yul\":5832:5846   */\n      add\n        /* \"#utility.yul\":5825:5863   */\n      mstore\n        /* \"#utility.yul\":5884:5957   */\n      tag_149\n        /* \"#utility.yul\":5952:5956   */\n      dup3\n        /* \"#utility.yul\":5938:5950   */\n      dup3\n        /* \"#utility.yul\":5884:5957   */\n      tag_61\n      jump\t// in\n    tag_149:\n        /* \"#utility.yul\":5876:5957   */\n      swap2\n      pop\n        /* \"#utility.yul\":5726:5968   */\n      pop\n        /* \"#utility.yul\":6051:6055   */\n      0x20\n        /* \"#utility.yul\":6044:6049   */\n      dup4\n        /* \"#utility.yul\":6040:6056   */\n      add\n        /* \"#utility.yul\":6034:6057   */\n      mload\n        /* \"#utility.yul\":6070:6133   */\n      tag_150\n        /* \"#utility.yul\":6127:6131   */\n      0x20\n        /* \"#utility.yul\":6122:6125   */\n      dup7\n        /* \"#utility.yul\":6118:6132   */\n      add\n        /* \"#utility.yul\":6104:6116   */\n      dup3\n        /* \"#utility.yul\":6070:6133   */\n      tag_62\n      jump\t// in\n    tag_150:\n        /* \"#utility.yul\":5978:6143   */\n      pop\n        /* \"#utility.yul\":6227:6231   */\n      0x40\n        /* \"#utility.yul\":6220:6225   */\n      dup4\n        /* \"#utility.yul\":6216:6232   */\n      add\n        /* \"#utility.yul\":6210:6233   */\n      mload\n        /* \"#utility.yul\":6246:6303   */\n      tag_151\n        /* \"#utility.yul\":6297:6301   */\n      0x40\n        /* \"#utility.yul\":6292:6295   */\n      dup7\n        /* \"#utility.yul\":6288:6302   */\n      add\n        /* \"#utility.yul\":6274:6286   */\n      dup3\n        /* \"#utility.yul\":6246:6303   */\n      tag_64\n      jump\t// in\n    tag_151:\n        /* \"#utility.yul\":6153:6313   */\n      pop\n        /* \"#utility.yul\":6330:6334   */\n      dup1\n        /* \"#utility.yul\":6323:6334   */\n      swap2\n      pop\n        /* \"#utility.yul\":5680:6340   */\n      pop\n        /* \"#utility.yul\":5566:6340   */\n      swap3\n      swap2\n      pop\n      pop\n      jump\t// out\n        /* \"#utility.yul\":6346:6699   */\n    tag_19:\n        /* \"#utility.yul\":6479:6483   */\n      0x00\n        /* \"#utility.yul\":6517:6519   */\n      0x20\n        /* \"#utility.yul\":6506:6515   */\n      dup3\n        /* \"#utility.yul\":6502:6520   */\n      add\n        /* \"#utility.yul\":6494:6520   */\n      swap1\n      pop\n        /* \"#utility.yul\":6566:6575   */\n      dup2\n        /* \"#utility.yul\":6560:6564   */\n      dup2\n        /* \"#utility.yul\":6556:6576   */\n      sub\n        /* \"#utility.yul\":6552:6553   */\n      0x00\n        /* \"#utility.yul\":6541:6550   */\n      dup4\n        /* \"#utility.yul\":6537:6554   */\n      add\n        /* \"#utility.yul\":6530:6577   */\n      mstore\n        /* \"#utility.yul\":6594:6692   */\n      tag_153\n        /* \"#utility.yul\":6687:6691   */\n      dup2\n        /* \"#utility.yul\":6678:6684   */\n      dup5\n        /* \"#utility.yul\":6594:6692   */\n      tag_65\n      jump\t// in\n    tag_153:\n        /* \"#utility.yul\":6586:6692   */\n      swap1\n      pop\n        /* \"#utility.yul\":6346:6699   */\n      swap3\n      swap2\n      pop\n      pop\n      jump\t// out\n        /* \"#utility.yul\":6705:6885   */\n    tag_23:\n        /* \"#utility.yul\":6753:6830   */\n      0x4e487b7100000000000000000000000000000000000000000000000000000000\n        /* \"#utility.yul\":6750:6751   */\n      0x00\n        /* \"#utility.yul\":6743:6831   */\n      mstore\n        /* \"#utility.yul\":6850:6854   */\n      0x32\n        /* \"#utility.yul\":6847:6848   */\n      0x04\n        /* \"#utility.yul\":6840:6855   */\n      mstore\n        /* \"#utility.yul\":6874:6878   */\n      0x24\n        /* \"#utility.yul\":6871:6872   */\n      0x00\n        /* \"#utility.yul\":6864:6879   */\n      revert\n        /* \"#utility.yul\":6891:7071   */\n    tag_66:\n        /* \"#utility.yul\":6939:7016   */\n      0x4e487b7100000000000000000000000000000000000000000000000000000000\n        /* \"#utility.yul\":6936:6937   */\n      0x00\n        /* \"#utility.yul\":6929:7017   */\n      mstore\n        /* \"#utility.yul\":7036:7040   */\n      0x22\n        /* \"#utility.yul\":7033:7034   */\n      0x04\n        /* \"#utility.yul\":7026:7041   */\n      mstore\n        /* \"#utility.yul\":7060:7064   */\n      0x24\n        /* \"#utility.yul\":7057:7058   */\n      0x00\n        /* \"#utility.yul\":7050:7065   */\n      revert\n        /* \"#utility.yul\":7077:7397   */\n    tag_37:\n        /* \"#utility.yul\":7121:7127   */\n      0x00\n        /* \"#utility.yul\":7158:7159   */\n      0x02\n        /* \"#utility.yul\":7152:7156   */\n      dup3\n        /* \"#utility.yul\":7148:7160   */\n      div\n        /* \"#utility.yul\":7138:7160   */\n      swap1\n      pop\n        /* \"#utility.yul\":7205:7206   */\n      0x01\n        /* \"#utility.yul\":7199:7203   */\n      dup3\n        /* \"#utility.yul\":7195:7207   */\n      and\n        /* \"#utility.yul\":7226:7244   */\n      dup1\n        /* \"#utility.yul\":7216:7297   */\n      tag_157\n      jumpi\n        /* \"#utility.yul\":7282:7286   */\n      0x7f\n        /* \"#utility.yul\":7274:7280   */\n      dup3\n        /* \"#utility.yul\":7270:7287   */\n      and\n        /* \"#utility.yul\":7260:7287   */\n      swap2\n      pop\n        /* \"#utility.yul\":7216:7297   */\n    tag_157:\n        /* \"#utility.yul\":7344:7346   */\n      0x20\n        /* \"#utility.yul\":7336:7342   */\n      dup3\n        /* \"#utility.yul\":7333:7347   */\n      lt\n        /* \"#utility.yul\":7313:7331   */\n      dup2\n        /* \"#utility.yul\":7310:7348   */\n      sub\n        /* \"#utility.yul\":7307:7391   */\n      tag_158\n      jumpi\n        /* \"#utility.yul\":7363:7381   */\n      tag_159\n      tag_66\n      jump\t// in\n    tag_159:\n        /* \"#utility.yul\":7307:7391   */\n    tag_158:\n        /* \"#utility.yul\":7128:7397   */\n      pop\n        /* \"#utility.yul\":7077:7397   */\n      swap2\n      swap1\n      pop\n      jump\t// out\n        /* \"#utility.yul\":7403:7544   */\n    tag_67:\n        /* \"#utility.yul\":7452:7456   */\n      0x00\n        /* \"#utility.yul\":7475:7478   */\n      dup2\n        /* \"#utility.yul\":7467:7478   */\n      swap1\n      pop\n        /* \"#utility.yul\":7498:7501   */\n      dup2\n        /* \"#utility.yul\":7495:7496   */\n      0x00\n        /* \"#utility.yul\":7488:7502   */\n      mstore\n        /* \"#utility.yul\":7532:7536   */\n      0x20\n        /* \"#utility.yul\":7529:7530   */\n      0x00\n        /* \"#utility.yul\":7519:7537   */\n      keccak256\n        /* \"#utility.yul\":7511:7537   */\n      swap1\n      pop\n        /* \"#utility.yul\":7403:7544   */\n      swap2\n      swap1\n      pop\n      jump\t// out\n        /* \"#utility.yul\":7550:7643   */\n    tag_68:\n        /* \"#utility.yul\":7587:7593   */\n      0x00\n        /* \"#utility.yul\":7634:7636   */\n      0x20\n        /* \"#utility.yul\":7629:7631   */\n      0x1f\n        /* \"#utility.yul\":7622:7627   */\n      dup4\n        /* \"#utility.yul\":7618:7632   */\n      add\n        /* \"#utility.yul\":7614:7637   */\n      div\n        /* \"#utility.yul\":7604:7637   */\n      swap1\n      pop\n        /* \"#utility.yul\":7550:7643   */\n      swap2\n      swap1\n      pop\n      jump\t// out\n        /* \"#utility.yul\":7649:7756   */\n    tag_69:\n        /* \"#utility.yul\":7693:7701   */\n      0x00\n        /* \"#utility.yul\":7743:7748   */\n      dup3\n        /* \"#utility.yul\":7737:7741   */\n      dup3\n        /* \"#utility.yul\":7733:7749   */\n      shl\n        /* \"#utility.yul\":7712:7749   */\n      swap1\n      pop\n        /* \"#utility.yul\":7649:7756   */\n      swap3\n      swap2\n      pop\n      pop\n      jump\t// out\n        /* \"#utility.yul\":7762:8155   */\n    tag_70:\n        /* \"#utility.yul\":7831:7837   */\n      0x00\n        /* \"#utility.yul\":7881:7882   */\n      0x08\n        /* \"#utility.yul\":7869:7879   */\n      dup4\n        /* \"#utility.yul\":7865:7883   */\n      mul\n        /* \"#utility.yul\":7904:8001   */\n      tag_164\n        /* \"#utility.yul\":7934:8000   */\n      0xffffffffffffffffffffffffffffffffffffffffffffffffffffffffffffffff\n        /* \"#utility.yul\":7923:7932   */\n      dup3\n        /* \"#utility.yul\":7904:8001   */\n      tag_69\n      jump\t// in\n    tag_164:\n        /* \"#utility.yul\":8022:8061   */\n      tag_165\n        /* \"#utility.yul\":8052:8060   */\n      dup7\n        /* \"#utility.yul\":8041:8050   */\n      dup4\n        /* \"#utility.yul\":8022:8061   */\n      tag_69\n      jump\t// in\n    tag_165:\n        /* \"#utility.yul\":8010:8061   */\n      swap6\n      pop\n        /* \"#utility.yul\":8094:8098   */\n      dup1\n        /* \"#utility.yul\":8090:8099   */\n      not\n        /* \"#utility.yul\":8083:8088   */\n      dup5\n        /* \"#utility.yul\":8079:8100   */\n      and\n        /* \"#utility.yul\":8070:8100   */\n      swap4\n      pop\n        /* \"#utility.yul\":8143:8147   */\n      dup1\n        /* \"#utility.yul\":8133:8141   */\n      dup7\n        /* \"#utility.yul\":8129:8148   */\n      and\n        /* \"#utility.yul\":8122:8127   */\n      dup5\n        /* \"#utility.yul\":8119:8149   */\n      or\n        /* \"#utility.yul\":8109:8149   */\n      swap3\n      pop\n        /* \"#utility.yul\":7838:8155   */\n      pop\n      pop\n        /* \"#utility.yul\":7762:8155   */\n      swap4\n      swap3\n      pop\n      pop\n      pop\n      jump\t// out\n        /* \"#utility.yul\":8161:8221   */\n    tag_71:\n        /* \"#utility.yul\":8189:8192   */\n      0x00\n        /* \"#utility.yul\":8210:8215   */\n      dup2\n        /* \"#utility.yul\":8203:8215   */\n      swap1\n      pop\n        /* \"#utility.yul\":8161:8221   */\n      swap2\n      swap1\n      pop\n      jump\t// out\n        /* \"#utility.yul\":8227:8369   */\n    tag_72:\n        /* \"#utility.yul\":8277:8286   */\n      0x00\n        /* \"#utility.yul\":8310:8363   */\n      tag_168\n        /* \"#utility.yul\":8328:8362   */\n      tag_169\n        /* \"#utility.yul\":8337:8361   */\n      tag_170\n        /* \"#utility.yul\":8355:8360   */\n      dup5\n        /* \"#utility.yul\":8337:8361   */\n      tag_45\n      jump\t// in\n    tag_170:\n        /* \"#utility.yul\":8328:8362   */\n      tag_71\n      jump\t// in\n    tag_169:\n        /* \"#utility.yul\":8310:8363   */\n      tag_45\n      jump\t// in\n    tag_168:\n        /* \"#utility.yul\":8297:8363   */\n      swap1\n      pop\n        /* \"#utility.yul\":8227:8369   */\n      swap2\n      swap1\n      pop\n      jump\t// out\n        /* \"#utility.yul\":8375:8450   */\n    tag_73:\n        /* \"#utility.yul\":8418:8421   */\n      0x00\n        /* \"#utility.yul\":8439:8444   */\n      dup2\n        /* \"#utility.yul\":8432:8444   */\n      swap1\n      pop\n        /* \"#utility.yul\":8375:8450   */\n      swap2\n      swap1\n      pop\n      jump\t// out\n        /* \"#utility.yul\":8456:8725   */\n    tag_74:\n        /* \"#utility.yul\":8566:8605   */\n      tag_173\n        /* \"#utility.yul\":8597:8604   */\n      dup4\n        /* \"#utility.yul\":8566:8605   */\n      tag_72\n      jump\t// in\n    tag_173:\n        /* \"#utility.yul\":8627:8718   */\n      tag_174\n        /* \"#utility.yul\":8676:8717   */\n      tag_175\n        /* \"#utility.yul\":8700:8716   */\n      dup3\n        /* \"#utility.yul\":8676:8717   */\n      tag_73\n      jump\t// in\n    tag_175:\n        /* \"#utility.yul\":8668:8674   */\n      dup5\n        /* \"#utility.yul\":8661:8665   */\n      dup5\n        /* \"#utility.yul\":8655:8666   */\n      sload\n        /* \"#utility.yul\":8627:8718   */\n      tag_70\n      jump\t// in\n    tag_174:\n        /* \"#utility.yul\":8621:8625   */\n      dup3\n        /* \"#utility.yul\":8614:8719   */\n      sstore\n        /* \"#utility.yul\":8532:8725   */\n      pop\n        /* \"#utility.yul\":8456:8725   */\n      pop\n      pop\n      pop\n      jump\t// out\n        /* \"#utility.yul\":8731:8804   */\n    tag_75:\n        /* \"#utility.yul\":8776:8779   */\n      0x00\n        /* \"#utility.yul\":8731:8804   */\n      swap1\n      jump\t// out\n        /* \"#utility.yul\":8810:8999   */\n    tag_76:\n        /* \"#utility.yul\":8887:8919   */\n      tag_178\n      tag_75\n      jump\t// in\n    tag_178:\n        /* \"#utility.yul\":8928:8993   */\n      tag_179\n        /* \"#utility.yul\":8986:8992   */\n      dup2\n        /* \"#utility.yul\":8978:8984   */\n      dup5\n        /* \"#utility.yul\":8972:8976   */\n      dup5\n        /* \"#utility.yul\":8928:8993   */\n      tag_74\n      jump\t// in\n    tag_179:\n        /* \"#utility.yul\":8863:8999   */\n      pop\n        /* \"#utility.yul\":8810:8999   */\n      pop\n      pop\n      jump\t// out\n        /* \"#utility.yul\":9005:9191   */\n    tag_77:\n        /* \"#utility.yul\":9065:9185   */\n    tag_181:\n        /* \"#utility.yul\":9082:9085   */\n      dup2\n        /* \"#utility.yul\":9075:9080   */\n      dup2\n        /* \"#utility.yul\":9072:9086   */\n      lt\n        /* \"#utility.yul\":9065:9185   */\n      iszero\n      tag_183\n      jumpi\n        /* \"#utility.yul\":9136:9175   */\n      tag_184\n        /* \"#utility.yul\":9173:9174   */\n      0x00\n        /* \"#utility.yul\":9166:9171   */\n      dup3\n        /* \"#utility.yul\":9136:9175   */\n      tag_76\n      jump\t// in\n    tag_184:\n        /* \"#utility.yul\":9109:9110   */\n      0x01\n        /* \"#utility.yul\":9102:9107   */\n      dup2\n        /* \"#utility.yul\":9098:9111   */\n      add\n        /* \"#utility.yul\":9089:9111   */\n      swap1\n      pop\n        /* \"#utility.yul\":9065:9185   */\n      jump(tag_181)\n    tag_183:\n        /* \"#utility.yul\":9005:9191   */\n      pop\n      pop\n      jump\t// out\n        /* \"#utility.yul\":9197:9740   */\n    tag_78:\n        /* \"#utility.yul\":9298:9300   */\n      0x1f\n        /* \"#utility.yul\":9293:9296   */\n      dup3\n        /* \"#utility.yul\":9290:9301   */\n      gt\n        /* \"#utility.yul\":9287:9733   */\n      iszero\n      tag_186\n      jumpi\n        /* \"#utility.yul\":9332:9370   */\n      tag_187\n        /* \"#utility.yul\":9364:9369   */\n      dup2\n        /* \"#utility.yul\":9332:9370   */\n      tag_67\n      jump\t// in\n    tag_187:\n        /* \"#utility.yul\":9416:9445   */\n      tag_188\n        /* \"#utility.yul\":9434:9444   */\n      dup5\n        /* \"#utility.yul\":9416:9445   */\n      tag_68\n      jump\t// in\n    tag_188:\n        /* \"#utility.yul\":9406:9414   */\n      dup2\n        /* \"#utility.yul\":9402:9446   */\n      add\n        /* \"#utility.yul\":9599:9601   */\n      0x20\n        /* \"#utility.yul\":9587:9597   */\n      dup6\n        /* \"#utility.yul\":9584:9602   */\n      lt\n        /* \"#utility.yul\":9581:9630   */\n      iszero\n      tag_189\n      jumpi\n        /* \"#utility.yul\":9620:9628   */\n      dup2\n        /* \"#utility.yul\":9605:9628   */\n      swap1\n      pop\n        /* \"#utility.yul\":9581:9630   */\n    tag_189:\n        /* \"#utility.yul\":9643:9723   */\n      tag_190\n        /* \"#utility.yul\":9699:9721   */\n      tag_191\n        /* \"#utility.yul\":9717:9720   */\n      dup6\n        /* \"#utility.yul\":9699:9721   */\n      tag_68\n      jump\t// in\n    tag_191:\n        /* \"#utility.yul\":9689:9697   */\n      dup4\n        /* \"#utility.yul\":9685:9722   */\n      add\n        /* \"#utility.yul\":9672:9683   */\n      dup3\n        /* \"#utility.yul\":9643:9723   */\n      tag_77\n      jump\t// in\n    tag_190:\n        /* \"#utility.yul\":9302:9733   */\n      pop\n      pop\n        /* \"#utility.yul\":9287:9733   */\n    tag_186:\n        /* \"#utility.yul\":9197:9740   */\n      pop\n      pop\n      pop\n      jump\t// out\n        /* \"#utility.yul\":9746:9863   */\n    tag_79:\n        /* \"#utility.yul\":9800:9808   */\n      0x00\n        /* \"#utility.yul\":9850:9855   */\n      dup3\n        /* \"#utility.yul\":9844:9848   */\n      dup3\n        /* \"#utility.yul\":9840:9856   */\n      shr\n        /* \"#utility.yul\":9819:9856   */\n      swap1\n      pop\n        /* \"#utility.yul\":9746:9863   */\n      swap3\n      swap2\n      pop\n      pop\n      jump\t// out\n        /* \"#utility.yul\":9869:10038   */\n    tag_80:\n        /* \"#utility.yul\":9913:9919   */\n      0x00\n        /* \"#utility.yul\":9946:9997   */\n      tag_194\n        /* \"#utility.yul\":9994:9995   */\n      0x00\n        /* \"#utility.yul\":9990:9996   */\n      not\n        /* \"#utility.yul\":9982:9987   */\n      dup5\n        /* \"#utility.yul\":9979:9980   */\n      0x08\n        /* \"#utility.yul\":9975:9988   */\n      mul\n        /* \"#utility.yul\":9946:9997   */\n      tag_79\n      jump\t// in\n    tag_194:\n        /* \"#utility.yul\":9942:9998   */\n      not\n        /* \"#utility.yul\":10027:10031   */\n      dup1\n        /* \"#utility.yul\":10021:10025   */\n      dup4\n        /* \"#utility.yul\":10017:10032   */\n      and\n        /* \"#utility.yul\":10007:10032   */\n      swap2\n      pop\n        /* \"#utility.yul\":9920:10038   */\n      pop\n        /* \"#utility.yul\":9869:10038   */\n      swap3\n      swap2\n      pop\n      pop\n      jump\t// out\n        /* \"#utility.yul\":10043:10338   */\n    tag_81:\n        /* \"#utility.yul\":10119:10123   */\n      0x00\n        /* \"#utility.yul\":10265:10294   */\n      tag_196\n        /* \"#utility.yul\":10290:10293   */\n      dup4\n        /* \"#utility.yul\":10284:10288   */\n      dup4\n        /* \"#utility.yul\":10265:10294   */\n      tag_80\n      jump\t// in\n    tag_196:\n        /* \"#utility.yul\":10257:10294   */\n      swap2\n      pop\n        /* \"#utility.yul\":10327:10330   */\n      dup3\n        /* \"#utility.yul\":10324:10325   */\n      0x02\n        /* \"#utility.yul\":10320:10331   */\n      mul\n        /* \"#utility.yul\":10314:10318   */\n      dup3\n        /* \"#utility.yul\":10311:10332   */\n      or\n        /* \"#utility.yul\":10303:10332   */\n      swap1\n      pop\n        /* \"#utility.yul\":10043:10338   */\n      swap3\n      swap2\n      pop\n      pop\n      jump\t// out\n        /* \"#utility.yul\":10343:11738   */\n    tag_26:\n        /* \"#utility.yul\":10460:10497   */\n      tag_198\n        /* \"#utility.yul\":10493:10496   */\n      dup3\n        /* \"#utility.yul\":10460:10497   */\n      tag_58\n      jump\t// in\n    tag_198:\n        /* \"#utility.yul\":10562:10580   */\n      0xffffffffffffffff\n        /* \"#utility.yul\":10554:10560   */\n      dup2\n        /* \"#utility.yul\":10551:10581   */\n      gt\n        /* \"#utility.yul\":10548:10604   */\n      iszero\n      tag_199\n      jumpi\n        /* \"#utility.yul\":10584:10602   */\n      tag_200\n      tag_51\n      jump\t// in\n    tag_200:\n        /* \"#utility.yul\":10548:10604   */\n    tag_199:\n        /* \"#utility.yul\":10628:10666   */\n      tag_201\n        /* \"#utility.yul\":10660:10664   */\n      dup3\n        /* \"#utility.yul\":10654:10665   */\n      sload\n        /* \"#utility.yul\":10628:10666   */\n      tag_37\n      jump\t// in\n    tag_201:\n        /* \"#utility.yul\":10713:10780   */\n      tag_202\n        /* \"#utility.yul\":10773:10779   */\n      dup3\n        /* \"#utility.yul\":10765:10771   */\n      dup3\n        /* \"#utility.yul\":10759:10763   */\n      dup6\n        /* \"#utility.yul\":10713:10780   */\n      tag_78\n      jump\t// in\n    tag_202:\n        /* \"#utility.yul\":10807:10808   */\n      0x00\n        /* \"#utility.yul\":10831:10835   */\n      0x20\n        /* \"#utility.yul\":10818:10835   */\n      swap1\n      pop\n        /* \"#utility.yul\":10863:10865   */\n      0x1f\n        /* \"#utility.yul\":10855:10861   */\n      dup4\n        /* \"#utility.yul\":10852:10866   */\n      gt\n        /* \"#utility.yul\":10880:10881   */\n      0x01\n        /* \"#utility.yul\":10875:11493   */\n      dup2\n      eq\n      tag_204\n      jumpi\n        /* \"#utility.yul\":11537:11538   */\n      0x00\n        /* \"#utility.yul\":11554:11560   */\n      dup5\n        /* \"#utility.yul\":11551:11628   */\n      iszero\n      tag_205\n      jumpi\n        /* \"#utility.yul\":11603:11612   */\n      dup3\n        /* \"#utility.yul\":11598:11601   */\n      dup8\n        /* \"#utility.yul\":11594:11613   */\n      add\n        /* \"#utility.yul\":11588:11614   */\n      mload\n        /* \"#utility.yul\":11579:11614   */\n      swap1\n      pop\n        /* \"#utility.yul\":11551:11628   */\n    tag_205:\n        /* \"#utility.yul\":11654:11721   */\n      tag_206\n        /* \"#utility.yul\":11714:11720   */\n      dup6\n        /* \"#utility.yul\":11707:11712   */\n      dup3\n        /* \"#utility.yul\":11654:11721   */\n      tag_81\n      jump\t// in\n    tag_206:\n        /* \"#utility.yul\":11648:11652   */\n      dup7\n        /* \"#utility.yul\":11641:11722   */\n      sstore\n        /* \"#utility.yul\":11510:11732   */\n      pop\n        /* \"#utility.yul\":10845:11732   */\n      jump(tag_203)\n        /* \"#utility.yul\":10875:11493   */\n    tag_204:\n        /* \"#utility.yul\":10927:10931   */\n      0x1f\n        /* \"#utility.yul\":10923:10932   */\n      not\n        /* \"#utility.yul\":10915:10921   */\n      dup5\n        /* \"#utility.yul\":10911:10933   */\n      and\n        /* \"#utility.yul\":10961:10998   */\n      tag_207\n        /* \"#utility.yul\":10993:10997   */\n      dup7\n        /* \"#utility.yul\":10961:10998   */\n      tag_67\n      jump\t// in\n    tag_207:\n        /* \"#utility.yul\":11020:11021   */\n      0x00\n        /* \"#utility.yul\":11034:11242   */\n    tag_208:\n        /* \"#utility.yul\":11048:11055   */\n      dup3\n        /* \"#utility.yul\":11045:11046   */\n      dup2\n        /* \"#utility.yul\":11042:11056   */\n      lt\n        /* \"#utility.yul\":11034:11242   */\n      iszero\n      tag_210\n      jumpi\n        /* \"#utility.yul\":11127:11136   */\n      dup5\n        /* \"#utility.yul\":11122:11125   */\n      dup10\n        /* \"#utility.yul\":11118:11137   */\n      add\n        /* \"#utility.yul\":11112:11138   */\n      mload\n        /* \"#utility.yul\":11104:11110   */\n      dup3\n        /* \"#utility.yul\":11097:11139   */\n      sstore\n        /* \"#utility.yul\":11178:11179   */\n      0x01\n        /* \"#utility.yul\":11170:11176   */\n      dup3\n        /* \"#utility.yul\":11166:11180   */\n      add\n        /* \"#utility.yul\":11156:11180   */\n      swap2\n      pop\n        /* \"#utility.yul\":11225:11227   */\n      0x20\n        /* \"#utility.yul\":11214:11223   */\n      dup6\n        /* \"#utility.yul\":11210:11228   */\n      add\n        /* \"#utility.yul\":11197:11228   */\n      swap5\n      pop\n        /* \"#utility.yul\":11071:11075   */\n      0x20\n        /* \"#utility.yul\":11068:11069   */\n      dup2\n        /* \"#utility.yul\":11064:11076   */\n      add\n        /* \"#utility.yul\":11059:11076   */\n      swap1\n      pop\n        /* \"#utility.yul\":11034:11242   */\n      jump(tag_208)\n    tag_210:\n        /* \"#utility.yul\":11270:11276   */\n      dup7\n        /* \"#utility.yul\":11261:11268   */\n      dup4\n        /* \"#utility.yul\":11258:11277   */\n      lt\n        /* \"#utility.yul\":11255:11434   */\n      iszero\n      tag_211\n      jumpi\n        /* \"#utility.yul\":11328:11337   */\n      dup5\n        /* \"#utility.yul\":11323:11326   */\n      dup10\n        /* \"#utility.yul\":11319:11338   */\n      add\n        /* \"#utility.yul\":11313:11339   */\n      mload\n        /* \"#utility.yul\":11371:11419   */\n      tag_212\n        /* \"#utility.yul\":11413:11417   */\n      0x1f\n        /* \"#utility.yul\":11405:11411   */\n      dup10\n        /* \"#utility.yul\":11401:11418   */\n      and\n        /* \"#utility.yul\":11390:11399   */\n      dup3\n        /* \"#utility.yul\":11371:11419   */\n      tag_80\n      jump\t// in\n    tag_212:\n        /* \"#utility.yul\":11363:11369   */\n      dup4\n        /* \"#utility.yul\":11356:11420   */\n      sstore\n        /* \"#utility.yul\":11278:11434   */\n      pop\n        /* \"#utility.yul\":11255:11434   */\n    tag_211:\n        /* \"#utility.yul\":11480:11481   */\n      0x01\n        /* \"#utility.yul\":11476:11477   */\n      0x02\n        /* \"#utility.yul\":11468:11474   */\n      dup9\n        /* \"#utility.yul\":11464:11478   */\n      mul\n        /* \"#utility.yul\":11460:11482   */\n      add\n        /* \"#utility.yul\":11454:11458   */\n      dup9\n        /* \"#utility.yul\":11447:11483   */\n      sstore\n        /* \"#utility.yul\":10882:11493   */\n      pop\n      pop\n      pop\n        /* \"#utility.yul\":10845:11732   */\n    tag_203:\n      pop\n        /* \"#utility.yul\":10435:11738   */\n      pop\n      pop\n      pop\n        /* \"#utility.yul\":10343:11738   */\n      pop\n      pop\n      jump\t// out\n\n    auxdata: 0xa2646970667358221220bcc1f7df5d21af2d6f1b91b2008a63265fe72db0cf37bbbd0a7d588931c004e864736f6c634300081a0033\n}\n",
				"bytecode": {
					"linkReferences": {},
					"object": "6080604052348015600e575f80fd5b506108e58061001c5f395ff3fe608060405234801561000f575f80fd5b506004361061003f575f3560e01c806314dee4b3146100435780632ebc05041461005f578063a2f77bcc1461007b575b5f80fd5b61005d600480360381019061005891906103f7565b6100ab565b005b61007960048036038101906100749190610451565b6100e3565b005b61009560048036038101906100909190610498565b61016a565b6040516100a29190610599565b60405180910390f35b5f8083815481106100bf576100be6105b9565b5b905f5260205f209060030201905081815f0190816100dd91906107e0565b50505050565b5f6040518060600160405280838152602001600a81526020015f1515815250908060018154018082558091505060019003905f5260205f2090600302015f909190919091505f820151815f01908161013b91906107e0565b50602082015181600101556040820151816002015f6101000a81548160ff021916908315150217905550505050565b610172610256565b5f8281548110610185576101846105b9565b5b905f5260205f2090600302016040518060600160405290815f820180546101ab90610613565b80601f01602080910402602001604051908101604052809291908181526020018280546101d790610613565b80156102225780601f106101f957610100808354040283529160200191610222565b820191905f5260205f20905b81548152906001019060200180831161020557829003601f168201915b5050505050815260200160018201548152602001600282015f9054906101000a900460ff1615151515815250509050919050565b6040518060600160405280606081526020015f81526020015f151581525090565b5f604051905090565b5f80fd5b5f80fd5b5f819050919050565b61029a81610288565b81146102a4575f80fd5b50565b5f813590506102b581610291565b92915050565b5f80fd5b5f80fd5b5f601f19601f8301169050919050565b7f4e487b71000000000000000000000000000000000000000000000000000000005f52604160045260245ffd5b610309826102c3565b810181811067ffffffffffffffff82111715610328576103276102d3565b5b80604052505050565b5f61033a610277565b90506103468282610300565b919050565b5f67ffffffffffffffff821115610365576103646102d3565b5b61036e826102c3565b9050602081019050919050565b828183375f83830152505050565b5f61039b6103968461034b565b610331565b9050828152602081018484840111156103b7576103b66102bf565b5b6103c284828561037b565b509392505050565b5f82601f8301126103de576103dd6102bb565b5b81356103ee848260208601610389565b91505092915050565b5f806040838503121561040d5761040c610280565b5b5f61041a858286016102a7565b925050602083013567ffffffffffffffff81111561043b5761043a610284565b5b610447858286016103ca565b9150509250929050565b5f6020828403121561046657610465610280565b5b5f82013567ffffffffffffffff81111561048357610482610284565b5b61048f848285016103ca565b91505092915050565b5f602082840312156104ad576104ac610280565b5b5f6104ba848285016102a7565b91505092915050565b5f81519050919050565b5f82825260208201905092915050565b8281835e5f83830152505050565b5f6104f5826104c3565b6104ff81856104cd565b935061050f8185602086016104dd565b610518816102c3565b840191505092915050565b61052c81610288565b82525050565b5f8115159050919050565b61054681610532565b82525050565b5f606083015f8301518482035f86015261056682826104eb565b915050602083015161057b6020860182610523565b50604083015161058e604086018261053d565b508091505092915050565b5f6020820190508181035f8301526105b1818461054c565b905092915050565b7f4e487b71000000000000000000000000000000000000000000000000000000005f52603260045260245ffd5b7f4e487b71000000000000000000000000000000000000000000000000000000005f52602260045260245ffd5b5f600282049050600182168061062a57607f821691505b60208210810361063d5761063c6105e6565b5b50919050565b5f819050815f5260205f209050919050565b5f6020601f8301049050919050565b5f82821b905092915050565b5f6008830261069f7fffffffffffffffffffffffffffffffffffffffffffffffffffffffffffffffff82610664565b6106a98683610664565b95508019841693508086168417925050509392505050565b5f819050919050565b5f6106e46106df6106da84610288565b6106c1565b610288565b9050919050565b5f819050919050565b6106fd836106ca565b610711610709826106eb565b848454610670565b825550505050565b5f90565b610725610719565b6107308184846106f4565b505050565b5b81811015610753576107485f8261071d565b600181019050610736565b5050565b601f8211156107985761076981610643565b61077284610655565b81016020851015610781578190505b61079561078d85610655565b830182610735565b50505b505050565b5f82821c905092915050565b5f6107b85f198460080261079d565b1980831691505092915050565b5f6107d083836107a9565b9150826002028217905092915050565b6107e9826104c3565b67ffffffffffffffff811115610802576108016102d3565b5b61080c8254610613565b610817828285610757565b5f60209050601f831160018114610848575f8415610836578287015190505b61084085826107c5565b8655506108a7565b601f19841661085686610643565b5f5b8281101561087d57848901518255600182019150602085019450602081019050610858565b8683101561089a5784890151610896601f8916826107a9565b8355505b6001600288020188555050505b50505050505056fea2646970667358221220bcc1f7df5d21af2d6f1b91b2008a63265fe72db0cf37bbbd0a7d588931c004e864736f6c634300081a0033",
					"opcodes": "PUSH1 0x80 PUSH1 0x40 MSTORE CALLVALUE DUP1 ISZERO PUSH1 0xE JUMPI PUSH0 DUP1 REVERT JUMPDEST POP PUSH2 0x8E5 DUP1 PUSH2 0x1C PUSH0 CODECOPY PUSH0 RETURN INVALID PUSH1 0x80 PUSH1 0x40 MSTORE CALLVALUE DUP1 ISZERO PUSH2 0xF JUMPI PUSH0 DUP1 REVERT JUMPDEST POP PUSH1 0x4 CALLDATASIZE LT PUSH2 0x3F JUMPI PUSH0 CALLDATALOAD PUSH1 0xE0 SHR DUP1 PUSH4 0x14DEE4B3 EQ PUSH2 0x43 JUMPI DUP1 PUSH4 0x2EBC0504 EQ PUSH2 0x5F JUMPI DUP1 PUSH4 0xA2F77BCC EQ PUSH2 0x7B JUMPI JUMPDEST PUSH0 DUP1 REVERT JUMPDEST PUSH2 0x5D PUSH1 0x4 DUP1 CALLDATASIZE SUB DUP2 ADD SWAP1 PUSH2 0x58 SWAP2 SWAP1 PUSH2 0x3F7 JUMP JUMPDEST PUSH2 0xAB JUMP JUMPDEST STOP JUMPDEST PUSH2 0x79 PUSH1 0x4 DUP1 CALLDATASIZE SUB DUP2 ADD SWAP1 PUSH2 0x74 SWAP2 SWAP1 PUSH2 0x451 JUMP JUMPDEST PUSH2 0xE3 JUMP JUMPDEST STOP JUMPDEST PUSH2 0x95 PUSH1 0x4 DUP1 CALLDATASIZE SUB DUP2 ADD SWAP1 PUSH2 0x90 SWAP2 SWAP1 PUSH2 0x498 JUMP JUMPDEST PUSH2 0x16A JUMP JUMPDEST PUSH1 0x40 MLOAD PUSH2 0xA2 SWAP2 SWAP1 PUSH2 0x599 JUMP JUMPDEST PUSH1 0x40 MLOAD DUP1 SWAP2 SUB SWAP1 RETURN JUMPDEST PUSH0 DUP1 DUP4 DUP2 SLOAD DUP2 LT PUSH2 0xBF JUMPI PUSH2 0xBE PUSH2 0x5B9 JUMP JUMPDEST JUMPDEST SWAP1 PUSH0 MSTORE PUSH1 0x20 PUSH0 KECCAK256 SWAP1 PUSH1 0x3 MUL ADD SWAP1 POP DUP2 DUP2 PUSH0 ADD SWAP1 DUP2 PUSH2 0xDD SWAP2 SWAP1 PUSH2 0x7E0 JUMP JUMPDEST POP POP POP POP JUMP JUMPDEST PUSH0 PUSH1 0x40 MLOAD DUP1 PUSH1 0x60 ADD PUSH1 0x40 MSTORE DUP1 DUP4 DUP2 MSTORE PUSH1 0x20 ADD PUSH1 0xA DUP2 MSTORE PUSH1 0x20 ADD PUSH0 ISZERO ISZERO DUP2 MSTORE POP SWAP1 DUP1 PUSH1 0x1 DUP2 SLOAD ADD DUP1 DUP3 SSTORE DUP1 SWAP2 POP POP PUSH1 0x1 SWAP1 SUB SWAP1 PUSH0 MSTORE PUSH1 0x20 PUSH0 KECCAK256 SWAP1 PUSH1 0x3 MUL ADD PUSH0 SWAP1 SWAP2 SWAP1 SWAP2 SWAP1 SWAP2 POP PUSH0 DUP3 ADD MLOAD DUP2 PUSH0 ADD SWAP1 DUP2 PUSH2 0x13B SWAP2 SWAP1 PUSH2 0x7E0 JUMP JUMPDEST POP PUSH1 0x20 DUP3 ADD MLOAD DUP2 PUSH1 0x1 ADD SSTORE PUSH1 0x40 DUP3 ADD MLOAD DUP2 PUSH1 0x2 ADD PUSH0 PUSH2 0x100 EXP DUP2 SLOAD DUP2 PUSH1 0xFF MUL NOT AND SWAP1 DUP4 ISZERO ISZERO MUL OR SWAP1 SSTORE POP POP POP POP JUMP JUMPDEST PUSH2 0x172 PUSH2 0x256 JUMP JUMPDEST PUSH0 DUP3 DUP2 SLOAD DUP2 LT PUSH2 0x185 JUMPI PUSH2 0x184 PUSH2 0x5B9 JUMP JUMPDEST JUMPDEST SWAP1 PUSH0 MSTORE PUSH1 0x20 PUSH0 KECCAK256 SWAP1 PUSH1 0x3 MUL ADD PUSH1 0x40 MLOAD DUP1 PUSH1 0x60 ADD PUSH1 0x40 MSTORE SWAP1 DUP2 PUSH0 DUP3 ADD DUP1 SLOAD PUSH2 0x1AB SWAP1 PUSH2 0x613 JUMP JUMPDEST DUP1 PUSH1 0x1F ADD PUSH1 0x20 DUP1 SWAP2 DIV MUL PUSH1 0x20 ADD PUSH1 0x40 MLOAD SWAP1 DUP2 ADD PUSH1 0x40 MSTORE DUP1 SWAP3 SWAP2 SWAP1 DUP2 DUP2 MSTORE PUSH1 0x20 ADD DUP3 DUP1 SLOAD PUSH2 0x1D7 SWAP1 PUSH2 0x613 JUMP JUMPDEST DUP1 ISZERO PUSH2 0x222 JUMPI DUP1 PUSH1 0x1F LT PUSH2 0x1F9 JUMPI PUSH2 0x100 DUP1 DUP4 SLOAD DIV MUL DUP4 MSTORE SWAP2 PUSH1 0x20 ADD SWAP2 PUSH2 0x222 JUMP JUMPDEST DUP3 ADD SWAP2 SWAP1 PUSH0 MSTORE PUSH1 0x20 PUSH0 KECCAK256 SWAP1 JUMPDEST DUP2 SLOAD DUP2 MSTORE SWAP1 PUSH1 0x1 ADD SWAP1 PUSH1 0x20 ADD DUP1 DUP4 GT PUSH2 0x205 JUMPI DUP3 SWAP1 SUB PUSH1 0x1F AND DUP3 ADD SWAP2 JUMPDEST POP POP POP POP POP DUP2 MSTORE PUSH1 0x20 ADD PUSH1 0x1 DUP3 ADD SLOAD DUP2 MSTORE PUSH1 0x20 ADD PUSH1 0x2 DUP3 ADD PUSH0 SWAP1 SLOAD SWAP1 PUSH2 0x100 EXP SWAP1 DIV PUSH1 0xFF AND ISZERO ISZERO ISZERO ISZERO DUP2 MSTORE POP POP SWAP1 POP SWAP2 SWAP1 POP JUMP JUMPDEST PUSH1 0x40 MLOAD DUP1 PUSH1 0x60 ADD PUSH1 0x40 MSTORE DUP1 PUSH1 0x60 DUP2 MSTORE PUSH1 0x20 ADD PUSH0 DUP2 MSTORE PUSH1 0x20 ADD PUSH0 ISZERO ISZERO DUP2 MSTORE POP SWAP1 JUMP JUMPDEST PUSH0 PUSH1 0x40 MLOAD SWAP1 POP SWAP1 JUMP JUMPDEST PUSH0 DUP1 REVERT JUMPDEST PUSH0 DUP1 REVERT JUMPDEST PUSH0 DUP2 SWAP1 POP SWAP2 SWAP1 POP JUMP JUMPDEST PUSH2 0x29A DUP2 PUSH2 0x288 JUMP JUMPDEST DUP2 EQ PUSH2 0x2A4 JUMPI PUSH0 DUP1 REVERT JUMPDEST POP JUMP JUMPDEST PUSH0 DUP2 CALLDATALOAD SWAP1 POP PUSH2 0x2B5 DUP2 PUSH2 0x291 JUMP JUMPDEST SWAP3 SWAP2 POP POP JUMP JUMPDEST PUSH0 DUP1 REVERT JUMPDEST PUSH0 DUP1 REVERT JUMPDEST PUSH0 PUSH1 0x1F NOT PUSH1 0x1F DUP4 ADD AND SWAP1 POP SWAP2 SWAP1 POP JUMP JUMPDEST PUSH32 0x4E487B7100000000000000000000000000000000000000000000000000000000 PUSH0 MSTORE PUSH1 0x41 PUSH1 0x4 MSTORE PUSH1 0x24 PUSH0 REVERT JUMPDEST PUSH2 0x309 DUP3 PUSH2 0x2C3 JUMP JUMPDEST DUP2 ADD DUP2 DUP2 LT PUSH8 0xFFFFFFFFFFFFFFFF DUP3 GT OR ISZERO PUSH2 0x328 JUMPI PUSH2 0x327 PUSH2 0x2D3 JUMP JUMPDEST JUMPDEST DUP1 PUSH1 0x40 MSTORE POP POP POP JUMP JUMPDEST PUSH0 PUSH2 0x33A PUSH2 0x277 JUMP JUMPDEST SWAP1 POP PUSH2 0x346 DUP3 DUP3 PUSH2 0x300 JUMP JUMPDEST SWAP2 SWAP1 POP JUMP JUMPDEST PUSH0 PUSH8 0xFFFFFFFFFFFFFFFF DUP3 GT ISZERO PUSH2 0x365 JUMPI PUSH2 0x364 PUSH2 0x2D3 JUMP JUMPDEST JUMPDEST PUSH2 0x36E DUP3 PUSH2 0x2C3 JUMP JUMPDEST SWAP1 POP PUSH1 0x20 DUP2 ADD SWAP1 POP SWAP2 SWAP1 POP JUMP JUMPDEST DUP3 DUP2 DUP4 CALLDATACOPY PUSH0 DUP4 DUP4 ADD MSTORE POP POP POP JUMP JUMPDEST PUSH0 PUSH2 0x39B PUSH2 0x396 DUP5 PUSH2 0x34B JUMP JUMPDEST PUSH2 0x331 JUMP JUMPDEST SWAP1 POP DUP3 DUP2 MSTORE PUSH1 0x20 DUP2 ADD DUP5 DUP5 DUP5 ADD GT ISZERO PUSH2 0x3B7 JUMPI PUSH2 0x3B6 PUSH2 0x2BF JUMP JUMPDEST JUMPDEST PUSH2 0x3C2 DUP5 DUP3 DUP6 PUSH2 0x37B JUMP JUMPDEST POP SWAP4 SWAP3 POP POP POP JUMP JUMPDEST PUSH0 DUP3 PUSH1 0x1F DUP4 ADD SLT PUSH2 0x3DE JUMPI PUSH2 0x3DD PUSH2 0x2BB JUMP JUMPDEST JUMPDEST DUP2 CALLDATALOAD PUSH2 0x3EE DUP5 DUP3 PUSH1 0x20 DUP7 ADD PUSH2 0x389 JUMP JUMPDEST SWAP2 POP POP SWAP3 SWAP2 POP POP JUMP JUMPDEST PUSH0 DUP1 PUSH1 0x40 DUP4 DUP6 SUB SLT ISZERO PUSH2 0x40D JUMPI PUSH2 0x40C PUSH2 0x280 JUMP JUMPDEST JUMPDEST PUSH0 PUSH2 0x41A DUP6 DUP3 DUP7 ADD PUSH2 0x2A7 JUMP JUMPDEST SWAP3 POP POP PUSH1 0x20 DUP4 ADD CALLDATALOAD PUSH8 0xFFFFFFFFFFFFFFFF DUP2 GT ISZERO PUSH2 0x43B JUMPI PUSH2 0x43A PUSH2 0x284 JUMP JUMPDEST JUMPDEST PUSH2 0x447 DUP6 DUP3 DUP7 ADD PUSH2 0x3CA JUMP JUMPDEST SWAP2 POP POP SWAP3 POP SWAP3 SWAP1 POP JUMP JUMPDEST PUSH0 PUSH1 0x20 DUP3 DUP5 SUB SLT ISZERO PUSH2 0x466 JUMPI PUSH2 0x465 PUSH2 0x280 JUMP JUMPDEST JUMPDEST PUSH0 DUP3 ADD CALLDATALOAD PUSH8 0xFFFFFFFFFFFFFFFF DUP2 GT ISZERO PUSH2 0x483 JUMPI PUSH2 0x482 PUSH2 0x284 JUMP JUMPDEST JUMPDEST PUSH2 0x48F DUP5 DUP3 DUP6 ADD PUSH2 0x3CA JUMP JUMPDEST SWAP2 POP POP SWAP3 SWAP2 POP POP JUMP JUMPDEST PUSH0 PUSH1 0x20 DUP3 DUP5 SUB SLT ISZERO PUSH2 0x4AD JUMPI PUSH2 0x4AC PUSH2 0x280 JUMP JUMPDEST JUMPDEST PUSH0 PUSH2 0x4BA DUP5 DUP3 DUP6 ADD PUSH2 0x2A7 JUMP JUMPDEST SWAP2 POP POP SWAP3 SWAP2 POP POP JUMP JUMPDEST PUSH0 DUP2 MLOAD SWAP1 POP SWAP2 SWAP1 POP JUMP JUMPDEST PUSH0 DUP3 DUP3 MSTORE PUSH1 0x20 DUP3 ADD SWAP1 POP SWAP3 SWAP2 POP POP JUMP JUMPDEST DUP3 DUP2 DUP4 MCOPY PUSH0 DUP4 DUP4 ADD MSTORE POP POP POP JUMP JUMPDEST PUSH0 PUSH2 0x4F5 DUP3 PUSH2 0x4C3 JUMP JUMPDEST PUSH2 0x4FF DUP2 DUP6 PUSH2 0x4CD JUMP JUMPDEST SWAP4 POP PUSH2 0x50F DUP2 DUP6 PUSH1 0x20 DUP7 ADD PUSH2 0x4DD JUMP JUMPDEST PUSH2 0x518 DUP2 PUSH2 0x2C3 JUMP JUMPDEST DUP5 ADD SWAP2 POP POP SWAP3 SWAP2 POP POP JUMP JUMPDEST PUSH2 0x52C DUP2 PUSH2 0x288 JUMP JUMPDEST DUP3 MSTORE POP POP JUMP JUMPDEST PUSH0 DUP2 ISZERO ISZERO SWAP1 POP SWAP2 SWAP1 POP JUMP JUMPDEST PUSH2 0x546 DUP2 PUSH2 0x532 JUMP JUMPDEST DUP3 MSTORE POP POP JUMP JUMPDEST PUSH0 PUSH1 0x60 DUP4 ADD PUSH0 DUP4 ADD MLOAD DUP5 DUP3 SUB PUSH0 DUP7 ADD MSTORE PUSH2 0x566 DUP3 DUP3 PUSH2 0x4EB JUMP JUMPDEST SWAP2 POP POP PUSH1 0x20 DUP4 ADD MLOAD PUSH2 0x57B PUSH1 0x20 DUP7 ADD DUP3 PUSH2 0x523 JUMP JUMPDEST POP PUSH1 0x40 DUP4 ADD MLOAD PUSH2 0x58E PUSH1 0x40 DUP7 ADD DUP3 PUSH2 0x53D JUMP JUMPDEST POP DUP1 SWAP2 POP POP SWAP3 SWAP2 POP POP JUMP JUMPDEST PUSH0 PUSH1 0x20 DUP3 ADD SWAP1 POP DUP2 DUP2 SUB PUSH0 DUP4 ADD MSTORE PUSH2 0x5B1 DUP2 DUP5 PUSH2 0x54C JUMP JUMPDEST SWAP1 POP SWAP3 SWAP2 POP POP JUMP JUMPDEST PUSH32 0x4E487B7100000000000000000000000000000000000000000000000000000000 PUSH0 MSTORE PUSH1 0x32 PUSH1 0x4 MSTORE PUSH1 0x24 PUSH0 REVERT JUMPDEST PUSH32 0x4E487B7100000000000000000000000000000000000000000000000000000000 PUSH0 MSTORE PUSH1 0x22 PUSH1 0x4 MSTORE PUSH1 0x24 PUSH0 REVERT JUMPDEST PUSH0 PUSH1 0x2 DUP3 DIV SWAP1 POP PUSH1 0x1 DUP3 AND DUP1 PUSH2 0x62A JUMPI PUSH1 0x7F DUP3 AND SWAP2 POP JUMPDEST PUSH1 0x20 DUP3 LT DUP2 SUB PUSH2 0x63D JUMPI PUSH2 0x63C PUSH2 0x5E6 JUMP JUMPDEST JUMPDEST POP SWAP2 SWAP1 POP JUMP JUMPDEST PUSH0 DUP2 SWAP1 POP DUP2 PUSH0 MSTORE PUSH1 0x20 PUSH0 KECCAK256 SWAP1 POP SWAP2 SWAP1 POP JUMP JUMPDEST PUSH0 PUSH1 0x20 PUSH1 0x1F DUP4 ADD DIV SWAP1 POP SWAP2 SWAP1 POP JUMP JUMPDEST PUSH0 DUP3 DUP3 SHL SWAP1 POP SWAP3 SWAP2 POP POP JUMP JUMPDEST PUSH0 PUSH1 0x8 DUP4 MUL PUSH2 0x69F PUSH32 0xFFFFFFFFFFFFFFFFFFFFFFFFFFFFFFFFFFFFFFFFFFFFFFFFFFFFFFFFFFFFFFFF DUP3 PUSH2 0x664 JUMP JUMPDEST PUSH2 0x6A9 DUP7 DUP4 PUSH2 0x664 JUMP JUMPDEST SWAP6 POP DUP1 NOT DUP5 AND SWAP4 POP DUP1 DUP7 AND DUP5 OR SWAP3 POP POP POP SWAP4 SWAP3 POP POP POP JUMP JUMPDEST PUSH0 DUP2 SWAP1 POP SWAP2 SWAP1 POP JUMP JUMPDEST PUSH0 PUSH2 0x6E4 PUSH2 0x6DF PUSH2 0x6DA DUP5 PUSH2 0x288 JUMP JUMPDEST PUSH2 0x6C1 JUMP JUMPDEST PUSH2 0x288 JUMP JUMPDEST SWAP1 POP SWAP2 SWAP1 POP JUMP JUMPDEST PUSH0 DUP2 SWAP1 POP SWAP2 SWAP1 POP JUMP JUMPDEST PUSH2 0x6FD DUP4 PUSH2 0x6CA JUMP JUMPDEST PUSH2 0x711 PUSH2 0x709 DUP3 PUSH2 0x6EB JUMP JUMPDEST DUP5 DUP5 SLOAD PUSH2 0x670 JUMP JUMPDEST DUP3 SSTORE POP POP POP POP JUMP JUMPDEST PUSH0 SWAP1 JUMP JUMPDEST PUSH2 0x725 PUSH2 0x719 JUMP JUMPDEST PUSH2 0x730 DUP2 DUP5 DUP5 PUSH2 0x6F4 JUMP JUMPDEST POP POP POP JUMP JUMPDEST JUMPDEST DUP2 DUP2 LT ISZERO PUSH2 0x753 JUMPI PUSH2 0x748 PUSH0 DUP3 PUSH2 0x71D JUMP JUMPDEST PUSH1 0x1 DUP2 ADD SWAP1 POP PUSH2 0x736 JUMP JUMPDEST POP POP JUMP JUMPDEST PUSH1 0x1F DUP3 GT ISZERO PUSH2 0x798 JUMPI PUSH2 0x769 DUP2 PUSH2 0x643 JUMP JUMPDEST PUSH2 0x772 DUP5 PUSH2 0x655 JUMP JUMPDEST DUP2 ADD PUSH1 0x20 DUP6 LT ISZERO PUSH2 0x781 JUMPI DUP2 SWAP1 POP JUMPDEST PUSH2 0x795 PUSH2 0x78D DUP6 PUSH2 0x655 JUMP JUMPDEST DUP4 ADD DUP3 PUSH2 0x735 JUMP JUMPDEST POP POP JUMPDEST POP POP POP JUMP JUMPDEST PUSH0 DUP3 DUP3 SHR SWAP1 POP SWAP3 SWAP2 POP POP JUMP JUMPDEST PUSH0 PUSH2 0x7B8 PUSH0 NOT DUP5 PUSH1 0x8 MUL PUSH2 0x79D JUMP JUMPDEST NOT DUP1 DUP4 AND SWAP2 POP POP SWAP3 SWAP2 POP POP JUMP JUMPDEST PUSH0 PUSH2 0x7D0 DUP4 DUP4 PUSH2 0x7A9 JUMP JUMPDEST SWAP2 POP DUP3 PUSH1 0x2 MUL DUP3 OR SWAP1 POP SWAP3 SWAP2 POP POP JUMP JUMPDEST PUSH2 0x7E9 DUP3 PUSH2 0x4C3 JUMP JUMPDEST PUSH8 0xFFFFFFFFFFFFFFFF DUP2 GT ISZERO PUSH2 0x802 JUMPI PUSH2 0x801 PUSH2 0x2D3 JUMP JUMPDEST JUMPDEST PUSH2 0x80C DUP3 SLOAD PUSH2 0x613 JUMP JUMPDEST PUSH2 0x817 DUP3 DUP3 DUP6 PUSH2 0x757 JUMP JUMPDEST PUSH0 PUSH1 0x20 SWAP1 POP PUSH1 0x1F DUP4 GT PUSH1 0x1 DUP2 EQ PUSH2 0x848 JUMPI PUSH0 DUP5 ISZERO PUSH2 0x836 JUMPI DUP3 DUP8 ADD MLOAD SWAP1 POP JUMPDEST PUSH2 0x840 DUP6 DUP3 PUSH2 0x7C5 JUMP JUMPDEST DUP7 SSTORE POP PUSH2 0x8A7 JUMP JUMPDEST PUSH1 0x1F NOT DUP5 AND PUSH2 0x856 DUP7 PUSH2 0x643 JUMP JUMPDEST PUSH0 JUMPDEST DUP3 DUP2 LT ISZERO PUSH2 0x87D JUMPI DUP5 DUP10 ADD MLOAD DUP3 SSTORE PUSH1 0x1 DUP3 ADD SWAP2 POP PUSH1 0x20 DUP6 ADD SWAP5 POP PUSH1 0x20 DUP2 ADD SWAP1 POP PUSH2 0x858 JUMP JUMPDEST DUP7 DUP4 LT ISZERO PUSH2 0x89A JUMPI DUP5 DUP10 ADD MLOAD PUSH2 0x896 PUSH1 0x1F DUP10 AND DUP3 PUSH2 0x7A9 JUMP JUMPDEST DUP4 SSTORE POP JUMPDEST PUSH1 0x1 PUSH1 0x2 DUP9 MUL ADD DUP9 SSTORE POP POP POP JUMPDEST POP POP POP POP POP POP JUMP INVALID LOG2 PUSH5 0x6970667358 0x22 SLT KECCAK256 0xBC 0xC1 0xF7 0xDF TSTORE 0x21 0xAF 0x2D PUSH16 0x1B91B2008A63265FE72DB0CF37BBBD0A PUSH30 0x588931C004E864736F6C634300081A003300000000000000000000000000 "
				},
				"gasEstimates": {
					"creation": {
						"codeDepositCost": "455400",
						"executionCost": "491",
						"totalCost": "455891"
					},
					"external": {
						"createGame(string)": "infinite",
						"getGame(uint256)": "infinite",
						"updateDescription(uint256,string)": "infinite"
					}
				},
				"methodIdentifiers": {
					"createGame(string)": "2ebc0504",
					"getGame(uint256)": "a2f77bcc",
					"updateDescription(uint256,string)": "14dee4b3"
				}
			},
			"storageLayout": {
				"storage": [
					{
						"astId": 12,
						"contract": "contracts/cursoDeSolidity/12_structs.sol:structs",
						"label": "gamesList",
						"offset": 0,
						"slot": "0",
						"type": "t_array(t_struct(games)8_storage)dyn_storage"
					}
				],
				"types": {
					"t_array(t_struct(games)8_storage)dyn_storage": {
						"base": "t_struct(games)8_storage",
						"encoding": "dynamic_array",
						"label": "struct structs.games[]",
						"numberOfBytes": "32"
					},
					"t_bool": {
						"encoding": "inplace",
						"label": "bool",
						"numberOfBytes": "1"
					},
					"t_string_storage": {
						"encoding": "bytes",
						"label": "string",
						"numberOfBytes": "32"
					},
					"t_struct(games)8_storage": {
						"encoding": "inplace",
						"label": "struct structs.games",
						"members": [
							{
								"astId": 3,
								"contract": "contracts/cursoDeSolidity/12_structs.sol:structs",
								"label": "description",
								"offset": 0,
								"slot": "0",
								"type": "t_string_storage"
							},
							{
								"astId": 5,
								"contract": "contracts/cursoDeSolidity/12_structs.sol:structs",
								"label": "price",
								"offset": 0,
								"slot": "1",
								"type": "t_uint256"
							},
							{
								"astId": 7,
								"contract": "contracts/cursoDeSolidity/12_structs.sol:structs",
								"label": "played",
								"offset": 0,
								"slot": "2",
								"type": "t_bool"
							}
						],
						"numberOfBytes": "96"
					},
					"t_uint256": {
						"encoding": "inplace",
						"label": "uint256",
						"numberOfBytes": "32"
					}
				}
			},
			"userdoc": {
				"kind": "user",
				"methods": {},
				"version": 1
			}
		}
	}
}