{
	"contracts/cursoDeSolidity/15_destructuring.sol": {
		"functionsOutputs": {
			"abi": [
				{
					"inputs": [],
					"name": "destructuring",
					"outputs": [
						{
							"internalType": "uint256",
							"name": "x",
							"type": "uint256"
						},
						{
							"internalType": "bool",
							"name": "y",
							"type": "bool"
						},
						{
							"internalType": "string",
							"name": "z",
							"type": "string"
						},
						{
							"internalType": "int256",
							"name": "a",
							"type": "int256"
						}
					],
					"stateMutability": "pure",
					"type": "function"
				},
				{
					"inputs": [],
					"name": "returnMany",
					"outputs": [
						{
							"internalType": "uint256",
							"name": "",
							"type": "uint256"
						},
						{
							"internalType": "bool",
							"name": "",
							"type": "bool"
						},
						{
							"internalType": "string",
							"name": "",
							"type": "string"
						},
						{
							"internalType": "int256",
							"name": "",
							"type": "int256"
						}
					],
					"stateMutability": "pure",
					"type": "function"
				},
				{
					"inputs": [],
					"name": "returnWithName",
					"outputs": [
						{
							"internalType": "uint256",
							"name": "x",
							"type": "uint256"
						},
						{
							"internalType": "bool",
							"name": "y",
							"type": "bool"
						},
						{
							"internalType": "int256",
							"name": "z",
							"type": "int256"
						}
					],
					"stateMutability": "pure",
					"type": "function"
				},
				{
					"inputs": [],
					"name": "returnWithValue",
					"outputs": [
						{
							"internalType": "uint256",
							"name": "x",
							"type": "uint256"
						},
						{
							"internalType": "bool",
							"name": "y",
							"type": "bool"
						},
						{
							"internalType": "int256",
							"name": "z",
							"type": "int256"
						}
					],
					"stateMutability": "pure",
					"type": "function"
				}
			],
			"devdoc": {
				"kind": "dev",
				"methods": {},
				"version": 1
			},
			"evm": {
				"assembly": "    /* \"contracts/cursoDeSolidity/15_destructuring.sol\":76:673  contract functionsOutputs {... */\n  mstore(0x40, 0x80)\n  callvalue\n  dup1\n  iszero\n  tag_1\n  jumpi\n  0x00\n  dup1\n  revert\ntag_1:\n  pop\n  dataSize(sub_0)\n  dup1\n  dataOffset(sub_0)\n  0x00\n  codecopy\n  0x00\n  return\nstop\n\nsub_0: assembly {\n        /* \"contracts/cursoDeSolidity/15_destructuring.sol\":76:673  contract functionsOutputs {... */\n      mstore(0x40, 0x80)\n      callvalue\n      dup1\n      iszero\n      tag_1\n      jumpi\n      0x00\n      dup1\n      revert\n    tag_1:\n      pop\n      jumpi(tag_2, lt(calldatasize, 0x04))\n      shr(0xe0, calldataload(0x00))\n      dup1\n      0x7297237f\n      eq\n      tag_3\n      jumpi\n      dup1\n      0x86887544\n      eq\n      tag_4\n      jumpi\n      dup1\n      0x9572d86a\n      eq\n      tag_5\n      jumpi\n      dup1\n      0xf1cda997\n      eq\n      tag_6\n      jumpi\n    tag_2:\n      0x00\n      dup1\n      revert\n        /* \"contracts/cursoDeSolidity/15_destructuring.sol\":509:670  function destructuring() public pure returns(uint256 x,bool y,string memory z,int a) {... */\n    tag_3:\n      tag_7\n      tag_8\n      jump\t// in\n    tag_7:\n      mload(0x40)\n      tag_9\n      swap5\n      swap4\n      swap3\n      swap2\n      swap1\n      tag_10\n      jump\t// in\n    tag_9:\n      mload(0x40)\n      dup1\n      swap2\n      sub\n      swap1\n      return\n        /* \"contracts/cursoDeSolidity/15_destructuring.sol\":109:227  function returnMany() public pure returns(uint256,bool,string memory,int) {... */\n    tag_4:\n      tag_11\n      tag_12\n      jump\t// in\n    tag_11:\n      mload(0x40)\n      tag_13\n      swap5\n      swap4\n      swap3\n      swap2\n      swap1\n      tag_10\n      jump\t// in\n    tag_13:\n      mload(0x40)\n      dup1\n      swap2\n      sub\n      swap1\n      return\n        /* \"contracts/cursoDeSolidity/15_destructuring.sol\":347:479  function returnWithValue() public pure returns(uint256 x,bool y,int z) {... */\n    tag_5:\n      tag_14\n      tag_15\n      jump\t// in\n    tag_14:\n      mload(0x40)\n      tag_16\n      swap4\n      swap3\n      swap2\n      swap1\n      tag_17\n      jump\t// in\n    tag_16:\n      mload(0x40)\n      dup1\n      swap2\n      sub\n      swap1\n      return\n        /* \"contracts/cursoDeSolidity/15_destructuring.sol\":233:341  function returnWithName() public pure returns(uint256 x,bool y,int z) {... */\n    tag_6:\n      tag_18\n      tag_19\n      jump\t// in\n    tag_18:\n      mload(0x40)\n      tag_20\n      swap4\n      swap3\n      swap2\n      swap1\n      tag_17\n      jump\t// in\n    tag_20:\n      mload(0x40)\n      dup1\n      swap2\n      sub\n      swap1\n      return\n        /* \"contracts/cursoDeSolidity/15_destructuring.sol\":509:670  function destructuring() public pure returns(uint256 x,bool y,string memory z,int a) {... */\n    tag_8:\n        /* \"contracts/cursoDeSolidity/15_destructuring.sol\":554:563  uint256 x */\n      0x00\n        /* \"contracts/cursoDeSolidity/15_destructuring.sol\":564:570  bool y */\n      dup1\n        /* \"contracts/cursoDeSolidity/15_destructuring.sol\":571:586  string memory z */\n      0x60\n        /* \"contracts/cursoDeSolidity/15_destructuring.sol\":587:592  int a */\n      0x00\n        /* \"contracts/cursoDeSolidity/15_destructuring.sol\":620:632  returnMany() */\n      tag_22\n        /* \"contracts/cursoDeSolidity/15_destructuring.sol\":620:630  returnMany */\n      tag_12\n        /* \"contracts/cursoDeSolidity/15_destructuring.sol\":620:632  returnMany() */\n      jump\t// in\n    tag_22:\n        /* \"contracts/cursoDeSolidity/15_destructuring.sol\":605:632  (x, y, z, a) = returnMany() */\n      dup1\n      swap5\n      pop\n      dup2\n      swap6\n      pop\n      dup3\n      swap7\n      pop\n      dup4\n      swap8\n      pop\n      pop\n      pop\n      pop\n      pop\n        /* \"contracts/cursoDeSolidity/15_destructuring.sol\":509:670  function destructuring() public pure returns(uint256 x,bool y,string memory z,int a) {... */\n      swap1\n      swap2\n      swap3\n      swap4\n      jump\t// out\n        /* \"contracts/cursoDeSolidity/15_destructuring.sol\":109:227  function returnMany() public pure returns(uint256,bool,string memory,int) {... */\n    tag_12:\n        /* \"contracts/cursoDeSolidity/15_destructuring.sol\":151:158  uint256 */\n      0x00\n        /* \"contracts/cursoDeSolidity/15_destructuring.sol\":159:163  bool */\n      dup1\n        /* \"contracts/cursoDeSolidity/15_destructuring.sol\":164:177  string memory */\n      0x60\n        /* \"contracts/cursoDeSolidity/15_destructuring.sol\":178:181  int */\n      0x00\n        /* \"contracts/cursoDeSolidity/15_destructuring.sol\":202:203  1 */\n      0x01\n        /* \"contracts/cursoDeSolidity/15_destructuring.sol\":204:208  true */\n      dup1\n        /* \"contracts/cursoDeSolidity/15_destructuring.sol\":216:218  10 */\n      0x0a\n        /* \"contracts/cursoDeSolidity/15_destructuring.sol\":194:219  return (1,true,\"hola\",10) */\n      mload(0x40)\n      dup1\n      0x40\n      add\n      0x40\n      mstore\n      dup1\n      0x04\n      dup2\n      mstore\n      0x20\n      add\n      0x686f6c6100000000000000000000000000000000000000000000000000000000\n      dup2\n      mstore\n      pop\n      swap1\n      swap4\n      pop\n      swap4\n      pop\n      swap4\n      pop\n      swap4\n      pop\n        /* \"contracts/cursoDeSolidity/15_destructuring.sol\":109:227  function returnMany() public pure returns(uint256,bool,string memory,int) {... */\n      swap1\n      swap2\n      swap3\n      swap4\n      jump\t// out\n        /* \"contracts/cursoDeSolidity/15_destructuring.sol\":347:479  function returnWithValue() public pure returns(uint256 x,bool y,int z) {... */\n    tag_15:\n        /* \"contracts/cursoDeSolidity/15_destructuring.sol\":394:403  uint256 x */\n      0x00\n        /* \"contracts/cursoDeSolidity/15_destructuring.sol\":404:410  bool y */\n      dup1\n        /* \"contracts/cursoDeSolidity/15_destructuring.sol\":411:416  int z */\n      0x00\n        /* \"contracts/cursoDeSolidity/15_destructuring.sol\":433:434  3 */\n      0x03\n        /* \"contracts/cursoDeSolidity/15_destructuring.sol\":429:434  x = 3 */\n      swap3\n      pop\n        /* \"contracts/cursoDeSolidity/15_destructuring.sol\":449:454  false */\n      0x00\n        /* \"contracts/cursoDeSolidity/15_destructuring.sol\":445:454  y = false */\n      swap2\n      pop\n        /* \"contracts/cursoDeSolidity/15_destructuring.sol\":469:471  30 */\n      0x1e\n        /* \"contracts/cursoDeSolidity/15_destructuring.sol\":465:471  z = 30 */\n      swap1\n      pop\n        /* \"contracts/cursoDeSolidity/15_destructuring.sol\":347:479  function returnWithValue() public pure returns(uint256 x,bool y,int z) {... */\n      swap1\n      swap2\n      swap3\n      jump\t// out\n        /* \"contracts/cursoDeSolidity/15_destructuring.sol\":233:341  function returnWithName() public pure returns(uint256 x,bool y,int z) {... */\n    tag_19:\n        /* \"contracts/cursoDeSolidity/15_destructuring.sol\":279:288  uint256 x */\n      0x00\n        /* \"contracts/cursoDeSolidity/15_destructuring.sol\":289:295  bool y */\n      dup1\n        /* \"contracts/cursoDeSolidity/15_destructuring.sol\":296:301  int z */\n      0x00\n        /* \"contracts/cursoDeSolidity/15_destructuring.sol\":322:323  2 */\n      0x02\n        /* \"contracts/cursoDeSolidity/15_destructuring.sol\":324:329  false */\n      0x00\n        /* \"contracts/cursoDeSolidity/15_destructuring.sol\":330:332  20 */\n      0x14\n        /* \"contracts/cursoDeSolidity/15_destructuring.sol\":314:333  return (2,false,20) */\n      swap3\n      pop\n      swap3\n      pop\n      swap3\n      pop\n        /* \"contracts/cursoDeSolidity/15_destructuring.sol\":233:341  function returnWithName() public pure returns(uint256 x,bool y,int z) {... */\n      swap1\n      swap2\n      swap3\n      jump\t// out\n        /* \"#utility.yul\":7:84   */\n    tag_26:\n        /* \"#utility.yul\":44:51   */\n      0x00\n        /* \"#utility.yul\":73:78   */\n      dup2\n        /* \"#utility.yul\":62:78   */\n      swap1\n      pop\n        /* \"#utility.yul\":7:84   */\n      swap2\n      swap1\n      pop\n      jump\t// out\n        /* \"#utility.yul\":90:208   */\n    tag_27:\n        /* \"#utility.yul\":177:201   */\n      tag_40\n        /* \"#utility.yul\":195:200   */\n      dup2\n        /* \"#utility.yul\":177:201   */\n      tag_26\n      jump\t// in\n    tag_40:\n        /* \"#utility.yul\":172:175   */\n      dup3\n        /* \"#utility.yul\":165:202   */\n      mstore\n        /* \"#utility.yul\":90:208   */\n      pop\n      pop\n      jump\t// out\n        /* \"#utility.yul\":214:304   */\n    tag_28:\n        /* \"#utility.yul\":248:255   */\n      0x00\n        /* \"#utility.yul\":291:296   */\n      dup2\n        /* \"#utility.yul\":284:297   */\n      iszero\n        /* \"#utility.yul\":277:298   */\n      iszero\n        /* \"#utility.yul\":266:298   */\n      swap1\n      pop\n        /* \"#utility.yul\":214:304   */\n      swap2\n      swap1\n      pop\n      jump\t// out\n        /* \"#utility.yul\":310:419   */\n    tag_29:\n        /* \"#utility.yul\":391:412   */\n      tag_43\n        /* \"#utility.yul\":406:411   */\n      dup2\n        /* \"#utility.yul\":391:412   */\n      tag_28\n      jump\t// in\n    tag_43:\n        /* \"#utility.yul\":386:389   */\n      dup3\n        /* \"#utility.yul\":379:413   */\n      mstore\n        /* \"#utility.yul\":310:419   */\n      pop\n      pop\n      jump\t// out\n        /* \"#utility.yul\":425:524   */\n    tag_30:\n        /* \"#utility.yul\":477:483   */\n      0x00\n        /* \"#utility.yul\":511:516   */\n      dup2\n        /* \"#utility.yul\":505:517   */\n      mload\n        /* \"#utility.yul\":495:517   */\n      swap1\n      pop\n        /* \"#utility.yul\":425:524   */\n      swap2\n      swap1\n      pop\n      jump\t// out\n        /* \"#utility.yul\":530:699   */\n    tag_31:\n        /* \"#utility.yul\":614:625   */\n      0x00\n        /* \"#utility.yul\":648:654   */\n      dup3\n        /* \"#utility.yul\":643:646   */\n      dup3\n        /* \"#utility.yul\":636:655   */\n      mstore\n        /* \"#utility.yul\":688:692   */\n      0x20\n        /* \"#utility.yul\":683:686   */\n      dup3\n        /* \"#utility.yul\":679:693   */\n      add\n        /* \"#utility.yul\":664:693   */\n      swap1\n      pop\n        /* \"#utility.yul\":530:699   */\n      swap3\n      swap2\n      pop\n      pop\n      jump\t// out\n        /* \"#utility.yul\":705:844   */\n    tag_32:\n        /* \"#utility.yul\":794:800   */\n      dup3\n        /* \"#utility.yul\":789:792   */\n      dup2\n        /* \"#utility.yul\":784:787   */\n      dup4\n        /* \"#utility.yul\":778:801   */\n      mcopy\n        /* \"#utility.yul\":835:836   */\n      0x00\n        /* \"#utility.yul\":826:832   */\n      dup4\n        /* \"#utility.yul\":821:824   */\n      dup4\n        /* \"#utility.yul\":817:833   */\n      add\n        /* \"#utility.yul\":810:837   */\n      mstore\n        /* \"#utility.yul\":705:844   */\n      pop\n      pop\n      pop\n      jump\t// out\n        /* \"#utility.yul\":850:952   */\n    tag_33:\n        /* \"#utility.yul\":891:897   */\n      0x00\n        /* \"#utility.yul\":942:944   */\n      0x1f\n        /* \"#utility.yul\":938:945   */\n      not\n        /* \"#utility.yul\":933:935   */\n      0x1f\n        /* \"#utility.yul\":926:931   */\n      dup4\n        /* \"#utility.yul\":922:936   */\n      add\n        /* \"#utility.yul\":918:946   */\n      and\n        /* \"#utility.yul\":908:946   */\n      swap1\n      pop\n        /* \"#utility.yul\":850:952   */\n      swap2\n      swap1\n      pop\n      jump\t// out\n        /* \"#utility.yul\":958:1335   */\n    tag_34:\n        /* \"#utility.yul\":1046:1049   */\n      0x00\n        /* \"#utility.yul\":1074:1113   */\n      tag_49\n        /* \"#utility.yul\":1107:1112   */\n      dup3\n        /* \"#utility.yul\":1074:1113   */\n      tag_30\n      jump\t// in\n    tag_49:\n        /* \"#utility.yul\":1129:1200   */\n      tag_50\n        /* \"#utility.yul\":1193:1199   */\n      dup2\n        /* \"#utility.yul\":1188:1191   */\n      dup6\n        /* \"#utility.yul\":1129:1200   */\n      tag_31\n      jump\t// in\n    tag_50:\n        /* \"#utility.yul\":1122:1200   */\n      swap4\n      pop\n        /* \"#utility.yul\":1209:1274   */\n      tag_51\n        /* \"#utility.yul\":1267:1273   */\n      dup2\n        /* \"#utility.yul\":1262:1265   */\n      dup6\n        /* \"#utility.yul\":1255:1259   */\n      0x20\n        /* \"#utility.yul\":1248:1253   */\n      dup7\n        /* \"#utility.yul\":1244:1260   */\n      add\n        /* \"#utility.yul\":1209:1274   */\n      tag_32\n      jump\t// in\n    tag_51:\n        /* \"#utility.yul\":1299:1328   */\n      tag_52\n        /* \"#utility.yul\":1321:1327   */\n      dup2\n        /* \"#utility.yul\":1299:1328   */\n      tag_33\n      jump\t// in\n    tag_52:\n        /* \"#utility.yul\":1294:1297   */\n      dup5\n        /* \"#utility.yul\":1290:1329   */\n      add\n        /* \"#utility.yul\":1283:1329   */\n      swap2\n      pop\n        /* \"#utility.yul\":1050:1335   */\n      pop\n        /* \"#utility.yul\":958:1335   */\n      swap3\n      swap2\n      pop\n      pop\n      jump\t// out\n        /* \"#utility.yul\":1341:1417   */\n    tag_35:\n        /* \"#utility.yul\":1377:1384   */\n      0x00\n        /* \"#utility.yul\":1406:1411   */\n      dup2\n        /* \"#utility.yul\":1395:1411   */\n      swap1\n      pop\n        /* \"#utility.yul\":1341:1417   */\n      swap2\n      swap1\n      pop\n      jump\t// out\n        /* \"#utility.yul\":1423:1538   */\n    tag_36:\n        /* \"#utility.yul\":1508:1531   */\n      tag_55\n        /* \"#utility.yul\":1525:1530   */\n      dup2\n        /* \"#utility.yul\":1508:1531   */\n      tag_35\n      jump\t// in\n    tag_55:\n        /* \"#utility.yul\":1503:1506   */\n      dup3\n        /* \"#utility.yul\":1496:1532   */\n      mstore\n        /* \"#utility.yul\":1423:1538   */\n      pop\n      pop\n      jump\t// out\n        /* \"#utility.yul\":1544:2172   */\n    tag_10:\n        /* \"#utility.yul\":1733:1737   */\n      0x00\n        /* \"#utility.yul\":1771:1774   */\n      0x80\n        /* \"#utility.yul\":1760:1769   */\n      dup3\n        /* \"#utility.yul\":1756:1775   */\n      add\n        /* \"#utility.yul\":1748:1775   */\n      swap1\n      pop\n        /* \"#utility.yul\":1785:1856   */\n      tag_57\n        /* \"#utility.yul\":1853:1854   */\n      0x00\n        /* \"#utility.yul\":1842:1851   */\n      dup4\n        /* \"#utility.yul\":1838:1855   */\n      add\n        /* \"#utility.yul\":1829:1835   */\n      dup8\n        /* \"#utility.yul\":1785:1856   */\n      tag_27\n      jump\t// in\n    tag_57:\n        /* \"#utility.yul\":1866:1932   */\n      tag_58\n        /* \"#utility.yul\":1928:1930   */\n      0x20\n        /* \"#utility.yul\":1917:1926   */\n      dup4\n        /* \"#utility.yul\":1913:1931   */\n      add\n        /* \"#utility.yul\":1904:1910   */\n      dup7\n        /* \"#utility.yul\":1866:1932   */\n      tag_29\n      jump\t// in\n    tag_58:\n        /* \"#utility.yul\":1979:1988   */\n      dup2\n        /* \"#utility.yul\":1973:1977   */\n      dup2\n        /* \"#utility.yul\":1969:1989   */\n      sub\n        /* \"#utility.yul\":1964:1966   */\n      0x40\n        /* \"#utility.yul\":1953:1962   */\n      dup4\n        /* \"#utility.yul\":1949:1967   */\n      add\n        /* \"#utility.yul\":1942:1990   */\n      mstore\n        /* \"#utility.yul\":2007:2085   */\n      tag_59\n        /* \"#utility.yul\":2080:2084   */\n      dup2\n        /* \"#utility.yul\":2071:2077   */\n      dup6\n        /* \"#utility.yul\":2007:2085   */\n      tag_34\n      jump\t// in\n    tag_59:\n        /* \"#utility.yul\":1999:2085   */\n      swap1\n      pop\n        /* \"#utility.yul\":2095:2165   */\n      tag_60\n        /* \"#utility.yul\":2161:2163   */\n      0x60\n        /* \"#utility.yul\":2150:2159   */\n      dup4\n        /* \"#utility.yul\":2146:2164   */\n      add\n        /* \"#utility.yul\":2137:2143   */\n      dup5\n        /* \"#utility.yul\":2095:2165   */\n      tag_36\n      jump\t// in\n    tag_60:\n        /* \"#utility.yul\":1544:2172   */\n      swap6\n      swap5\n      pop\n      pop\n      pop\n      pop\n      pop\n      jump\t// out\n        /* \"#utility.yul\":2178:2604   */\n    tag_17:\n        /* \"#utility.yul\":2319:2323   */\n      0x00\n        /* \"#utility.yul\":2357:2359   */\n      0x60\n        /* \"#utility.yul\":2346:2355   */\n      dup3\n        /* \"#utility.yul\":2342:2360   */\n      add\n        /* \"#utility.yul\":2334:2360   */\n      swap1\n      pop\n        /* \"#utility.yul\":2370:2441   */\n      tag_62\n        /* \"#utility.yul\":2438:2439   */\n      0x00\n        /* \"#utility.yul\":2427:2436   */\n      dup4\n        /* \"#utility.yul\":2423:2440   */\n      add\n        /* \"#utility.yul\":2414:2420   */\n      dup7\n        /* \"#utility.yul\":2370:2441   */\n      tag_27\n      jump\t// in\n    tag_62:\n        /* \"#utility.yul\":2451:2517   */\n      tag_63\n        /* \"#utility.yul\":2513:2515   */\n      0x20\n        /* \"#utility.yul\":2502:2511   */\n      dup4\n        /* \"#utility.yul\":2498:2516   */\n      add\n        /* \"#utility.yul\":2489:2495   */\n      dup6\n        /* \"#utility.yul\":2451:2517   */\n      tag_29\n      jump\t// in\n    tag_63:\n        /* \"#utility.yul\":2527:2597   */\n      tag_64\n        /* \"#utility.yul\":2593:2595   */\n      0x40\n        /* \"#utility.yul\":2582:2591   */\n      dup4\n        /* \"#utility.yul\":2578:2596   */\n      add\n        /* \"#utility.yul\":2569:2575   */\n      dup5\n        /* \"#utility.yul\":2527:2597   */\n      tag_36\n      jump\t// in\n    tag_64:\n        /* \"#utility.yul\":2178:2604   */\n      swap5\n      swap4\n      pop\n      pop\n      pop\n      pop\n      jump\t// out\n\n    auxdata: 0xa2646970667358221220b063360e025bdf70e1d3783a6a615422962ba1cd3cac0c9af51401af28c3436064736f6c634300081a0033\n}\n",
				"bytecode": {
					"linkReferences": {},
					"object": "6080604052348015600e575f80fd5b506102d78061001c5f395ff3fe608060405234801561000f575f80fd5b506004361061004a575f3560e01c80637297237f1461004e578063868875441461006f5780639572d86a14610090578063f1cda997146100b0575b5f80fd5b6100566100d0565b6040516100669493929190610222565b60405180910390f35b6100776100f3565b6040516100879493929190610222565b60405180910390f35b610098610142565b6040516100a79392919061026c565b60405180910390f35b6100b8610155565b6040516100c79392919061026c565b60405180910390f35b5f8060605f6100dd6100f3565b8094508195508296508397505050505090919293565b5f8060605f600180600a6040518060400160405280600481526020017f686f6c610000000000000000000000000000000000000000000000000000000081525090935093509350935090919293565b5f805f600392505f9150601e9050909192565b5f805f60025f6014925092509250909192565b5f819050919050565b61017a81610168565b82525050565b5f8115159050919050565b61019481610180565b82525050565b5f81519050919050565b5f82825260208201905092915050565b8281835e5f83830152505050565b5f601f19601f8301169050919050565b5f6101dc8261019a565b6101e681856101a4565b93506101f68185602086016101b4565b6101ff816101c2565b840191505092915050565b5f819050919050565b61021c8161020a565b82525050565b5f6080820190506102355f830187610171565b610242602083018661018b565b818103604083015261025481856101d2565b90506102636060830184610213565b95945050505050565b5f60608201905061027f5f830186610171565b61028c602083018561018b565b6102996040830184610213565b94935050505056fea2646970667358221220b063360e025bdf70e1d3783a6a615422962ba1cd3cac0c9af51401af28c3436064736f6c634300081a0033",
					"opcodes": "PUSH1 0x80 PUSH1 0x40 MSTORE CALLVALUE DUP1 ISZERO PUSH1 0xE JUMPI PUSH0 DUP1 REVERT JUMPDEST POP PUSH2 0x2D7 DUP1 PUSH2 0x1C PUSH0 CODECOPY PUSH0 RETURN INVALID PUSH1 0x80 PUSH1 0x40 MSTORE CALLVALUE DUP1 ISZERO PUSH2 0xF JUMPI PUSH0 DUP1 REVERT JUMPDEST POP PUSH1 0x4 CALLDATASIZE LT PUSH2 0x4A JUMPI PUSH0 CALLDATALOAD PUSH1 0xE0 SHR DUP1 PUSH4 0x7297237F EQ PUSH2 0x4E JUMPI DUP1 PUSH4 0x86887544 EQ PUSH2 0x6F JUMPI DUP1 PUSH4 0x9572D86A EQ PUSH2 0x90 JUMPI DUP1 PUSH4 0xF1CDA997 EQ PUSH2 0xB0 JUMPI JUMPDEST PUSH0 DUP1 REVERT JUMPDEST PUSH2 0x56 PUSH2 0xD0 JUMP JUMPDEST PUSH1 0x40 MLOAD PUSH2 0x66 SWAP5 SWAP4 SWAP3 SWAP2 SWAP1 PUSH2 0x222 JUMP JUMPDEST PUSH1 0x40 MLOAD DUP1 SWAP2 SUB SWAP1 RETURN JUMPDEST PUSH2 0x77 PUSH2 0xF3 JUMP JUMPDEST PUSH1 0x40 MLOAD PUSH2 0x87 SWAP5 SWAP4 SWAP3 SWAP2 SWAP1 PUSH2 0x222 JUMP JUMPDEST PUSH1 0x40 MLOAD DUP1 SWAP2 SUB SWAP1 RETURN JUMPDEST PUSH2 0x98 PUSH2 0x142 JUMP JUMPDEST PUSH1 0x40 MLOAD PUSH2 0xA7 SWAP4 SWAP3 SWAP2 SWAP1 PUSH2 0x26C JUMP JUMPDEST PUSH1 0x40 MLOAD DUP1 SWAP2 SUB SWAP1 RETURN JUMPDEST PUSH2 0xB8 PUSH2 0x155 JUMP JUMPDEST PUSH1 0x40 MLOAD PUSH2 0xC7 SWAP4 SWAP3 SWAP2 SWAP1 PUSH2 0x26C JUMP JUMPDEST PUSH1 0x40 MLOAD DUP1 SWAP2 SUB SWAP1 RETURN JUMPDEST PUSH0 DUP1 PUSH1 0x60 PUSH0 PUSH2 0xDD PUSH2 0xF3 JUMP JUMPDEST DUP1 SWAP5 POP DUP2 SWAP6 POP DUP3 SWAP7 POP DUP4 SWAP8 POP POP POP POP POP SWAP1 SWAP2 SWAP3 SWAP4 JUMP JUMPDEST PUSH0 DUP1 PUSH1 0x60 PUSH0 PUSH1 0x1 DUP1 PUSH1 0xA PUSH1 0x40 MLOAD DUP1 PUSH1 0x40 ADD PUSH1 0x40 MSTORE DUP1 PUSH1 0x4 DUP2 MSTORE PUSH1 0x20 ADD PUSH32 0x686F6C6100000000000000000000000000000000000000000000000000000000 DUP2 MSTORE POP SWAP1 SWAP4 POP SWAP4 POP SWAP4 POP SWAP4 POP SWAP1 SWAP2 SWAP3 SWAP4 JUMP JUMPDEST PUSH0 DUP1 PUSH0 PUSH1 0x3 SWAP3 POP PUSH0 SWAP2 POP PUSH1 0x1E SWAP1 POP SWAP1 SWAP2 SWAP3 JUMP JUMPDEST PUSH0 DUP1 PUSH0 PUSH1 0x2 PUSH0 PUSH1 0x14 SWAP3 POP SWAP3 POP SWAP3 POP SWAP1 SWAP2 SWAP3 JUMP JUMPDEST PUSH0 DUP2 SWAP1 POP SWAP2 SWAP1 POP JUMP JUMPDEST PUSH2 0x17A DUP2 PUSH2 0x168 JUMP JUMPDEST DUP3 MSTORE POP POP JUMP JUMPDEST PUSH0 DUP2 ISZERO ISZERO SWAP1 POP SWAP2 SWAP1 POP JUMP JUMPDEST PUSH2 0x194 DUP2 PUSH2 0x180 JUMP JUMPDEST DUP3 MSTORE POP POP JUMP JUMPDEST PUSH0 DUP2 MLOAD SWAP1 POP SWAP2 SWAP1 POP JUMP JUMPDEST PUSH0 DUP3 DUP3 MSTORE PUSH1 0x20 DUP3 ADD SWAP1 POP SWAP3 SWAP2 POP POP JUMP JUMPDEST DUP3 DUP2 DUP4 MCOPY PUSH0 DUP4 DUP4 ADD MSTORE POP POP POP JUMP JUMPDEST PUSH0 PUSH1 0x1F NOT PUSH1 0x1F DUP4 ADD AND SWAP1 POP SWAP2 SWAP1 POP JUMP JUMPDEST PUSH0 PUSH2 0x1DC DUP3 PUSH2 0x19A JUMP JUMPDEST PUSH2 0x1E6 DUP2 DUP6 PUSH2 0x1A4 JUMP JUMPDEST SWAP4 POP PUSH2 0x1F6 DUP2 DUP6 PUSH1 0x20 DUP7 ADD PUSH2 0x1B4 JUMP JUMPDEST PUSH2 0x1FF DUP2 PUSH2 0x1C2 JUMP JUMPDEST DUP5 ADD SWAP2 POP POP SWAP3 SWAP2 POP POP JUMP JUMPDEST PUSH0 DUP2 SWAP1 POP SWAP2 SWAP1 POP JUMP JUMPDEST PUSH2 0x21C DUP2 PUSH2 0x20A JUMP JUMPDEST DUP3 MSTORE POP POP JUMP JUMPDEST PUSH0 PUSH1 0x80 DUP3 ADD SWAP1 POP PUSH2 0x235 PUSH0 DUP4 ADD DUP8 PUSH2 0x171 JUMP JUMPDEST PUSH2 0x242 PUSH1 0x20 DUP4 ADD DUP7 PUSH2 0x18B JUMP JUMPDEST DUP2 DUP2 SUB PUSH1 0x40 DUP4 ADD MSTORE PUSH2 0x254 DUP2 DUP6 PUSH2 0x1D2 JUMP JUMPDEST SWAP1 POP PUSH2 0x263 PUSH1 0x60 DUP4 ADD DUP5 PUSH2 0x213 JUMP JUMPDEST SWAP6 SWAP5 POP POP POP POP POP JUMP JUMPDEST PUSH0 PUSH1 0x60 DUP3 ADD SWAP1 POP PUSH2 0x27F PUSH0 DUP4 ADD DUP7 PUSH2 0x171 JUMP JUMPDEST PUSH2 0x28C PUSH1 0x20 DUP4 ADD DUP6 PUSH2 0x18B JUMP JUMPDEST PUSH2 0x299 PUSH1 0x40 DUP4 ADD DUP5 PUSH2 0x213 JUMP JUMPDEST SWAP5 SWAP4 POP POP POP POP JUMP INVALID LOG2 PUSH5 0x6970667358 0x22 SLT KECCAK256 0xB0 PUSH4 0x360E025B 0xDF PUSH17 0xE1D3783A6A615422962BA1CD3CAC0C9AF5 EQ ADD 0xAF 0x28 0xC3 NUMBER PUSH1 0x64 PUSH20 0x6F6C634300081A00330000000000000000000000 "
				},
				"gasEstimates": {
					"creation": {
						"codeDepositCost": "145400",
						"executionCost": "188",
						"totalCost": "145588"
					},
					"external": {
						"destructuring()": "infinite",
						"returnMany()": "infinite",
						"returnWithName()": "606",
						"returnWithValue()": "584"
					}
				},
				"methodIdentifiers": {
					"destructuring()": "7297237f",
					"returnMany()": "86887544",
					"returnWithName()": "f1cda997",
					"returnWithValue()": "9572d86a"
				}
			},
			"storageLayout": {
				"storage": [],
				"types": null
			},
			"userdoc": {
				"kind": "user",
				"methods": {},
				"version": 1
			}
		}
	}
}