{
	"contracts/cursoDeSolidity/Copy_27_sendEther.sol": {
		"sendEther": {
			"abi": [
				{
					"inputs": [],
					"stateMutability": "payable",
					"type": "constructor"
				},
				{
					"inputs": [
						{
							"internalType": "address payable",
							"name": "_to",
							"type": "address"
						}
					],
					"name": "callETH",
					"outputs": [],
					"stateMutability": "payable",
					"type": "function"
				},
				{
					"inputs": [
						{
							"internalType": "address payable",
							"name": "_to",
							"type": "address"
						}
					],
					"name": "sendETH",
					"outputs": [],
					"stateMutability": "payable",
					"type": "function"
				},
				{
					"inputs": [
						{
							"internalType": "address payable",
							"name": "_to",
							"type": "address"
						}
					],
					"name": "transferETH",
					"outputs": [],
					"stateMutability": "payable",
					"type": "function"
				}
			],
			"devdoc": {
				"kind": "dev",
				"methods": {},
				"version": 1
			},
			"evm": {
				"assembly": "    /* \"contracts/cursoDeSolidity/Copy_27_sendEther.sol\":147:628  contract sendEther {... */\n  mstore(0x40, 0x80)\n  dataSize(sub_0)\n  dup1\n  dataOffset(sub_0)\n  0x00\n  codecopy\n  0x00\n  return\nstop\n\nsub_0: assembly {\n        /* \"contracts/cursoDeSolidity/Copy_27_sendEther.sol\":147:628  contract sendEther {... */\n      mstore(0x40, 0x80)\n      jumpi(tag_1, lt(calldatasize, 0x04))\n      shr(0xe0, calldataload(0x00))\n      dup1\n      0x21b1e5f8\n      eq\n      tag_2\n      jumpi\n      dup1\n      0x43ddc1b0\n      eq\n      tag_3\n      jumpi\n      dup1\n      0xd50f6bf0\n      eq\n      tag_4\n      jumpi\n    tag_1:\n      0x00\n      dup1\n      revert\n        /* \"contracts/cursoDeSolidity/Copy_27_sendEther.sol\":315:457  function sendETH(address payable _to) external payable  {... */\n    tag_2:\n      tag_5\n      0x04\n      dup1\n      calldatasize\n      sub\n      dup2\n      add\n      swap1\n      tag_6\n      swap2\n      swap1\n      tag_7\n      jump\t// in\n    tag_6:\n      tag_8\n      jump\t// in\n    tag_5:\n      stop\n        /* \"contracts/cursoDeSolidity/Copy_27_sendEther.sol\":465:623  function callETH(address payable _to) external payable  {... */\n    tag_3:\n      tag_9\n      0x04\n      dup1\n      calldatasize\n      sub\n      dup2\n      add\n      swap1\n      tag_10\n      swap2\n      swap1\n      tag_7\n      jump\t// in\n    tag_10:\n      tag_11\n      jump\t// in\n    tag_9:\n      stop\n        /* \"contracts/cursoDeSolidity/Copy_27_sendEther.sol\":205:307  function transferETH(address payable _to) external payable  {... */\n    tag_4:\n      tag_12\n      0x04\n      dup1\n      calldatasize\n      sub\n      dup2\n      add\n      swap1\n      tag_13\n      swap2\n      swap1\n      tag_7\n      jump\t// in\n    tag_13:\n      tag_14\n      jump\t// in\n    tag_12:\n      stop\n        /* \"contracts/cursoDeSolidity/Copy_27_sendEther.sol\":315:457  function sendETH(address payable _to) external payable  {... */\n    tag_8:\n        /* \"contracts/cursoDeSolidity/Copy_27_sendEther.sol\":382:391  bool sent */\n      0x00\n        /* \"contracts/cursoDeSolidity/Copy_27_sendEther.sol\":394:397  _to */\n      dup2\n        /* \"contracts/cursoDeSolidity/Copy_27_sendEther.sol\":394:402  _to.send */\n      0xffffffffffffffffffffffffffffffffffffffff\n      and\n        /* \"contracts/cursoDeSolidity/Copy_27_sendEther.sol\":394:413  _to.send(msg.value) */\n      0x08fc\n        /* \"contracts/cursoDeSolidity/Copy_27_sendEther.sol\":403:412  msg.value */\n      callvalue\n        /* \"contracts/cursoDeSolidity/Copy_27_sendEther.sol\":394:413  _to.send(msg.value) */\n      swap1\n      dup2\n      iszero\n      mul\n      swap1\n      mload(0x40)\n      0x00\n      mload(0x40)\n      dup1\n      dup4\n      sub\n      dup2\n      dup6\n      dup9\n      dup9\n      call\n      swap4\n      pop\n      pop\n      pop\n      pop\n        /* \"contracts/cursoDeSolidity/Copy_27_sendEther.sol\":382:413  bool sent = _to.send(msg.value) */\n      swap1\n      pop\n        /* \"contracts/cursoDeSolidity/Copy_27_sendEther.sol\":432:436  sent */\n      dup1\n        /* \"contracts/cursoDeSolidity/Copy_27_sendEther.sol\":424:449  require(sent,\"errorSend\") */\n      tag_17\n      jumpi\n      mload(0x40)\n      0x08c379a000000000000000000000000000000000000000000000000000000000\n      dup2\n      mstore\n      0x04\n      add\n      tag_18\n      swap1\n      tag_19\n      jump\t// in\n    tag_18:\n      mload(0x40)\n      dup1\n      swap2\n      sub\n      swap1\n      revert\n    tag_17:\n        /* \"contracts/cursoDeSolidity/Copy_27_sendEther.sol\":371:457  {... */\n      pop\n        /* \"contracts/cursoDeSolidity/Copy_27_sendEther.sol\":315:457  function sendETH(address payable _to) external payable  {... */\n      pop\n      jump\t// out\n        /* \"contracts/cursoDeSolidity/Copy_27_sendEther.sol\":465:623  function callETH(address payable _to) external payable  {... */\n    tag_11:\n        /* \"contracts/cursoDeSolidity/Copy_27_sendEther.sol\":533:542  bool sent */\n      0x00\n        /* \"contracts/cursoDeSolidity/Copy_27_sendEther.sol\":548:551  _to */\n      dup2\n        /* \"contracts/cursoDeSolidity/Copy_27_sendEther.sol\":548:556  _to.call */\n      0xffffffffffffffffffffffffffffffffffffffff\n      and\n        /* \"contracts/cursoDeSolidity/Copy_27_sendEther.sol\":564:573  msg.value */\n      callvalue\n        /* \"contracts/cursoDeSolidity/Copy_27_sendEther.sol\":548:578  _to.call{value: msg.value}(\"\") */\n      mload(0x40)\n      tag_21\n      swap1\n      tag_22\n      jump\t// in\n    tag_21:\n      0x00\n      mload(0x40)\n      dup1\n      dup4\n      sub\n      dup2\n      dup6\n      dup8\n      gas\n      call\n      swap3\n      pop\n      pop\n      pop\n      returndatasize\n      dup1\n      0x00\n      dup2\n      eq\n      tag_25\n      jumpi\n      mload(0x40)\n      swap2\n      pop\n      and(add(returndatasize, 0x3f), not(0x1f))\n      dup3\n      add\n      0x40\n      mstore\n      returndatasize\n      dup3\n      mstore\n      returndatasize\n      0x00\n      0x20\n      dup5\n      add\n      returndatacopy\n      jump(tag_24)\n    tag_25:\n      0x60\n      swap2\n      pop\n    tag_24:\n      pop\n        /* \"contracts/cursoDeSolidity/Copy_27_sendEther.sol\":532:578  (bool sent, ) = _to.call{value: msg.value}(\"\") */\n      pop\n      swap1\n      pop\n        /* \"contracts/cursoDeSolidity/Copy_27_sendEther.sol\":597:601  sent */\n      dup1\n        /* \"contracts/cursoDeSolidity/Copy_27_sendEther.sol\":589:615  require(sent, \"errorCall\") */\n      tag_26\n      jumpi\n      mload(0x40)\n      0x08c379a000000000000000000000000000000000000000000000000000000000\n      dup2\n      mstore\n      0x04\n      add\n      tag_27\n      swap1\n      tag_28\n      jump\t// in\n    tag_27:\n      mload(0x40)\n      dup1\n      swap2\n      sub\n      swap1\n      revert\n    tag_26:\n        /* \"contracts/cursoDeSolidity/Copy_27_sendEther.sol\":521:623  {... */\n      pop\n        /* \"contracts/cursoDeSolidity/Copy_27_sendEther.sol\":465:623  function callETH(address payable _to) external payable  {... */\n      pop\n      jump\t// out\n        /* \"contracts/cursoDeSolidity/Copy_27_sendEther.sol\":205:307  function transferETH(address payable _to) external payable  {... */\n    tag_14:\n        /* \"contracts/cursoDeSolidity/Copy_27_sendEther.sol\":276:279  _to */\n      dup1\n        /* \"contracts/cursoDeSolidity/Copy_27_sendEther.sol\":276:288  _to.transfer */\n      0xffffffffffffffffffffffffffffffffffffffff\n      and\n        /* \"contracts/cursoDeSolidity/Copy_27_sendEther.sol\":276:299  _to.transfer(msg.value) */\n      0x08fc\n        /* \"contracts/cursoDeSolidity/Copy_27_sendEther.sol\":289:298  msg.value */\n      callvalue\n        /* \"contracts/cursoDeSolidity/Copy_27_sendEther.sol\":276:299  _to.transfer(msg.value) */\n      swap1\n      dup2\n      iszero\n      mul\n      swap1\n      mload(0x40)\n      0x00\n      mload(0x40)\n      dup1\n      dup4\n      sub\n      dup2\n      dup6\n      dup9\n      dup9\n      call\n      swap4\n      pop\n      pop\n      pop\n      pop\n      iszero\n      dup1\n      iszero\n      tag_31\n      jumpi\n      returndatasize\n      0x00\n      dup1\n      returndatacopy\n      revert(0x00, returndatasize)\n    tag_31:\n      pop\n        /* \"contracts/cursoDeSolidity/Copy_27_sendEther.sol\":205:307  function transferETH(address payable _to) external payable  {... */\n      pop\n      jump\t// out\n        /* \"#utility.yul\":88:205   */\n    tag_33:\n        /* \"#utility.yul\":197:198   */\n      0x00\n        /* \"#utility.yul\":194:195   */\n      dup1\n        /* \"#utility.yul\":187:199   */\n      revert\n        /* \"#utility.yul\":334:460   */\n    tag_35:\n        /* \"#utility.yul\":371:378   */\n      0x00\n        /* \"#utility.yul\":411:453   */\n      0xffffffffffffffffffffffffffffffffffffffff\n        /* \"#utility.yul\":404:409   */\n      dup3\n        /* \"#utility.yul\":400:454   */\n      and\n        /* \"#utility.yul\":389:454   */\n      swap1\n      pop\n        /* \"#utility.yul\":334:460   */\n      swap2\n      swap1\n      pop\n      jump\t// out\n        /* \"#utility.yul\":466:570   */\n    tag_36:\n        /* \"#utility.yul\":511:518   */\n      0x00\n        /* \"#utility.yul\":540:564   */\n      tag_53\n        /* \"#utility.yul\":558:563   */\n      dup3\n        /* \"#utility.yul\":540:564   */\n      tag_35\n      jump\t// in\n    tag_53:\n        /* \"#utility.yul\":529:564   */\n      swap1\n      pop\n        /* \"#utility.yul\":466:570   */\n      swap2\n      swap1\n      pop\n      jump\t// out\n        /* \"#utility.yul\":576:714   */\n    tag_37:\n        /* \"#utility.yul\":657:689   */\n      tag_55\n        /* \"#utility.yul\":683:688   */\n      dup2\n        /* \"#utility.yul\":657:689   */\n      tag_36\n      jump\t// in\n    tag_55:\n        /* \"#utility.yul\":650:655   */\n      dup2\n        /* \"#utility.yul\":647:690   */\n      eq\n        /* \"#utility.yul\":637:708   */\n      tag_56\n      jumpi\n        /* \"#utility.yul\":704:705   */\n      0x00\n        /* \"#utility.yul\":701:702   */\n      dup1\n        /* \"#utility.yul\":694:706   */\n      revert\n        /* \"#utility.yul\":637:708   */\n    tag_56:\n        /* \"#utility.yul\":576:714   */\n      pop\n      jump\t// out\n        /* \"#utility.yul\":720:875   */\n    tag_38:\n        /* \"#utility.yul\":774:779   */\n      0x00\n        /* \"#utility.yul\":812:818   */\n      dup2\n        /* \"#utility.yul\":799:819   */\n      calldataload\n        /* \"#utility.yul\":790:819   */\n      swap1\n      pop\n        /* \"#utility.yul\":828:869   */\n      tag_58\n        /* \"#utility.yul\":863:868   */\n      dup2\n        /* \"#utility.yul\":828:869   */\n      tag_37\n      jump\t// in\n    tag_58:\n        /* \"#utility.yul\":720:875   */\n      swap3\n      swap2\n      pop\n      pop\n      jump\t// out\n        /* \"#utility.yul\":881:1226   */\n    tag_7:\n        /* \"#utility.yul\":948:954   */\n      0x00\n        /* \"#utility.yul\":997:999   */\n      0x20\n        /* \"#utility.yul\":985:994   */\n      dup3\n        /* \"#utility.yul\":976:983   */\n      dup5\n        /* \"#utility.yul\":972:995   */\n      sub\n        /* \"#utility.yul\":968:1000   */\n      slt\n        /* \"#utility.yul\":965:1084   */\n      iszero\n      tag_60\n      jumpi\n        /* \"#utility.yul\":1003:1082   */\n      tag_61\n      tag_33\n      jump\t// in\n    tag_61:\n        /* \"#utility.yul\":965:1084   */\n    tag_60:\n        /* \"#utility.yul\":1123:1124   */\n      0x00\n        /* \"#utility.yul\":1148:1209   */\n      tag_62\n        /* \"#utility.yul\":1201:1208   */\n      dup5\n        /* \"#utility.yul\":1192:1198   */\n      dup3\n        /* \"#utility.yul\":1181:1190   */\n      dup6\n        /* \"#utility.yul\":1177:1199   */\n      add\n        /* \"#utility.yul\":1148:1209   */\n      tag_38\n      jump\t// in\n    tag_62:\n        /* \"#utility.yul\":1138:1209   */\n      swap2\n      pop\n        /* \"#utility.yul\":1094:1219   */\n      pop\n        /* \"#utility.yul\":881:1226   */\n      swap3\n      swap2\n      pop\n      pop\n      jump\t// out\n        /* \"#utility.yul\":1232:1401   */\n    tag_39:\n        /* \"#utility.yul\":1316:1327   */\n      0x00\n        /* \"#utility.yul\":1350:1356   */\n      dup3\n        /* \"#utility.yul\":1345:1348   */\n      dup3\n        /* \"#utility.yul\":1338:1357   */\n      mstore\n        /* \"#utility.yul\":1390:1394   */\n      0x20\n        /* \"#utility.yul\":1385:1388   */\n      dup3\n        /* \"#utility.yul\":1381:1395   */\n      add\n        /* \"#utility.yul\":1366:1395   */\n      swap1\n      pop\n        /* \"#utility.yul\":1232:1401   */\n      swap3\n      swap2\n      pop\n      pop\n      jump\t// out\n        /* \"#utility.yul\":1407:1566   */\n    tag_40:\n        /* \"#utility.yul\":1547:1558   */\n      0x6572726f7253656e640000000000000000000000000000000000000000000000\n        /* \"#utility.yul\":1543:1544   */\n      0x00\n        /* \"#utility.yul\":1535:1541   */\n      dup3\n        /* \"#utility.yul\":1531:1545   */\n      add\n        /* \"#utility.yul\":1524:1559   */\n      mstore\n        /* \"#utility.yul\":1407:1566   */\n      pop\n      jump\t// out\n        /* \"#utility.yul\":1572:1937   */\n    tag_41:\n        /* \"#utility.yul\":1714:1717   */\n      0x00\n        /* \"#utility.yul\":1735:1801   */\n      tag_66\n        /* \"#utility.yul\":1799:1800   */\n      0x09\n        /* \"#utility.yul\":1794:1797   */\n      dup4\n        /* \"#utility.yul\":1735:1801   */\n      tag_39\n      jump\t// in\n    tag_66:\n        /* \"#utility.yul\":1728:1801   */\n      swap2\n      pop\n        /* \"#utility.yul\":1810:1903   */\n      tag_67\n        /* \"#utility.yul\":1899:1902   */\n      dup3\n        /* \"#utility.yul\":1810:1903   */\n      tag_40\n      jump\t// in\n    tag_67:\n        /* \"#utility.yul\":1928:1930   */\n      0x20\n        /* \"#utility.yul\":1923:1926   */\n      dup3\n        /* \"#utility.yul\":1919:1931   */\n      add\n        /* \"#utility.yul\":1912:1931   */\n      swap1\n      pop\n        /* \"#utility.yul\":1572:1937   */\n      swap2\n      swap1\n      pop\n      jump\t// out\n        /* \"#utility.yul\":1943:2362   */\n    tag_19:\n        /* \"#utility.yul\":2109:2113   */\n      0x00\n        /* \"#utility.yul\":2147:2149   */\n      0x20\n        /* \"#utility.yul\":2136:2145   */\n      dup3\n        /* \"#utility.yul\":2132:2150   */\n      add\n        /* \"#utility.yul\":2124:2150   */\n      swap1\n      pop\n        /* \"#utility.yul\":2196:2205   */\n      dup2\n        /* \"#utility.yul\":2190:2194   */\n      dup2\n        /* \"#utility.yul\":2186:2206   */\n      sub\n        /* \"#utility.yul\":2182:2183   */\n      0x00\n        /* \"#utility.yul\":2171:2180   */\n      dup4\n        /* \"#utility.yul\":2167:2184   */\n      add\n        /* \"#utility.yul\":2160:2207   */\n      mstore\n        /* \"#utility.yul\":2224:2355   */\n      tag_69\n        /* \"#utility.yul\":2350:2354   */\n      dup2\n        /* \"#utility.yul\":2224:2355   */\n      tag_41\n      jump\t// in\n    tag_69:\n        /* \"#utility.yul\":2216:2355   */\n      swap1\n      pop\n        /* \"#utility.yul\":1943:2362   */\n      swap2\n      swap1\n      pop\n      jump\t// out\n        /* \"#utility.yul\":2368:2515   */\n    tag_42:\n        /* \"#utility.yul\":2469:2480   */\n      0x00\n        /* \"#utility.yul\":2506:2509   */\n      dup2\n        /* \"#utility.yul\":2491:2509   */\n      swap1\n      pop\n        /* \"#utility.yul\":2368:2515   */\n      swap3\n      swap2\n      pop\n      pop\n      jump\t// out\n        /* \"#utility.yul\":2521:2635   */\n    tag_43:\n      pop\n      jump\t// out\n        /* \"#utility.yul\":2641:3039   */\n    tag_44:\n        /* \"#utility.yul\":2800:2803   */\n      0x00\n        /* \"#utility.yul\":2821:2904   */\n      tag_73\n        /* \"#utility.yul\":2902:2903   */\n      0x00\n        /* \"#utility.yul\":2897:2900   */\n      dup4\n        /* \"#utility.yul\":2821:2904   */\n      tag_42\n      jump\t// in\n    tag_73:\n        /* \"#utility.yul\":2814:2904   */\n      swap2\n      pop\n        /* \"#utility.yul\":2913:3006   */\n      tag_74\n        /* \"#utility.yul\":3002:3005   */\n      dup3\n        /* \"#utility.yul\":2913:3006   */\n      tag_43\n      jump\t// in\n    tag_74:\n        /* \"#utility.yul\":3031:3032   */\n      0x00\n        /* \"#utility.yul\":3026:3029   */\n      dup3\n        /* \"#utility.yul\":3022:3033   */\n      add\n        /* \"#utility.yul\":3015:3033   */\n      swap1\n      pop\n        /* \"#utility.yul\":2641:3039   */\n      swap2\n      swap1\n      pop\n      jump\t// out\n        /* \"#utility.yul\":3045:3424   */\n    tag_22:\n        /* \"#utility.yul\":3229:3232   */\n      0x00\n        /* \"#utility.yul\":3251:3398   */\n      tag_76\n        /* \"#utility.yul\":3394:3397   */\n      dup3\n        /* \"#utility.yul\":3251:3398   */\n      tag_44\n      jump\t// in\n    tag_76:\n        /* \"#utility.yul\":3244:3398   */\n      swap2\n      pop\n        /* \"#utility.yul\":3415:3418   */\n      dup2\n        /* \"#utility.yul\":3408:3418   */\n      swap1\n      pop\n        /* \"#utility.yul\":3045:3424   */\n      swap2\n      swap1\n      pop\n      jump\t// out\n        /* \"#utility.yul\":3430:3589   */\n    tag_45:\n        /* \"#utility.yul\":3570:3581   */\n      0x6572726f7243616c6c0000000000000000000000000000000000000000000000\n        /* \"#utility.yul\":3566:3567   */\n      0x00\n        /* \"#utility.yul\":3558:3564   */\n      dup3\n        /* \"#utility.yul\":3554:3568   */\n      add\n        /* \"#utility.yul\":3547:3582   */\n      mstore\n        /* \"#utility.yul\":3430:3589   */\n      pop\n      jump\t// out\n        /* \"#utility.yul\":3595:3960   */\n    tag_46:\n        /* \"#utility.yul\":3737:3740   */\n      0x00\n        /* \"#utility.yul\":3758:3824   */\n      tag_79\n        /* \"#utility.yul\":3822:3823   */\n      0x09\n        /* \"#utility.yul\":3817:3820   */\n      dup4\n        /* \"#utility.yul\":3758:3824   */\n      tag_39\n      jump\t// in\n    tag_79:\n        /* \"#utility.yul\":3751:3824   */\n      swap2\n      pop\n        /* \"#utility.yul\":3833:3926   */\n      tag_80\n        /* \"#utility.yul\":3922:3925   */\n      dup3\n        /* \"#utility.yul\":3833:3926   */\n      tag_45\n      jump\t// in\n    tag_80:\n        /* \"#utility.yul\":3951:3953   */\n      0x20\n        /* \"#utility.yul\":3946:3949   */\n      dup3\n        /* \"#utility.yul\":3942:3954   */\n      add\n        /* \"#utility.yul\":3935:3954   */\n      swap1\n      pop\n        /* \"#utility.yul\":3595:3960   */\n      swap2\n      swap1\n      pop\n      jump\t// out\n        /* \"#utility.yul\":3966:4385   */\n    tag_28:\n        /* \"#utility.yul\":4132:4136   */\n      0x00\n        /* \"#utility.yul\":4170:4172   */\n      0x20\n        /* \"#utility.yul\":4159:4168   */\n      dup3\n        /* \"#utility.yul\":4155:4173   */\n      add\n        /* \"#utility.yul\":4147:4173   */\n      swap1\n      pop\n        /* \"#utility.yul\":4219:4228   */\n      dup2\n        /* \"#utility.yul\":4213:4217   */\n      dup2\n        /* \"#utility.yul\":4209:4229   */\n      sub\n        /* \"#utility.yul\":4205:4206   */\n      0x00\n        /* \"#utility.yul\":4194:4203   */\n      dup4\n        /* \"#utility.yul\":4190:4207   */\n      add\n        /* \"#utility.yul\":4183:4230   */\n      mstore\n        /* \"#utility.yul\":4247:4378   */\n      tag_82\n        /* \"#utility.yul\":4373:4377   */\n      dup2\n        /* \"#utility.yul\":4247:4378   */\n      tag_46\n      jump\t// in\n    tag_82:\n        /* \"#utility.yul\":4239:4378   */\n      swap1\n      pop\n        /* \"#utility.yul\":3966:4385   */\n      swap2\n      swap1\n      pop\n      jump\t// out\n\n    auxdata: 0xa2646970667358221220aa6b8115be020efeb2ef7f5ca886100f4c92d548f988802d8e7197b5c367cc4964736f6c634300081a0033\n}\n",
				"bytecode": {
					"linkReferences": {},
					"object": "60806040526103d9806100115f395ff3fe608060405260043610610033575f3560e01c806321b1e5f81461003757806343ddc1b014610053578063d50f6bf01461006f575b5f80fd5b610051600480360381019061004c9190610257565b61008b565b005b61006d60048036038101906100689190610257565b610106565b005b61008960048036038101906100849190610257565b6101b2565b005b5f8173ffffffffffffffffffffffffffffffffffffffff166108fc3490811502906040515f60405180830381858888f19350505050905080610102576040517f08c379a00000000000000000000000000000000000000000000000000000000081526004016100f9906102dc565b60405180910390fd5b5050565b5f8173ffffffffffffffffffffffffffffffffffffffff163460405161012b90610327565b5f6040518083038185875af1925050503d805f8114610165576040519150601f19603f3d011682016040523d82523d5f602084013e61016a565b606091505b50509050806101ae576040517f08c379a00000000000000000000000000000000000000000000000000000000081526004016101a590610385565b60405180910390fd5b5050565b8073ffffffffffffffffffffffffffffffffffffffff166108fc3490811502906040515f60405180830381858888f193505050501580156101f5573d5f803e3d5ffd5b5050565b5f80fd5b5f73ffffffffffffffffffffffffffffffffffffffff82169050919050565b5f610226826101fd565b9050919050565b6102368161021c565b8114610240575f80fd5b50565b5f813590506102518161022d565b92915050565b5f6020828403121561026c5761026b6101f9565b5b5f61027984828501610243565b91505092915050565b5f82825260208201905092915050565b7f6572726f7253656e6400000000000000000000000000000000000000000000005f82015250565b5f6102c6600983610282565b91506102d182610292565b602082019050919050565b5f6020820190508181035f8301526102f3816102ba565b9050919050565b5f81905092915050565b50565b5f6103125f836102fa565b915061031d82610304565b5f82019050919050565b5f61033182610307565b9150819050919050565b7f6572726f7243616c6c00000000000000000000000000000000000000000000005f82015250565b5f61036f600983610282565b915061037a8261033b565b602082019050919050565b5f6020820190508181035f83015261039c81610363565b905091905056fea2646970667358221220aa6b8115be020efeb2ef7f5ca886100f4c92d548f988802d8e7197b5c367cc4964736f6c634300081a0033",
					"opcodes": "PUSH1 0x80 PUSH1 0x40 MSTORE PUSH2 0x3D9 DUP1 PUSH2 0x11 PUSH0 CODECOPY PUSH0 RETURN INVALID PUSH1 0x80 PUSH1 0x40 MSTORE PUSH1 0x4 CALLDATASIZE LT PUSH2 0x33 JUMPI PUSH0 CALLDATALOAD PUSH1 0xE0 SHR DUP1 PUSH4 0x21B1E5F8 EQ PUSH2 0x37 JUMPI DUP1 PUSH4 0x43DDC1B0 EQ PUSH2 0x53 JUMPI DUP1 PUSH4 0xD50F6BF0 EQ PUSH2 0x6F JUMPI JUMPDEST PUSH0 DUP1 REVERT JUMPDEST PUSH2 0x51 PUSH1 0x4 DUP1 CALLDATASIZE SUB DUP2 ADD SWAP1 PUSH2 0x4C SWAP2 SWAP1 PUSH2 0x257 JUMP JUMPDEST PUSH2 0x8B JUMP JUMPDEST STOP JUMPDEST PUSH2 0x6D PUSH1 0x4 DUP1 CALLDATASIZE SUB DUP2 ADD SWAP1 PUSH2 0x68 SWAP2 SWAP1 PUSH2 0x257 JUMP JUMPDEST PUSH2 0x106 JUMP JUMPDEST STOP JUMPDEST PUSH2 0x89 PUSH1 0x4 DUP1 CALLDATASIZE SUB DUP2 ADD SWAP1 PUSH2 0x84 SWAP2 SWAP1 PUSH2 0x257 JUMP JUMPDEST PUSH2 0x1B2 JUMP JUMPDEST STOP JUMPDEST PUSH0 DUP2 PUSH20 0xFFFFFFFFFFFFFFFFFFFFFFFFFFFFFFFFFFFFFFFF AND PUSH2 0x8FC CALLVALUE SWAP1 DUP2 ISZERO MUL SWAP1 PUSH1 0x40 MLOAD PUSH0 PUSH1 0x40 MLOAD DUP1 DUP4 SUB DUP2 DUP6 DUP9 DUP9 CALL SWAP4 POP POP POP POP SWAP1 POP DUP1 PUSH2 0x102 JUMPI PUSH1 0x40 MLOAD PUSH32 0x8C379A000000000000000000000000000000000000000000000000000000000 DUP2 MSTORE PUSH1 0x4 ADD PUSH2 0xF9 SWAP1 PUSH2 0x2DC JUMP JUMPDEST PUSH1 0x40 MLOAD DUP1 SWAP2 SUB SWAP1 REVERT JUMPDEST POP POP JUMP JUMPDEST PUSH0 DUP2 PUSH20 0xFFFFFFFFFFFFFFFFFFFFFFFFFFFFFFFFFFFFFFFF AND CALLVALUE PUSH1 0x40 MLOAD PUSH2 0x12B SWAP1 PUSH2 0x327 JUMP JUMPDEST PUSH0 PUSH1 0x40 MLOAD DUP1 DUP4 SUB DUP2 DUP6 DUP8 GAS CALL SWAP3 POP POP POP RETURNDATASIZE DUP1 PUSH0 DUP2 EQ PUSH2 0x165 JUMPI PUSH1 0x40 MLOAD SWAP2 POP PUSH1 0x1F NOT PUSH1 0x3F RETURNDATASIZE ADD AND DUP3 ADD PUSH1 0x40 MSTORE RETURNDATASIZE DUP3 MSTORE RETURNDATASIZE PUSH0 PUSH1 0x20 DUP5 ADD RETURNDATACOPY PUSH2 0x16A JUMP JUMPDEST PUSH1 0x60 SWAP2 POP JUMPDEST POP POP SWAP1 POP DUP1 PUSH2 0x1AE JUMPI PUSH1 0x40 MLOAD PUSH32 0x8C379A000000000000000000000000000000000000000000000000000000000 DUP2 MSTORE PUSH1 0x4 ADD PUSH2 0x1A5 SWAP1 PUSH2 0x385 JUMP JUMPDEST PUSH1 0x40 MLOAD DUP1 SWAP2 SUB SWAP1 REVERT JUMPDEST POP POP JUMP JUMPDEST DUP1 PUSH20 0xFFFFFFFFFFFFFFFFFFFFFFFFFFFFFFFFFFFFFFFF AND PUSH2 0x8FC CALLVALUE SWAP1 DUP2 ISZERO MUL SWAP1 PUSH1 0x40 MLOAD PUSH0 PUSH1 0x40 MLOAD DUP1 DUP4 SUB DUP2 DUP6 DUP9 DUP9 CALL SWAP4 POP POP POP POP ISZERO DUP1 ISZERO PUSH2 0x1F5 JUMPI RETURNDATASIZE PUSH0 DUP1 RETURNDATACOPY RETURNDATASIZE PUSH0 REVERT JUMPDEST POP POP JUMP JUMPDEST PUSH0 DUP1 REVERT JUMPDEST PUSH0 PUSH20 0xFFFFFFFFFFFFFFFFFFFFFFFFFFFFFFFFFFFFFFFF DUP3 AND SWAP1 POP SWAP2 SWAP1 POP JUMP JUMPDEST PUSH0 PUSH2 0x226 DUP3 PUSH2 0x1FD JUMP JUMPDEST SWAP1 POP SWAP2 SWAP1 POP JUMP JUMPDEST PUSH2 0x236 DUP2 PUSH2 0x21C JUMP JUMPDEST DUP2 EQ PUSH2 0x240 JUMPI PUSH0 DUP1 REVERT JUMPDEST POP JUMP JUMPDEST PUSH0 DUP2 CALLDATALOAD SWAP1 POP PUSH2 0x251 DUP2 PUSH2 0x22D JUMP JUMPDEST SWAP3 SWAP2 POP POP JUMP JUMPDEST PUSH0 PUSH1 0x20 DUP3 DUP5 SUB SLT ISZERO PUSH2 0x26C JUMPI PUSH2 0x26B PUSH2 0x1F9 JUMP JUMPDEST JUMPDEST PUSH0 PUSH2 0x279 DUP5 DUP3 DUP6 ADD PUSH2 0x243 JUMP JUMPDEST SWAP2 POP POP SWAP3 SWAP2 POP POP JUMP JUMPDEST PUSH0 DUP3 DUP3 MSTORE PUSH1 0x20 DUP3 ADD SWAP1 POP SWAP3 SWAP2 POP POP JUMP JUMPDEST PUSH32 0x6572726F7253656E640000000000000000000000000000000000000000000000 PUSH0 DUP3 ADD MSTORE POP JUMP JUMPDEST PUSH0 PUSH2 0x2C6 PUSH1 0x9 DUP4 PUSH2 0x282 JUMP JUMPDEST SWAP2 POP PUSH2 0x2D1 DUP3 PUSH2 0x292 JUMP JUMPDEST PUSH1 0x20 DUP3 ADD SWAP1 POP SWAP2 SWAP1 POP JUMP JUMPDEST PUSH0 PUSH1 0x20 DUP3 ADD SWAP1 POP DUP2 DUP2 SUB PUSH0 DUP4 ADD MSTORE PUSH2 0x2F3 DUP2 PUSH2 0x2BA JUMP JUMPDEST SWAP1 POP SWAP2 SWAP1 POP JUMP JUMPDEST PUSH0 DUP2 SWAP1 POP SWAP3 SWAP2 POP POP JUMP JUMPDEST POP JUMP JUMPDEST PUSH0 PUSH2 0x312 PUSH0 DUP4 PUSH2 0x2FA JUMP JUMPDEST SWAP2 POP PUSH2 0x31D DUP3 PUSH2 0x304 JUMP JUMPDEST PUSH0 DUP3 ADD SWAP1 POP SWAP2 SWAP1 POP JUMP JUMPDEST PUSH0 PUSH2 0x331 DUP3 PUSH2 0x307 JUMP JUMPDEST SWAP2 POP DUP2 SWAP1 POP SWAP2 SWAP1 POP JUMP JUMPDEST PUSH32 0x6572726F7243616C6C0000000000000000000000000000000000000000000000 PUSH0 DUP3 ADD MSTORE POP JUMP JUMPDEST PUSH0 PUSH2 0x36F PUSH1 0x9 DUP4 PUSH2 0x282 JUMP JUMPDEST SWAP2 POP PUSH2 0x37A DUP3 PUSH2 0x33B JUMP JUMPDEST PUSH1 0x20 DUP3 ADD SWAP1 POP SWAP2 SWAP1 POP JUMP JUMPDEST PUSH0 PUSH1 0x20 DUP3 ADD SWAP1 POP DUP2 DUP2 SUB PUSH0 DUP4 ADD MSTORE PUSH2 0x39C DUP2 PUSH2 0x363 JUMP JUMPDEST SWAP1 POP SWAP2 SWAP1 POP JUMP INVALID LOG2 PUSH5 0x6970667358 0x22 SLT KECCAK256 0xAA PUSH12 0x8115BE020EFEB2EF7F5CA886 LT 0xF 0x4C SWAP3 0xD5 BASEFEE 0xF9 DUP9 DUP1 0x2D DUP15 PUSH18 0x97B5C367CC4964736F6C634300081A003300 "
				},
				"gasEstimates": {
					"creation": {
						"codeDepositCost": "197000",
						"executionCost": "212",
						"totalCost": "197212"
					},
					"external": {
						"callETH(address)": "infinite",
						"sendETH(address)": "infinite",
						"transferETH(address)": "infinite"
					}
				},
				"methodIdentifiers": {
					"callETH(address)": "43ddc1b0",
					"sendETH(address)": "21b1e5f8",
					"transferETH(address)": "d50f6bf0"
				}
			},
			"storageLayout": {
				"storage": [],
				"types": null
			},
			"userdoc": {
				"kind": "user",
				"methods": {},
				"version": 1
			}
		}
	}
}