{
	"contracts/cursoDeSolidity/29_lowLevelCall.sol": {
		"weWillCallThisContract": {
			"abi": [
				{
					"anonymous": false,
					"inputs": [
						{
							"indexed": false,
							"internalType": "string",
							"name": "message",
							"type": "string"
						}
					],
					"name": "log",
					"type": "event"
				},
				{
					"stateMutability": "payable",
					"type": "fallback"
				},
				{
					"inputs": [
						{
							"internalType": "string",
							"name": "_message",
							"type": "string"
						},
						{
							"internalType": "uint256",
							"name": "_x",
							"type": "uint256"
						}
					],
					"name": "foo",
					"outputs": [
						{
							"internalType": "string",
							"name": "",
							"type": "string"
						},
						{
							"internalType": "uint256",
							"name": "",
							"type": "uint256"
						}
					],
					"stateMutability": "payable",
					"type": "function"
				},
				{
					"stateMutability": "payable",
					"type": "receive"
				}
			],
			"devdoc": {
				"kind": "dev",
				"methods": {},
				"version": 1
			},
			"evm": {
				"assembly": "    /* \"contracts/cursoDeSolidity/29_lowLevelCall.sol\":74:403  contract weWillCallThisContract {... */\n  mstore(0x40, 0x80)\n  callvalue\n  dup1\n  iszero\n  tag_1\n  jumpi\n  0x00\n  dup1\n  revert\ntag_1:\n  pop\n  dataSize(sub_0)\n  dup1\n  dataOffset(sub_0)\n  0x00\n  codecopy\n  0x00\n  return\nstop\n\nsub_0: assembly {\n        /* \"contracts/cursoDeSolidity/29_lowLevelCall.sol\":74:403  contract weWillCallThisContract {... */\n      mstore(0x40, 0x80)\n      jumpi(tag_1, lt(calldatasize, 0x04))\n      shr(0xe0, calldataload(0x00))\n      dup1\n      0x24ccab8f\n      eq\n      tag_3\n      jumpi\n      jump(tag_2)\n    tag_1:\n      jumpi(tag_2, calldatasize)\n      stop\n    tag_2:\n        /* \"contracts/cursoDeSolidity/29_lowLevelCall.sol\":228:254  log(\"callback was called\") */\n      0x41304facd9323d75b11bcdd609cb38effffdb05710f7caf0e9b16c6d9d709f50\n      mload(0x40)\n      tag_8\n      swap1\n      tag_9\n      jump\t// in\n    tag_8:\n      mload(0x40)\n      dup1\n      swap2\n      sub\n      swap1\n      log1\n        /* \"contracts/cursoDeSolidity/29_lowLevelCall.sol\":74:403  contract weWillCallThisContract {... */\n      stop\n        /* \"contracts/cursoDeSolidity/29_lowLevelCall.sol\":268:400  function foo(string memory _message, uint _x) external payable returns (string memory, uint){... */\n    tag_3:\n      tag_10\n      0x04\n      dup1\n      calldatasize\n      sub\n      dup2\n      add\n      swap1\n      tag_11\n      swap2\n      swap1\n      tag_12\n      jump\t// in\n    tag_11:\n      tag_13\n      jump\t// in\n    tag_10:\n      mload(0x40)\n      tag_14\n      swap3\n      swap2\n      swap1\n      tag_15\n      jump\t// in\n    tag_14:\n      mload(0x40)\n      dup1\n      swap2\n      sub\n      swap1\n      return\n    tag_13:\n        /* \"contracts/cursoDeSolidity/29_lowLevelCall.sol\":340:353  string memory */\n      0x60\n        /* \"contracts/cursoDeSolidity/29_lowLevelCall.sol\":355:359  uint */\n      0x00\n        /* \"contracts/cursoDeSolidity/29_lowLevelCall.sol\":379:387  _message */\n      dup4\n        /* \"contracts/cursoDeSolidity/29_lowLevelCall.sol\":389:391  _x */\n      dup4\n        /* \"contracts/cursoDeSolidity/29_lowLevelCall.sol\":371:392  return (_message, _x) */\n      swap2\n      pop\n      swap2\n      pop\n        /* \"contracts/cursoDeSolidity/29_lowLevelCall.sol\":268:400  function foo(string memory _message, uint _x) external payable returns (string memory, uint){... */\n      swap3\n      pop\n      swap3\n      swap1\n      pop\n      jump\t// out\n        /* \"#utility.yul\":7:176   */\n    tag_17:\n        /* \"#utility.yul\":91:102   */\n      0x00\n        /* \"#utility.yul\":125:131   */\n      dup3\n        /* \"#utility.yul\":120:123   */\n      dup3\n        /* \"#utility.yul\":113:132   */\n      mstore\n        /* \"#utility.yul\":165:169   */\n      0x20\n        /* \"#utility.yul\":160:163   */\n      dup3\n        /* \"#utility.yul\":156:170   */\n      add\n        /* \"#utility.yul\":141:170   */\n      swap1\n      pop\n        /* \"#utility.yul\":7:176   */\n      swap3\n      swap2\n      pop\n      pop\n      jump\t// out\n        /* \"#utility.yul\":182:351   */\n    tag_18:\n        /* \"#utility.yul\":322:343   */\n      0x63616c6c6261636b207761732063616c6c656400000000000000000000000000\n        /* \"#utility.yul\":318:319   */\n      0x00\n        /* \"#utility.yul\":310:316   */\n      dup3\n        /* \"#utility.yul\":306:320   */\n      add\n        /* \"#utility.yul\":299:344   */\n      mstore\n        /* \"#utility.yul\":182:351   */\n      pop\n      jump\t// out\n        /* \"#utility.yul\":357:723   */\n    tag_19:\n        /* \"#utility.yul\":499:502   */\n      0x00\n        /* \"#utility.yul\":520:587   */\n      tag_44\n        /* \"#utility.yul\":584:586   */\n      0x13\n        /* \"#utility.yul\":579:582   */\n      dup4\n        /* \"#utility.yul\":520:587   */\n      tag_17\n      jump\t// in\n    tag_44:\n        /* \"#utility.yul\":513:587   */\n      swap2\n      pop\n        /* \"#utility.yul\":596:689   */\n      tag_45\n        /* \"#utility.yul\":685:688   */\n      dup3\n        /* \"#utility.yul\":596:689   */\n      tag_18\n      jump\t// in\n    tag_45:\n        /* \"#utility.yul\":714:716   */\n      0x20\n        /* \"#utility.yul\":709:712   */\n      dup3\n        /* \"#utility.yul\":705:717   */\n      add\n        /* \"#utility.yul\":698:717   */\n      swap1\n      pop\n        /* \"#utility.yul\":357:723   */\n      swap2\n      swap1\n      pop\n      jump\t// out\n        /* \"#utility.yul\":729:1148   */\n    tag_9:\n        /* \"#utility.yul\":895:899   */\n      0x00\n        /* \"#utility.yul\":933:935   */\n      0x20\n        /* \"#utility.yul\":922:931   */\n      dup3\n        /* \"#utility.yul\":918:936   */\n      add\n        /* \"#utility.yul\":910:936   */\n      swap1\n      pop\n        /* \"#utility.yul\":982:991   */\n      dup2\n        /* \"#utility.yul\":976:980   */\n      dup2\n        /* \"#utility.yul\":972:992   */\n      sub\n        /* \"#utility.yul\":968:969   */\n      0x00\n        /* \"#utility.yul\":957:966   */\n      dup4\n        /* \"#utility.yul\":953:970   */\n      add\n        /* \"#utility.yul\":946:993   */\n      mstore\n        /* \"#utility.yul\":1010:1141   */\n      tag_47\n        /* \"#utility.yul\":1136:1140   */\n      dup2\n        /* \"#utility.yul\":1010:1141   */\n      tag_19\n      jump\t// in\n    tag_47:\n        /* \"#utility.yul\":1002:1141   */\n      swap1\n      pop\n        /* \"#utility.yul\":729:1148   */\n      swap2\n      swap1\n      pop\n      jump\t// out\n        /* \"#utility.yul\":1154:1229   */\n    tag_20:\n        /* \"#utility.yul\":1187:1193   */\n      0x00\n        /* \"#utility.yul\":1220:1222   */\n      0x40\n        /* \"#utility.yul\":1214:1223   */\n      mload\n        /* \"#utility.yul\":1204:1223   */\n      swap1\n      pop\n        /* \"#utility.yul\":1154:1229   */\n      swap1\n      jump\t// out\n        /* \"#utility.yul\":1235:1352   */\n    tag_21:\n        /* \"#utility.yul\":1344:1345   */\n      0x00\n        /* \"#utility.yul\":1341:1342   */\n      dup1\n        /* \"#utility.yul\":1334:1346   */\n      revert\n        /* \"#utility.yul\":1358:1475   */\n    tag_22:\n        /* \"#utility.yul\":1467:1468   */\n      0x00\n        /* \"#utility.yul\":1464:1465   */\n      dup1\n        /* \"#utility.yul\":1457:1469   */\n      revert\n        /* \"#utility.yul\":1481:1598   */\n    tag_23:\n        /* \"#utility.yul\":1590:1591   */\n      0x00\n        /* \"#utility.yul\":1587:1588   */\n      dup1\n        /* \"#utility.yul\":1580:1592   */\n      revert\n        /* \"#utility.yul\":1604:1721   */\n    tag_24:\n        /* \"#utility.yul\":1713:1714   */\n      0x00\n        /* \"#utility.yul\":1710:1711   */\n      dup1\n        /* \"#utility.yul\":1703:1715   */\n      revert\n        /* \"#utility.yul\":1727:1829   */\n    tag_25:\n        /* \"#utility.yul\":1768:1774   */\n      0x00\n        /* \"#utility.yul\":1819:1821   */\n      0x1f\n        /* \"#utility.yul\":1815:1822   */\n      not\n        /* \"#utility.yul\":1810:1812   */\n      0x1f\n        /* \"#utility.yul\":1803:1808   */\n      dup4\n        /* \"#utility.yul\":1799:1813   */\n      add\n        /* \"#utility.yul\":1795:1823   */\n      and\n        /* \"#utility.yul\":1785:1823   */\n      swap1\n      pop\n        /* \"#utility.yul\":1727:1829   */\n      swap2\n      swap1\n      pop\n      jump\t// out\n        /* \"#utility.yul\":1835:2015   */\n    tag_26:\n        /* \"#utility.yul\":1883:1960   */\n      0x4e487b7100000000000000000000000000000000000000000000000000000000\n        /* \"#utility.yul\":1880:1881   */\n      0x00\n        /* \"#utility.yul\":1873:1961   */\n      mstore\n        /* \"#utility.yul\":1980:1984   */\n      0x41\n        /* \"#utility.yul\":1977:1978   */\n      0x04\n        /* \"#utility.yul\":1970:1985   */\n      mstore\n        /* \"#utility.yul\":2004:2008   */\n      0x24\n        /* \"#utility.yul\":2001:2002   */\n      0x00\n        /* \"#utility.yul\":1994:2009   */\n      revert\n        /* \"#utility.yul\":2021:2302   */\n    tag_27:\n        /* \"#utility.yul\":2104:2131   */\n      tag_56\n        /* \"#utility.yul\":2126:2130   */\n      dup3\n        /* \"#utility.yul\":2104:2131   */\n      tag_25\n      jump\t// in\n    tag_56:\n        /* \"#utility.yul\":2096:2102   */\n      dup2\n        /* \"#utility.yul\":2092:2132   */\n      add\n        /* \"#utility.yul\":2234:2240   */\n      dup2\n        /* \"#utility.yul\":2222:2232   */\n      dup2\n        /* \"#utility.yul\":2219:2241   */\n      lt\n        /* \"#utility.yul\":2198:2216   */\n      0xffffffffffffffff\n        /* \"#utility.yul\":2186:2196   */\n      dup3\n        /* \"#utility.yul\":2183:2217   */\n      gt\n        /* \"#utility.yul\":2180:2242   */\n      or\n        /* \"#utility.yul\":2177:2265   */\n      iszero\n      tag_57\n      jumpi\n        /* \"#utility.yul\":2245:2263   */\n      tag_58\n      tag_26\n      jump\t// in\n    tag_58:\n        /* \"#utility.yul\":2177:2265   */\n    tag_57:\n        /* \"#utility.yul\":2285:2295   */\n      dup1\n        /* \"#utility.yul\":2281:2283   */\n      0x40\n        /* \"#utility.yul\":2274:2296   */\n      mstore\n        /* \"#utility.yul\":2064:2302   */\n      pop\n        /* \"#utility.yul\":2021:2302   */\n      pop\n      pop\n      jump\t// out\n        /* \"#utility.yul\":2308:2437   */\n    tag_28:\n        /* \"#utility.yul\":2342:2348   */\n      0x00\n        /* \"#utility.yul\":2369:2389   */\n      tag_60\n      tag_20\n      jump\t// in\n    tag_60:\n        /* \"#utility.yul\":2359:2389   */\n      swap1\n      pop\n        /* \"#utility.yul\":2398:2431   */\n      tag_61\n        /* \"#utility.yul\":2426:2430   */\n      dup3\n        /* \"#utility.yul\":2418:2424   */\n      dup3\n        /* \"#utility.yul\":2398:2431   */\n      tag_27\n      jump\t// in\n    tag_61:\n        /* \"#utility.yul\":2308:2437   */\n      swap2\n      swap1\n      pop\n      jump\t// out\n        /* \"#utility.yul\":2443:2751   */\n    tag_29:\n        /* \"#utility.yul\":2505:2509   */\n      0x00\n        /* \"#utility.yul\":2595:2613   */\n      0xffffffffffffffff\n        /* \"#utility.yul\":2587:2593   */\n      dup3\n        /* \"#utility.yul\":2584:2614   */\n      gt\n        /* \"#utility.yul\":2581:2637   */\n      iszero\n      tag_63\n      jumpi\n        /* \"#utility.yul\":2617:2635   */\n      tag_64\n      tag_26\n      jump\t// in\n    tag_64:\n        /* \"#utility.yul\":2581:2637   */\n    tag_63:\n        /* \"#utility.yul\":2655:2684   */\n      tag_65\n        /* \"#utility.yul\":2677:2683   */\n      dup3\n        /* \"#utility.yul\":2655:2684   */\n      tag_25\n      jump\t// in\n    tag_65:\n        /* \"#utility.yul\":2647:2684   */\n      swap1\n      pop\n        /* \"#utility.yul\":2739:2743   */\n      0x20\n        /* \"#utility.yul\":2733:2737   */\n      dup2\n        /* \"#utility.yul\":2729:2744   */\n      add\n        /* \"#utility.yul\":2721:2744   */\n      swap1\n      pop\n        /* \"#utility.yul\":2443:2751   */\n      swap2\n      swap1\n      pop\n      jump\t// out\n        /* \"#utility.yul\":2757:2905   */\n    tag_30:\n        /* \"#utility.yul\":2855:2861   */\n      dup3\n        /* \"#utility.yul\":2850:2853   */\n      dup2\n        /* \"#utility.yul\":2845:2848   */\n      dup4\n        /* \"#utility.yul\":2832:2862   */\n      calldatacopy\n        /* \"#utility.yul\":2896:2897   */\n      0x00\n        /* \"#utility.yul\":2887:2893   */\n      dup4\n        /* \"#utility.yul\":2882:2885   */\n      dup4\n        /* \"#utility.yul\":2878:2894   */\n      add\n        /* \"#utility.yul\":2871:2898   */\n      mstore\n        /* \"#utility.yul\":2757:2905   */\n      pop\n      pop\n      pop\n      jump\t// out\n        /* \"#utility.yul\":2911:3336   */\n    tag_31:\n        /* \"#utility.yul\":2989:2994   */\n      0x00\n        /* \"#utility.yul\":3014:3080   */\n      tag_68\n        /* \"#utility.yul\":3030:3079   */\n      tag_69\n        /* \"#utility.yul\":3072:3078   */\n      dup5\n        /* \"#utility.yul\":3030:3079   */\n      tag_29\n      jump\t// in\n    tag_69:\n        /* \"#utility.yul\":3014:3080   */\n      tag_28\n      jump\t// in\n    tag_68:\n        /* \"#utility.yul\":3005:3080   */\n      swap1\n      pop\n        /* \"#utility.yul\":3103:3109   */\n      dup3\n        /* \"#utility.yul\":3096:3101   */\n      dup2\n        /* \"#utility.yul\":3089:3110   */\n      mstore\n        /* \"#utility.yul\":3141:3145   */\n      0x20\n        /* \"#utility.yul\":3134:3139   */\n      dup2\n        /* \"#utility.yul\":3130:3146   */\n      add\n        /* \"#utility.yul\":3179:3182   */\n      dup5\n        /* \"#utility.yul\":3170:3176   */\n      dup5\n        /* \"#utility.yul\":3165:3168   */\n      dup5\n        /* \"#utility.yul\":3161:3177   */\n      add\n        /* \"#utility.yul\":3158:3183   */\n      gt\n        /* \"#utility.yul\":3155:3267   */\n      iszero\n      tag_70\n      jumpi\n        /* \"#utility.yul\":3186:3265   */\n      tag_71\n      tag_24\n      jump\t// in\n    tag_71:\n        /* \"#utility.yul\":3155:3267   */\n    tag_70:\n        /* \"#utility.yul\":3276:3330   */\n      tag_72\n        /* \"#utility.yul\":3323:3329   */\n      dup5\n        /* \"#utility.yul\":3318:3321   */\n      dup3\n        /* \"#utility.yul\":3313:3316   */\n      dup6\n        /* \"#utility.yul\":3276:3330   */\n      tag_30\n      jump\t// in\n    tag_72:\n        /* \"#utility.yul\":2995:3336   */\n      pop\n        /* \"#utility.yul\":2911:3336   */\n      swap4\n      swap3\n      pop\n      pop\n      pop\n      jump\t// out\n        /* \"#utility.yul\":3356:3696   */\n    tag_32:\n        /* \"#utility.yul\":3412:3417   */\n      0x00\n        /* \"#utility.yul\":3461:3464   */\n      dup3\n        /* \"#utility.yul\":3454:3458   */\n      0x1f\n        /* \"#utility.yul\":3446:3452   */\n      dup4\n        /* \"#utility.yul\":3442:3459   */\n      add\n        /* \"#utility.yul\":3438:3465   */\n      slt\n        /* \"#utility.yul\":3428:3550   */\n      tag_74\n      jumpi\n        /* \"#utility.yul\":3469:3548   */\n      tag_75\n      tag_23\n      jump\t// in\n    tag_75:\n        /* \"#utility.yul\":3428:3550   */\n    tag_74:\n        /* \"#utility.yul\":3586:3592   */\n      dup2\n        /* \"#utility.yul\":3573:3593   */\n      calldataload\n        /* \"#utility.yul\":3611:3690   */\n      tag_76\n        /* \"#utility.yul\":3686:3689   */\n      dup5\n        /* \"#utility.yul\":3678:3684   */\n      dup3\n        /* \"#utility.yul\":3671:3675   */\n      0x20\n        /* \"#utility.yul\":3663:3669   */\n      dup7\n        /* \"#utility.yul\":3659:3676   */\n      add\n        /* \"#utility.yul\":3611:3690   */\n      tag_31\n      jump\t// in\n    tag_76:\n        /* \"#utility.yul\":3602:3690   */\n      swap2\n      pop\n        /* \"#utility.yul\":3418:3696   */\n      pop\n        /* \"#utility.yul\":3356:3696   */\n      swap3\n      swap2\n      pop\n      pop\n      jump\t// out\n        /* \"#utility.yul\":3702:3779   */\n    tag_33:\n        /* \"#utility.yul\":3739:3746   */\n      0x00\n        /* \"#utility.yul\":3768:3773   */\n      dup2\n        /* \"#utility.yul\":3757:3773   */\n      swap1\n      pop\n        /* \"#utility.yul\":3702:3779   */\n      swap2\n      swap1\n      pop\n      jump\t// out\n        /* \"#utility.yul\":3785:3907   */\n    tag_34:\n        /* \"#utility.yul\":3858:3882   */\n      tag_79\n        /* \"#utility.yul\":3876:3881   */\n      dup2\n        /* \"#utility.yul\":3858:3882   */\n      tag_33\n      jump\t// in\n    tag_79:\n        /* \"#utility.yul\":3851:3856   */\n      dup2\n        /* \"#utility.yul\":3848:3883   */\n      eq\n        /* \"#utility.yul\":3838:3901   */\n      tag_80\n      jumpi\n        /* \"#utility.yul\":3897:3898   */\n      0x00\n        /* \"#utility.yul\":3894:3895   */\n      dup1\n        /* \"#utility.yul\":3887:3899   */\n      revert\n        /* \"#utility.yul\":3838:3901   */\n    tag_80:\n        /* \"#utility.yul\":3785:3907   */\n      pop\n      jump\t// out\n        /* \"#utility.yul\":3913:4052   */\n    tag_35:\n        /* \"#utility.yul\":3959:3964   */\n      0x00\n        /* \"#utility.yul\":3997:4003   */\n      dup2\n        /* \"#utility.yul\":3984:4004   */\n      calldataload\n        /* \"#utility.yul\":3975:4004   */\n      swap1\n      pop\n        /* \"#utility.yul\":4013:4046   */\n      tag_82\n        /* \"#utility.yul\":4040:4045   */\n      dup2\n        /* \"#utility.yul\":4013:4046   */\n      tag_34\n      jump\t// in\n    tag_82:\n        /* \"#utility.yul\":3913:4052   */\n      swap3\n      swap2\n      pop\n      pop\n      jump\t// out\n        /* \"#utility.yul\":4058:4712   */\n    tag_12:\n        /* \"#utility.yul\":4136:4142   */\n      0x00\n        /* \"#utility.yul\":4144:4150   */\n      dup1\n        /* \"#utility.yul\":4193:4195   */\n      0x40\n        /* \"#utility.yul\":4181:4190   */\n      dup4\n        /* \"#utility.yul\":4172:4179   */\n      dup6\n        /* \"#utility.yul\":4168:4191   */\n      sub\n        /* \"#utility.yul\":4164:4196   */\n      slt\n        /* \"#utility.yul\":4161:4280   */\n      iszero\n      tag_84\n      jumpi\n        /* \"#utility.yul\":4199:4278   */\n      tag_85\n      tag_21\n      jump\t// in\n    tag_85:\n        /* \"#utility.yul\":4161:4280   */\n    tag_84:\n        /* \"#utility.yul\":4347:4348   */\n      0x00\n        /* \"#utility.yul\":4336:4345   */\n      dup4\n        /* \"#utility.yul\":4332:4349   */\n      add\n        /* \"#utility.yul\":4319:4350   */\n      calldataload\n        /* \"#utility.yul\":4377:4395   */\n      0xffffffffffffffff\n        /* \"#utility.yul\":4369:4375   */\n      dup2\n        /* \"#utility.yul\":4366:4396   */\n      gt\n        /* \"#utility.yul\":4363:4480   */\n      iszero\n      tag_86\n      jumpi\n        /* \"#utility.yul\":4399:4478   */\n      tag_87\n      tag_22\n      jump\t// in\n    tag_87:\n        /* \"#utility.yul\":4363:4480   */\n    tag_86:\n        /* \"#utility.yul\":4504:4567   */\n      tag_88\n        /* \"#utility.yul\":4559:4566   */\n      dup6\n        /* \"#utility.yul\":4550:4556   */\n      dup3\n        /* \"#utility.yul\":4539:4548   */\n      dup7\n        /* \"#utility.yul\":4535:4557   */\n      add\n        /* \"#utility.yul\":4504:4567   */\n      tag_32\n      jump\t// in\n    tag_88:\n        /* \"#utility.yul\":4494:4567   */\n      swap3\n      pop\n        /* \"#utility.yul\":4290:4577   */\n      pop\n        /* \"#utility.yul\":4616:4618   */\n      0x20\n        /* \"#utility.yul\":4642:4695   */\n      tag_89\n        /* \"#utility.yul\":4687:4694   */\n      dup6\n        /* \"#utility.yul\":4678:4684   */\n      dup3\n        /* \"#utility.yul\":4667:4676   */\n      dup7\n        /* \"#utility.yul\":4663:4685   */\n      add\n        /* \"#utility.yul\":4642:4695   */\n      tag_35\n      jump\t// in\n    tag_89:\n        /* \"#utility.yul\":4632:4695   */\n      swap2\n      pop\n        /* \"#utility.yul\":4587:4705   */\n      pop\n        /* \"#utility.yul\":4058:4712   */\n      swap3\n      pop\n      swap3\n      swap1\n      pop\n      jump\t// out\n        /* \"#utility.yul\":4718:4817   */\n    tag_36:\n        /* \"#utility.yul\":4770:4776   */\n      0x00\n        /* \"#utility.yul\":4804:4809   */\n      dup2\n        /* \"#utility.yul\":4798:4810   */\n      mload\n        /* \"#utility.yul\":4788:4810   */\n      swap1\n      pop\n        /* \"#utility.yul\":4718:4817   */\n      swap2\n      swap1\n      pop\n      jump\t// out\n        /* \"#utility.yul\":4823:4962   */\n    tag_37:\n        /* \"#utility.yul\":4912:4918   */\n      dup3\n        /* \"#utility.yul\":4907:4910   */\n      dup2\n        /* \"#utility.yul\":4902:4905   */\n      dup4\n        /* \"#utility.yul\":4896:4919   */\n      mcopy\n        /* \"#utility.yul\":4953:4954   */\n      0x00\n        /* \"#utility.yul\":4944:4950   */\n      dup4\n        /* \"#utility.yul\":4939:4942   */\n      dup4\n        /* \"#utility.yul\":4935:4951   */\n      add\n        /* \"#utility.yul\":4928:4955   */\n      mstore\n        /* \"#utility.yul\":4823:4962   */\n      pop\n      pop\n      pop\n      jump\t// out\n        /* \"#utility.yul\":4968:5345   */\n    tag_38:\n        /* \"#utility.yul\":5056:5059   */\n      0x00\n        /* \"#utility.yul\":5084:5123   */\n      tag_93\n        /* \"#utility.yul\":5117:5122   */\n      dup3\n        /* \"#utility.yul\":5084:5123   */\n      tag_36\n      jump\t// in\n    tag_93:\n        /* \"#utility.yul\":5139:5210   */\n      tag_94\n        /* \"#utility.yul\":5203:5209   */\n      dup2\n        /* \"#utility.yul\":5198:5201   */\n      dup6\n        /* \"#utility.yul\":5139:5210   */\n      tag_17\n      jump\t// in\n    tag_94:\n        /* \"#utility.yul\":5132:5210   */\n      swap4\n      pop\n        /* \"#utility.yul\":5219:5284   */\n      tag_95\n        /* \"#utility.yul\":5277:5283   */\n      dup2\n        /* \"#utility.yul\":5272:5275   */\n      dup6\n        /* \"#utility.yul\":5265:5269   */\n      0x20\n        /* \"#utility.yul\":5258:5263   */\n      dup7\n        /* \"#utility.yul\":5254:5270   */\n      add\n        /* \"#utility.yul\":5219:5284   */\n      tag_37\n      jump\t// in\n    tag_95:\n        /* \"#utility.yul\":5309:5338   */\n      tag_96\n        /* \"#utility.yul\":5331:5337   */\n      dup2\n        /* \"#utility.yul\":5309:5338   */\n      tag_25\n      jump\t// in\n    tag_96:\n        /* \"#utility.yul\":5304:5307   */\n      dup5\n        /* \"#utility.yul\":5300:5339   */\n      add\n        /* \"#utility.yul\":5293:5339   */\n      swap2\n      pop\n        /* \"#utility.yul\":5060:5345   */\n      pop\n        /* \"#utility.yul\":4968:5345   */\n      swap3\n      swap2\n      pop\n      pop\n      jump\t// out\n        /* \"#utility.yul\":5351:5469   */\n    tag_39:\n        /* \"#utility.yul\":5438:5462   */\n      tag_98\n        /* \"#utility.yul\":5456:5461   */\n      dup2\n        /* \"#utility.yul\":5438:5462   */\n      tag_33\n      jump\t// in\n    tag_98:\n        /* \"#utility.yul\":5433:5436   */\n      dup3\n        /* \"#utility.yul\":5426:5463   */\n      mstore\n        /* \"#utility.yul\":5351:5469   */\n      pop\n      pop\n      jump\t// out\n        /* \"#utility.yul\":5475:5898   */\n    tag_15:\n        /* \"#utility.yul\":5616:5620   */\n      0x00\n        /* \"#utility.yul\":5654:5656   */\n      0x40\n        /* \"#utility.yul\":5643:5652   */\n      dup3\n        /* \"#utility.yul\":5639:5657   */\n      add\n        /* \"#utility.yul\":5631:5657   */\n      swap1\n      pop\n        /* \"#utility.yul\":5703:5712   */\n      dup2\n        /* \"#utility.yul\":5697:5701   */\n      dup2\n        /* \"#utility.yul\":5693:5713   */\n      sub\n        /* \"#utility.yul\":5689:5690   */\n      0x00\n        /* \"#utility.yul\":5678:5687   */\n      dup4\n        /* \"#utility.yul\":5674:5691   */\n      add\n        /* \"#utility.yul\":5667:5714   */\n      mstore\n        /* \"#utility.yul\":5731:5809   */\n      tag_100\n        /* \"#utility.yul\":5804:5808   */\n      dup2\n        /* \"#utility.yul\":5795:5801   */\n      dup6\n        /* \"#utility.yul\":5731:5809   */\n      tag_38\n      jump\t// in\n    tag_100:\n        /* \"#utility.yul\":5723:5809   */\n      swap1\n      pop\n        /* \"#utility.yul\":5819:5891   */\n      tag_101\n        /* \"#utility.yul\":5887:5889   */\n      0x20\n        /* \"#utility.yul\":5876:5885   */\n      dup4\n        /* \"#utility.yul\":5872:5890   */\n      add\n        /* \"#utility.yul\":5863:5869   */\n      dup5\n        /* \"#utility.yul\":5819:5891   */\n      tag_39\n      jump\t// in\n    tag_101:\n        /* \"#utility.yul\":5475:5898   */\n      swap4\n      swap3\n      pop\n      pop\n      pop\n      jump\t// out\n\n    auxdata: 0xa264697066735822122068698bd0767c73f6e21b49ac96ee82ab7ccfdac2590e3432d5351680e45e3a0864736f6c634300081a0033\n}\n",
				"bytecode": {
					"linkReferences": {},
					"object": "6080604052348015600e575f80fd5b506103b58061001c5f395ff3fe608060405260043610610021575f3560e01c806324ccab8f1461005f57610028565b3661002857005b7f41304facd9323d75b11bcdd609cb38effffdb05710f7caf0e9b16c6d9d709f50604051610055906100fa565b60405180910390a1005b61007960048036038101906100749190610298565b610090565b604051610087929190610351565b60405180910390f35b60605f8383915091509250929050565b5f82825260208201905092915050565b7f63616c6c6261636b207761732063616c6c6564000000000000000000000000005f82015250565b5f6100e46013836100a0565b91506100ef826100b0565b602082019050919050565b5f6020820190508181035f830152610111816100d8565b9050919050565b5f604051905090565b5f80fd5b5f80fd5b5f80fd5b5f80fd5b5f601f19601f8301169050919050565b7f4e487b71000000000000000000000000000000000000000000000000000000005f52604160045260245ffd5b61017782610131565b810181811067ffffffffffffffff8211171561019657610195610141565b5b80604052505050565b5f6101a8610118565b90506101b4828261016e565b919050565b5f67ffffffffffffffff8211156101d3576101d2610141565b5b6101dc82610131565b9050602081019050919050565b828183375f83830152505050565b5f610209610204846101b9565b61019f565b9050828152602081018484840111156102255761022461012d565b5b6102308482856101e9565b509392505050565b5f82601f83011261024c5761024b610129565b5b813561025c8482602086016101f7565b91505092915050565b5f819050919050565b61027781610265565b8114610281575f80fd5b50565b5f813590506102928161026e565b92915050565b5f80604083850312156102ae576102ad610121565b5b5f83013567ffffffffffffffff8111156102cb576102ca610125565b5b6102d785828601610238565b92505060206102e885828601610284565b9150509250929050565b5f81519050919050565b8281835e5f83830152505050565b5f610314826102f2565b61031e81856100a0565b935061032e8185602086016102fc565b61033781610131565b840191505092915050565b61034b81610265565b82525050565b5f6040820190508181035f830152610369818561030a565b90506103786020830184610342565b939250505056fea264697066735822122068698bd0767c73f6e21b49ac96ee82ab7ccfdac2590e3432d5351680e45e3a0864736f6c634300081a0033",
					"opcodes": "PUSH1 0x80 PUSH1 0x40 MSTORE CALLVALUE DUP1 ISZERO PUSH1 0xE JUMPI PUSH0 DUP1 REVERT JUMPDEST POP PUSH2 0x3B5 DUP1 PUSH2 0x1C PUSH0 CODECOPY PUSH0 RETURN INVALID PUSH1 0x80 PUSH1 0x40 MSTORE PUSH1 0x4 CALLDATASIZE LT PUSH2 0x21 JUMPI PUSH0 CALLDATALOAD PUSH1 0xE0 SHR DUP1 PUSH4 0x24CCAB8F EQ PUSH2 0x5F JUMPI PUSH2 0x28 JUMP JUMPDEST CALLDATASIZE PUSH2 0x28 JUMPI STOP JUMPDEST PUSH32 0x41304FACD9323D75B11BCDD609CB38EFFFFDB05710F7CAF0E9B16C6D9D709F50 PUSH1 0x40 MLOAD PUSH2 0x55 SWAP1 PUSH2 0xFA JUMP JUMPDEST PUSH1 0x40 MLOAD DUP1 SWAP2 SUB SWAP1 LOG1 STOP JUMPDEST PUSH2 0x79 PUSH1 0x4 DUP1 CALLDATASIZE SUB DUP2 ADD SWAP1 PUSH2 0x74 SWAP2 SWAP1 PUSH2 0x298 JUMP JUMPDEST PUSH2 0x90 JUMP JUMPDEST PUSH1 0x40 MLOAD PUSH2 0x87 SWAP3 SWAP2 SWAP1 PUSH2 0x351 JUMP JUMPDEST PUSH1 0x40 MLOAD DUP1 SWAP2 SUB SWAP1 RETURN JUMPDEST PUSH1 0x60 PUSH0 DUP4 DUP4 SWAP2 POP SWAP2 POP SWAP3 POP SWAP3 SWAP1 POP JUMP JUMPDEST PUSH0 DUP3 DUP3 MSTORE PUSH1 0x20 DUP3 ADD SWAP1 POP SWAP3 SWAP2 POP POP JUMP JUMPDEST PUSH32 0x63616C6C6261636B207761732063616C6C656400000000000000000000000000 PUSH0 DUP3 ADD MSTORE POP JUMP JUMPDEST PUSH0 PUSH2 0xE4 PUSH1 0x13 DUP4 PUSH2 0xA0 JUMP JUMPDEST SWAP2 POP PUSH2 0xEF DUP3 PUSH2 0xB0 JUMP JUMPDEST PUSH1 0x20 DUP3 ADD SWAP1 POP SWAP2 SWAP1 POP JUMP JUMPDEST PUSH0 PUSH1 0x20 DUP3 ADD SWAP1 POP DUP2 DUP2 SUB PUSH0 DUP4 ADD MSTORE PUSH2 0x111 DUP2 PUSH2 0xD8 JUMP JUMPDEST SWAP1 POP SWAP2 SWAP1 POP JUMP JUMPDEST PUSH0 PUSH1 0x40 MLOAD SWAP1 POP SWAP1 JUMP JUMPDEST PUSH0 DUP1 REVERT JUMPDEST PUSH0 DUP1 REVERT JUMPDEST PUSH0 DUP1 REVERT JUMPDEST PUSH0 DUP1 REVERT JUMPDEST PUSH0 PUSH1 0x1F NOT PUSH1 0x1F DUP4 ADD AND SWAP1 POP SWAP2 SWAP1 POP JUMP JUMPDEST PUSH32 0x4E487B7100000000000000000000000000000000000000000000000000000000 PUSH0 MSTORE PUSH1 0x41 PUSH1 0x4 MSTORE PUSH1 0x24 PUSH0 REVERT JUMPDEST PUSH2 0x177 DUP3 PUSH2 0x131 JUMP JUMPDEST DUP2 ADD DUP2 DUP2 LT PUSH8 0xFFFFFFFFFFFFFFFF DUP3 GT OR ISZERO PUSH2 0x196 JUMPI PUSH2 0x195 PUSH2 0x141 JUMP JUMPDEST JUMPDEST DUP1 PUSH1 0x40 MSTORE POP POP POP JUMP JUMPDEST PUSH0 PUSH2 0x1A8 PUSH2 0x118 JUMP JUMPDEST SWAP1 POP PUSH2 0x1B4 DUP3 DUP3 PUSH2 0x16E JUMP JUMPDEST SWAP2 SWAP1 POP JUMP JUMPDEST PUSH0 PUSH8 0xFFFFFFFFFFFFFFFF DUP3 GT ISZERO PUSH2 0x1D3 JUMPI PUSH2 0x1D2 PUSH2 0x141 JUMP JUMPDEST JUMPDEST PUSH2 0x1DC DUP3 PUSH2 0x131 JUMP JUMPDEST SWAP1 POP PUSH1 0x20 DUP2 ADD SWAP1 POP SWAP2 SWAP1 POP JUMP JUMPDEST DUP3 DUP2 DUP4 CALLDATACOPY PUSH0 DUP4 DUP4 ADD MSTORE POP POP POP JUMP JUMPDEST PUSH0 PUSH2 0x209 PUSH2 0x204 DUP5 PUSH2 0x1B9 JUMP JUMPDEST PUSH2 0x19F JUMP JUMPDEST SWAP1 POP DUP3 DUP2 MSTORE PUSH1 0x20 DUP2 ADD DUP5 DUP5 DUP5 ADD GT ISZERO PUSH2 0x225 JUMPI PUSH2 0x224 PUSH2 0x12D JUMP JUMPDEST JUMPDEST PUSH2 0x230 DUP5 DUP3 DUP6 PUSH2 0x1E9 JUMP JUMPDEST POP SWAP4 SWAP3 POP POP POP JUMP JUMPDEST PUSH0 DUP3 PUSH1 0x1F DUP4 ADD SLT PUSH2 0x24C JUMPI PUSH2 0x24B PUSH2 0x129 JUMP JUMPDEST JUMPDEST DUP2 CALLDATALOAD PUSH2 0x25C DUP5 DUP3 PUSH1 0x20 DUP7 ADD PUSH2 0x1F7 JUMP JUMPDEST SWAP2 POP POP SWAP3 SWAP2 POP POP JUMP JUMPDEST PUSH0 DUP2 SWAP1 POP SWAP2 SWAP1 POP JUMP JUMPDEST PUSH2 0x277 DUP2 PUSH2 0x265 JUMP JUMPDEST DUP2 EQ PUSH2 0x281 JUMPI PUSH0 DUP1 REVERT JUMPDEST POP JUMP JUMPDEST PUSH0 DUP2 CALLDATALOAD SWAP1 POP PUSH2 0x292 DUP2 PUSH2 0x26E JUMP JUMPDEST SWAP3 SWAP2 POP POP JUMP JUMPDEST PUSH0 DUP1 PUSH1 0x40 DUP4 DUP6 SUB SLT ISZERO PUSH2 0x2AE JUMPI PUSH2 0x2AD PUSH2 0x121 JUMP JUMPDEST JUMPDEST PUSH0 DUP4 ADD CALLDATALOAD PUSH8 0xFFFFFFFFFFFFFFFF DUP2 GT ISZERO PUSH2 0x2CB JUMPI PUSH2 0x2CA PUSH2 0x125 JUMP JUMPDEST JUMPDEST PUSH2 0x2D7 DUP6 DUP3 DUP7 ADD PUSH2 0x238 JUMP JUMPDEST SWAP3 POP POP PUSH1 0x20 PUSH2 0x2E8 DUP6 DUP3 DUP7 ADD PUSH2 0x284 JUMP JUMPDEST SWAP2 POP POP SWAP3 POP SWAP3 SWAP1 POP JUMP JUMPDEST PUSH0 DUP2 MLOAD SWAP1 POP SWAP2 SWAP1 POP JUMP JUMPDEST DUP3 DUP2 DUP4 MCOPY PUSH0 DUP4 DUP4 ADD MSTORE POP POP POP JUMP JUMPDEST PUSH0 PUSH2 0x314 DUP3 PUSH2 0x2F2 JUMP JUMPDEST PUSH2 0x31E DUP2 DUP6 PUSH2 0xA0 JUMP JUMPDEST SWAP4 POP PUSH2 0x32E DUP2 DUP6 PUSH1 0x20 DUP7 ADD PUSH2 0x2FC JUMP JUMPDEST PUSH2 0x337 DUP2 PUSH2 0x131 JUMP JUMPDEST DUP5 ADD SWAP2 POP POP SWAP3 SWAP2 POP POP JUMP JUMPDEST PUSH2 0x34B DUP2 PUSH2 0x265 JUMP JUMPDEST DUP3 MSTORE POP POP JUMP JUMPDEST PUSH0 PUSH1 0x40 DUP3 ADD SWAP1 POP DUP2 DUP2 SUB PUSH0 DUP4 ADD MSTORE PUSH2 0x369 DUP2 DUP6 PUSH2 0x30A JUMP JUMPDEST SWAP1 POP PUSH2 0x378 PUSH1 0x20 DUP4 ADD DUP5 PUSH2 0x342 JUMP JUMPDEST SWAP4 SWAP3 POP POP POP JUMP INVALID LOG2 PUSH5 0x6970667358 0x22 SLT KECCAK256 PUSH9 0x698BD0767C73F6E21B BLOBHASH 0xAC SWAP7 0xEE DUP3 0xAB PUSH29 0xCFDAC2590E3432D5351680E45E3A0864736F6C634300081A0033000000 "
				},
				"gasEstimates": {
					"creation": {
						"codeDepositCost": "189800",
						"executionCost": "230",
						"totalCost": "190030"
					},
					"external": {
						"": "1881",
						"foo(string,uint256)": "infinite"
					}
				},
				"methodIdentifiers": {
					"foo(string,uint256)": "24ccab8f"
				}
			},
			"storageLayout": {
				"storage": [],
				"types": null
			},
			"userdoc": {
				"kind": "user",
				"methods": {},
				"version": 1
			}
		}
	}
}