{
	"contracts/cursoDeSolidity/29_lowLevelCall.sol": {
		"call": {
			"abi": [
				{
					"inputs": [
						{
							"internalType": "address",
							"name": "_contract",
							"type": "address"
						}
					],
					"name": "callFoo",
					"outputs": [],
					"stateMutability": "payable",
					"type": "function"
				},
				{
					"inputs": [],
					"name": "data",
					"outputs": [
						{
							"internalType": "bytes",
							"name": "",
							"type": "bytes"
						}
					],
					"stateMutability": "view",
					"type": "function"
				}
			],
			"devdoc": {
				"kind": "dev",
				"methods": {},
				"version": 1
			},
			"evm": {
				"assembly": "    /* \"contracts/cursoDeSolidity/29_lowLevelCall.sol\":407:719  contract call {... */\n  mstore(0x40, 0x80)\n  callvalue\n  dup1\n  iszero\n  tag_1\n  jumpi\n  0x00\n  dup1\n  revert\ntag_1:\n  pop\n  dataSize(sub_0)\n  dup1\n  dataOffset(sub_0)\n  0x00\n  codecopy\n  0x00\n  return\nstop\n\nsub_0: assembly {\n        /* \"contracts/cursoDeSolidity/29_lowLevelCall.sol\":407:719  contract call {... */\n      mstore(0x40, 0x80)\n      jumpi(tag_1, lt(calldatasize, 0x04))\n      shr(0xe0, calldataload(0x00))\n      dup1\n      0x73d4a13a\n      eq\n      tag_2\n      jumpi\n      dup1\n      0xedcbe76c\n      eq\n      tag_3\n      jumpi\n    tag_1:\n      0x00\n      dup1\n      revert\n        /* \"contracts/cursoDeSolidity/29_lowLevelCall.sol\":428:445  bytes public data */\n    tag_2:\n      callvalue\n      dup1\n      iszero\n      tag_4\n      jumpi\n      0x00\n      dup1\n      revert\n    tag_4:\n      pop\n      tag_5\n      tag_6\n      jump\t// in\n    tag_5:\n      mload(0x40)\n      tag_7\n      swap2\n      swap1\n      tag_8\n      jump\t// in\n    tag_7:\n      mload(0x40)\n      dup1\n      swap2\n      sub\n      swap1\n      return\n        /* \"contracts/cursoDeSolidity/29_lowLevelCall.sol\":454:716  function callFoo(address _contract) external payable {... */\n    tag_3:\n      tag_9\n      0x04\n      dup1\n      calldatasize\n      sub\n      dup2\n      add\n      swap1\n      tag_10\n      swap2\n      swap1\n      tag_11\n      jump\t// in\n    tag_10:\n      tag_12\n      jump\t// in\n    tag_9:\n      stop\n        /* \"contracts/cursoDeSolidity/29_lowLevelCall.sol\":428:445  bytes public data */\n    tag_6:\n      0x00\n      dup1\n      sload\n      tag_13\n      swap1\n      tag_14\n      jump\t// in\n    tag_13:\n      dup1\n      0x1f\n      add\n      0x20\n      dup1\n      swap2\n      div\n      mul\n      0x20\n      add\n      mload(0x40)\n      swap1\n      dup2\n      add\n      0x40\n      mstore\n      dup1\n      swap3\n      swap2\n      swap1\n      dup2\n      dup2\n      mstore\n      0x20\n      add\n      dup3\n      dup1\n      sload\n      tag_15\n      swap1\n      tag_14\n      jump\t// in\n    tag_15:\n      dup1\n      iszero\n      tag_16\n      jumpi\n      dup1\n      0x1f\n      lt\n      tag_17\n      jumpi\n      0x0100\n      dup1\n      dup4\n      sload\n      div\n      mul\n      dup4\n      mstore\n      swap2\n      0x20\n      add\n      swap2\n      jump(tag_16)\n    tag_17:\n      dup3\n      add\n      swap2\n      swap1\n      0x00\n      mstore\n      keccak256(0x00, 0x20)\n      swap1\n    tag_18:\n      dup2\n      sload\n      dup2\n      mstore\n      swap1\n      0x01\n      add\n      swap1\n      0x20\n      add\n      dup1\n      dup4\n      gt\n      tag_18\n      jumpi\n      dup3\n      swap1\n      sub\n      0x1f\n      and\n      dup3\n      add\n      swap2\n    tag_16:\n      pop\n      pop\n      pop\n      pop\n      pop\n      dup2\n      jump\t// out\n        /* \"contracts/cursoDeSolidity/29_lowLevelCall.sol\":454:716  function callFoo(address _contract) external payable {... */\n    tag_12:\n        /* \"contracts/cursoDeSolidity/29_lowLevelCall.sol\":519:530  bool succes */\n      0x00\n        /* \"contracts/cursoDeSolidity/29_lowLevelCall.sol\":532:550  bytes memory _data */\n      dup1\n        /* \"contracts/cursoDeSolidity/29_lowLevelCall.sol\":554:563  _contract */\n      dup3\n        /* \"contracts/cursoDeSolidity/29_lowLevelCall.sol\":554:568  _contract.call */\n      0xffffffffffffffffffffffffffffffffffffffff\n      and\n        /* \"contracts/cursoDeSolidity/29_lowLevelCall.sol\":576:579  111 */\n      0x6f\n        /* \"contracts/cursoDeSolidity/29_lowLevelCall.sol\":639:642  123 */\n      0x7b\n        /* \"contracts/cursoDeSolidity/29_lowLevelCall.sol\":581:643  abi.encodeWithSignature(\"foo(string,uint256)\", \"call foo\",123) */\n      add(0x24, mload(0x40))\n      tag_20\n      swap2\n      swap1\n      tag_21\n      jump\t// in\n    tag_20:\n      mload(0x40)\n      0x20\n      dup2\n      dup4\n      sub\n      sub\n      dup2\n      mstore\n      swap1\n      0x40\n      mstore\n      and(not(0xffffffffffffffffffffffffffffffffffffffffffffffffffffffff), 0x24ccab8f00000000000000000000000000000000000000000000000000000000)\n      0x20\n      dup3\n      add\n      dup1\n      mload\n      0xffffffffffffffffffffffffffffffffffffffffffffffffffffffff\n      dup4\n      dup2\n      dup4\n      and\n      or\n      dup4\n      mstore\n      pop\n      pop\n      pop\n      pop\n        /* \"contracts/cursoDeSolidity/29_lowLevelCall.sol\":554:644  _contract.call{value: 111}(abi.encodeWithSignature(\"foo(string,uint256)\", \"call foo\",123)) */\n      mload(0x40)\n      tag_22\n      swap2\n      swap1\n      tag_23\n      jump\t// in\n    tag_22:\n      0x00\n      mload(0x40)\n      dup1\n      dup4\n      sub\n      dup2\n      dup6\n      dup8\n      gas\n      call\n      swap3\n      pop\n      pop\n      pop\n      returndatasize\n      dup1\n      0x00\n      dup2\n      eq\n      tag_26\n      jumpi\n      mload(0x40)\n      swap2\n      pop\n      and(add(returndatasize, 0x3f), not(0x1f))\n      dup3\n      add\n      0x40\n      mstore\n      returndatasize\n      dup3\n      mstore\n      returndatasize\n      0x00\n      0x20\n      dup5\n      add\n      returndatacopy\n      jump(tag_25)\n    tag_26:\n      0x60\n      swap2\n      pop\n    tag_25:\n      pop\n        /* \"contracts/cursoDeSolidity/29_lowLevelCall.sol\":518:644  (bool succes, bytes memory _data) = _contract.call{value: 111}(abi.encodeWithSignature(\"foo(string,uint256)\", \"call foo\",123)) */\n      swap2\n      pop\n      swap2\n      pop\n        /* \"contracts/cursoDeSolidity/29_lowLevelCall.sol\":663:669  succes */\n      dup2\n        /* \"contracts/cursoDeSolidity/29_lowLevelCall.sol\":655:685  require(succes, \"call failed\") */\n      tag_27\n      jumpi\n      mload(0x40)\n      0x08c379a000000000000000000000000000000000000000000000000000000000\n      dup2\n      mstore\n      0x04\n      add\n      tag_28\n      swap1\n      tag_29\n      jump\t// in\n    tag_28:\n      mload(0x40)\n      dup1\n      swap2\n      sub\n      swap1\n      revert\n    tag_27:\n        /* \"contracts/cursoDeSolidity/29_lowLevelCall.sol\":703:708  _data */\n      dup1\n        /* \"contracts/cursoDeSolidity/29_lowLevelCall.sol\":696:700  data */\n      0x00\n        /* \"contracts/cursoDeSolidity/29_lowLevelCall.sol\":696:708  data = _data */\n      swap1\n      dup2\n      tag_30\n      swap2\n      swap1\n      tag_31\n      jump\t// in\n    tag_30:\n      pop\n        /* \"contracts/cursoDeSolidity/29_lowLevelCall.sol\":507:716  {... */\n      pop\n      pop\n        /* \"contracts/cursoDeSolidity/29_lowLevelCall.sol\":454:716  function callFoo(address _contract) external payable {... */\n      pop\n      jump\t// out\n        /* \"#utility.yul\":7:105   */\n    tag_32:\n        /* \"#utility.yul\":58:64   */\n      0x00\n        /* \"#utility.yul\":92:97   */\n      dup2\n        /* \"#utility.yul\":86:98   */\n      mload\n        /* \"#utility.yul\":76:98   */\n      swap1\n      pop\n        /* \"#utility.yul\":7:105   */\n      swap2\n      swap1\n      pop\n      jump\t// out\n        /* \"#utility.yul\":111:279   */\n    tag_33:\n        /* \"#utility.yul\":194:205   */\n      0x00\n        /* \"#utility.yul\":228:234   */\n      dup3\n        /* \"#utility.yul\":223:226   */\n      dup3\n        /* \"#utility.yul\":216:235   */\n      mstore\n        /* \"#utility.yul\":268:272   */\n      0x20\n        /* \"#utility.yul\":263:266   */\n      dup3\n        /* \"#utility.yul\":259:273   */\n      add\n        /* \"#utility.yul\":244:273   */\n      swap1\n      pop\n        /* \"#utility.yul\":111:279   */\n      swap3\n      swap2\n      pop\n      pop\n      jump\t// out\n        /* \"#utility.yul\":285:424   */\n    tag_34:\n        /* \"#utility.yul\":374:380   */\n      dup3\n        /* \"#utility.yul\":369:372   */\n      dup2\n        /* \"#utility.yul\":364:367   */\n      dup4\n        /* \"#utility.yul\":358:381   */\n      mcopy\n        /* \"#utility.yul\":415:416   */\n      0x00\n        /* \"#utility.yul\":406:412   */\n      dup4\n        /* \"#utility.yul\":401:404   */\n      dup4\n        /* \"#utility.yul\":397:413   */\n      add\n        /* \"#utility.yul\":390:417   */\n      mstore\n        /* \"#utility.yul\":285:424   */\n      pop\n      pop\n      pop\n      jump\t// out\n        /* \"#utility.yul\":430:532   */\n    tag_35:\n        /* \"#utility.yul\":471:477   */\n      0x00\n        /* \"#utility.yul\":522:524   */\n      0x1f\n        /* \"#utility.yul\":518:525   */\n      not\n        /* \"#utility.yul\":513:515   */\n      0x1f\n        /* \"#utility.yul\":506:511   */\n      dup4\n        /* \"#utility.yul\":502:516   */\n      add\n        /* \"#utility.yul\":498:526   */\n      and\n        /* \"#utility.yul\":488:526   */\n      swap1\n      pop\n        /* \"#utility.yul\":430:532   */\n      swap2\n      swap1\n      pop\n      jump\t// out\n        /* \"#utility.yul\":538:911   */\n    tag_36:\n        /* \"#utility.yul\":624:627   */\n      0x00\n        /* \"#utility.yul\":652:690   */\n      tag_79\n        /* \"#utility.yul\":684:689   */\n      dup3\n        /* \"#utility.yul\":652:690   */\n      tag_32\n      jump\t// in\n    tag_79:\n        /* \"#utility.yul\":706:776   */\n      tag_80\n        /* \"#utility.yul\":769:775   */\n      dup2\n        /* \"#utility.yul\":764:767   */\n      dup6\n        /* \"#utility.yul\":706:776   */\n      tag_33\n      jump\t// in\n    tag_80:\n        /* \"#utility.yul\":699:776   */\n      swap4\n      pop\n        /* \"#utility.yul\":785:850   */\n      tag_81\n        /* \"#utility.yul\":843:849   */\n      dup2\n        /* \"#utility.yul\":838:841   */\n      dup6\n        /* \"#utility.yul\":831:835   */\n      0x20\n        /* \"#utility.yul\":824:829   */\n      dup7\n        /* \"#utility.yul\":820:836   */\n      add\n        /* \"#utility.yul\":785:850   */\n      tag_34\n      jump\t// in\n    tag_81:\n        /* \"#utility.yul\":875:904   */\n      tag_82\n        /* \"#utility.yul\":897:903   */\n      dup2\n        /* \"#utility.yul\":875:904   */\n      tag_35\n      jump\t// in\n    tag_82:\n        /* \"#utility.yul\":870:873   */\n      dup5\n        /* \"#utility.yul\":866:905   */\n      add\n        /* \"#utility.yul\":859:905   */\n      swap2\n      pop\n        /* \"#utility.yul\":628:911   */\n      pop\n        /* \"#utility.yul\":538:911   */\n      swap3\n      swap2\n      pop\n      pop\n      jump\t// out\n        /* \"#utility.yul\":917:1226   */\n    tag_8:\n        /* \"#utility.yul\":1028:1032   */\n      0x00\n        /* \"#utility.yul\":1066:1068   */\n      0x20\n        /* \"#utility.yul\":1055:1064   */\n      dup3\n        /* \"#utility.yul\":1051:1069   */\n      add\n        /* \"#utility.yul\":1043:1069   */\n      swap1\n      pop\n        /* \"#utility.yul\":1115:1124   */\n      dup2\n        /* \"#utility.yul\":1109:1113   */\n      dup2\n        /* \"#utility.yul\":1105:1125   */\n      sub\n        /* \"#utility.yul\":1101:1102   */\n      0x00\n        /* \"#utility.yul\":1090:1099   */\n      dup4\n        /* \"#utility.yul\":1086:1103   */\n      add\n        /* \"#utility.yul\":1079:1126   */\n      mstore\n        /* \"#utility.yul\":1143:1219   */\n      tag_84\n        /* \"#utility.yul\":1214:1218   */\n      dup2\n        /* \"#utility.yul\":1205:1211   */\n      dup5\n        /* \"#utility.yul\":1143:1219   */\n      tag_36\n      jump\t// in\n    tag_84:\n        /* \"#utility.yul\":1135:1219   */\n      swap1\n      pop\n        /* \"#utility.yul\":917:1226   */\n      swap3\n      swap2\n      pop\n      pop\n      jump\t// out\n        /* \"#utility.yul\":1313:1430   */\n    tag_38:\n        /* \"#utility.yul\":1422:1423   */\n      0x00\n        /* \"#utility.yul\":1419:1420   */\n      dup1\n        /* \"#utility.yul\":1412:1424   */\n      revert\n        /* \"#utility.yul\":1559:1685   */\n    tag_40:\n        /* \"#utility.yul\":1596:1603   */\n      0x00\n        /* \"#utility.yul\":1636:1678   */\n      0xffffffffffffffffffffffffffffffffffffffff\n        /* \"#utility.yul\":1629:1634   */\n      dup3\n        /* \"#utility.yul\":1625:1679   */\n      and\n        /* \"#utility.yul\":1614:1679   */\n      swap1\n      pop\n        /* \"#utility.yul\":1559:1685   */\n      swap2\n      swap1\n      pop\n      jump\t// out\n        /* \"#utility.yul\":1691:1787   */\n    tag_41:\n        /* \"#utility.yul\":1728:1735   */\n      0x00\n        /* \"#utility.yul\":1757:1781   */\n      tag_90\n        /* \"#utility.yul\":1775:1780   */\n      dup3\n        /* \"#utility.yul\":1757:1781   */\n      tag_40\n      jump\t// in\n    tag_90:\n        /* \"#utility.yul\":1746:1781   */\n      swap1\n      pop\n        /* \"#utility.yul\":1691:1787   */\n      swap2\n      swap1\n      pop\n      jump\t// out\n        /* \"#utility.yul\":1793:1915   */\n    tag_42:\n        /* \"#utility.yul\":1866:1890   */\n      tag_92\n        /* \"#utility.yul\":1884:1889   */\n      dup2\n        /* \"#utility.yul\":1866:1890   */\n      tag_41\n      jump\t// in\n    tag_92:\n        /* \"#utility.yul\":1859:1864   */\n      dup2\n        /* \"#utility.yul\":1856:1891   */\n      eq\n        /* \"#utility.yul\":1846:1909   */\n      tag_93\n      jumpi\n        /* \"#utility.yul\":1905:1906   */\n      0x00\n        /* \"#utility.yul\":1902:1903   */\n      dup1\n        /* \"#utility.yul\":1895:1907   */\n      revert\n        /* \"#utility.yul\":1846:1909   */\n    tag_93:\n        /* \"#utility.yul\":1793:1915   */\n      pop\n      jump\t// out\n        /* \"#utility.yul\":1921:2060   */\n    tag_43:\n        /* \"#utility.yul\":1967:1972   */\n      0x00\n        /* \"#utility.yul\":2005:2011   */\n      dup2\n        /* \"#utility.yul\":1992:2012   */\n      calldataload\n        /* \"#utility.yul\":1983:2012   */\n      swap1\n      pop\n        /* \"#utility.yul\":2021:2054   */\n      tag_95\n        /* \"#utility.yul\":2048:2053   */\n      dup2\n        /* \"#utility.yul\":2021:2054   */\n      tag_42\n      jump\t// in\n    tag_95:\n        /* \"#utility.yul\":1921:2060   */\n      swap3\n      swap2\n      pop\n      pop\n      jump\t// out\n        /* \"#utility.yul\":2066:2395   */\n    tag_11:\n        /* \"#utility.yul\":2125:2131   */\n      0x00\n        /* \"#utility.yul\":2174:2176   */\n      0x20\n        /* \"#utility.yul\":2162:2171   */\n      dup3\n        /* \"#utility.yul\":2153:2160   */\n      dup5\n        /* \"#utility.yul\":2149:2172   */\n      sub\n        /* \"#utility.yul\":2145:2177   */\n      slt\n        /* \"#utility.yul\":2142:2261   */\n      iszero\n      tag_97\n      jumpi\n        /* \"#utility.yul\":2180:2259   */\n      tag_98\n      tag_38\n      jump\t// in\n    tag_98:\n        /* \"#utility.yul\":2142:2261   */\n    tag_97:\n        /* \"#utility.yul\":2300:2301   */\n      0x00\n        /* \"#utility.yul\":2325:2378   */\n      tag_99\n        /* \"#utility.yul\":2370:2377   */\n      dup5\n        /* \"#utility.yul\":2361:2367   */\n      dup3\n        /* \"#utility.yul\":2350:2359   */\n      dup6\n        /* \"#utility.yul\":2346:2368   */\n      add\n        /* \"#utility.yul\":2325:2378   */\n      tag_43\n      jump\t// in\n    tag_99:\n        /* \"#utility.yul\":2315:2378   */\n      swap2\n      pop\n        /* \"#utility.yul\":2271:2388   */\n      pop\n        /* \"#utility.yul\":2066:2395   */\n      swap3\n      swap2\n      pop\n      pop\n      jump\t// out\n        /* \"#utility.yul\":2401:2581   */\n    tag_44:\n        /* \"#utility.yul\":2449:2526   */\n      0x4e487b7100000000000000000000000000000000000000000000000000000000\n        /* \"#utility.yul\":2446:2447   */\n      0x00\n        /* \"#utility.yul\":2439:2527   */\n      mstore\n        /* \"#utility.yul\":2546:2550   */\n      0x22\n        /* \"#utility.yul\":2543:2544   */\n      0x04\n        /* \"#utility.yul\":2536:2551   */\n      mstore\n        /* \"#utility.yul\":2570:2574   */\n      0x24\n        /* \"#utility.yul\":2567:2568   */\n      0x00\n        /* \"#utility.yul\":2560:2575   */\n      revert\n        /* \"#utility.yul\":2587:2907   */\n    tag_14:\n        /* \"#utility.yul\":2631:2637   */\n      0x00\n        /* \"#utility.yul\":2668:2669   */\n      0x02\n        /* \"#utility.yul\":2662:2666   */\n      dup3\n        /* \"#utility.yul\":2658:2670   */\n      div\n        /* \"#utility.yul\":2648:2670   */\n      swap1\n      pop\n        /* \"#utility.yul\":2715:2716   */\n      0x01\n        /* \"#utility.yul\":2709:2713   */\n      dup3\n        /* \"#utility.yul\":2705:2717   */\n      and\n        /* \"#utility.yul\":2736:2754   */\n      dup1\n        /* \"#utility.yul\":2726:2807   */\n      tag_102\n      jumpi\n        /* \"#utility.yul\":2792:2796   */\n      0x7f\n        /* \"#utility.yul\":2784:2790   */\n      dup3\n        /* \"#utility.yul\":2780:2797   */\n      and\n        /* \"#utility.yul\":2770:2797   */\n      swap2\n      pop\n        /* \"#utility.yul\":2726:2807   */\n    tag_102:\n        /* \"#utility.yul\":2854:2856   */\n      0x20\n        /* \"#utility.yul\":2846:2852   */\n      dup3\n        /* \"#utility.yul\":2843:2857   */\n      lt\n        /* \"#utility.yul\":2823:2841   */\n      dup2\n        /* \"#utility.yul\":2820:2858   */\n      sub\n        /* \"#utility.yul\":2817:2901   */\n      tag_103\n      jumpi\n        /* \"#utility.yul\":2873:2891   */\n      tag_104\n      tag_44\n      jump\t// in\n    tag_104:\n        /* \"#utility.yul\":2817:2901   */\n    tag_103:\n        /* \"#utility.yul\":2638:2907   */\n      pop\n        /* \"#utility.yul\":2587:2907   */\n      swap2\n      swap1\n      pop\n      jump\t// out\n        /* \"#utility.yul\":2913:3082   */\n    tag_45:\n        /* \"#utility.yul\":2997:3008   */\n      0x00\n        /* \"#utility.yul\":3031:3037   */\n      dup3\n        /* \"#utility.yul\":3026:3029   */\n      dup3\n        /* \"#utility.yul\":3019:3038   */\n      mstore\n        /* \"#utility.yul\":3071:3075   */\n      0x20\n        /* \"#utility.yul\":3066:3069   */\n      dup3\n        /* \"#utility.yul\":3062:3076   */\n      add\n        /* \"#utility.yul\":3047:3076   */\n      swap1\n      pop\n        /* \"#utility.yul\":2913:3082   */\n      swap3\n      swap2\n      pop\n      pop\n      jump\t// out\n        /* \"#utility.yul\":3088:3246   */\n    tag_46:\n        /* \"#utility.yul\":3228:3238   */\n      0x63616c6c20666f6f000000000000000000000000000000000000000000000000\n        /* \"#utility.yul\":3224:3225   */\n      0x00\n        /* \"#utility.yul\":3216:3222   */\n      dup3\n        /* \"#utility.yul\":3212:3226   */\n      add\n        /* \"#utility.yul\":3205:3239   */\n      mstore\n        /* \"#utility.yul\":3088:3246   */\n      pop\n      jump\t// out\n        /* \"#utility.yul\":3252:3617   */\n    tag_47:\n        /* \"#utility.yul\":3394:3397   */\n      0x00\n        /* \"#utility.yul\":3415:3481   */\n      tag_108\n        /* \"#utility.yul\":3479:3480   */\n      0x08\n        /* \"#utility.yul\":3474:3477   */\n      dup4\n        /* \"#utility.yul\":3415:3481   */\n      tag_45\n      jump\t// in\n    tag_108:\n        /* \"#utility.yul\":3408:3481   */\n      swap2\n      pop\n        /* \"#utility.yul\":3490:3583   */\n      tag_109\n        /* \"#utility.yul\":3579:3582   */\n      dup3\n        /* \"#utility.yul\":3490:3583   */\n      tag_46\n      jump\t// in\n    tag_109:\n        /* \"#utility.yul\":3608:3610   */\n      0x20\n        /* \"#utility.yul\":3603:3606   */\n      dup3\n        /* \"#utility.yul\":3599:3611   */\n      add\n        /* \"#utility.yul\":3592:3611   */\n      swap1\n      pop\n        /* \"#utility.yul\":3252:3617   */\n      swap2\n      swap1\n      pop\n      jump\t// out\n        /* \"#utility.yul\":3623:3710   */\n    tag_48:\n        /* \"#utility.yul\":3670:3677   */\n      0x00\n        /* \"#utility.yul\":3699:3704   */\n      dup2\n        /* \"#utility.yul\":3688:3704   */\n      swap1\n      pop\n        /* \"#utility.yul\":3623:3710   */\n      swap2\n      swap1\n      pop\n      jump\t// out\n        /* \"#utility.yul\":3716:3802   */\n    tag_49:\n        /* \"#utility.yul\":3751:3758   */\n      0x00\n        /* \"#utility.yul\":3791:3795   */\n      0xff\n        /* \"#utility.yul\":3784:3789   */\n      dup3\n        /* \"#utility.yul\":3780:3796   */\n      and\n        /* \"#utility.yul\":3769:3796   */\n      swap1\n      pop\n        /* \"#utility.yul\":3716:3802   */\n      swap2\n      swap1\n      pop\n      jump\t// out\n        /* \"#utility.yul\":3808:3868   */\n    tag_50:\n        /* \"#utility.yul\":3836:3839   */\n      0x00\n        /* \"#utility.yul\":3857:3862   */\n      dup2\n        /* \"#utility.yul\":3850:3862   */\n      swap1\n      pop\n        /* \"#utility.yul\":3808:3868   */\n      swap2\n      swap1\n      pop\n      jump\t// out\n        /* \"#utility.yul\":3874:4032   */\n    tag_51:\n        /* \"#utility.yul\":3932:3941   */\n      0x00\n        /* \"#utility.yul\":3965:4026   */\n      tag_114\n        /* \"#utility.yul\":3981:4025   */\n      tag_115\n        /* \"#utility.yul\":3990:4024   */\n      tag_116\n        /* \"#utility.yul\":4018:4023   */\n      dup5\n        /* \"#utility.yul\":3990:4024   */\n      tag_48\n      jump\t// in\n    tag_116:\n        /* \"#utility.yul\":3981:4025   */\n      tag_50\n      jump\t// in\n    tag_115:\n        /* \"#utility.yul\":3965:4026   */\n      tag_49\n      jump\t// in\n    tag_114:\n        /* \"#utility.yul\":3952:4026   */\n      swap1\n      pop\n        /* \"#utility.yul\":3874:4032   */\n      swap2\n      swap1\n      pop\n      jump\t// out\n        /* \"#utility.yul\":4038:4185   */\n    tag_52:\n        /* \"#utility.yul\":4133:4178   */\n      tag_118\n        /* \"#utility.yul\":4172:4177   */\n      dup2\n        /* \"#utility.yul\":4133:4178   */\n      tag_51\n      jump\t// in\n    tag_118:\n        /* \"#utility.yul\":4128:4131   */\n      dup3\n        /* \"#utility.yul\":4121:4179   */\n      mstore\n        /* \"#utility.yul\":4038:4185   */\n      pop\n      pop\n      jump\t// out\n        /* \"#utility.yul\":4191:4736   */\n    tag_21:\n        /* \"#utility.yul\":4393:4397   */\n      0x00\n        /* \"#utility.yul\":4431:4433   */\n      0x40\n        /* \"#utility.yul\":4420:4429   */\n      dup3\n        /* \"#utility.yul\":4416:4434   */\n      add\n        /* \"#utility.yul\":4408:4434   */\n      swap1\n      pop\n        /* \"#utility.yul\":4480:4489   */\n      dup2\n        /* \"#utility.yul\":4474:4478   */\n      dup2\n        /* \"#utility.yul\":4470:4490   */\n      sub\n        /* \"#utility.yul\":4466:4467   */\n      0x00\n        /* \"#utility.yul\":4455:4464   */\n      dup4\n        /* \"#utility.yul\":4451:4468   */\n      add\n        /* \"#utility.yul\":4444:4491   */\n      mstore\n        /* \"#utility.yul\":4508:4639   */\n      tag_120\n        /* \"#utility.yul\":4634:4638   */\n      dup2\n        /* \"#utility.yul\":4508:4639   */\n      tag_47\n      jump\t// in\n    tag_120:\n        /* \"#utility.yul\":4500:4639   */\n      swap1\n      pop\n        /* \"#utility.yul\":4649:4729   */\n      tag_121\n        /* \"#utility.yul\":4725:4727   */\n      0x20\n        /* \"#utility.yul\":4714:4723   */\n      dup4\n        /* \"#utility.yul\":4710:4728   */\n      add\n        /* \"#utility.yul\":4701:4707   */\n      dup5\n        /* \"#utility.yul\":4649:4729   */\n      tag_52\n      jump\t// in\n    tag_121:\n        /* \"#utility.yul\":4191:4736   */\n      swap3\n      swap2\n      pop\n      pop\n      jump\t// out\n        /* \"#utility.yul\":4742:4889   */\n    tag_53:\n        /* \"#utility.yul\":4843:4854   */\n      0x00\n        /* \"#utility.yul\":4880:4883   */\n      dup2\n        /* \"#utility.yul\":4865:4883   */\n      swap1\n      pop\n        /* \"#utility.yul\":4742:4889   */\n      swap3\n      swap2\n      pop\n      pop\n      jump\t// out\n        /* \"#utility.yul\":4895:5281   */\n    tag_54:\n        /* \"#utility.yul\":4999:5002   */\n      0x00\n        /* \"#utility.yul\":5027:5065   */\n      tag_124\n        /* \"#utility.yul\":5059:5064   */\n      dup3\n        /* \"#utility.yul\":5027:5065   */\n      tag_32\n      jump\t// in\n    tag_124:\n        /* \"#utility.yul\":5081:5169   */\n      tag_125\n        /* \"#utility.yul\":5162:5168   */\n      dup2\n        /* \"#utility.yul\":5157:5160   */\n      dup6\n        /* \"#utility.yul\":5081:5169   */\n      tag_53\n      jump\t// in\n    tag_125:\n        /* \"#utility.yul\":5074:5169   */\n      swap4\n      pop\n        /* \"#utility.yul\":5178:5243   */\n      tag_126\n        /* \"#utility.yul\":5236:5242   */\n      dup2\n        /* \"#utility.yul\":5231:5234   */\n      dup6\n        /* \"#utility.yul\":5224:5228   */\n      0x20\n        /* \"#utility.yul\":5217:5222   */\n      dup7\n        /* \"#utility.yul\":5213:5229   */\n      add\n        /* \"#utility.yul\":5178:5243   */\n      tag_34\n      jump\t// in\n    tag_126:\n        /* \"#utility.yul\":5268:5274   */\n      dup1\n        /* \"#utility.yul\":5263:5266   */\n      dup5\n        /* \"#utility.yul\":5259:5275   */\n      add\n        /* \"#utility.yul\":5252:5275   */\n      swap2\n      pop\n        /* \"#utility.yul\":5003:5281   */\n      pop\n        /* \"#utility.yul\":4895:5281   */\n      swap3\n      swap2\n      pop\n      pop\n      jump\t// out\n        /* \"#utility.yul\":5287:5558   */\n    tag_23:\n        /* \"#utility.yul\":5417:5420   */\n      0x00\n        /* \"#utility.yul\":5439:5532   */\n      tag_128\n        /* \"#utility.yul\":5528:5531   */\n      dup3\n        /* \"#utility.yul\":5519:5525   */\n      dup5\n        /* \"#utility.yul\":5439:5532   */\n      tag_54\n      jump\t// in\n    tag_128:\n        /* \"#utility.yul\":5432:5532   */\n      swap2\n      pop\n        /* \"#utility.yul\":5549:5552   */\n      dup2\n        /* \"#utility.yul\":5542:5552   */\n      swap1\n      pop\n        /* \"#utility.yul\":5287:5558   */\n      swap3\n      swap2\n      pop\n      pop\n      jump\t// out\n        /* \"#utility.yul\":5564:5725   */\n    tag_55:\n        /* \"#utility.yul\":5704:5717   */\n      0x63616c6c206661696c6564000000000000000000000000000000000000000000\n        /* \"#utility.yul\":5700:5701   */\n      0x00\n        /* \"#utility.yul\":5692:5698   */\n      dup3\n        /* \"#utility.yul\":5688:5702   */\n      add\n        /* \"#utility.yul\":5681:5718   */\n      mstore\n        /* \"#utility.yul\":5564:5725   */\n      pop\n      jump\t// out\n        /* \"#utility.yul\":5731:6097   */\n    tag_56:\n        /* \"#utility.yul\":5873:5876   */\n      0x00\n        /* \"#utility.yul\":5894:5961   */\n      tag_131\n        /* \"#utility.yul\":5958:5960   */\n      0x0b\n        /* \"#utility.yul\":5953:5956   */\n      dup4\n        /* \"#utility.yul\":5894:5961   */\n      tag_45\n      jump\t// in\n    tag_131:\n        /* \"#utility.yul\":5887:5961   */\n      swap2\n      pop\n        /* \"#utility.yul\":5970:6063   */\n      tag_132\n        /* \"#utility.yul\":6059:6062   */\n      dup3\n        /* \"#utility.yul\":5970:6063   */\n      tag_55\n      jump\t// in\n    tag_132:\n        /* \"#utility.yul\":6088:6090   */\n      0x20\n        /* \"#utility.yul\":6083:6086   */\n      dup3\n        /* \"#utility.yul\":6079:6091   */\n      add\n        /* \"#utility.yul\":6072:6091   */\n      swap1\n      pop\n        /* \"#utility.yul\":5731:6097   */\n      swap2\n      swap1\n      pop\n      jump\t// out\n        /* \"#utility.yul\":6103:6522   */\n    tag_29:\n        /* \"#utility.yul\":6269:6273   */\n      0x00\n        /* \"#utility.yul\":6307:6309   */\n      0x20\n        /* \"#utility.yul\":6296:6305   */\n      dup3\n        /* \"#utility.yul\":6292:6310   */\n      add\n        /* \"#utility.yul\":6284:6310   */\n      swap1\n      pop\n        /* \"#utility.yul\":6356:6365   */\n      dup2\n        /* \"#utility.yul\":6350:6354   */\n      dup2\n        /* \"#utility.yul\":6346:6366   */\n      sub\n        /* \"#utility.yul\":6342:6343   */\n      0x00\n        /* \"#utility.yul\":6331:6340   */\n      dup4\n        /* \"#utility.yul\":6327:6344   */\n      add\n        /* \"#utility.yul\":6320:6367   */\n      mstore\n        /* \"#utility.yul\":6384:6515   */\n      tag_134\n        /* \"#utility.yul\":6510:6514   */\n      dup2\n        /* \"#utility.yul\":6384:6515   */\n      tag_56\n      jump\t// in\n    tag_134:\n        /* \"#utility.yul\":6376:6515   */\n      swap1\n      pop\n        /* \"#utility.yul\":6103:6522   */\n      swap2\n      swap1\n      pop\n      jump\t// out\n        /* \"#utility.yul\":6528:6708   */\n    tag_57:\n        /* \"#utility.yul\":6576:6653   */\n      0x4e487b7100000000000000000000000000000000000000000000000000000000\n        /* \"#utility.yul\":6573:6574   */\n      0x00\n        /* \"#utility.yul\":6566:6654   */\n      mstore\n        /* \"#utility.yul\":6673:6677   */\n      0x41\n        /* \"#utility.yul\":6670:6671   */\n      0x04\n        /* \"#utility.yul\":6663:6678   */\n      mstore\n        /* \"#utility.yul\":6697:6701   */\n      0x24\n        /* \"#utility.yul\":6694:6695   */\n      0x00\n        /* \"#utility.yul\":6687:6702   */\n      revert\n        /* \"#utility.yul\":6714:6854   */\n    tag_58:\n        /* \"#utility.yul\":6762:6766   */\n      0x00\n        /* \"#utility.yul\":6785:6788   */\n      dup2\n        /* \"#utility.yul\":6777:6788   */\n      swap1\n      pop\n        /* \"#utility.yul\":6808:6811   */\n      dup2\n        /* \"#utility.yul\":6805:6806   */\n      0x00\n        /* \"#utility.yul\":6798:6812   */\n      mstore\n        /* \"#utility.yul\":6842:6846   */\n      0x20\n        /* \"#utility.yul\":6839:6840   */\n      0x00\n        /* \"#utility.yul\":6829:6847   */\n      keccak256\n        /* \"#utility.yul\":6821:6847   */\n      swap1\n      pop\n        /* \"#utility.yul\":6714:6854   */\n      swap2\n      swap1\n      pop\n      jump\t// out\n        /* \"#utility.yul\":6860:6953   */\n    tag_59:\n        /* \"#utility.yul\":6897:6903   */\n      0x00\n        /* \"#utility.yul\":6944:6946   */\n      0x20\n        /* \"#utility.yul\":6939:6941   */\n      0x1f\n        /* \"#utility.yul\":6932:6937   */\n      dup4\n        /* \"#utility.yul\":6928:6942   */\n      add\n        /* \"#utility.yul\":6924:6947   */\n      div\n        /* \"#utility.yul\":6914:6947   */\n      swap1\n      pop\n        /* \"#utility.yul\":6860:6953   */\n      swap2\n      swap1\n      pop\n      jump\t// out\n        /* \"#utility.yul\":6959:7066   */\n    tag_60:\n        /* \"#utility.yul\":7003:7011   */\n      0x00\n        /* \"#utility.yul\":7053:7058   */\n      dup3\n        /* \"#utility.yul\":7047:7051   */\n      dup3\n        /* \"#utility.yul\":7043:7059   */\n      shl\n        /* \"#utility.yul\":7022:7059   */\n      swap1\n      pop\n        /* \"#utility.yul\":6959:7066   */\n      swap3\n      swap2\n      pop\n      pop\n      jump\t// out\n        /* \"#utility.yul\":7072:7465   */\n    tag_61:\n        /* \"#utility.yul\":7141:7147   */\n      0x00\n        /* \"#utility.yul\":7191:7192   */\n      0x08\n        /* \"#utility.yul\":7179:7189   */\n      dup4\n        /* \"#utility.yul\":7175:7193   */\n      mul\n        /* \"#utility.yul\":7214:7311   */\n      tag_140\n        /* \"#utility.yul\":7244:7310   */\n      0xffffffffffffffffffffffffffffffffffffffffffffffffffffffffffffffff\n        /* \"#utility.yul\":7233:7242   */\n      dup3\n        /* \"#utility.yul\":7214:7311   */\n      tag_60\n      jump\t// in\n    tag_140:\n        /* \"#utility.yul\":7332:7371   */\n      tag_141\n        /* \"#utility.yul\":7362:7370   */\n      dup7\n        /* \"#utility.yul\":7351:7360   */\n      dup4\n        /* \"#utility.yul\":7332:7371   */\n      tag_60\n      jump\t// in\n    tag_141:\n        /* \"#utility.yul\":7320:7371   */\n      swap6\n      pop\n        /* \"#utility.yul\":7404:7408   */\n      dup1\n        /* \"#utility.yul\":7400:7409   */\n      not\n        /* \"#utility.yul\":7393:7398   */\n      dup5\n        /* \"#utility.yul\":7389:7410   */\n      and\n        /* \"#utility.yul\":7380:7410   */\n      swap4\n      pop\n        /* \"#utility.yul\":7453:7457   */\n      dup1\n        /* \"#utility.yul\":7443:7451   */\n      dup7\n        /* \"#utility.yul\":7439:7458   */\n      and\n        /* \"#utility.yul\":7432:7437   */\n      dup5\n        /* \"#utility.yul\":7429:7459   */\n      or\n        /* \"#utility.yul\":7419:7459   */\n      swap3\n      pop\n        /* \"#utility.yul\":7148:7465   */\n      pop\n      pop\n        /* \"#utility.yul\":7072:7465   */\n      swap4\n      swap3\n      pop\n      pop\n      pop\n      jump\t// out\n        /* \"#utility.yul\":7471:7548   */\n    tag_62:\n        /* \"#utility.yul\":7508:7515   */\n      0x00\n        /* \"#utility.yul\":7537:7542   */\n      dup2\n        /* \"#utility.yul\":7526:7542   */\n      swap1\n      pop\n        /* \"#utility.yul\":7471:7548   */\n      swap2\n      swap1\n      pop\n      jump\t// out\n        /* \"#utility.yul\":7554:7696   */\n    tag_63:\n        /* \"#utility.yul\":7604:7613   */\n      0x00\n        /* \"#utility.yul\":7637:7690   */\n      tag_144\n        /* \"#utility.yul\":7655:7689   */\n      tag_145\n        /* \"#utility.yul\":7664:7688   */\n      tag_146\n        /* \"#utility.yul\":7682:7687   */\n      dup5\n        /* \"#utility.yul\":7664:7688   */\n      tag_62\n      jump\t// in\n    tag_146:\n        /* \"#utility.yul\":7655:7689   */\n      tag_50\n      jump\t// in\n    tag_145:\n        /* \"#utility.yul\":7637:7690   */\n      tag_62\n      jump\t// in\n    tag_144:\n        /* \"#utility.yul\":7624:7690   */\n      swap1\n      pop\n        /* \"#utility.yul\":7554:7696   */\n      swap2\n      swap1\n      pop\n      jump\t// out\n        /* \"#utility.yul\":7702:7777   */\n    tag_64:\n        /* \"#utility.yul\":7745:7748   */\n      0x00\n        /* \"#utility.yul\":7766:7771   */\n      dup2\n        /* \"#utility.yul\":7759:7771   */\n      swap1\n      pop\n        /* \"#utility.yul\":7702:7777   */\n      swap2\n      swap1\n      pop\n      jump\t// out\n        /* \"#utility.yul\":7783:8052   */\n    tag_65:\n        /* \"#utility.yul\":7893:7932   */\n      tag_149\n        /* \"#utility.yul\":7924:7931   */\n      dup4\n        /* \"#utility.yul\":7893:7932   */\n      tag_63\n      jump\t// in\n    tag_149:\n        /* \"#utility.yul\":7954:8045   */\n      tag_150\n        /* \"#utility.yul\":8003:8044   */\n      tag_151\n        /* \"#utility.yul\":8027:8043   */\n      dup3\n        /* \"#utility.yul\":8003:8044   */\n      tag_64\n      jump\t// in\n    tag_151:\n        /* \"#utility.yul\":7995:8001   */\n      dup5\n        /* \"#utility.yul\":7988:7992   */\n      dup5\n        /* \"#utility.yul\":7982:7993   */\n      sload\n        /* \"#utility.yul\":7954:8045   */\n      tag_61\n      jump\t// in\n    tag_150:\n        /* \"#utility.yul\":7948:7952   */\n      dup3\n        /* \"#utility.yul\":7941:8046   */\n      sstore\n        /* \"#utility.yul\":7859:8052   */\n      pop\n        /* \"#utility.yul\":7783:8052   */\n      pop\n      pop\n      pop\n      jump\t// out\n        /* \"#utility.yul\":8058:8131   */\n    tag_66:\n        /* \"#utility.yul\":8103:8106   */\n      0x00\n        /* \"#utility.yul\":8058:8131   */\n      swap1\n      jump\t// out\n        /* \"#utility.yul\":8137:8326   */\n    tag_67:\n        /* \"#utility.yul\":8214:8246   */\n      tag_154\n      tag_66\n      jump\t// in\n    tag_154:\n        /* \"#utility.yul\":8255:8320   */\n      tag_155\n        /* \"#utility.yul\":8313:8319   */\n      dup2\n        /* \"#utility.yul\":8305:8311   */\n      dup5\n        /* \"#utility.yul\":8299:8303   */\n      dup5\n        /* \"#utility.yul\":8255:8320   */\n      tag_65\n      jump\t// in\n    tag_155:\n        /* \"#utility.yul\":8190:8326   */\n      pop\n        /* \"#utility.yul\":8137:8326   */\n      pop\n      pop\n      jump\t// out\n        /* \"#utility.yul\":8332:8518   */\n    tag_68:\n        /* \"#utility.yul\":8392:8512   */\n    tag_157:\n        /* \"#utility.yul\":8409:8412   */\n      dup2\n        /* \"#utility.yul\":8402:8407   */\n      dup2\n        /* \"#utility.yul\":8399:8413   */\n      lt\n        /* \"#utility.yul\":8392:8512   */\n      iszero\n      tag_159\n      jumpi\n        /* \"#utility.yul\":8463:8502   */\n      tag_160\n        /* \"#utility.yul\":8500:8501   */\n      0x00\n        /* \"#utility.yul\":8493:8498   */\n      dup3\n        /* \"#utility.yul\":8463:8502   */\n      tag_67\n      jump\t// in\n    tag_160:\n        /* \"#utility.yul\":8436:8437   */\n      0x01\n        /* \"#utility.yul\":8429:8434   */\n      dup2\n        /* \"#utility.yul\":8425:8438   */\n      add\n        /* \"#utility.yul\":8416:8438   */\n      swap1\n      pop\n        /* \"#utility.yul\":8392:8512   */\n      jump(tag_157)\n    tag_159:\n        /* \"#utility.yul\":8332:8518   */\n      pop\n      pop\n      jump\t// out\n        /* \"#utility.yul\":8524:9065   */\n    tag_69:\n        /* \"#utility.yul\":8624:8626   */\n      0x1f\n        /* \"#utility.yul\":8619:8622   */\n      dup3\n        /* \"#utility.yul\":8616:8627   */\n      gt\n        /* \"#utility.yul\":8613:9058   */\n      iszero\n      tag_162\n      jumpi\n        /* \"#utility.yul\":8658:8695   */\n      tag_163\n        /* \"#utility.yul\":8689:8694   */\n      dup2\n        /* \"#utility.yul\":8658:8695   */\n      tag_58\n      jump\t// in\n    tag_163:\n        /* \"#utility.yul\":8741:8770   */\n      tag_164\n        /* \"#utility.yul\":8759:8769   */\n      dup5\n        /* \"#utility.yul\":8741:8770   */\n      tag_59\n      jump\t// in\n    tag_164:\n        /* \"#utility.yul\":8731:8739   */\n      dup2\n        /* \"#utility.yul\":8727:8771   */\n      add\n        /* \"#utility.yul\":8924:8926   */\n      0x20\n        /* \"#utility.yul\":8912:8922   */\n      dup6\n        /* \"#utility.yul\":8909:8927   */\n      lt\n        /* \"#utility.yul\":8906:8955   */\n      iszero\n      tag_165\n      jumpi\n        /* \"#utility.yul\":8945:8953   */\n      dup2\n        /* \"#utility.yul\":8930:8953   */\n      swap1\n      pop\n        /* \"#utility.yul\":8906:8955   */\n    tag_165:\n        /* \"#utility.yul\":8968:9048   */\n      tag_166\n        /* \"#utility.yul\":9024:9046   */\n      tag_167\n        /* \"#utility.yul\":9042:9045   */\n      dup6\n        /* \"#utility.yul\":9024:9046   */\n      tag_59\n      jump\t// in\n    tag_167:\n        /* \"#utility.yul\":9014:9022   */\n      dup4\n        /* \"#utility.yul\":9010:9047   */\n      add\n        /* \"#utility.yul\":8997:9008   */\n      dup3\n        /* \"#utility.yul\":8968:9048   */\n      tag_68\n      jump\t// in\n    tag_166:\n        /* \"#utility.yul\":8628:9058   */\n      pop\n      pop\n        /* \"#utility.yul\":8613:9058   */\n    tag_162:\n        /* \"#utility.yul\":8524:9065   */\n      pop\n      pop\n      pop\n      jump\t// out\n        /* \"#utility.yul\":9071:9188   */\n    tag_70:\n        /* \"#utility.yul\":9125:9133   */\n      0x00\n        /* \"#utility.yul\":9175:9180   */\n      dup3\n        /* \"#utility.yul\":9169:9173   */\n      dup3\n        /* \"#utility.yul\":9165:9181   */\n      shr\n        /* \"#utility.yul\":9144:9181   */\n      swap1\n      pop\n        /* \"#utility.yul\":9071:9188   */\n      swap3\n      swap2\n      pop\n      pop\n      jump\t// out\n        /* \"#utility.yul\":9194:9363   */\n    tag_71:\n        /* \"#utility.yul\":9238:9244   */\n      0x00\n        /* \"#utility.yul\":9271:9322   */\n      tag_170\n        /* \"#utility.yul\":9319:9320   */\n      0x00\n        /* \"#utility.yul\":9315:9321   */\n      not\n        /* \"#utility.yul\":9307:9312   */\n      dup5\n        /* \"#utility.yul\":9304:9305   */\n      0x08\n        /* \"#utility.yul\":9300:9313   */\n      mul\n        /* \"#utility.yul\":9271:9322   */\n      tag_70\n      jump\t// in\n    tag_170:\n        /* \"#utility.yul\":9267:9323   */\n      not\n        /* \"#utility.yul\":9352:9356   */\n      dup1\n        /* \"#utility.yul\":9346:9350   */\n      dup4\n        /* \"#utility.yul\":9342:9357   */\n      and\n        /* \"#utility.yul\":9332:9357   */\n      swap2\n      pop\n        /* \"#utility.yul\":9245:9363   */\n      pop\n        /* \"#utility.yul\":9194:9363   */\n      swap3\n      swap2\n      pop\n      pop\n      jump\t// out\n        /* \"#utility.yul\":9368:9663   */\n    tag_72:\n        /* \"#utility.yul\":9444:9448   */\n      0x00\n        /* \"#utility.yul\":9590:9619   */\n      tag_172\n        /* \"#utility.yul\":9615:9618   */\n      dup4\n        /* \"#utility.yul\":9609:9613   */\n      dup4\n        /* \"#utility.yul\":9590:9619   */\n      tag_71\n      jump\t// in\n    tag_172:\n        /* \"#utility.yul\":9582:9619   */\n      swap2\n      pop\n        /* \"#utility.yul\":9652:9655   */\n      dup3\n        /* \"#utility.yul\":9649:9650   */\n      0x02\n        /* \"#utility.yul\":9645:9656   */\n      mul\n        /* \"#utility.yul\":9639:9643   */\n      dup3\n        /* \"#utility.yul\":9636:9657   */\n      or\n        /* \"#utility.yul\":9628:9657   */\n      swap1\n      pop\n        /* \"#utility.yul\":9368:9663   */\n      swap3\n      swap2\n      pop\n      pop\n      jump\t// out\n        /* \"#utility.yul\":9668:11058   */\n    tag_31:\n        /* \"#utility.yul\":9783:9819   */\n      tag_174\n        /* \"#utility.yul\":9815:9818   */\n      dup3\n        /* \"#utility.yul\":9783:9819   */\n      tag_32\n      jump\t// in\n    tag_174:\n        /* \"#utility.yul\":9884:9902   */\n      0xffffffffffffffff\n        /* \"#utility.yul\":9876:9882   */\n      dup2\n        /* \"#utility.yul\":9873:9903   */\n      gt\n        /* \"#utility.yul\":9870:9926   */\n      iszero\n      tag_175\n      jumpi\n        /* \"#utility.yul\":9906:9924   */\n      tag_176\n      tag_57\n      jump\t// in\n    tag_176:\n        /* \"#utility.yul\":9870:9926   */\n    tag_175:\n        /* \"#utility.yul\":9950:9988   */\n      tag_177\n        /* \"#utility.yul\":9982:9986   */\n      dup3\n        /* \"#utility.yul\":9976:9987   */\n      sload\n        /* \"#utility.yul\":9950:9988   */\n      tag_14\n      jump\t// in\n    tag_177:\n        /* \"#utility.yul\":10035:10101   */\n      tag_178\n        /* \"#utility.yul\":10094:10100   */\n      dup3\n        /* \"#utility.yul\":10086:10092   */\n      dup3\n        /* \"#utility.yul\":10080:10084   */\n      dup6\n        /* \"#utility.yul\":10035:10101   */\n      tag_69\n      jump\t// in\n    tag_178:\n        /* \"#utility.yul\":10128:10129   */\n      0x00\n        /* \"#utility.yul\":10152:10156   */\n      0x20\n        /* \"#utility.yul\":10139:10156   */\n      swap1\n      pop\n        /* \"#utility.yul\":10184:10186   */\n      0x1f\n        /* \"#utility.yul\":10176:10182   */\n      dup4\n        /* \"#utility.yul\":10173:10187   */\n      gt\n        /* \"#utility.yul\":10201:10202   */\n      0x01\n        /* \"#utility.yul\":10196:10813   */\n      dup2\n      eq\n      tag_180\n      jumpi\n        /* \"#utility.yul\":10857:10858   */\n      0x00\n        /* \"#utility.yul\":10874:10880   */\n      dup5\n        /* \"#utility.yul\":10871:10948   */\n      iszero\n      tag_181\n      jumpi\n        /* \"#utility.yul\":10923:10932   */\n      dup3\n        /* \"#utility.yul\":10918:10921   */\n      dup8\n        /* \"#utility.yul\":10914:10933   */\n      add\n        /* \"#utility.yul\":10908:10934   */\n      mload\n        /* \"#utility.yul\":10899:10934   */\n      swap1\n      pop\n        /* \"#utility.yul\":10871:10948   */\n    tag_181:\n        /* \"#utility.yul\":10974:11041   */\n      tag_182\n        /* \"#utility.yul\":11034:11040   */\n      dup6\n        /* \"#utility.yul\":11027:11032   */\n      dup3\n        /* \"#utility.yul\":10974:11041   */\n      tag_72\n      jump\t// in\n    tag_182:\n        /* \"#utility.yul\":10968:10972   */\n      dup7\n        /* \"#utility.yul\":10961:11042   */\n      sstore\n        /* \"#utility.yul\":10830:11052   */\n      pop\n        /* \"#utility.yul\":10166:11052   */\n      jump(tag_179)\n        /* \"#utility.yul\":10196:10813   */\n    tag_180:\n        /* \"#utility.yul\":10248:10252   */\n      0x1f\n        /* \"#utility.yul\":10244:10253   */\n      not\n        /* \"#utility.yul\":10236:10242   */\n      dup5\n        /* \"#utility.yul\":10232:10254   */\n      and\n        /* \"#utility.yul\":10282:10318   */\n      tag_183\n        /* \"#utility.yul\":10313:10317   */\n      dup7\n        /* \"#utility.yul\":10282:10318   */\n      tag_58\n      jump\t// in\n    tag_183:\n        /* \"#utility.yul\":10340:10341   */\n      0x00\n        /* \"#utility.yul\":10354:10562   */\n    tag_184:\n        /* \"#utility.yul\":10368:10375   */\n      dup3\n        /* \"#utility.yul\":10365:10366   */\n      dup2\n        /* \"#utility.yul\":10362:10376   */\n      lt\n        /* \"#utility.yul\":10354:10562   */\n      iszero\n      tag_186\n      jumpi\n        /* \"#utility.yul\":10447:10456   */\n      dup5\n        /* \"#utility.yul\":10442:10445   */\n      dup10\n        /* \"#utility.yul\":10438:10457   */\n      add\n        /* \"#utility.yul\":10432:10458   */\n      mload\n        /* \"#utility.yul\":10424:10430   */\n      dup3\n        /* \"#utility.yul\":10417:10459   */\n      sstore\n        /* \"#utility.yul\":10498:10499   */\n      0x01\n        /* \"#utility.yul\":10490:10496   */\n      dup3\n        /* \"#utility.yul\":10486:10500   */\n      add\n        /* \"#utility.yul\":10476:10500   */\n      swap2\n      pop\n        /* \"#utility.yul\":10545:10547   */\n      0x20\n        /* \"#utility.yul\":10534:10543   */\n      dup6\n        /* \"#utility.yul\":10530:10548   */\n      add\n        /* \"#utility.yul\":10517:10548   */\n      swap5\n      pop\n        /* \"#utility.yul\":10391:10395   */\n      0x20\n        /* \"#utility.yul\":10388:10389   */\n      dup2\n        /* \"#utility.yul\":10384:10396   */\n      add\n        /* \"#utility.yul\":10379:10396   */\n      swap1\n      pop\n        /* \"#utility.yul\":10354:10562   */\n      jump(tag_184)\n    tag_186:\n        /* \"#utility.yul\":10590:10596   */\n      dup7\n        /* \"#utility.yul\":10581:10588   */\n      dup4\n        /* \"#utility.yul\":10578:10597   */\n      lt\n        /* \"#utility.yul\":10575:10754   */\n      iszero\n      tag_187\n      jumpi\n        /* \"#utility.yul\":10648:10657   */\n      dup5\n        /* \"#utility.yul\":10643:10646   */\n      dup10\n        /* \"#utility.yul\":10639:10658   */\n      add\n        /* \"#utility.yul\":10633:10659   */\n      mload\n        /* \"#utility.yul\":10691:10739   */\n      tag_188\n        /* \"#utility.yul\":10733:10737   */\n      0x1f\n        /* \"#utility.yul\":10725:10731   */\n      dup10\n        /* \"#utility.yul\":10721:10738   */\n      and\n        /* \"#utility.yul\":10710:10719   */\n      dup3\n        /* \"#utility.yul\":10691:10739   */\n      tag_71\n      jump\t// in\n    tag_188:\n        /* \"#utility.yul\":10683:10689   */\n      dup4\n        /* \"#utility.yul\":10676:10740   */\n      sstore\n        /* \"#utility.yul\":10598:10754   */\n      pop\n        /* \"#utility.yul\":10575:10754   */\n    tag_187:\n        /* \"#utility.yul\":10800:10801   */\n      0x01\n        /* \"#utility.yul\":10796:10797   */\n      0x02\n        /* \"#utility.yul\":10788:10794   */\n      dup9\n        /* \"#utility.yul\":10784:10798   */\n      mul\n        /* \"#utility.yul\":10780:10802   */\n      add\n        /* \"#utility.yul\":10774:10778   */\n      dup9\n        /* \"#utility.yul\":10767:10803   */\n      sstore\n        /* \"#utility.yul\":10203:10813   */\n      pop\n      pop\n      pop\n        /* \"#utility.yul\":10166:11052   */\n    tag_179:\n      pop\n        /* \"#utility.yul\":9758:11058   */\n      pop\n      pop\n      pop\n        /* \"#utility.yul\":9668:11058   */\n      pop\n      pop\n      jump\t// out\n\n    auxdata: 0xa2646970667358221220aa792525585d4d79020f06c98ca18d28b6b15f49958d6bd17bfb6ec0ea298d9764736f6c634300081a0033\n}\n",
				"bytecode": {
					"linkReferences": {},
					"object": "6080604052348015600e575f80fd5b5061081d8061001c5f395ff3fe608060405260043610610028575f3560e01c806373d4a13a1461002c578063edcbe76c14610056575b5f80fd5b348015610037575f80fd5b50610040610072565b60405161004d91906102bc565b60405180910390f35b610070600480360381019061006b919061033a565b6100fd565b005b5f805461007e90610392565b80601f01602080910402602001604051908101604052809291908181526020018280546100aa90610392565b80156100f55780601f106100cc576101008083540402835291602001916100f5565b820191905f5260205f20905b8154815290600101906020018083116100d857829003601f168201915b505050505081565b5f808273ffffffffffffffffffffffffffffffffffffffff16606f607b60405160240161012a919061046a565b6040516020818303038152906040527f24ccab8f000000000000000000000000000000000000000000000000000000007bffffffffffffffffffffffffffffffffffffffffffffffffffffffff19166020820180517bffffffffffffffffffffffffffffffffffffffffffffffffffffffff83818316178352505050506040516101b491906104d0565b5f6040518083038185875af1925050503d805f81146101ee576040519150601f19603f3d011682016040523d82523d5f602084013e6101f3565b606091505b509150915081610238576040517f08c379a000000000000000000000000000000000000000000000000000000000815260040161022f90610530565b60405180910390fd5b805f90816102469190610718565b50505050565b5f81519050919050565b5f82825260208201905092915050565b8281835e5f83830152505050565b5f601f19601f8301169050919050565b5f61028e8261024c565b6102988185610256565b93506102a8818560208601610266565b6102b181610274565b840191505092915050565b5f6020820190508181035f8301526102d48184610284565b905092915050565b5f80fd5b5f73ffffffffffffffffffffffffffffffffffffffff82169050919050565b5f610309826102e0565b9050919050565b610319816102ff565b8114610323575f80fd5b50565b5f8135905061033481610310565b92915050565b5f6020828403121561034f5761034e6102dc565b5b5f61035c84828501610326565b91505092915050565b7f4e487b71000000000000000000000000000000000000000000000000000000005f52602260045260245ffd5b5f60028204905060018216806103a957607f821691505b6020821081036103bc576103bb610365565b5b50919050565b5f82825260208201905092915050565b7f63616c6c20666f6f0000000000000000000000000000000000000000000000005f82015250565b5f6104066008836103c2565b9150610411826103d2565b602082019050919050565b5f819050919050565b5f60ff82169050919050565b5f819050919050565b5f61045461044f61044a8461041c565b610431565b610425565b9050919050565b6104648161043a565b82525050565b5f6040820190508181035f830152610481816103fa565b9050610490602083018461045b565b92915050565b5f81905092915050565b5f6104aa8261024c565b6104b48185610496565b93506104c4818560208601610266565b80840191505092915050565b5f6104db82846104a0565b915081905092915050565b7f63616c6c206661696c65640000000000000000000000000000000000000000005f82015250565b5f61051a600b836103c2565b9150610525826104e6565b602082019050919050565b5f6020820190508181035f8301526105478161050e565b9050919050565b7f4e487b71000000000000000000000000000000000000000000000000000000005f52604160045260245ffd5b5f819050815f5260205f209050919050565b5f6020601f8301049050919050565b5f82821b905092915050565b5f600883026105d77fffffffffffffffffffffffffffffffffffffffffffffffffffffffffffffffff8261059c565b6105e1868361059c565b95508019841693508086168417925050509392505050565b5f819050919050565b5f61061c610617610612846105f9565b610431565b6105f9565b9050919050565b5f819050919050565b61063583610602565b61064961064182610623565b8484546105a8565b825550505050565b5f90565b61065d610651565b61066881848461062c565b505050565b5b8181101561068b576106805f82610655565b60018101905061066e565b5050565b601f8211156106d0576106a18161057b565b6106aa8461058d565b810160208510156106b9578190505b6106cd6106c58561058d565b83018261066d565b50505b505050565b5f82821c905092915050565b5f6106f05f19846008026106d5565b1980831691505092915050565b5f61070883836106e1565b9150826002028217905092915050565b6107218261024c565b67ffffffffffffffff81111561073a5761073961054e565b5b6107448254610392565b61074f82828561068f565b5f60209050601f831160018114610780575f841561076e578287015190505b61077885826106fd565b8655506107df565b601f19841661078e8661057b565b5f5b828110156107b557848901518255600182019150602085019450602081019050610790565b868310156107d257848901516107ce601f8916826106e1565b8355505b6001600288020188555050505b50505050505056fea2646970667358221220aa792525585d4d79020f06c98ca18d28b6b15f49958d6bd17bfb6ec0ea298d9764736f6c634300081a0033",
					"opcodes": "PUSH1 0x80 PUSH1 0x40 MSTORE CALLVALUE DUP1 ISZERO PUSH1 0xE JUMPI PUSH0 DUP1 REVERT JUMPDEST POP PUSH2 0x81D DUP1 PUSH2 0x1C PUSH0 CODECOPY PUSH0 RETURN INVALID PUSH1 0x80 PUSH1 0x40 MSTORE PUSH1 0x4 CALLDATASIZE LT PUSH2 0x28 JUMPI PUSH0 CALLDATALOAD PUSH1 0xE0 SHR DUP1 PUSH4 0x73D4A13A EQ PUSH2 0x2C JUMPI DUP1 PUSH4 0xEDCBE76C EQ PUSH2 0x56 JUMPI JUMPDEST PUSH0 DUP1 REVERT JUMPDEST CALLVALUE DUP1 ISZERO PUSH2 0x37 JUMPI PUSH0 DUP1 REVERT JUMPDEST POP PUSH2 0x40 PUSH2 0x72 JUMP JUMPDEST PUSH1 0x40 MLOAD PUSH2 0x4D SWAP2 SWAP1 PUSH2 0x2BC JUMP JUMPDEST PUSH1 0x40 MLOAD DUP1 SWAP2 SUB SWAP1 RETURN JUMPDEST PUSH2 0x70 PUSH1 0x4 DUP1 CALLDATASIZE SUB DUP2 ADD SWAP1 PUSH2 0x6B SWAP2 SWAP1 PUSH2 0x33A JUMP JUMPDEST PUSH2 0xFD JUMP JUMPDEST STOP JUMPDEST PUSH0 DUP1 SLOAD PUSH2 0x7E SWAP1 PUSH2 0x392 JUMP JUMPDEST DUP1 PUSH1 0x1F ADD PUSH1 0x20 DUP1 SWAP2 DIV MUL PUSH1 0x20 ADD PUSH1 0x40 MLOAD SWAP1 DUP2 ADD PUSH1 0x40 MSTORE DUP1 SWAP3 SWAP2 SWAP1 DUP2 DUP2 MSTORE PUSH1 0x20 ADD DUP3 DUP1 SLOAD PUSH2 0xAA SWAP1 PUSH2 0x392 JUMP JUMPDEST DUP1 ISZERO PUSH2 0xF5 JUMPI DUP1 PUSH1 0x1F LT PUSH2 0xCC JUMPI PUSH2 0x100 DUP1 DUP4 SLOAD DIV MUL DUP4 MSTORE SWAP2 PUSH1 0x20 ADD SWAP2 PUSH2 0xF5 JUMP JUMPDEST DUP3 ADD SWAP2 SWAP1 PUSH0 MSTORE PUSH1 0x20 PUSH0 KECCAK256 SWAP1 JUMPDEST DUP2 SLOAD DUP2 MSTORE SWAP1 PUSH1 0x1 ADD SWAP1 PUSH1 0x20 ADD DUP1 DUP4 GT PUSH2 0xD8 JUMPI DUP3 SWAP1 SUB PUSH1 0x1F AND DUP3 ADD SWAP2 JUMPDEST POP POP POP POP POP DUP2 JUMP JUMPDEST PUSH0 DUP1 DUP3 PUSH20 0xFFFFFFFFFFFFFFFFFFFFFFFFFFFFFFFFFFFFFFFF AND PUSH1 0x6F PUSH1 0x7B PUSH1 0x40 MLOAD PUSH1 0x24 ADD PUSH2 0x12A SWAP2 SWAP1 PUSH2 0x46A JUMP JUMPDEST PUSH1 0x40 MLOAD PUSH1 0x20 DUP2 DUP4 SUB SUB DUP2 MSTORE SWAP1 PUSH1 0x40 MSTORE PUSH32 0x24CCAB8F00000000000000000000000000000000000000000000000000000000 PUSH28 0xFFFFFFFFFFFFFFFFFFFFFFFFFFFFFFFFFFFFFFFFFFFFFFFFFFFFFFFF NOT AND PUSH1 0x20 DUP3 ADD DUP1 MLOAD PUSH28 0xFFFFFFFFFFFFFFFFFFFFFFFFFFFFFFFFFFFFFFFFFFFFFFFFFFFFFFFF DUP4 DUP2 DUP4 AND OR DUP4 MSTORE POP POP POP POP PUSH1 0x40 MLOAD PUSH2 0x1B4 SWAP2 SWAP1 PUSH2 0x4D0 JUMP JUMPDEST PUSH0 PUSH1 0x40 MLOAD DUP1 DUP4 SUB DUP2 DUP6 DUP8 GAS CALL SWAP3 POP POP POP RETURNDATASIZE DUP1 PUSH0 DUP2 EQ PUSH2 0x1EE JUMPI PUSH1 0x40 MLOAD SWAP2 POP PUSH1 0x1F NOT PUSH1 0x3F RETURNDATASIZE ADD AND DUP3 ADD PUSH1 0x40 MSTORE RETURNDATASIZE DUP3 MSTORE RETURNDATASIZE PUSH0 PUSH1 0x20 DUP5 ADD RETURNDATACOPY PUSH2 0x1F3 JUMP JUMPDEST PUSH1 0x60 SWAP2 POP JUMPDEST POP SWAP2 POP SWAP2 POP DUP2 PUSH2 0x238 JUMPI PUSH1 0x40 MLOAD PUSH32 0x8C379A000000000000000000000000000000000000000000000000000000000 DUP2 MSTORE PUSH1 0x4 ADD PUSH2 0x22F SWAP1 PUSH2 0x530 JUMP JUMPDEST PUSH1 0x40 MLOAD DUP1 SWAP2 SUB SWAP1 REVERT JUMPDEST DUP1 PUSH0 SWAP1 DUP2 PUSH2 0x246 SWAP2 SWAP1 PUSH2 0x718 JUMP JUMPDEST POP POP POP POP JUMP JUMPDEST PUSH0 DUP2 MLOAD SWAP1 POP SWAP2 SWAP1 POP JUMP JUMPDEST PUSH0 DUP3 DUP3 MSTORE PUSH1 0x20 DUP3 ADD SWAP1 POP SWAP3 SWAP2 POP POP JUMP JUMPDEST DUP3 DUP2 DUP4 MCOPY PUSH0 DUP4 DUP4 ADD MSTORE POP POP POP JUMP JUMPDEST PUSH0 PUSH1 0x1F NOT PUSH1 0x1F DUP4 ADD AND SWAP1 POP SWAP2 SWAP1 POP JUMP JUMPDEST PUSH0 PUSH2 0x28E DUP3 PUSH2 0x24C JUMP JUMPDEST PUSH2 0x298 DUP2 DUP6 PUSH2 0x256 JUMP JUMPDEST SWAP4 POP PUSH2 0x2A8 DUP2 DUP6 PUSH1 0x20 DUP7 ADD PUSH2 0x266 JUMP JUMPDEST PUSH2 0x2B1 DUP2 PUSH2 0x274 JUMP JUMPDEST DUP5 ADD SWAP2 POP POP SWAP3 SWAP2 POP POP JUMP JUMPDEST PUSH0 PUSH1 0x20 DUP3 ADD SWAP1 POP DUP2 DUP2 SUB PUSH0 DUP4 ADD MSTORE PUSH2 0x2D4 DUP2 DUP5 PUSH2 0x284 JUMP JUMPDEST SWAP1 POP SWAP3 SWAP2 POP POP JUMP JUMPDEST PUSH0 DUP1 REVERT JUMPDEST PUSH0 PUSH20 0xFFFFFFFFFFFFFFFFFFFFFFFFFFFFFFFFFFFFFFFF DUP3 AND SWAP1 POP SWAP2 SWAP1 POP JUMP JUMPDEST PUSH0 PUSH2 0x309 DUP3 PUSH2 0x2E0 JUMP JUMPDEST SWAP1 POP SWAP2 SWAP1 POP JUMP JUMPDEST PUSH2 0x319 DUP2 PUSH2 0x2FF JUMP JUMPDEST DUP2 EQ PUSH2 0x323 JUMPI PUSH0 DUP1 REVERT JUMPDEST POP JUMP JUMPDEST PUSH0 DUP2 CALLDATALOAD SWAP1 POP PUSH2 0x334 DUP2 PUSH2 0x310 JUMP JUMPDEST SWAP3 SWAP2 POP POP JUMP JUMPDEST PUSH0 PUSH1 0x20 DUP3 DUP5 SUB SLT ISZERO PUSH2 0x34F JUMPI PUSH2 0x34E PUSH2 0x2DC JUMP JUMPDEST JUMPDEST PUSH0 PUSH2 0x35C DUP5 DUP3 DUP6 ADD PUSH2 0x326 JUMP JUMPDEST SWAP2 POP POP SWAP3 SWAP2 POP POP JUMP JUMPDEST PUSH32 0x4E487B7100000000000000000000000000000000000000000000000000000000 PUSH0 MSTORE PUSH1 0x22 PUSH1 0x4 MSTORE PUSH1 0x24 PUSH0 REVERT JUMPDEST PUSH0 PUSH1 0x2 DUP3 DIV SWAP1 POP PUSH1 0x1 DUP3 AND DUP1 PUSH2 0x3A9 JUMPI PUSH1 0x7F DUP3 AND SWAP2 POP JUMPDEST PUSH1 0x20 DUP3 LT DUP2 SUB PUSH2 0x3BC JUMPI PUSH2 0x3BB PUSH2 0x365 JUMP JUMPDEST JUMPDEST POP SWAP2 SWAP1 POP JUMP JUMPDEST PUSH0 DUP3 DUP3 MSTORE PUSH1 0x20 DUP3 ADD SWAP1 POP SWAP3 SWAP2 POP POP JUMP JUMPDEST PUSH32 0x63616C6C20666F6F000000000000000000000000000000000000000000000000 PUSH0 DUP3 ADD MSTORE POP JUMP JUMPDEST PUSH0 PUSH2 0x406 PUSH1 0x8 DUP4 PUSH2 0x3C2 JUMP JUMPDEST SWAP2 POP PUSH2 0x411 DUP3 PUSH2 0x3D2 JUMP JUMPDEST PUSH1 0x20 DUP3 ADD SWAP1 POP SWAP2 SWAP1 POP JUMP JUMPDEST PUSH0 DUP2 SWAP1 POP SWAP2 SWAP1 POP JUMP JUMPDEST PUSH0 PUSH1 0xFF DUP3 AND SWAP1 POP SWAP2 SWAP1 POP JUMP JUMPDEST PUSH0 DUP2 SWAP1 POP SWAP2 SWAP1 POP JUMP JUMPDEST PUSH0 PUSH2 0x454 PUSH2 0x44F PUSH2 0x44A DUP5 PUSH2 0x41C JUMP JUMPDEST PUSH2 0x431 JUMP JUMPDEST PUSH2 0x425 JUMP JUMPDEST SWAP1 POP SWAP2 SWAP1 POP JUMP JUMPDEST PUSH2 0x464 DUP2 PUSH2 0x43A JUMP JUMPDEST DUP3 MSTORE POP POP JUMP JUMPDEST PUSH0 PUSH1 0x40 DUP3 ADD SWAP1 POP DUP2 DUP2 SUB PUSH0 DUP4 ADD MSTORE PUSH2 0x481 DUP2 PUSH2 0x3FA JUMP JUMPDEST SWAP1 POP PUSH2 0x490 PUSH1 0x20 DUP4 ADD DUP5 PUSH2 0x45B JUMP JUMPDEST SWAP3 SWAP2 POP POP JUMP JUMPDEST PUSH0 DUP2 SWAP1 POP SWAP3 SWAP2 POP POP JUMP JUMPDEST PUSH0 PUSH2 0x4AA DUP3 PUSH2 0x24C JUMP JUMPDEST PUSH2 0x4B4 DUP2 DUP6 PUSH2 0x496 JUMP JUMPDEST SWAP4 POP PUSH2 0x4C4 DUP2 DUP6 PUSH1 0x20 DUP7 ADD PUSH2 0x266 JUMP JUMPDEST DUP1 DUP5 ADD SWAP2 POP POP SWAP3 SWAP2 POP POP JUMP JUMPDEST PUSH0 PUSH2 0x4DB DUP3 DUP5 PUSH2 0x4A0 JUMP JUMPDEST SWAP2 POP DUP2 SWAP1 POP SWAP3 SWAP2 POP POP JUMP JUMPDEST PUSH32 0x63616C6C206661696C6564000000000000000000000000000000000000000000 PUSH0 DUP3 ADD MSTORE POP JUMP JUMPDEST PUSH0 PUSH2 0x51A PUSH1 0xB DUP4 PUSH2 0x3C2 JUMP JUMPDEST SWAP2 POP PUSH2 0x525 DUP3 PUSH2 0x4E6 JUMP JUMPDEST PUSH1 0x20 DUP3 ADD SWAP1 POP SWAP2 SWAP1 POP JUMP JUMPDEST PUSH0 PUSH1 0x20 DUP3 ADD SWAP1 POP DUP2 DUP2 SUB PUSH0 DUP4 ADD MSTORE PUSH2 0x547 DUP2 PUSH2 0x50E JUMP JUMPDEST SWAP1 POP SWAP2 SWAP1 POP JUMP JUMPDEST PUSH32 0x4E487B7100000000000000000000000000000000000000000000000000000000 PUSH0 MSTORE PUSH1 0x41 PUSH1 0x4 MSTORE PUSH1 0x24 PUSH0 REVERT JUMPDEST PUSH0 DUP2 SWAP1 POP DUP2 PUSH0 MSTORE PUSH1 0x20 PUSH0 KECCAK256 SWAP1 POP SWAP2 SWAP1 POP JUMP JUMPDEST PUSH0 PUSH1 0x20 PUSH1 0x1F DUP4 ADD DIV SWAP1 POP SWAP2 SWAP1 POP JUMP JUMPDEST PUSH0 DUP3 DUP3 SHL SWAP1 POP SWAP3 SWAP2 POP POP JUMP JUMPDEST PUSH0 PUSH1 0x8 DUP4 MUL PUSH2 0x5D7 PUSH32 0xFFFFFFFFFFFFFFFFFFFFFFFFFFFFFFFFFFFFFFFFFFFFFFFFFFFFFFFFFFFFFFFF DUP3 PUSH2 0x59C JUMP JUMPDEST PUSH2 0x5E1 DUP7 DUP4 PUSH2 0x59C JUMP JUMPDEST SWAP6 POP DUP1 NOT DUP5 AND SWAP4 POP DUP1 DUP7 AND DUP5 OR SWAP3 POP POP POP SWAP4 SWAP3 POP POP POP JUMP JUMPDEST PUSH0 DUP2 SWAP1 POP SWAP2 SWAP1 POP JUMP JUMPDEST PUSH0 PUSH2 0x61C PUSH2 0x617 PUSH2 0x612 DUP5 PUSH2 0x5F9 JUMP JUMPDEST PUSH2 0x431 JUMP JUMPDEST PUSH2 0x5F9 JUMP JUMPDEST SWAP1 POP SWAP2 SWAP1 POP JUMP JUMPDEST PUSH0 DUP2 SWAP1 POP SWAP2 SWAP1 POP JUMP JUMPDEST PUSH2 0x635 DUP4 PUSH2 0x602 JUMP JUMPDEST PUSH2 0x649 PUSH2 0x641 DUP3 PUSH2 0x623 JUMP JUMPDEST DUP5 DUP5 SLOAD PUSH2 0x5A8 JUMP JUMPDEST DUP3 SSTORE POP POP POP POP JUMP JUMPDEST PUSH0 SWAP1 JUMP JUMPDEST PUSH2 0x65D PUSH2 0x651 JUMP JUMPDEST PUSH2 0x668 DUP2 DUP5 DUP5 PUSH2 0x62C JUMP JUMPDEST POP POP POP JUMP JUMPDEST JUMPDEST DUP2 DUP2 LT ISZERO PUSH2 0x68B JUMPI PUSH2 0x680 PUSH0 DUP3 PUSH2 0x655 JUMP JUMPDEST PUSH1 0x1 DUP2 ADD SWAP1 POP PUSH2 0x66E JUMP JUMPDEST POP POP JUMP JUMPDEST PUSH1 0x1F DUP3 GT ISZERO PUSH2 0x6D0 JUMPI PUSH2 0x6A1 DUP2 PUSH2 0x57B JUMP JUMPDEST PUSH2 0x6AA DUP5 PUSH2 0x58D JUMP JUMPDEST DUP2 ADD PUSH1 0x20 DUP6 LT ISZERO PUSH2 0x6B9 JUMPI DUP2 SWAP1 POP JUMPDEST PUSH2 0x6CD PUSH2 0x6C5 DUP6 PUSH2 0x58D JUMP JUMPDEST DUP4 ADD DUP3 PUSH2 0x66D JUMP JUMPDEST POP POP JUMPDEST POP POP POP JUMP JUMPDEST PUSH0 DUP3 DUP3 SHR SWAP1 POP SWAP3 SWAP2 POP POP JUMP JUMPDEST PUSH0 PUSH2 0x6F0 PUSH0 NOT DUP5 PUSH1 0x8 MUL PUSH2 0x6D5 JUMP JUMPDEST NOT DUP1 DUP4 AND SWAP2 POP POP SWAP3 SWAP2 POP POP JUMP JUMPDEST PUSH0 PUSH2 0x708 DUP4 DUP4 PUSH2 0x6E1 JUMP JUMPDEST SWAP2 POP DUP3 PUSH1 0x2 MUL DUP3 OR SWAP1 POP SWAP3 SWAP2 POP POP JUMP JUMPDEST PUSH2 0x721 DUP3 PUSH2 0x24C JUMP JUMPDEST PUSH8 0xFFFFFFFFFFFFFFFF DUP2 GT ISZERO PUSH2 0x73A JUMPI PUSH2 0x739 PUSH2 0x54E JUMP JUMPDEST JUMPDEST PUSH2 0x744 DUP3 SLOAD PUSH2 0x392 JUMP JUMPDEST PUSH2 0x74F DUP3 DUP3 DUP6 PUSH2 0x68F JUMP JUMPDEST PUSH0 PUSH1 0x20 SWAP1 POP PUSH1 0x1F DUP4 GT PUSH1 0x1 DUP2 EQ PUSH2 0x780 JUMPI PUSH0 DUP5 ISZERO PUSH2 0x76E JUMPI DUP3 DUP8 ADD MLOAD SWAP1 POP JUMPDEST PUSH2 0x778 DUP6 DUP3 PUSH2 0x6FD JUMP JUMPDEST DUP7 SSTORE POP PUSH2 0x7DF JUMP JUMPDEST PUSH1 0x1F NOT DUP5 AND PUSH2 0x78E DUP7 PUSH2 0x57B JUMP JUMPDEST PUSH0 JUMPDEST DUP3 DUP2 LT ISZERO PUSH2 0x7B5 JUMPI DUP5 DUP10 ADD MLOAD DUP3 SSTORE PUSH1 0x1 DUP3 ADD SWAP2 POP PUSH1 0x20 DUP6 ADD SWAP5 POP PUSH1 0x20 DUP2 ADD SWAP1 POP PUSH2 0x790 JUMP JUMPDEST DUP7 DUP4 LT ISZERO PUSH2 0x7D2 JUMPI DUP5 DUP10 ADD MLOAD PUSH2 0x7CE PUSH1 0x1F DUP10 AND DUP3 PUSH2 0x6E1 JUMP JUMPDEST DUP4 SSTORE POP JUMPDEST PUSH1 0x1 PUSH1 0x2 DUP9 MUL ADD DUP9 SSTORE POP POP POP JUMPDEST POP POP POP POP POP POP JUMP INVALID LOG2 PUSH5 0x6970667358 0x22 SLT KECCAK256 0xAA PUSH26 0x2525585D4D79020F06C98CA18D28B6B15F49958D6BD17BFB6EC0 0xEA 0x29 DUP14 SWAP8 PUSH5 0x736F6C6343 STOP ADDMOD BYTE STOP CALLER "
				},
				"gasEstimates": {
					"creation": {
						"codeDepositCost": "415400",
						"executionCost": "447",
						"totalCost": "415847"
					},
					"external": {
						"callFoo(address)": "infinite",
						"data()": "infinite"
					}
				},
				"methodIdentifiers": {
					"callFoo(address)": "edcbe76c",
					"data()": "73d4a13a"
				}
			},
			"storageLayout": {
				"storage": [
					{
						"astId": 36,
						"contract": "contracts/cursoDeSolidity/29_lowLevelCall.sol:call",
						"label": "data",
						"offset": 0,
						"slot": "0",
						"type": "t_bytes_storage"
					}
				],
				"types": {
					"t_bytes_storage": {
						"encoding": "bytes",
						"label": "bytes",
						"numberOfBytes": "32"
					}
				}
			},
			"userdoc": {
				"kind": "user",
				"methods": {},
				"version": 1
			}
		}
	}
}