{
	"contracts/cursoDeSolidity/Copy_18_modifiers.sol": {
		"modifiers": {
			"abi": [
				{
					"inputs": [
						{
							"internalType": "bool",
							"name": "_paused",
							"type": "bool"
						}
					],
					"stateMutability": "nonpayable",
					"type": "constructor"
				},
				{
					"inputs": [],
					"name": "fOne",
					"outputs": [],
					"stateMutability": "nonpayable",
					"type": "function"
				},
				{
					"inputs": [],
					"name": "fThree",
					"outputs": [],
					"stateMutability": "nonpayable",
					"type": "function"
				},
				{
					"inputs": [],
					"name": "fTwo",
					"outputs": [],
					"stateMutability": "nonpayable",
					"type": "function"
				},
				{
					"inputs": [],
					"name": "myNumber",
					"outputs": [
						{
							"internalType": "uint256",
							"name": "",
							"type": "uint256"
						}
					],
					"stateMutability": "view",
					"type": "function"
				},
				{
					"inputs": [],
					"name": "owner",
					"outputs": [
						{
							"internalType": "address",
							"name": "",
							"type": "address"
						}
					],
					"stateMutability": "view",
					"type": "function"
				},
				{
					"inputs": [],
					"name": "paused",
					"outputs": [
						{
							"internalType": "bool",
							"name": "",
							"type": "bool"
						}
					],
					"stateMutability": "view",
					"type": "function"
				}
			],
			"devdoc": {
				"kind": "dev",
				"methods": {},
				"version": 1
			},
			"evm": {
				"assembly": "    /* \"contracts/cursoDeSolidity/Copy_18_modifiers.sol\":76:886  contract modifiers {... */\n  mstore(0x40, 0x80)\n    /* \"contracts/cursoDeSolidity/Copy_18_modifiers.sol\":183:273  constructor(bool _paused) {... */\n  callvalue\n  dup1\n  iszero\n  tag_1\n  jumpi\n  0x00\n  dup1\n  revert\ntag_1:\n  pop\n  mload(0x40)\n  sub(codesize, bytecodeSize)\n  dup1\n  bytecodeSize\n  dup4\n  codecopy\n  dup2\n  dup2\n  add\n  0x40\n  mstore\n  dup2\n  add\n  swap1\n  tag_2\n  swap2\n  swap1\n  tag_3\n  jump\t// in\ntag_2:\n    /* \"contracts/cursoDeSolidity/Copy_18_modifiers.sol\":229:236  _paused */\n  dup1\n    /* \"contracts/cursoDeSolidity/Copy_18_modifiers.sol\":220:226  paused */\n  0x00\n  dup1\n    /* \"contracts/cursoDeSolidity/Copy_18_modifiers.sol\":220:236  paused = _paused */\n  0x0100\n  exp\n  dup2\n  sload\n  dup2\n  0xff\n  mul\n  not\n  and\n  swap1\n  dup4\n  iszero\n  iszero\n  mul\n  or\n  swap1\n  sstore\n  pop\n    /* \"contracts/cursoDeSolidity/Copy_18_modifiers.sol\":255:265  msg.sender */\n  caller\n    /* \"contracts/cursoDeSolidity/Copy_18_modifiers.sol\":247:252  owner */\n  0x02\n  0x00\n    /* \"contracts/cursoDeSolidity/Copy_18_modifiers.sol\":247:265  owner = msg.sender */\n  0x0100\n  exp\n  dup2\n  sload\n  dup2\n  0xffffffffffffffffffffffffffffffffffffffff\n  mul\n  not\n  and\n  swap1\n  dup4\n  0xffffffffffffffffffffffffffffffffffffffff\n  and\n  mul\n  or\n  swap1\n  sstore\n  pop\n    /* \"contracts/cursoDeSolidity/Copy_18_modifiers.sol\":183:273  constructor(bool _paused) {... */\n  pop\n    /* \"contracts/cursoDeSolidity/Copy_18_modifiers.sol\":76:886  contract modifiers {... */\n  jump(tag_6)\n    /* \"#utility.yul\":88:205   */\ntag_8:\n    /* \"#utility.yul\":197:198   */\n  0x00\n    /* \"#utility.yul\":194:195   */\n  dup1\n    /* \"#utility.yul\":187:199   */\n  revert\n    /* \"#utility.yul\":334:424   */\ntag_10:\n    /* \"#utility.yul\":368:375   */\n  0x00\n    /* \"#utility.yul\":411:416   */\n  dup2\n    /* \"#utility.yul\":404:417   */\n  iszero\n    /* \"#utility.yul\":397:418   */\n  iszero\n    /* \"#utility.yul\":386:418   */\n  swap1\n  pop\n    /* \"#utility.yul\":334:424   */\n  swap2\n  swap1\n  pop\n  jump\t// out\n    /* \"#utility.yul\":430:546   */\ntag_11:\n    /* \"#utility.yul\":500:521   */\n  tag_19\n    /* \"#utility.yul\":515:520   */\n  dup2\n    /* \"#utility.yul\":500:521   */\n  tag_10\n  jump\t// in\ntag_19:\n    /* \"#utility.yul\":493:498   */\n  dup2\n    /* \"#utility.yul\":490:522   */\n  eq\n    /* \"#utility.yul\":480:540   */\n  tag_20\n  jumpi\n    /* \"#utility.yul\":536:537   */\n  0x00\n    /* \"#utility.yul\":533:534   */\n  dup1\n    /* \"#utility.yul\":526:538   */\n  revert\n    /* \"#utility.yul\":480:540   */\ntag_20:\n    /* \"#utility.yul\":430:546   */\n  pop\n  jump\t// out\n    /* \"#utility.yul\":552:689   */\ntag_12:\n    /* \"#utility.yul\":606:611   */\n  0x00\n    /* \"#utility.yul\":637:643   */\n  dup2\n    /* \"#utility.yul\":631:644   */\n  mload\n    /* \"#utility.yul\":622:644   */\n  swap1\n  pop\n    /* \"#utility.yul\":653:683   */\n  tag_22\n    /* \"#utility.yul\":677:682   */\n  dup2\n    /* \"#utility.yul\":653:683   */\n  tag_11\n  jump\t// in\ntag_22:\n    /* \"#utility.yul\":552:689   */\n  swap3\n  swap2\n  pop\n  pop\n  jump\t// out\n    /* \"#utility.yul\":695:1040   */\ntag_3:\n    /* \"#utility.yul\":762:768   */\n  0x00\n    /* \"#utility.yul\":811:813   */\n  0x20\n    /* \"#utility.yul\":799:808   */\n  dup3\n    /* \"#utility.yul\":790:797   */\n  dup5\n    /* \"#utility.yul\":786:809   */\n  sub\n    /* \"#utility.yul\":782:814   */\n  slt\n    /* \"#utility.yul\":779:898   */\n  iszero\n  tag_24\n  jumpi\n    /* \"#utility.yul\":817:896   */\n  tag_25\n  tag_8\n  jump\t// in\ntag_25:\n    /* \"#utility.yul\":779:898   */\ntag_24:\n    /* \"#utility.yul\":937:938   */\n  0x00\n    /* \"#utility.yul\":962:1023   */\n  tag_26\n    /* \"#utility.yul\":1015:1022   */\n  dup5\n    /* \"#utility.yul\":1006:1012   */\n  dup3\n    /* \"#utility.yul\":995:1004   */\n  dup6\n    /* \"#utility.yul\":991:1013   */\n  add\n    /* \"#utility.yul\":962:1023   */\n  tag_12\n  jump\t// in\ntag_26:\n    /* \"#utility.yul\":952:1023   */\n  swap2\n  pop\n    /* \"#utility.yul\":908:1033   */\n  pop\n    /* \"#utility.yul\":695:1040   */\n  swap3\n  swap2\n  pop\n  pop\n  jump\t// out\n    /* \"contracts/cursoDeSolidity/Copy_18_modifiers.sol\":76:886  contract modifiers {... */\ntag_6:\n  dataSize(sub_0)\n  dup1\n  dataOffset(sub_0)\n  0x00\n  codecopy\n  0x00\n  return\nstop\n\nsub_0: assembly {\n        /* \"contracts/cursoDeSolidity/Copy_18_modifiers.sol\":76:886  contract modifiers {... */\n      mstore(0x40, 0x80)\n      callvalue\n      dup1\n      iszero\n      tag_1\n      jumpi\n      0x00\n      dup1\n      revert\n    tag_1:\n      pop\n      jumpi(tag_2, lt(calldatasize, 0x04))\n      shr(0xe0, calldataload(0x00))\n      dup1\n      0x23fd0e40\n      eq\n      tag_3\n      jumpi\n      dup1\n      0x5c975abb\n      eq\n      tag_4\n      jumpi\n      dup1\n      0x8da5cb5b\n      eq\n      tag_5\n      jumpi\n      dup1\n      0x9fd797a5\n      eq\n      tag_6\n      jumpi\n      dup1\n      0xb78e2c43\n      eq\n      tag_7\n      jumpi\n      dup1\n      0xc17202bd\n      eq\n      tag_8\n      jumpi\n    tag_2:\n      0x00\n      dup1\n      revert\n        /* \"contracts/cursoDeSolidity/Copy_18_modifiers.sol\":127:147  uint public myNumber */\n    tag_3:\n      tag_9\n      tag_10\n      jump\t// in\n    tag_9:\n      mload(0x40)\n      tag_11\n      swap2\n      swap1\n      tag_12\n      jump\t// in\n    tag_11:\n      mload(0x40)\n      dup1\n      swap2\n      sub\n      swap1\n      return\n        /* \"contracts/cursoDeSolidity/Copy_18_modifiers.sol\":102:120  bool public paused */\n    tag_4:\n      tag_13\n      tag_14\n      jump\t// in\n    tag_13:\n      mload(0x40)\n      tag_15\n      swap2\n      swap1\n      tag_16\n      jump\t// in\n    tag_15:\n      mload(0x40)\n      dup1\n      swap2\n      sub\n      swap1\n      return\n        /* \"contracts/cursoDeSolidity/Copy_18_modifiers.sol\":154:174  address public owner */\n    tag_5:\n      tag_17\n      tag_18\n      jump\t// in\n    tag_17:\n      mload(0x40)\n      tag_19\n      swap2\n      swap1\n      tag_20\n      jump\t// in\n    tag_19:\n      mload(0x40)\n      dup1\n      swap2\n      sub\n      swap1\n      return\n        /* \"contracts/cursoDeSolidity/Copy_18_modifiers.sol\":281:354  function fOne() external isContractPaused {... */\n    tag_6:\n      tag_21\n      tag_22\n      jump\t// in\n    tag_21:\n      stop\n        /* \"contracts/cursoDeSolidity/Copy_18_modifiers.sol\":463:540  function fThree() external updatingMyNumber() {... */\n    tag_7:\n      tag_23\n      tag_24\n      jump\t// in\n    tag_23:\n      stop\n        /* \"contracts/cursoDeSolidity/Copy_18_modifiers.sol\":360:457  function fTwo() external isContractPaused isOwnerOnly(msg.sender) {... */\n    tag_8:\n      tag_25\n      tag_26\n      jump\t// in\n    tag_25:\n      stop\n        /* \"contracts/cursoDeSolidity/Copy_18_modifiers.sol\":127:147  uint public myNumber */\n    tag_10:\n      sload(0x01)\n      dup2\n      jump\t// out\n        /* \"contracts/cursoDeSolidity/Copy_18_modifiers.sol\":102:120  bool public paused */\n    tag_14:\n      0x00\n      dup1\n      sload\n      swap1\n      0x0100\n      exp\n      swap1\n      div\n      0xff\n      and\n      dup2\n      jump\t// out\n        /* \"contracts/cursoDeSolidity/Copy_18_modifiers.sol\":154:174  address public owner */\n    tag_18:\n      0x02\n      0x00\n      swap1\n      sload\n      swap1\n      0x0100\n      exp\n      swap1\n      div\n      0xffffffffffffffffffffffffffffffffffffffff\n      and\n      dup2\n      jump\t// out\n        /* \"contracts/cursoDeSolidity/Copy_18_modifiers.sol\":281:354  function fOne() external isContractPaused {... */\n    tag_22:\n        /* \"contracts/cursoDeSolidity/Copy_18_modifiers.sol\":599:605  paused */\n      0x00\n      dup1\n      sload\n      swap1\n      0x0100\n      exp\n      swap1\n      div\n      0xff\n      and\n        /* \"contracts/cursoDeSolidity/Copy_18_modifiers.sol\":598:605  !paused */\n      iszero\n        /* \"contracts/cursoDeSolidity/Copy_18_modifiers.sol\":590:628  require(!paused, \"Contract is paused\") */\n      tag_28\n      jumpi\n      mload(0x40)\n      0x08c379a000000000000000000000000000000000000000000000000000000000\n      dup2\n      mstore\n      0x04\n      add\n      tag_29\n      swap1\n      tag_30\n      jump\t// in\n    tag_29:\n      mload(0x40)\n      dup1\n      swap2\n      sub\n      swap1\n      revert\n    tag_28:\n        /* \"contracts/cursoDeSolidity/Copy_18_modifiers.sol\":345:346  1 */\n      0x01\n        /* \"contracts/cursoDeSolidity/Copy_18_modifiers.sol\":334:342  myNumber */\n      dup1\n        /* \"contracts/cursoDeSolidity/Copy_18_modifiers.sol\":334:346  myNumber = 1 */\n      dup2\n      swap1\n      sstore\n      pop\n        /* \"contracts/cursoDeSolidity/Copy_18_modifiers.sol\":281:354  function fOne() external isContractPaused {... */\n      jump\t// out\n        /* \"contracts/cursoDeSolidity/Copy_18_modifiers.sol\":463:540  function fThree() external updatingMyNumber() {... */\n    tag_24:\n        /* \"contracts/cursoDeSolidity/Copy_18_modifiers.sol\":829:837  myNumber */\n      0x01\n      0x00\n        /* \"contracts/cursoDeSolidity/Copy_18_modifiers.sol\":829:839  myNumber++ */\n      dup2\n      sload\n      dup1\n      swap3\n      swap2\n      swap1\n      tag_33\n      swap1\n      tag_34\n      jump\t// in\n    tag_33:\n      swap2\n      swap1\n      pop\n      sstore\n      pop\n        /* \"contracts/cursoDeSolidity/Copy_18_modifiers.sol\":531:532  3 */\n      0x03\n        /* \"contracts/cursoDeSolidity/Copy_18_modifiers.sol\":520:528  myNumber */\n      0x01\n        /* \"contracts/cursoDeSolidity/Copy_18_modifiers.sol\":520:532  myNumber = 3 */\n      dup2\n      swap1\n      sstore\n      pop\n        /* \"contracts/cursoDeSolidity/Copy_18_modifiers.sol\":874:875  2 */\n      0x02\n        /* \"contracts/cursoDeSolidity/Copy_18_modifiers.sol\":862:870  myNumber */\n      0x01\n      0x00\n        /* \"contracts/cursoDeSolidity/Copy_18_modifiers.sol\":862:875  myNumber += 2 */\n      dup3\n      dup3\n      sload\n      tag_36\n      swap2\n      swap1\n      tag_37\n      jump\t// in\n    tag_36:\n      swap3\n      pop\n      pop\n      dup2\n      swap1\n      sstore\n      pop\n        /* \"contracts/cursoDeSolidity/Copy_18_modifiers.sol\":463:540  function fThree() external updatingMyNumber() {... */\n      jump\t// out\n        /* \"contracts/cursoDeSolidity/Copy_18_modifiers.sol\":360:457  function fTwo() external isContractPaused isOwnerOnly(msg.sender) {... */\n    tag_26:\n        /* \"contracts/cursoDeSolidity/Copy_18_modifiers.sol\":599:605  paused */\n      0x00\n      dup1\n      sload\n      swap1\n      0x0100\n      exp\n      swap1\n      div\n      0xff\n      and\n        /* \"contracts/cursoDeSolidity/Copy_18_modifiers.sol\":598:605  !paused */\n      iszero\n        /* \"contracts/cursoDeSolidity/Copy_18_modifiers.sol\":590:628  require(!paused, \"Contract is paused\") */\n      tag_39\n      jumpi\n      mload(0x40)\n      0x08c379a000000000000000000000000000000000000000000000000000000000\n      dup2\n      mstore\n      0x04\n      add\n      tag_40\n      swap1\n      tag_30\n      jump\t// in\n    tag_40:\n      mload(0x40)\n      dup1\n      swap2\n      sub\n      swap1\n      revert\n    tag_39:\n        /* \"contracts/cursoDeSolidity/Copy_18_modifiers.sol\":414:424  msg.sender */\n      caller\n        /* \"contracts/cursoDeSolidity/Copy_18_modifiers.sol\":719:725  _owner */\n      dup1\n        /* \"contracts/cursoDeSolidity/Copy_18_modifiers.sol\":710:725  owner == _owner */\n      0xffffffffffffffffffffffffffffffffffffffff\n      and\n        /* \"contracts/cursoDeSolidity/Copy_18_modifiers.sol\":710:715  owner */\n      0x02\n      0x00\n      swap1\n      sload\n      swap1\n      0x0100\n      exp\n      swap1\n      div\n      0xffffffffffffffffffffffffffffffffffffffff\n      and\n        /* \"contracts/cursoDeSolidity/Copy_18_modifiers.sol\":710:725  owner == _owner */\n      0xffffffffffffffffffffffffffffffffffffffff\n      and\n      eq\n        /* \"contracts/cursoDeSolidity/Copy_18_modifiers.sol\":702:763  require(owner == _owner, \"Only owner can call this function\") */\n      tag_42\n      jumpi\n      mload(0x40)\n      0x08c379a000000000000000000000000000000000000000000000000000000000\n      dup2\n      mstore\n      0x04\n      add\n      tag_43\n      swap1\n      tag_44\n      jump\t// in\n    tag_43:\n      mload(0x40)\n      dup1\n      swap2\n      sub\n      swap1\n      revert\n    tag_42:\n        /* \"contracts/cursoDeSolidity/Copy_18_modifiers.sol\":448:449  2 */\n      0x02\n        /* \"contracts/cursoDeSolidity/Copy_18_modifiers.sol\":437:445  myNumber */\n      0x01\n        /* \"contracts/cursoDeSolidity/Copy_18_modifiers.sol\":437:449  myNumber = 2 */\n      dup2\n      swap1\n      sstore\n      pop\n        /* \"contracts/cursoDeSolidity/Copy_18_modifiers.sol\":639:640  _ */\n      pop\n        /* \"contracts/cursoDeSolidity/Copy_18_modifiers.sol\":360:457  function fTwo() external isContractPaused isOwnerOnly(msg.sender) {... */\n      jump\t// out\n        /* \"#utility.yul\":7:84   */\n    tag_46:\n        /* \"#utility.yul\":44:51   */\n      0x00\n        /* \"#utility.yul\":73:78   */\n      dup2\n        /* \"#utility.yul\":62:78   */\n      swap1\n      pop\n        /* \"#utility.yul\":7:84   */\n      swap2\n      swap1\n      pop\n      jump\t// out\n        /* \"#utility.yul\":90:208   */\n    tag_47:\n        /* \"#utility.yul\":177:201   */\n      tag_62\n        /* \"#utility.yul\":195:200   */\n      dup2\n        /* \"#utility.yul\":177:201   */\n      tag_46\n      jump\t// in\n    tag_62:\n        /* \"#utility.yul\":172:175   */\n      dup3\n        /* \"#utility.yul\":165:202   */\n      mstore\n        /* \"#utility.yul\":90:208   */\n      pop\n      pop\n      jump\t// out\n        /* \"#utility.yul\":214:436   */\n    tag_12:\n        /* \"#utility.yul\":307:311   */\n      0x00\n        /* \"#utility.yul\":345:347   */\n      0x20\n        /* \"#utility.yul\":334:343   */\n      dup3\n        /* \"#utility.yul\":330:348   */\n      add\n        /* \"#utility.yul\":322:348   */\n      swap1\n      pop\n        /* \"#utility.yul\":358:429   */\n      tag_64\n        /* \"#utility.yul\":426:427   */\n      0x00\n        /* \"#utility.yul\":415:424   */\n      dup4\n        /* \"#utility.yul\":411:428   */\n      add\n        /* \"#utility.yul\":402:408   */\n      dup5\n        /* \"#utility.yul\":358:429   */\n      tag_47\n      jump\t// in\n    tag_64:\n        /* \"#utility.yul\":214:436   */\n      swap3\n      swap2\n      pop\n      pop\n      jump\t// out\n        /* \"#utility.yul\":442:532   */\n    tag_48:\n        /* \"#utility.yul\":476:483   */\n      0x00\n        /* \"#utility.yul\":519:524   */\n      dup2\n        /* \"#utility.yul\":512:525   */\n      iszero\n        /* \"#utility.yul\":505:526   */\n      iszero\n        /* \"#utility.yul\":494:526   */\n      swap1\n      pop\n        /* \"#utility.yul\":442:532   */\n      swap2\n      swap1\n      pop\n      jump\t// out\n        /* \"#utility.yul\":538:647   */\n    tag_49:\n        /* \"#utility.yul\":619:640   */\n      tag_67\n        /* \"#utility.yul\":634:639   */\n      dup2\n        /* \"#utility.yul\":619:640   */\n      tag_48\n      jump\t// in\n    tag_67:\n        /* \"#utility.yul\":614:617   */\n      dup3\n        /* \"#utility.yul\":607:641   */\n      mstore\n        /* \"#utility.yul\":538:647   */\n      pop\n      pop\n      jump\t// out\n        /* \"#utility.yul\":653:863   */\n    tag_16:\n        /* \"#utility.yul\":740:744   */\n      0x00\n        /* \"#utility.yul\":778:780   */\n      0x20\n        /* \"#utility.yul\":767:776   */\n      dup3\n        /* \"#utility.yul\":763:781   */\n      add\n        /* \"#utility.yul\":755:781   */\n      swap1\n      pop\n        /* \"#utility.yul\":791:856   */\n      tag_69\n        /* \"#utility.yul\":853:854   */\n      0x00\n        /* \"#utility.yul\":842:851   */\n      dup4\n        /* \"#utility.yul\":838:855   */\n      add\n        /* \"#utility.yul\":829:835   */\n      dup5\n        /* \"#utility.yul\":791:856   */\n      tag_49\n      jump\t// in\n    tag_69:\n        /* \"#utility.yul\":653:863   */\n      swap3\n      swap2\n      pop\n      pop\n      jump\t// out\n        /* \"#utility.yul\":869:995   */\n    tag_50:\n        /* \"#utility.yul\":906:913   */\n      0x00\n        /* \"#utility.yul\":946:988   */\n      0xffffffffffffffffffffffffffffffffffffffff\n        /* \"#utility.yul\":939:944   */\n      dup3\n        /* \"#utility.yul\":935:989   */\n      and\n        /* \"#utility.yul\":924:989   */\n      swap1\n      pop\n        /* \"#utility.yul\":869:995   */\n      swap2\n      swap1\n      pop\n      jump\t// out\n        /* \"#utility.yul\":1001:1097   */\n    tag_51:\n        /* \"#utility.yul\":1038:1045   */\n      0x00\n        /* \"#utility.yul\":1067:1091   */\n      tag_72\n        /* \"#utility.yul\":1085:1090   */\n      dup3\n        /* \"#utility.yul\":1067:1091   */\n      tag_50\n      jump\t// in\n    tag_72:\n        /* \"#utility.yul\":1056:1091   */\n      swap1\n      pop\n        /* \"#utility.yul\":1001:1097   */\n      swap2\n      swap1\n      pop\n      jump\t// out\n        /* \"#utility.yul\":1103:1221   */\n    tag_52:\n        /* \"#utility.yul\":1190:1214   */\n      tag_74\n        /* \"#utility.yul\":1208:1213   */\n      dup2\n        /* \"#utility.yul\":1190:1214   */\n      tag_51\n      jump\t// in\n    tag_74:\n        /* \"#utility.yul\":1185:1188   */\n      dup3\n        /* \"#utility.yul\":1178:1215   */\n      mstore\n        /* \"#utility.yul\":1103:1221   */\n      pop\n      pop\n      jump\t// out\n        /* \"#utility.yul\":1227:1449   */\n    tag_20:\n        /* \"#utility.yul\":1320:1324   */\n      0x00\n        /* \"#utility.yul\":1358:1360   */\n      0x20\n        /* \"#utility.yul\":1347:1356   */\n      dup3\n        /* \"#utility.yul\":1343:1361   */\n      add\n        /* \"#utility.yul\":1335:1361   */\n      swap1\n      pop\n        /* \"#utility.yul\":1371:1442   */\n      tag_76\n        /* \"#utility.yul\":1439:1440   */\n      0x00\n        /* \"#utility.yul\":1428:1437   */\n      dup4\n        /* \"#utility.yul\":1424:1441   */\n      add\n        /* \"#utility.yul\":1415:1421   */\n      dup5\n        /* \"#utility.yul\":1371:1442   */\n      tag_52\n      jump\t// in\n    tag_76:\n        /* \"#utility.yul\":1227:1449   */\n      swap3\n      swap2\n      pop\n      pop\n      jump\t// out\n        /* \"#utility.yul\":1455:1624   */\n    tag_53:\n        /* \"#utility.yul\":1539:1550   */\n      0x00\n        /* \"#utility.yul\":1573:1579   */\n      dup3\n        /* \"#utility.yul\":1568:1571   */\n      dup3\n        /* \"#utility.yul\":1561:1580   */\n      mstore\n        /* \"#utility.yul\":1613:1617   */\n      0x20\n        /* \"#utility.yul\":1608:1611   */\n      dup3\n        /* \"#utility.yul\":1604:1618   */\n      add\n        /* \"#utility.yul\":1589:1618   */\n      swap1\n      pop\n        /* \"#utility.yul\":1455:1624   */\n      swap3\n      swap2\n      pop\n      pop\n      jump\t// out\n        /* \"#utility.yul\":1630:1798   */\n    tag_54:\n        /* \"#utility.yul\":1770:1790   */\n      0x436f6e7472616374206973207061757365640000000000000000000000000000\n        /* \"#utility.yul\":1766:1767   */\n      0x00\n        /* \"#utility.yul\":1758:1764   */\n      dup3\n        /* \"#utility.yul\":1754:1768   */\n      add\n        /* \"#utility.yul\":1747:1791   */\n      mstore\n        /* \"#utility.yul\":1630:1798   */\n      pop\n      jump\t// out\n        /* \"#utility.yul\":1804:2170   */\n    tag_55:\n        /* \"#utility.yul\":1946:1949   */\n      0x00\n        /* \"#utility.yul\":1967:2034   */\n      tag_80\n        /* \"#utility.yul\":2031:2033   */\n      0x12\n        /* \"#utility.yul\":2026:2029   */\n      dup4\n        /* \"#utility.yul\":1967:2034   */\n      tag_53\n      jump\t// in\n    tag_80:\n        /* \"#utility.yul\":1960:2034   */\n      swap2\n      pop\n        /* \"#utility.yul\":2043:2136   */\n      tag_81\n        /* \"#utility.yul\":2132:2135   */\n      dup3\n        /* \"#utility.yul\":2043:2136   */\n      tag_54\n      jump\t// in\n    tag_81:\n        /* \"#utility.yul\":2161:2163   */\n      0x20\n        /* \"#utility.yul\":2156:2159   */\n      dup3\n        /* \"#utility.yul\":2152:2164   */\n      add\n        /* \"#utility.yul\":2145:2164   */\n      swap1\n      pop\n        /* \"#utility.yul\":1804:2170   */\n      swap2\n      swap1\n      pop\n      jump\t// out\n        /* \"#utility.yul\":2176:2595   */\n    tag_30:\n        /* \"#utility.yul\":2342:2346   */\n      0x00\n        /* \"#utility.yul\":2380:2382   */\n      0x20\n        /* \"#utility.yul\":2369:2378   */\n      dup3\n        /* \"#utility.yul\":2365:2383   */\n      add\n        /* \"#utility.yul\":2357:2383   */\n      swap1\n      pop\n        /* \"#utility.yul\":2429:2438   */\n      dup2\n        /* \"#utility.yul\":2423:2427   */\n      dup2\n        /* \"#utility.yul\":2419:2439   */\n      sub\n        /* \"#utility.yul\":2415:2416   */\n      0x00\n        /* \"#utility.yul\":2404:2413   */\n      dup4\n        /* \"#utility.yul\":2400:2417   */\n      add\n        /* \"#utility.yul\":2393:2440   */\n      mstore\n        /* \"#utility.yul\":2457:2588   */\n      tag_83\n        /* \"#utility.yul\":2583:2587   */\n      dup2\n        /* \"#utility.yul\":2457:2588   */\n      tag_55\n      jump\t// in\n    tag_83:\n        /* \"#utility.yul\":2449:2588   */\n      swap1\n      pop\n        /* \"#utility.yul\":2176:2595   */\n      swap2\n      swap1\n      pop\n      jump\t// out\n        /* \"#utility.yul\":2601:2781   */\n    tag_56:\n        /* \"#utility.yul\":2649:2726   */\n      0x4e487b7100000000000000000000000000000000000000000000000000000000\n        /* \"#utility.yul\":2646:2647   */\n      0x00\n        /* \"#utility.yul\":2639:2727   */\n      mstore\n        /* \"#utility.yul\":2746:2750   */\n      0x11\n        /* \"#utility.yul\":2743:2744   */\n      0x04\n        /* \"#utility.yul\":2736:2751   */\n      mstore\n        /* \"#utility.yul\":2770:2774   */\n      0x24\n        /* \"#utility.yul\":2767:2768   */\n      0x00\n        /* \"#utility.yul\":2760:2775   */\n      revert\n        /* \"#utility.yul\":2787:3020   */\n    tag_34:\n        /* \"#utility.yul\":2826:2829   */\n      0x00\n        /* \"#utility.yul\":2849:2873   */\n      tag_86\n        /* \"#utility.yul\":2867:2872   */\n      dup3\n        /* \"#utility.yul\":2849:2873   */\n      tag_46\n      jump\t// in\n    tag_86:\n        /* \"#utility.yul\":2840:2873   */\n      swap2\n      pop\n        /* \"#utility.yul\":2895:2961   */\n      0xffffffffffffffffffffffffffffffffffffffffffffffffffffffffffffffff\n        /* \"#utility.yul\":2888:2893   */\n      dup3\n        /* \"#utility.yul\":2885:2962   */\n      sub\n        /* \"#utility.yul\":2882:2985   */\n      tag_87\n      jumpi\n        /* \"#utility.yul\":2965:2983   */\n      tag_88\n      tag_56\n      jump\t// in\n    tag_88:\n        /* \"#utility.yul\":2882:2985   */\n    tag_87:\n        /* \"#utility.yul\":3012:3013   */\n      0x01\n        /* \"#utility.yul\":3005:3010   */\n      dup3\n        /* \"#utility.yul\":3001:3014   */\n      add\n        /* \"#utility.yul\":2994:3014   */\n      swap1\n      pop\n        /* \"#utility.yul\":2787:3020   */\n      swap2\n      swap1\n      pop\n      jump\t// out\n        /* \"#utility.yul\":3026:3217   */\n    tag_37:\n        /* \"#utility.yul\":3066:3069   */\n      0x00\n        /* \"#utility.yul\":3085:3105   */\n      tag_90\n        /* \"#utility.yul\":3103:3104   */\n      dup3\n        /* \"#utility.yul\":3085:3105   */\n      tag_46\n      jump\t// in\n    tag_90:\n        /* \"#utility.yul\":3080:3105   */\n      swap2\n      pop\n        /* \"#utility.yul\":3119:3139   */\n      tag_91\n        /* \"#utility.yul\":3137:3138   */\n      dup4\n        /* \"#utility.yul\":3119:3139   */\n      tag_46\n      jump\t// in\n    tag_91:\n        /* \"#utility.yul\":3114:3139   */\n      swap3\n      pop\n        /* \"#utility.yul\":3162:3163   */\n      dup3\n        /* \"#utility.yul\":3159:3160   */\n      dup3\n        /* \"#utility.yul\":3155:3164   */\n      add\n        /* \"#utility.yul\":3148:3164   */\n      swap1\n      pop\n        /* \"#utility.yul\":3183:3186   */\n      dup1\n        /* \"#utility.yul\":3180:3181   */\n      dup3\n        /* \"#utility.yul\":3177:3187   */\n      gt\n        /* \"#utility.yul\":3174:3210   */\n      iszero\n      tag_92\n      jumpi\n        /* \"#utility.yul\":3190:3208   */\n      tag_93\n      tag_56\n      jump\t// in\n    tag_93:\n        /* \"#utility.yul\":3174:3210   */\n    tag_92:\n        /* \"#utility.yul\":3026:3217   */\n      swap3\n      swap2\n      pop\n      pop\n      jump\t// out\n        /* \"#utility.yul\":3223:3443   */\n    tag_57:\n        /* \"#utility.yul\":3363:3397   */\n      0x4f6e6c79206f776e65722063616e2063616c6c20746869732066756e6374696f\n        /* \"#utility.yul\":3359:3360   */\n      0x00\n        /* \"#utility.yul\":3351:3357   */\n      dup3\n        /* \"#utility.yul\":3347:3361   */\n      add\n        /* \"#utility.yul\":3340:3398   */\n      mstore\n        /* \"#utility.yul\":3432:3435   */\n      0x6e00000000000000000000000000000000000000000000000000000000000000\n        /* \"#utility.yul\":3427:3429   */\n      0x20\n        /* \"#utility.yul\":3419:3425   */\n      dup3\n        /* \"#utility.yul\":3415:3430   */\n      add\n        /* \"#utility.yul\":3408:3436   */\n      mstore\n        /* \"#utility.yul\":3223:3443   */\n      pop\n      jump\t// out\n        /* \"#utility.yul\":3449:3815   */\n    tag_58:\n        /* \"#utility.yul\":3591:3594   */\n      0x00\n        /* \"#utility.yul\":3612:3679   */\n      tag_96\n        /* \"#utility.yul\":3676:3678   */\n      0x21\n        /* \"#utility.yul\":3671:3674   */\n      dup4\n        /* \"#utility.yul\":3612:3679   */\n      tag_53\n      jump\t// in\n    tag_96:\n        /* \"#utility.yul\":3605:3679   */\n      swap2\n      pop\n        /* \"#utility.yul\":3688:3781   */\n      tag_97\n        /* \"#utility.yul\":3777:3780   */\n      dup3\n        /* \"#utility.yul\":3688:3781   */\n      tag_57\n      jump\t// in\n    tag_97:\n        /* \"#utility.yul\":3806:3808   */\n      0x40\n        /* \"#utility.yul\":3801:3804   */\n      dup3\n        /* \"#utility.yul\":3797:3809   */\n      add\n        /* \"#utility.yul\":3790:3809   */\n      swap1\n      pop\n        /* \"#utility.yul\":3449:3815   */\n      swap2\n      swap1\n      pop\n      jump\t// out\n        /* \"#utility.yul\":3821:4240   */\n    tag_44:\n        /* \"#utility.yul\":3987:3991   */\n      0x00\n        /* \"#utility.yul\":4025:4027   */\n      0x20\n        /* \"#utility.yul\":4014:4023   */\n      dup3\n        /* \"#utility.yul\":4010:4028   */\n      add\n        /* \"#utility.yul\":4002:4028   */\n      swap1\n      pop\n        /* \"#utility.yul\":4074:4083   */\n      dup2\n        /* \"#utility.yul\":4068:4072   */\n      dup2\n        /* \"#utility.yul\":4064:4084   */\n      sub\n        /* \"#utility.yul\":4060:4061   */\n      0x00\n        /* \"#utility.yul\":4049:4058   */\n      dup4\n        /* \"#utility.yul\":4045:4062   */\n      add\n        /* \"#utility.yul\":4038:4085   */\n      mstore\n        /* \"#utility.yul\":4102:4233   */\n      tag_99\n        /* \"#utility.yul\":4228:4232   */\n      dup2\n        /* \"#utility.yul\":4102:4233   */\n      tag_58\n      jump\t// in\n    tag_99:\n        /* \"#utility.yul\":4094:4233   */\n      swap1\n      pop\n        /* \"#utility.yul\":3821:4240   */\n      swap2\n      swap1\n      pop\n      jump\t// out\n\n    auxdata: 0xa2646970667358221220dcb6c67f2750db44f6ff67eae872e043b9ca6d89dfebe2b5269d5fa4cbd2a4af64736f6c634300081a0033\n}\n",
				"bytecode": {
					"linkReferences": {},
					"object": "608060405234801561000f575f80fd5b5060405161062e38038061062e833981810160405281019061003191906100c8565b805f806101000a81548160ff0219169083151502179055503360025f6101000a81548173ffffffffffffffffffffffffffffffffffffffff021916908373ffffffffffffffffffffffffffffffffffffffff160217905550506100f3565b5f80fd5b5f8115159050919050565b6100a781610093565b81146100b1575f80fd5b50565b5f815190506100c28161009e565b92915050565b5f602082840312156100dd576100dc61008f565b5b5f6100ea848285016100b4565b91505092915050565b61052e806101005f395ff3fe608060405234801561000f575f80fd5b5060043610610060575f3560e01c806323fd0e40146100645780635c975abb146100825780638da5cb5b146100a05780639fd797a5146100be578063b78e2c43146100c8578063c17202bd146100d2575b5f80fd5b61006c6100dc565b60405161007991906102a7565b60405180910390f35b61008a6100e2565b60405161009791906102da565b60405180910390f35b6100a86100f2565b6040516100b59190610332565b60405180910390f35b6100c6610117565b005b6100d061016d565b005b6100da6101a7565b005b60015481565b5f8054906101000a900460ff1681565b60025f9054906101000a900473ffffffffffffffffffffffffffffffffffffffff1681565b5f8054906101000a900460ff1615610164576040517f08c379a000000000000000000000000000000000000000000000000000000000815260040161015b906103a5565b60405180910390fd5b60018081905550565b60015f81548092919061017f906103f0565b91905055506003600181905550600260015f82825461019e9190610437565b92505081905550565b5f8054906101000a900460ff16156101f4576040517f08c379a00000000000000000000000000000000000000000000000000000000081526004016101eb906103a5565b60405180910390fd5b338073ffffffffffffffffffffffffffffffffffffffff1660025f9054906101000a900473ffffffffffffffffffffffffffffffffffffffff1673ffffffffffffffffffffffffffffffffffffffff1614610284576040517f08c379a000000000000000000000000000000000000000000000000000000000815260040161027b906104da565b60405180910390fd5b600260018190555050565b5f819050919050565b6102a18161028f565b82525050565b5f6020820190506102ba5f830184610298565b92915050565b5f8115159050919050565b6102d4816102c0565b82525050565b5f6020820190506102ed5f8301846102cb565b92915050565b5f73ffffffffffffffffffffffffffffffffffffffff82169050919050565b5f61031c826102f3565b9050919050565b61032c81610312565b82525050565b5f6020820190506103455f830184610323565b92915050565b5f82825260208201905092915050565b7f436f6e74726163742069732070617573656400000000000000000000000000005f82015250565b5f61038f60128361034b565b915061039a8261035b565b602082019050919050565b5f6020820190508181035f8301526103bc81610383565b9050919050565b7f4e487b71000000000000000000000000000000000000000000000000000000005f52601160045260245ffd5b5f6103fa8261028f565b91507fffffffffffffffffffffffffffffffffffffffffffffffffffffffffffffffff820361042c5761042b6103c3565b5b600182019050919050565b5f6104418261028f565b915061044c8361028f565b9250828201905080821115610464576104636103c3565b5b92915050565b7f4f6e6c79206f776e65722063616e2063616c6c20746869732066756e6374696f5f8201527f6e00000000000000000000000000000000000000000000000000000000000000602082015250565b5f6104c460218361034b565b91506104cf8261046a565b604082019050919050565b5f6020820190508181035f8301526104f1816104b8565b905091905056fea2646970667358221220dcb6c67f2750db44f6ff67eae872e043b9ca6d89dfebe2b5269d5fa4cbd2a4af64736f6c634300081a0033",
					"opcodes": "PUSH1 0x80 PUSH1 0x40 MSTORE CALLVALUE DUP1 ISZERO PUSH2 0xF JUMPI PUSH0 DUP1 REVERT JUMPDEST POP PUSH1 0x40 MLOAD PUSH2 0x62E CODESIZE SUB DUP1 PUSH2 0x62E DUP4 CODECOPY DUP2 DUP2 ADD PUSH1 0x40 MSTORE DUP2 ADD SWAP1 PUSH2 0x31 SWAP2 SWAP1 PUSH2 0xC8 JUMP JUMPDEST DUP1 PUSH0 DUP1 PUSH2 0x100 EXP DUP2 SLOAD DUP2 PUSH1 0xFF MUL NOT AND SWAP1 DUP4 ISZERO ISZERO MUL OR SWAP1 SSTORE POP CALLER PUSH1 0x2 PUSH0 PUSH2 0x100 EXP DUP2 SLOAD DUP2 PUSH20 0xFFFFFFFFFFFFFFFFFFFFFFFFFFFFFFFFFFFFFFFF MUL NOT AND SWAP1 DUP4 PUSH20 0xFFFFFFFFFFFFFFFFFFFFFFFFFFFFFFFFFFFFFFFF AND MUL OR SWAP1 SSTORE POP POP PUSH2 0xF3 JUMP JUMPDEST PUSH0 DUP1 REVERT JUMPDEST PUSH0 DUP2 ISZERO ISZERO SWAP1 POP SWAP2 SWAP1 POP JUMP JUMPDEST PUSH2 0xA7 DUP2 PUSH2 0x93 JUMP JUMPDEST DUP2 EQ PUSH2 0xB1 JUMPI PUSH0 DUP1 REVERT JUMPDEST POP JUMP JUMPDEST PUSH0 DUP2 MLOAD SWAP1 POP PUSH2 0xC2 DUP2 PUSH2 0x9E JUMP JUMPDEST SWAP3 SWAP2 POP POP JUMP JUMPDEST PUSH0 PUSH1 0x20 DUP3 DUP5 SUB SLT ISZERO PUSH2 0xDD JUMPI PUSH2 0xDC PUSH2 0x8F JUMP JUMPDEST JUMPDEST PUSH0 PUSH2 0xEA DUP5 DUP3 DUP6 ADD PUSH2 0xB4 JUMP JUMPDEST SWAP2 POP POP SWAP3 SWAP2 POP POP JUMP JUMPDEST PUSH2 0x52E DUP1 PUSH2 0x100 PUSH0 CODECOPY PUSH0 RETURN INVALID PUSH1 0x80 PUSH1 0x40 MSTORE CALLVALUE DUP1 ISZERO PUSH2 0xF JUMPI PUSH0 DUP1 REVERT JUMPDEST POP PUSH1 0x4 CALLDATASIZE LT PUSH2 0x60 JUMPI PUSH0 CALLDATALOAD PUSH1 0xE0 SHR DUP1 PUSH4 0x23FD0E40 EQ PUSH2 0x64 JUMPI DUP1 PUSH4 0x5C975ABB EQ PUSH2 0x82 JUMPI DUP1 PUSH4 0x8DA5CB5B EQ PUSH2 0xA0 JUMPI DUP1 PUSH4 0x9FD797A5 EQ PUSH2 0xBE JUMPI DUP1 PUSH4 0xB78E2C43 EQ PUSH2 0xC8 JUMPI DUP1 PUSH4 0xC17202BD EQ PUSH2 0xD2 JUMPI JUMPDEST PUSH0 DUP1 REVERT JUMPDEST PUSH2 0x6C PUSH2 0xDC JUMP JUMPDEST PUSH1 0x40 MLOAD PUSH2 0x79 SWAP2 SWAP1 PUSH2 0x2A7 JUMP JUMPDEST PUSH1 0x40 MLOAD DUP1 SWAP2 SUB SWAP1 RETURN JUMPDEST PUSH2 0x8A PUSH2 0xE2 JUMP JUMPDEST PUSH1 0x40 MLOAD PUSH2 0x97 SWAP2 SWAP1 PUSH2 0x2DA JUMP JUMPDEST PUSH1 0x40 MLOAD DUP1 SWAP2 SUB SWAP1 RETURN JUMPDEST PUSH2 0xA8 PUSH2 0xF2 JUMP JUMPDEST PUSH1 0x40 MLOAD PUSH2 0xB5 SWAP2 SWAP1 PUSH2 0x332 JUMP JUMPDEST PUSH1 0x40 MLOAD DUP1 SWAP2 SUB SWAP1 RETURN JUMPDEST PUSH2 0xC6 PUSH2 0x117 JUMP JUMPDEST STOP JUMPDEST PUSH2 0xD0 PUSH2 0x16D JUMP JUMPDEST STOP JUMPDEST PUSH2 0xDA PUSH2 0x1A7 JUMP JUMPDEST STOP JUMPDEST PUSH1 0x1 SLOAD DUP2 JUMP JUMPDEST PUSH0 DUP1 SLOAD SWAP1 PUSH2 0x100 EXP SWAP1 DIV PUSH1 0xFF AND DUP2 JUMP JUMPDEST PUSH1 0x2 PUSH0 SWAP1 SLOAD SWAP1 PUSH2 0x100 EXP SWAP1 DIV PUSH20 0xFFFFFFFFFFFFFFFFFFFFFFFFFFFFFFFFFFFFFFFF AND DUP2 JUMP JUMPDEST PUSH0 DUP1 SLOAD SWAP1 PUSH2 0x100 EXP SWAP1 DIV PUSH1 0xFF AND ISZERO PUSH2 0x164 JUMPI PUSH1 0x40 MLOAD PUSH32 0x8C379A000000000000000000000000000000000000000000000000000000000 DUP2 MSTORE PUSH1 0x4 ADD PUSH2 0x15B SWAP1 PUSH2 0x3A5 JUMP JUMPDEST PUSH1 0x40 MLOAD DUP1 SWAP2 SUB SWAP1 REVERT JUMPDEST PUSH1 0x1 DUP1 DUP2 SWAP1 SSTORE POP JUMP JUMPDEST PUSH1 0x1 PUSH0 DUP2 SLOAD DUP1 SWAP3 SWAP2 SWAP1 PUSH2 0x17F SWAP1 PUSH2 0x3F0 JUMP JUMPDEST SWAP2 SWAP1 POP SSTORE POP PUSH1 0x3 PUSH1 0x1 DUP2 SWAP1 SSTORE POP PUSH1 0x2 PUSH1 0x1 PUSH0 DUP3 DUP3 SLOAD PUSH2 0x19E SWAP2 SWAP1 PUSH2 0x437 JUMP JUMPDEST SWAP3 POP POP DUP2 SWAP1 SSTORE POP JUMP JUMPDEST PUSH0 DUP1 SLOAD SWAP1 PUSH2 0x100 EXP SWAP1 DIV PUSH1 0xFF AND ISZERO PUSH2 0x1F4 JUMPI PUSH1 0x40 MLOAD PUSH32 0x8C379A000000000000000000000000000000000000000000000000000000000 DUP2 MSTORE PUSH1 0x4 ADD PUSH2 0x1EB SWAP1 PUSH2 0x3A5 JUMP JUMPDEST PUSH1 0x40 MLOAD DUP1 SWAP2 SUB SWAP1 REVERT JUMPDEST CALLER DUP1 PUSH20 0xFFFFFFFFFFFFFFFFFFFFFFFFFFFFFFFFFFFFFFFF AND PUSH1 0x2 PUSH0 SWAP1 SLOAD SWAP1 PUSH2 0x100 EXP SWAP1 DIV PUSH20 0xFFFFFFFFFFFFFFFFFFFFFFFFFFFFFFFFFFFFFFFF AND PUSH20 0xFFFFFFFFFFFFFFFFFFFFFFFFFFFFFFFFFFFFFFFF AND EQ PUSH2 0x284 JUMPI PUSH1 0x40 MLOAD PUSH32 0x8C379A000000000000000000000000000000000000000000000000000000000 DUP2 MSTORE PUSH1 0x4 ADD PUSH2 0x27B SWAP1 PUSH2 0x4DA JUMP JUMPDEST PUSH1 0x40 MLOAD DUP1 SWAP2 SUB SWAP1 REVERT JUMPDEST PUSH1 0x2 PUSH1 0x1 DUP2 SWAP1 SSTORE POP POP JUMP JUMPDEST PUSH0 DUP2 SWAP1 POP SWAP2 SWAP1 POP JUMP JUMPDEST PUSH2 0x2A1 DUP2 PUSH2 0x28F JUMP JUMPDEST DUP3 MSTORE POP POP JUMP JUMPDEST PUSH0 PUSH1 0x20 DUP3 ADD SWAP1 POP PUSH2 0x2BA PUSH0 DUP4 ADD DUP5 PUSH2 0x298 JUMP JUMPDEST SWAP3 SWAP2 POP POP JUMP JUMPDEST PUSH0 DUP2 ISZERO ISZERO SWAP1 POP SWAP2 SWAP1 POP JUMP JUMPDEST PUSH2 0x2D4 DUP2 PUSH2 0x2C0 JUMP JUMPDEST DUP3 MSTORE POP POP JUMP JUMPDEST PUSH0 PUSH1 0x20 DUP3 ADD SWAP1 POP PUSH2 0x2ED PUSH0 DUP4 ADD DUP5 PUSH2 0x2CB JUMP JUMPDEST SWAP3 SWAP2 POP POP JUMP JUMPDEST PUSH0 PUSH20 0xFFFFFFFFFFFFFFFFFFFFFFFFFFFFFFFFFFFFFFFF DUP3 AND SWAP1 POP SWAP2 SWAP1 POP JUMP JUMPDEST PUSH0 PUSH2 0x31C DUP3 PUSH2 0x2F3 JUMP JUMPDEST SWAP1 POP SWAP2 SWAP1 POP JUMP JUMPDEST PUSH2 0x32C DUP2 PUSH2 0x312 JUMP JUMPDEST DUP3 MSTORE POP POP JUMP JUMPDEST PUSH0 PUSH1 0x20 DUP3 ADD SWAP1 POP PUSH2 0x345 PUSH0 DUP4 ADD DUP5 PUSH2 0x323 JUMP JUMPDEST SWAP3 SWAP2 POP POP JUMP JUMPDEST PUSH0 DUP3 DUP3 MSTORE PUSH1 0x20 DUP3 ADD SWAP1 POP SWAP3 SWAP2 POP POP JUMP JUMPDEST PUSH32 0x436F6E7472616374206973207061757365640000000000000000000000000000 PUSH0 DUP3 ADD MSTORE POP JUMP JUMPDEST PUSH0 PUSH2 0x38F PUSH1 0x12 DUP4 PUSH2 0x34B JUMP JUMPDEST SWAP2 POP PUSH2 0x39A DUP3 PUSH2 0x35B JUMP JUMPDEST PUSH1 0x20 DUP3 ADD SWAP1 POP SWAP2 SWAP1 POP JUMP JUMPDEST PUSH0 PUSH1 0x20 DUP3 ADD SWAP1 POP DUP2 DUP2 SUB PUSH0 DUP4 ADD MSTORE PUSH2 0x3BC DUP2 PUSH2 0x383 JUMP JUMPDEST SWAP1 POP SWAP2 SWAP1 POP JUMP JUMPDEST PUSH32 0x4E487B7100000000000000000000000000000000000000000000000000000000 PUSH0 MSTORE PUSH1 0x11 PUSH1 0x4 MSTORE PUSH1 0x24 PUSH0 REVERT JUMPDEST PUSH0 PUSH2 0x3FA DUP3 PUSH2 0x28F JUMP JUMPDEST SWAP2 POP PUSH32 0xFFFFFFFFFFFFFFFFFFFFFFFFFFFFFFFFFFFFFFFFFFFFFFFFFFFFFFFFFFFFFFFF DUP3 SUB PUSH2 0x42C JUMPI PUSH2 0x42B PUSH2 0x3C3 JUMP JUMPDEST JUMPDEST PUSH1 0x1 DUP3 ADD SWAP1 POP SWAP2 SWAP1 POP JUMP JUMPDEST PUSH0 PUSH2 0x441 DUP3 PUSH2 0x28F JUMP JUMPDEST SWAP2 POP PUSH2 0x44C DUP4 PUSH2 0x28F JUMP JUMPDEST SWAP3 POP DUP3 DUP3 ADD SWAP1 POP DUP1 DUP3 GT ISZERO PUSH2 0x464 JUMPI PUSH2 0x463 PUSH2 0x3C3 JUMP JUMPDEST JUMPDEST SWAP3 SWAP2 POP POP JUMP JUMPDEST PUSH32 0x4F6E6C79206F776E65722063616E2063616C6C20746869732066756E6374696F PUSH0 DUP3 ADD MSTORE PUSH32 0x6E00000000000000000000000000000000000000000000000000000000000000 PUSH1 0x20 DUP3 ADD MSTORE POP JUMP JUMPDEST PUSH0 PUSH2 0x4C4 PUSH1 0x21 DUP4 PUSH2 0x34B JUMP JUMPDEST SWAP2 POP PUSH2 0x4CF DUP3 PUSH2 0x46A JUMP JUMPDEST PUSH1 0x40 DUP3 ADD SWAP1 POP SWAP2 SWAP1 POP JUMP JUMPDEST PUSH0 PUSH1 0x20 DUP3 ADD SWAP1 POP DUP2 DUP2 SUB PUSH0 DUP4 ADD MSTORE PUSH2 0x4F1 DUP2 PUSH2 0x4B8 JUMP JUMPDEST SWAP1 POP SWAP2 SWAP1 POP JUMP INVALID LOG2 PUSH5 0x6970667358 0x22 SLT KECCAK256 0xDC 0xB6 0xC6 PUSH32 0x2750DB44F6FF67EAE872E043B9CA6D89DFEBE2B5269D5FA4CBD2A4AF64736F6C PUSH4 0x4300081A STOP CALLER "
				},
				"gasEstimates": {
					"creation": {
						"codeDepositCost": "265200",
						"executionCost": "infinite",
						"totalCost": "infinite"
					},
					"external": {
						"fOne()": "24453",
						"fThree()": "infinite",
						"fTwo()": "26671",
						"myNumber()": "2403",
						"owner()": "2530",
						"paused()": "2463"
					}
				},
				"methodIdentifiers": {
					"fOne()": "9fd797a5",
					"fThree()": "b78e2c43",
					"fTwo()": "c17202bd",
					"myNumber()": "23fd0e40",
					"owner()": "8da5cb5b",
					"paused()": "5c975abb"
				}
			},
			"storageLayout": {
				"storage": [
					{
						"astId": 3,
						"contract": "contracts/cursoDeSolidity/Copy_18_modifiers.sol:modifiers",
						"label": "paused",
						"offset": 0,
						"slot": "0",
						"type": "t_bool"
					},
					{
						"astId": 5,
						"contract": "contracts/cursoDeSolidity/Copy_18_modifiers.sol:modifiers",
						"label": "myNumber",
						"offset": 0,
						"slot": "1",
						"type": "t_uint256"
					},
					{
						"astId": 7,
						"contract": "contracts/cursoDeSolidity/Copy_18_modifiers.sol:modifiers",
						"label": "owner",
						"offset": 0,
						"slot": "2",
						"type": "t_address"
					}
				],
				"types": {
					"t_address": {
						"encoding": "inplace",
						"label": "address",
						"numberOfBytes": "20"
					},
					"t_bool": {
						"encoding": "inplace",
						"label": "bool",
						"numberOfBytes": "1"
					},
					"t_uint256": {
						"encoding": "inplace",
						"label": "uint256",
						"numberOfBytes": "32"
					}
				}
			},
			"userdoc": {
				"kind": "user",
				"methods": {},
				"version": 1
			}
		}
	}
}